:100000000C94CC040C94E9040C94E9040C9462273D
:100010000C94E9040C94E9040C94E9040C94E904AC
:100020000C94E9040C94E9040C9428240C94002505
:100030000C9422100C94E9040C94E9040C94E90447
:100040000C94E9040C94E9040C94E9040C94E9047C
:100050000C94E9040C9404240C94E9040C94E90431
:100060000C94E9040C94E9040C94E9040C94E9045C
:100070000C94E9040C94E9040C94E9040C94E9044C
:100080000C94E9040C94E9040C94E9040C94E9043C
:100090000C94E9040C94E9040C94E9040C94E9042C
:1000A0000C94E9040C94E9040C94E90400AF00AE4C
:1000B0000000000000003E5B4F5B3E003E6B4F6B5C
:1000C0003E001C3E7C3E1C00183C7E3C18001C5729
:1000D0007D571C001C5E7F5E1C0000183C18000051
:1000E000FFE7C3E7FF00001824180000FFE7DBE785
:1000F000FF0030483A060E00262979292600407F65
:1001000005050700407F05253F005A3CE73C5A00A3
:100110007F3E1C1C0800081C1C3E7F0014227F220E
:1001200014005F5F005F5F0006097F017F000066CB
:1001300089956A0060606060600094A2FFA29400EC
:1001400008047E04080010207E20100008082A1CE5
:100150000800081C2A0808001E10101010000C1EB1
:100160000C1E0C0030383E383000060E3E0E0600E5
:1001700000000000000000005F0000000007000712
:100180000000147F147F1400242A7F2A12002313F6
:10019000086462003649562050000008070300003A
:1001A000001C224100000041221C00002A1C7F1C70
:1001B0002A0008083E080800008070300000080887
:1001C0000808080000006060000020100804020019
:1001D0003E5149453E0000427F4000007249494976
:1001E00046002141494D33001814127F1000274565
:1001F000454539003C4A4949310041211109070070
:10020000364949493600464949291E000000140074
:1002100000000040340000000008142241001414C3
:1002200014141400004122140800020159090600A8
:100230003E415D594E007C1211127C007F494949B4
:1002400036003E41414122007F4141413E007F490D
:10025000494941007F09090901003E4141517300AC
:100260007F0808087F0000417F4100002040413F97
:1002700001007F08142241007F40404040007F027F
:100280001C027F007F0408107F003E4141413E0078
:100290007F09090906003E4151215E007F091929A5
:1002A000460026494949320003017F0103003F40CF
:1002B00040403F001F2040201F003F4038403F008B
:1002C0006314081463000304780403006159494D62
:1002D0004300007F4141410002040810200000411A
:1002E00041417F00040201020400404040404000C0
:1002F0000003070800002054547840007F2844443D
:100300003800384444442800384444287F00385496
:100310005454180000087E0902001824241C780098
:100320007F080404780000447D4000002040403DE8
:1003300000007F102844000000417F4000007C0442
:10034000780478007C080404780038444444380079
:100350007C1824241800182424187C007C08040429
:10036000080048545454240004043F4424003C40F2
:1003700040207C001C2040201C003C4030403C00C1
:100380004428102844004C9090907C004464544CC5
:1003900044000008364100000000770000000041E2
:1003A000360800000201020402003C2623263C001D
:1003B00000C0F0F8F8780000000000000000F0F83D
:1003C000F0F0F0800000000080C0C08080008080DD
:1003D000C0C0E0E0E0E0E0F060000000C0E0F0F865
:1003E000F8F878787878F8F8F8F8F8F0C000387C01
:1003F0007E3E3E7E7EFEFEFEFEFEFEFEFEFEFEFE1D
:100400007C7C1880C0C0C08080000000000000809C
:1004100080C0E0F0F0F070008080C0C0800000007C
:100420000080F0E0E0F0F8F8E0E0C0C81818E0F074
:10043000F0F0E0ECEEF7F37020007C7C7C7E007E38
:100440007E7E7F7F7F000080C0E07E5B4F5BFEC0D2
:100450000000C000DCD7DEDEDED7DC00C00000001C
:10046000000000000000000000000000000000008C
:10047000FFFFFFFFE1808080C00000000080EFFFF1
:10048000FFFF7F3F00FCFFFFFFFBE387FFFFFFCF86
:1004900087C7C7C3C1C180800000007FFFFFFFE1A5
:1004A000E0C080C0C0E0F0F8FFFFFFFF7F00000069
:1004B00000003030787CFFFFFFFFEFE7EFEF8108AF
:1004C000080000E0E3C3E7FFFFFFFEFCFCFEFFFFC8
:1004D000EFE7C3C1C0C0E0FFFFFFFF3FEFFFFEFF3C
:1004E000FFFFFFFFFDEDE367FFFFFFFF2C0F0F1F77
:1004F0003F7F7F7F7F7F3F1E0C001F1F1F3F003FFE
:100500003F3F7F7F7F00307B7F7830202030787FB7
:100510003B0003000F7F0F0F0F7F0F000300000051
:1005200000000000000000000000000000000000CB
:1005300000070F0F07070F0F0F0F0F0F0F0F070702
:100540000301000001030307070707070707070761
:100550000707070707030303000000000001030764
:100560000F0F1F0F1F1F1F0F0703030100000008BD
:100570003C7C3C3C3C3C3C3C3F3F1F1F1F1F1F1F23
:100580000E00000103030303030303070707070724
:1005900007070F03030307070F0F0F0F1F1F1F1F6F
:1005A0001F1F1F1F1F0F0F0E0F0F0F070000000050
:1005B000000000000000000000000000000000003B
:1005C000000000000000000000000000000000002B
:1005D000000000000000000000000000000000001B
:1005E000000000000000000000000000000000000B
:1005F00005010902A10185020901A10005091901EE
:1006000029081500250195087501810205010930A9
:1006100009311581257F95027508810609381581F4
:10062000257F950175088106050C0A38021581257C
:100630007F950175088106C0C005010980A101856B
:100640000319012AB700150126B70095017510811D
:1006500000C0050C0901A101850419012AA0021599
:100660000126A002950175108100C005010906A1AF
:10067000018506050719E029E7150025019508758C
:100680000181020507190029EF1500250195F07574
:100690000181020508190129059505750191029549
:1006A0000175039101C005010906A101050719E0C3
:1006B00029E7150025019508750181029501750846
:1006C00081010507190029FF150026FF0095067511
:1006D00008810005081901290515002501950575F2
:1006E000019102950175039101C009023B000201CD
:1006F00000A0FA0904000001030101000921110111
:1007000000012244000705810308000109040100DB
:10071000010300000009211101000122B6000705B4
:10072000820320000112010002000000086B633800
:10073000330001010200011403630072006F0077AF
:10074000006B0062005F003300380000000E03639E
:10075000002D0062006F0074007A0000000403099D
:1007600004808182838485868788898A8B8C8D8E9C
:100770008F9091929394A0A1A2A3A4A5A6A7A8A9A3
:10078000AAABACADAEAFB0B1B2B3B4C0C1C2C3C41A
:10079000C5C6C7C8C9CACBCCCDCECFD0D1D2D3D491
:1007A000002020202000534352002020202000431E
:1007B0004150530020202020004E554D0047616DD0
:1007C0006500537973740053796D62004465660067
:1007D0004C617965720000DA0281FFD9F1DB20A457
:1007E000A62EAF00A0C0D30000A1C8D30000AED594
:1007F00080A81F408D142000000014001A0008007B
:1008000015001700292104001600070009000A003E
:1008100000001D001B00060019000500000000007C
:100820002B282C00215282740000130012000C00AF
:1008300018001C00313433000F000E000D000B00B7
:1008400000003800370036001000110000000000E2
:100850002A0028322832000000001E021F02200257
:1008600021022202E3001E001F00200021002200BE
:1008700000002300240025002600270000000000BF
:10088000010001000100010000002E0225023002DB
:100890002F022D00005734023400270226022D02B9
:1008A00000003702015730002F002E00000000002A
:1008B0000100010037000100000000003A003B0089
:1008C0003C003D00000000003E003F0040004100B1
:1008D000000000004200430044004500000000000A
:1008E000010001000100010000006352000000004F
:1008F00048004600000000004D0052004A004B0036
:10090000000000004F00510050004E0000000000A9
:10091000010001000100010000002B0014001A007A
:10092000080015000000E10004001600070009009F
:100930000000E0001D001B00060005000000000094
:10094000E2002C00290001000000635200000000BA
:10095000000000000000000000000C0013000F0069
:10096000000000000000190010001100000000004D
:100970000000000000000100A900AA00DA00D90070
:10098000A900AA00DA00D900A900AA00DA00D9005B
:10099000A900AA00DA00D90011241FBECFEFDAE0C7
:1009A000DEBFCDBF11E0A0E0B1E0E6E6F3E502C0B6
:1009B00005900D92AC3DB107D9F725E0ACEDB1E063
:1009C00001C01D92A336B207E1F70E94D31F0C9419
:1009D0005F290C9400009C01FB019A9581159F41B1
:1009E00020F5832F8170B32FB270AA27732F7470F4
:1009F0006627532F5870442734FF0DC08295807F9F
:100A0000AB2B09F08062672B09F08064452B09F05D
:100A1000806809950895AB2B09F08260672B09F077
:100A20008460452BB1F38860F4CF80E0F2CF9093DF
:100A30001B0580931A05089590931D0580931C054E
:100A4000089521E030E002C0220F331F8A95E2F7BB
:100A500080911C0590911D05822B932B0E941C05F3
:100A6000089521E030E002C0220F331F8A95E2F79B
:100A70002095309580911C0590911D05822393232C
:100A80000E941C0508959B01677091E001C0990FB9
:100A90006A95EAF763E0369527956A95E1F7220FA4
:100AA000331F220F331FFA01E20FF31F40E050E023
:100AB000682F70E08191DF019B01042E02C0369502
:100AC00027950A94E2F721702195282729232827C2
:100AD0002E934F5F5F4F4430510561F708959C019D
:100AE000982F977083E0369527958A95E1F7220F26
:100AF000331F220F331FFB01E20FF31F40E050E0D2
:100B000080E0219130E0092E02C0369527950A94A5
:100B1000E2F721703327042E01C0220F0A94EAF76E
:100B2000822B4F5F5F4F4430510559F70895282FAE
:100B3000862F983070F4263058F4622F70E026E04B
:100B4000929F600D711D112440EF54E00E944305F7
:100B500008959C5F9230E0F7622F70E04CEE54E015
:100B6000F5CF292F983068F4863090F490E060EF4C
:100B700074E036E0239F800D911D11240E946F05C3
:100B800008952C5F223020F46CEE74E090E0F6CFF4
:100B900080E008958091230590912205981301C06B
:100BA00008958F5F8770FACF90911E0580958923F5
:100BB00080931E05282F277021110DC0891759F029
:100BC0009091200592FF07C08695869586950E9494
:100BD000310510921E050895809117059091210509
:100BE000892B50911805511591F090915001911554
:100BF00021F090911F0597FD0BC096E020EE31E0AB
:100C000040E0915048F4411110921805852B089549
:100C10009EE128EE31E0F4CFF90161919F01611569
:100C200081F34F5FEECF982F909580911705892320
:100C3000809317050895E62F7830B0F46630C0F53C
:100C40008430C8F5F0E096E0799FE00DF11D1124A5
:100C500090E3899FE00DF11D1124EE0FFF1FE85076
:100C6000F84F8591959108957D3F81F4623000F5AC
:100C7000843008F5F0E0E80FF11DE80FF11DEE0FEC
:100C8000FF1FEE0FFF1FE858F64FEBCF7C3F81F4BC
:100C9000623070F4843078F4F0E0E80FF11DE80F72
:100CA000F11DEE0FFF1FEE0FFF1FE658F64FD9CFD5
:100CB00080E090E0089581E0FCCF9C01803E9105AA
:100CC00009F448C0D8F48133910509F47DC048F493
:100CD0008932910509F46DC08A9709F47CC0C90175
:100CE00008958933910551F18238910539F1C597FD
:100CF000B1F780911F0585FFF2CF29C0843E910591
:100D000009F447C048F4823E910599F1833E91056C
:100D1000A9F121EE30E0E3CF863E910509F444C00D
:100D2000873E9105E1F680911F0583FD61C090919A
:100D3000200591FF2BC024EE30E0D1CF80911F051C
:100D40008370811152C08091200583FFC8CF29E2B2
:100D500030E0C5CF80911F0580FD33C09091200504
:100D600090FFBDCF23EE30E084FFB9CF20E030E02C
:100D7000B6CF80911F0582FDF5CFB1CF80911F05C1
:100D800082FD30C09091200590FD2FC084FFA7CF39
:100D9000EDCF8091200581FFA2CF80911F0527EE26
:100DA00030E084FDE3CF9BCF80911F0583FDF7CF1B
:100DB00096CF80911F0585FD1EC08091200583FF81
:100DC0008ECF29E330E08BCF80911F0586FF87CF40
:100DD0002AE230E084CF80911F0586FF80CF21E397
:100DE00030E07DCF22EE30E07ACF20EE30E077CFDA
:100DF00026EE30E074CF25E330E071CF90911F05EF
:100E000092FF10C041E0282F2471243009F040E007
:100E100031E0282F2871283009F030E0431711F015
:100E20002CE0822793FF10C041E0282F2471243149
:100E300009F040E031E0282F2871283109F030E036
:100E4000431711F02CE082273091200530FF10C0AD
:100E500051E0282F2171213009F050E041E0282F86
:100E60002871283009F040E0541711F029E082275A
:100E700031FF10C041E0282F2171213109F040E0FD
:100E800031E0282F2871283109F030E0431711F0A4
:100E900029E0822794FD877E08951F93CF93DF93E7
:100EA0000E945D06EC01811522E5920708F055C00D
:100EB000811540E5940708F0D1C0803E910520F5EA
:100EC0008D3C910508F0A4C0883A910570F4853AEC
:100ED000910508F09AC081309105D1F10497813ACB
:100EE0009105B0F1C0E0D0E033C0885A91094B972A
:100EF000C8F7C85AD0E0CC0FDD1FCB55DE4F0990A4
:100F0000D881C02DD46424C0811550E49507C0F465
:100F1000C11580E2D80708F0B7C0C83ED105C0F0BF
:100F2000CE019A9581159F41E8F68D2F0E94FE060D
:100F3000182FCE0199270E945D06EC01D12B08C025
:100F400099270E945D06CC27DF70C82BD92BD06A69
:100F5000CE01DF91CF911F910895803842E594072B
:100F6000C8F5803652E5950708F05BC0C03482E5CD
:100F7000D807D0F4C03292E5D90708F04BC08C2FC7
:100F80008695869520E2829FC0011124C37021E0DE
:100F900030E0A90102C0440F551FCA95E2F7EA01EB
:100FA000C82BD92BDD68D4CF8C2F8695869587707A
:100FB00050E2859FC0011124C37021E030E0A901F7
:100FC00002C0440F551FCA95E2F7EA01C82BD92B7E
:100FD000DC68BECF803C52E5950758F48F71C03A6B
:100FE000D245A0F590E0982F8827EC01C46FD06A15
:100FF000AFCF805C9245809708F074CFDC2FCC2770
:10100000CC27DF71C06FD06AA3CFA497D064A0CFE4
:10101000D0659ECFCF71D0E0DC2FCC27C16FD06AD6
:1010200097CF86958695877020E2829FC001112414
:10103000C37021E030E0A90102C0440F551FCA95DA
:10104000E2F7EA01C82BD92BDA6882CF0E94FE06AC
:10105000C82FD0E0DC2FCC27D0627ACF8F710E94CE
:10106000FE0693E0CC0FDD1F9A95E1F7CC27DF70E9
:10107000282F30E084FF04C050E1859F90011124A7
:10108000C22BD32BD06964CF8D2F8F710E94FE06A7
:10109000182FCE0199270E945D06EC01D12BDCCFE1
:1010A000A0E0B0E0E6E5F8E00C949A288C01E0902E
:1010B0001C05F0901D0580911A0590911B05E82AEA
:1010C000F92ACFE0D0E0CC24C394D12CC6010C2E59
:1010D00002C0880F991F0A94E2F78E219F21892B65
:1010E00049F4219798F7B12C8B2DCDB7DEB7E9E005
:1010F0000C94B628BC2EB8018C2F0E941B060E94AF
:101100004D07019771F3F0CF0F931F93CF93FC011D
:10111000858100811181811591F0611581F0C801EF
:101120000E945008C82F682FC8010E949705B80177
:101130008C2F0E941B06CF911F910F910895C8011B
:101140000E94B105C82FF3CFCF93DF93D82FC92FBB
:101150000E9450086D2F7C2F0E941B060E944D0795
:10116000DF91CF910895FC0184818115A1F08081E8
:1011700091810E94A408282F92959F70963099F033
:1011800060F4925F9F70923030F4203FB1F038F4F9
:1011900081E0283E38F080E008959A5FF3CF81E047
:1011A000243FC9F7089591E0213F09F090E081E0E4
:1011B000283E08F080E0892B089581E0089580E0C2
:1011C0000895F894E82FE295EF70F0E041A18F7058
:1011D00021E030E0B90102C0660F771F8A95E2F77F
:1011E000CB01962F9095942391A392A1892B82A352
:1011F0007894089581E080939604089590918104F5
:10120000292F30E070918204A9014F5F5F4F437036
:1012100055277417150689F021583B4F60FB87F955
:10122000F90184839F5F93709093810480917F0480
:101230008F5F80937F0481E0089580E0089590E0BF
:101240006115E9F08D5E9E4FFC0180818F3FB1F00A
:10125000E82FE295EF70F0E041A18F7021E030E0DF
:10126000B90102C0660F771F8A95E2F7CB01962F6E
:101270009095942391A392A1892B82A308958C5ECB
:101280009E4FE2CF90E06115A9F08D5E9E4FFC016C
:1012900020812F3F91F0E22FE295EF70E05EF0E0C9
:1012A000808190E02F7002C0959587952A95E2F78E
:1012B000817008958C5E9E4FEACF80E00895FC0116
:1012C000680F791F8FEF41E39191892728E030E083
:1012D000982F990F87FF09C0892F8427215030400C
:1012E000B9F7E617F70781F70895892FF7CF282F69
:1012F00035EB2303C001112497FF04C080589109E6
:10130000892F089580589F4FFBCF80910A0580FD5B
:1013100014C081FD14C082FD16C08091090581159D
:1013200081F08E3180F420E5829FC00111246EE1AE
:1013300070E00E94D428862F089584E1089588E201
:10134000089588E0089580E5089580910A0580FD5C
:1013500017C081FD17C082FD19C080910805811555
:1013600099F0883298F428E0829FC001112468E245
:1013700070E00E94D4286115710551F0862F089500
:1013800062E0FCCF64E0FACF61E0F8CF68E0F6CF2E
:1013900081E00895FA01309709F009950895809148
:1013A000BA04811559F0E091E204F091E30430971A
:1013B00029F00190F081E02D0995089580E00895CD
:1013C000A3E0B0E0E6EEF9E00C94A1289C01809146
:1013D00030029091310282179307A1F030933102CD
:1013E00020933002E091E204F091E304309751F051
:1013F00083E089833B832A830084F185E02DCE013D
:10140000019609952396E2E00C94BD28A3E0B0E094
:10141000ECE0FAE00C94A1289C0180912E029091BE
:101420002F0282179307A1F030932F0220932E02F0
:10143000E091E204F091E304309751F084E0898375
:101440003B832A830084F185E02DCE010196099526
:101450002396E2E00C94BD2890915001911112C0A6
:10146000A0EEB1E0EFEF90E02D91821751F0EF3F49
:1014700019F4211101C0E92F9F5F9630A9F7EF3FC2
:10148000C9F4089590911F0597FFEACFE82FE695DC
:10149000E695E695803FA8F7F0E0EA51FE4F8770A9
:1014A00021E030E001C0220F8A95EAF78281822B89
:1014B000828308950E2E000CFF0BE252FE4FF8CFF0
:1014C00090915001911521F090911F0597FD0CC04E
:1014D000E0EEF1E09191891302C0DF011E9251E02C
:1014E000E63EF507B9F70895E82FE695E695E69507
:1014F000803FC8F7F0E0EA51FE4F877021E030E00E
:10150000A90102C0440F551F8A95E2F7CA018095D0
:1015100092818923828308952FB7F8946091A4045F
:101520007091A5048091A6049091A7042FBF0895FF
:10153000CF92DF92EF92FF928091BA04811559F019
:101540000E948C0A6B017C01C701B601FF90EF90ED
:10155000DF90CF9008950E948C0AC090BC04D09078
:10156000BD04E090BE04F090BF04C60ED71EE81E76
:10157000F91EEACF87E797E7909301088093000868
:1015800088E19AE00FB6F894A895809360000FBEAA
:1015900090936000FFCF80912D020895FC019B0184
:1015A00080912302909124028617970740F0672BC1
:1015B00029F48091E8008E778093E800C90140E02B
:1015C000009741F4411106C08091E80082FF2FC0CE
:1015D00080E0089520916D042115A9F12530A9F12D
:1015E0002091E80023FD2DC02091E80022FDECCFE2
:1015F0002091E80020FFE4CF3091F3002091F20029
:10160000009719F02830310558F041E028303105B5
:1016100009F040E02091E8002E772093E800D0CF39
:1016200041914093F10001972F5F3F4FE9CF8091A7
:101630006D04811541F0853041F08091E80083FF11
:10164000C3CF81E0089582E0089583E008958091FA
:101650001D0287FF13C08091E80082FF06C08091C1
:10166000E8008B778093E800089580916D048111E4
:10167000F2CF089580916D048115D9F38091E8002F
:1016800080FFF8CF8091E8008E77ECCF2091E400C6
:101690003091E50095E6A9012091EC00822F817040
:1016A00020FF06C08091E80080FF06C080E008951A
:1016B0002091E80022FD1AC080916D04811589F007
:1016C000853089F08091EB0085FD0FC02091E4000A
:1016D0003091E50042175307F9F29A95E1F684E05C
:1016E000089582E0089583E0089581E00895E8ED8B
:1016F000F0E080818E7F80831092E2001092DA0009
:101700001092E100A0EEB0E08C9181608C9380811A
:101710008F77808319BCA7EDB0E08C918E7F8C937E
:1017200080818F7E808310921C020895982F909361
:10173000E900891771F07091EC002091ED00509153
:10174000F00021FD09C09F5F973089F78093E90081
:101750000895762F242F50E03091EB003E7F309398
:10176000EB003091ED003D7F3093ED003091EB00C8
:1017700031603093EB007093EC002093ED005093B8
:10178000F0002091EE0027FDDECF0895A0E0B0E04C
:10179000ECECFBE00C949B28C8EDD0E088818F7EB8
:1017A0008883E7EDF0E080818160808384E082BF00
:1017B00081E080931C0288818E7F888302EE10E096
:1017C000F80110821092DA0081EEC82ED12CF601B9
:1017D000108288818F778883888180688883888158
:1017E0008F7D888319BC10926D0410921B02109299
:1017F0006C0410921A0290EEE92EF12CF701808110
:101800008B7F808388818160888342E060E080E014
:101810000E94960BF60180818E7F8083F801808183
:1018200081608083808188608083F70180818E7FE2
:101830008083888180618883CDB7DEB7E8E00C942F
:10184000B728E09123059091220527E0E91302C013
:1018500080E00895AE2FB0E02E9FF0011124EC5DE2
:10186000FA4F3181361306C03081381303C03581F9
:10187000341304C0FD013196E770E8CF81E008958C
:101880000F931F93CF93DF938B01EA0190916D0427
:10189000943059F58093E9008FEF9091E80095FD21
:1018A00006C095ED9A95F1F700008A95B1F7809101
:1018B000E80085FF1AC00E94460B811111C080917B
:1018C000E80085FD06C08091E8008E778093E800EF
:1018D000F2CFF80181918F018093F100219779F780
:1018E0008091E8008E778093E800DF91CF911F917F
:1018F0000F910895CF93DF93D82FC92F48E050E080
:10190000682F792F81E00E94400C88E0ED2FFC2F9A
:10191000A5E2B2E001900D928A95E1F7DF91CF91B7
:101920000895BC0140E250E082E00E94400C08951E
:10193000BC0146E050E082E00E94400C0895BC01EA
:1019400043E050E082E00E94400C0895A0E0B0E047
:10195000ECEAFCE00C949928182F092FB62EA72E3C
:101960007A01809110029AE0C92ED12C8A3018F0A9
:10197000CC24C394D12CC1E0D0E06B2D7A2D812FE3
:10198000902FF7010995811116C02196CC16DD061E
:1019900094F0CC9FC001CD9F900D900D112420E0BC
:1019A00030E045E34A95F1F700002F5F3F4F2817DD
:1019B0003907B9F7E2CFCDB7DEB7EAE00C94B52826
:1019C0009091200592FB222720F9281779F080FBBF
:1019D00092F99093200560911F057091200584E095
:1019E00090E00E94492982E00E94D40508958091E8
:1019F0005001811559F180911F0587FF27C00E9472
:101A0000EC058093E70140E250E062EC74E086EE82
:101A100091E00E94F728892BC1F080E2E6EEF1E028
:101A2000A2ECB4E001900D928A95E1F7E091E20416
:101A3000F091E304309749F086E08093E60104805A
:101A4000F581E02D86EE91E0099508950E94EC0560
:101A50008093DE0148E050E064EE74E08EED91E0AA
:101A60000E94F728892B89F388E0EEEDF1E0A4EEDF
:101A7000B4E001900D928A95E1F7E091E204F091D3
:101A8000E304309711F30280F381E02D8EED91E0B5
:101A9000DBCF811539F090911705892B80931705BD
:101AA0000E94F70C0895811539F090912105892B3A
:101AB000809321050E94F70C0895811521F00E9462
:101AC00013060E94F70C0895811541F080959091BE
:101AD00021058923809321050E94F70C0895CF9357
:101AE000DF93EC014A855B856E857F850E94CA097C
:101AF0009B819095809121058923809321058C817C
:101B00000E9413060E94F70C86E0FE0111928A954E
:101B1000E9F7DF91CF910895CF93DF93EC018D81A9
:101B200081FD17C082608D83809121059B81892B67
:101B300080932105809117059C81892B809317053F
:101B40000E94F70C488559856E857F85CE010E94DD
:101B5000CA0910921205109211058D8180FD03C0F3
:101B6000CE010E946F0DDF91CF910895A1E0B0E00A
:101B7000ECEBFDE00C949328462E4A01522EC32E26
:101B80005701682E880F7708C3010E940928D82EB4
:101B9000811509F475C0C30133E0880F991F3A9588
:101BA000E1F7FC01E05EFE4F2381422F50E021155A
:101BB00011F041E050E0805E9E4FFC016481758130
:101BC00068557B4FCE0101960E940429F4014081A3
:101BD0005181628173812FB7F8948091A404909110
:101BE000A504A091A604B091A7042FBF841B950B58
:101BF000A60BB70B84369105A105B10538F4B501E4
:101C0000C8010E945F0999818917D1F1E42C042C45
:101C1000000CFF08C7010E940928D82E811106C0B8
:101C2000D12C8D2D2196E0E10C94AF28C70123E043
:101C3000880F991F2A95E1F7FC01E05EFE4F238192
:101C4000422F50E0A216B10408F4A501805E9E4F19
:101C5000FC016481758168557B4F852D9C2D0E9408
:101C60000429B501C8010E945F0999818913D8CF61
:101C70000E948C0AF4016083718382839383D1CFA5
:101C8000A501B801852D9C2D0E940429CACFA4E08E
:101C9000B0E0EDE4FEE00C949B286B0184E0E82EBC
:101CA000F12C09EA14E09E012F5F3F4F40EA54E017
:101CB00061E080E00E94B60D811561F049815A8192
:101CC0006B817C8140939C0450939D0460939E049F
:101CD00070939F0440919C0450919D0460919E04D8
:101CE00070919F04F601408351836283738324962D
:101CF000E8E00C94B728A8E0B0E0E1E8FEE00C943E
:101D00009D2888E0E82EF12C0EEA14E09E012F5F5A
:101D10003F4F48E954E063E082E00E94B60D182F7F
:101D2000811589F19091AD0480919704981759F12C
:101D300000E09091B1048091B0048917F1F0E92F8F
:101D4000F0E0E455FB4F868187FB662760F99F5FD3
:101D500093709093B1049091AF049F5F9093AF0400
:101D60008F770E94FE08082F8111E3CF84E090E076
:101D70000E940928102F182302C00111F7CF80916B
:101D8000AD0480939704812F2896E6E00C94B9283F
:101D9000A4E0B0E0EEECFEE00C94A02840919204A8
:101DA0005091930460919404709195042FB7F89426
:101DB0008091A4049091A504A091A604B091A704D9
:101DC0002FBF841B950BA60BB70B11E08436910532
:101DD000A105B10578F10E94980ADC01CB010296B9
:101DE000A11DB11D89839A83AB83BC838091490176
:101DF00090914A0188559B4F20914801422F50E015
:101E0000253010F044E050E0BE016F5F7F4F0E942C
:101E1000042985E090E00E940928182F811551F0CF
:101E20000E948C0A609392047093930480939404AC
:101E300090939504812F2496E3E00C94BC28AB0189
:101E400024E630E0BC0188E70E9425269C0181E061
:101E5000232B09F080E0089580916404811569F0D6
:101E600080916304811549F062E070E08EEA90E0B1
:101E70000E941F0F811110926304089580916404E1
:101E80008115F9F00E948C0ADC01CB01805A954142
:101E9000AF4FBF4F8093650490936604A09367048F
:101EA000B09368048091630481110BC062E070E01C
:101EB0008CEA90E00E941F0F811519F081E0809359
:101EC00063040895CF93DF93682F81E06A3019F09F
:101ED0006D3031F480E00E94E20FDF91CF910895E0
:101EE000809160029091610226E0FC01A3E1B2E0E2
:101EF00001900D922A95E1F7603E08F458C026E063
:101F0000FC0111922A95E9F7C0916002D09161021B
:101F100046E050E0BE0183E192E00E94F7289E0176
:101F200022563240892B41F1C90145E096958795AB
:101F30004A95E1F741E050E0BA0102C0660F771F11
:101F40008A95E2F7CB0160915E0270915F02862B69
:101F5000972BB9016B5F7F4FE5E076956795EA9522
:101F6000E1F702C0440F551F6A95E2F7842B952BC9
:101F700090935F0280935E022A5F3F4F4091690415
:101F8000642F70E0C9010E947D28481B463010F480
:101F9000240F311D211572E0370710F020E030E0EA
:101FA0002E593D4F309361022093600296CFF6E0A8
:101FB0006F9FB001112460557F4F46E050E00E94B2
:101FC000EE28A2CFCF93382FE0916002F09161020A
:101FD000E256F24020916904622F70E0CF010E9426
:101FE0007D28281B822F311561F066E00E94C828E9
:101FF000C82FC15010F4CF91089580E20E94620F63
:10200000F8CF8E0F9F2F911D811522E0920710F0BF
:1020100080E090E08E599D4F909361028093600222
:10202000EACFCF93DF93EC01FE018491811106C0CA
:1020300081E00E94E20FDF91CF9108950E94620F2C
:102040002196F2CF1F921FB61F9211248F939F9358
:10205000AF93BF9380916B04811113C08091A4044E
:102060009091A504A091A604B091A7044196A11D4A
:10207000B11D8093A4049093A504A093A604B093EB
:10208000A704BF91AF919F918F911F901FBE1F908A
:1020900018952FB7F8948091A4049091A504A0916D
:1020A000A604B091A7042FBF08950E944910209163
:1020B0000D0530910E05232B211521F080938F04FF
:1020C0009093900420910F0530911005232B21153A
:1020D00021F080938D0490938E04E091E204F091BE
:1020E000E304309749F082E080930B050680F78186
:1020F000E02D8BE095E00995089520910D059091D4
:10210000100530910F05611509F458C040910E0576
:10211000242B292B232B211531F098E090930905CE
:1021200091E090930805E3E3E80FE33150F4F0E029
:10213000EF59F64D0C94E8280E948509819580930B
:102140000E050E94551008950E948509F8CF0E943F
:102150008509819580930D05F4CF0E948509FACFFA
:102160000E94A50980930F05ECCF0E94A5098195D7
:10217000F9CF0E94A509819580931005E2CF0E94B6
:10218000A509FACF815D990B21E030E001C0220F53
:102190008A95EAF780910C05822B80930C05D1CFAC
:1021A00080910A05816080930A05CBCF80910A0552
:1021B0008260F9CF80910A058460F5CF8D3C59F497
:1021C00080910E0587FF0DC010920E05211559F460
:1021D0001092090508C08E3C81F480910E051816F6
:1021E0009CF3211581F080910F0590911005892BAA
:1021F0008111A7CF10920805A4CF8F3C41F427FF8F
:10220000F0CF10920D0580910E058115E0CF803D35
:1022100019F41216B4F3E5CF893D29F413160CF71F
:1022200010920F05DECF8A3D19F437FFDACFF8CFD1
:102230008B3D29F497FFD5CF10921005D2CF8C3D5E
:1022400019F41916CCF3CDCF9FE2980F983090F483
:10225000815D990B41E050E0BA0102C0660F771F23
:102260008A95E2F7CB01809590910C0589238093A4
:102270000C05B7CF8D3D31F480910A058E7F809398
:102280000A05AFCF8E3D21F480910A058D7FF7CFEF
:102290008F3D09F0A6CF80910A058B7FF0CFCF93B9
:1022A000C82F8115D9F08CEF8C0F813AA8F5809159
:1022B0005001811521F080911F0587FD11C0E0EECE
:1022C000F1E086EE91E02191C21701F18E179F0790
:1022D000D1F78C2F0E942C0A0E94F70CCF91089501
:1022E000EC2FE695E695E695F0E0EA51FE4F828107
:1022F00090E04C2F477021E030E002C0220F331FE6
:102300004A95E2F782239323892B19F38C2F0E949D
:10231000600A0E94F70CDDCF80E28C0F883068F4F1
:10232000C77081E090E001C0880FCA95EAF7C091BC
:102330001705C82BC0931705CFCF8BE58C0F8330C3
:1023400038F42C2F2452330BC9010E94E009C6CF68
:10235000E8E5EC0FEB3150F4F0E0EE0FFF1FEB552A
:10236000FE4F808191810E94060AB8CF83E38C0FD3
:10237000833108F0B3CF61E08C2F0E947D10AECF87
:10238000CF93DF93EC01805E9109089720F063E51D
:102390007DE0209711F469E47DE0CE010E94EB041A
:1023A0008C2F0E944F11DF91CF910895CF93DF932F
:1023B000EC01FB018A81823039F4828193810E9491
:1023C000C0118D8182608D83DF91CF910895FB01D3
:1023D000808191810E94C0110895811581F19CEF47
:1023E000980F913A28F40E94600A0E94F70C089511
:1023F00090E2980F983050F4877091E001C0990FE7
:102400008A95EAF7892F0E941306EFCF9BE5980F74
:10241000933028F480E090E00E94E009089598E568
:10242000980F9B3128F480E090E00E94060A0895FE
:1024300093E3980F933118F460E00E947D100895A3
:10244000CF93DF93EC010E94ED11CE01805E9109E4
:10245000089720F064E67DE0209711F46DE57DE0BB
:10246000CE010E94EB04DF91CF910895FB01DC01C6
:1024700012968C91813029F4808191810E942012E2
:1024800008958230E9F782819381F8CF1092170581
:1024900080915001811539F180911F0587FF23C07C
:1024A000E8EEF1E08EE1DF011D928A95E9F780E028
:1024B00090E00E94E00980E090E00E94060A1092FD
:1024C00021050E94F70C86E0EBE0F5E0DF011D92AC
:1024D0008A95E9F7109209051092080510920A05ED
:1024E0000E9455100895E0EEF1E086E0DCCF0E94F6
:1024F00046122FEF84E39CE0215080409040E1F7AA
:1025000000C0000088E19AE00FB6F894A895809387
:1025100060000FBE90936000FFCFAAE2B0E0E3E955
:10252000F2E10C94A0288DE192E0FC01019620914B
:10253000F100208322E085329207B9F780911E02D4
:10254000893009F456C0C8F4823009F4B2C083302F
:1025500009F481C0813071F18091E80083FFE6C009
:1025600080911D0290911E029A3008F0DFC0E92F81
:10257000F0E0EC58F64D0C94E8288A3009F488C055
:102580008B3051F780911D02813231F78091210209
:1025900090912202892B01F78091E800877F809338
:1025A000E8000E94270B80911F02809350010E9437
:1025B0004612D2CF80911D02813A71F68091E800D7
:1025C000877F8093E8008091210290912202892BDD
:1025D00061F060E080E090E070E00E94CE0A8091BF
:1025E000E8008B778093E800B7CF68E085E292E05F
:1025F000F3CF80911D02813209F0AECF809121028C
:1026000090912202029708F0A7CF8091E800877F7F
:102610008093E8008091E80082FF18C09091F30059
:102620008091F200029731F48091F100813011F035
:10263000863021F48091F10080932D028091E80092
:102640008B778093E8000E94270B86CF80916D04E2
:102650008111E0CF81CF80911D02813A09F07CCFBA
:102660008091210290912202892B09F075CF8091EF
:10267000E800877F8093E8008091E80080FFFCCF2E
:10268000809150018093F1008091E8008E77D9CF3E
:1026900080911D02813209F05FCF8091E800877F31
:1026A0008093E8000E94270B8091200280931902FA
:1026B00053CF80911D02813A09F04ECF8091E800FE
:1026C000877F8093E8008091E80080FFFCCF8091B5
:1026D0001902D8CF803889F0823841F580912102E3
:1026E0008F70873018F58093E9008091EB0085FBAF
:1026F000882780F91092E90006C080916C04880F49
:1027000090911A02892B9091E800977F9093E800AE
:102710008093F1001092F1008091E8008E7723C041
:10272000811116C080911F02813011F18091E80063
:1027300083FF0AC08091E800877F8093E800809142
:10274000EB0080628093EB00AA96E3E00C94BC2837
:10275000823061F780911F02811589F01092E900A3
:102760008091E800877F8093E8000E94270BDECFEE
:1027700081E0933009F080E080936C04EFCF80918A
:1027800021028F702FEF280F263080F68093E9000A
:102790002091EB0020FFE2CF933031F48091EB00E9
:1027A00080628093EB00DACF9091EB009061909380
:1027B000EB0021E030E0A90102C0440F551F8A95CB
:1027C000E2F74093EA001092EA008091EB00886003
:1027D000E8CF8111ABCF10911F021F778091E300EA
:1027E0008078812B8093E3008091E800877F80933D
:1027F000E8000E94270B8091E80080FFFCCF8091C9
:10280000E30080688093E30083E0111101C082E05F
:1028100080936D048BCF8058823008F087CF209151
:102820001F02309120022C3D53E0350799F583E0DB
:102830008A838AE289834FB7F894DE01139620E0F9
:102840003EE051E2E32FF0E050935700849120FFE7
:1028500003C082958F703F5F8F708A30C8F0895CAB
:1028600090E08D939D932F5F243161F74FBF80914E
:10287000E800877F8093E8006AE270E0CE0101966D
:102880000E94CE0A8091E8008B778093E8004ECFBB
:10289000805DE6CF832F99278330910529F160F47D
:1028A0008130910509F475C0029709F03FCF8BE3A1
:1028B00090E0EAEEF6E02CC0209121023091220255
:1028C0008132910509F459C0829709F02FCF211563
:1028D000310509F468C02130310509F027CF86EBB6
:1028E00090E0E0EFF5E014C0C90199272130A9F18B
:1028F00082309105D1F1892B09F018CFEDE5F7E091
:10290000E4918E2F90E0EDE5F7E0009709F40ECF0B
:102910002091E800277F2093E80020912302309146
:1029200024028217930708F49C0140E02115310529
:1029300009F03EC041113CC08091E80082FDA2CF69
:1029400080916D04811509F49DCF853009F49ACFEB
:102950008091E80083FFF0CF95CFEDE4F7E0E491BC
:102960008E2F90E0EDE4F7E0D0CFE7E3F7E0E491DD
:102970008E2F90E0E7E3F7E0C8CF2115310571F025
:102980002130310509F0D2CE89E090E0E5E1F7E0B1
:10299000BFCF82E190E0E5E2F7E0BACF89E090E0D6
:1029A000ECEFF6E0B5CF84E490E0E6EAF6E0B0CFF5
:1029B00080916D04811509F465CF853009F462CFEB
:1029C0008091E80083FD5ECF8091E80082FDB4CF66
:1029D0008091E80080FFAACF9091F3008091F200EF
:1029E0002115310519F08830910550F041E0089724
:1029F00009F040E08091E8008E778093E80096CF60
:102A000044914093F1003196215031090196E8CF6D
:102A1000803809F08BCE8091E800877F8093E800B2
:102A200080911B028093F10077CE81117FCE1091AF
:102A30001F02123008F07ACE8091E800877F8093E1
:102A4000E80010931B020E94270B111581F084E00F
:102A500080936D0442E061EC81E00E94960B42E2BB
:102A600061EC82E00E94960B80916D045FCE8091B4
:102A7000E30087FDECCF81E0EBCF9C014FB7F894EA
:102A80008091A4049091A504A091A604B091A704FC
:102A90004FBF821B930B08952F923F925F926F92CC
:102AA0007F928F929F92AF92BF92CF92DF92EF92DE
:102AB000FF920F931F93CF93DF938091640481154E
:102AC00009F48BC080915202909153020E943D15EF
:102AD000C29708F462C00E944910909353028093F9
:102AE000520282E692E090936102809360028091AC
:102AF000BB04811509F48CC080ED97E00E94111091
:102B000030911C0520911D05822F90E0211125C0D8
:102B1000832F922FAC0174E0569547957A95E1F793
:102B20004115510511F02C5FCA01AC01569547952E
:102B3000569547954115510511F02E5FCA0196959E
:102B40008795820F823009F45DC048F4811157C027
:102B50008CEC97E00E94111005C028E0DBCF833099
:102B600009F453C00E94CF09C82F89EB97E0C0FD3C
:102B700002C084EB97E00E9411108FEA97E0C1FD3C
:102B800002C08AEA97E00E94111086EA97E0C2FD2F
:102B900002C081EA97E00E94111080915E0290913C
:102BA0005F02892B09F041C0809163048115A9F06F
:102BB0000E948C0A009165041091660420916704BC
:102BC00030916804601B710B820B930B6F3F7F4F3A
:102BD0008F4F9F4710F40E942C0FDF91CF911F91D0
:102BE0000F91FF90EF90DF90CF90BF90AF909F90AC
:102BF0008F907F906F905F903F902F90089587EC1B
:102C000097E0A8CF82EC97E0A5CF8DEB97E0A2CF1D
:102C1000E1E6F7E08491EF01811509F4BECF0E944F
:102C2000620F2196FE018491F7CF80916404811593
:102C300009F4BACF809162048111B6CF0E943E0F91
:102C400020915E0230915F022115310509F4ACCF6D
:102C500010E041E050E0812F90E01A01012E02C007
:102C6000220C331C0A94E2F7B10162237323672B11
:102C700011F41F5FF0CF20916A0420FF94C0912FC0
:102C8000990F990F990F37E0390F80E023E0909367
:102C90000E018093110130930F012093120124E65D
:102CA00030E047E050E06CE071E088E70E94D62514
:102CB000892B09F079CFF0E21F9FA00111248091A8
:102CC0006A0480FF7CC0E2E3F2E080E2DF011D9253
:102CD0008A95E9F7A5E8B1E001E811E089E8C82E96
:102CE00081E0D82E97E0592E772473948D91E801D6
:102CF00029918E01240F352F311D2E593D4FE82F7C
:102D0000F0E0EE5CFD4F80E090E0652C681A872CC7
:102D1000082E01C0880C0A94EAF77901A12CE7017A
:102D2000B9907E01B820662D6A19677070E0DB2DBE
:102D3000062E01C0DD0F0A94EAF79D2E719561956C
:102D400071096770772701C0B6946A95EAF79B28E6
:102D50006081962A9082A39468E0A612E0CF019643
:102D600031968830910589F6CA16DB0609F0BECF88
:102D700004E610E020E230E042E352E060E488E75D
:102D80000E947026892B09F00FCFE101C095D095E4
:102D900080915E0290915F028C239D2390935F024D
:102DA00080935E0201CF9695879596958795282FFB
:102DB000912F9295990F90763FE1390F68CF4E5938
:102DC0005D4F04E610E020E230E0D8CFFF920F9391
:102DD0001F93CF93DF93C62FD42F122F8115A9F005
:102DE000609315050E94491090931202809311027E
:102DF000C77081E001C0880FCA95EAF70E94490DAB
:102E0000CDB7DEB7E5E00C94BA28809115056813BC
:102E100033C080911102909112020E943D15883CAE
:102E2000910550F500E20D0FCD17A9F0C770FF24F2
:102E3000F3948F2D01C0880FCA95EAF70E945D0DAB
:102E4000083048F48D2F877001C0FF0C8A95EAF78F
:102E50008F2D0E94490D812F0E944F11812F0E94BA
:102E6000ED11083068F6D77081E001C0880FDA955F
:102E7000EAF70E945D0DC4CFC77081E001C0880FE2
:102E8000CA95EAF7F6CFA0E0B0E0E9E4F7E10C94E8
:102E90009B287C01DC0114968C91811509F4D5C026
:102EA00061E0C7010E948408EC01F701858181156A
:102EB00019F180911105909112050097E9F0C8175A
:102EC000D907D1F0992724E0880F991F2A95E1F7B7
:102ED000FC01EA5AFE4F2081246020838F5A9E4FC6
:102EE000DC01CD93DC930E948C0D1092210561E0F2
:102EF000C7010E948408EC01CE019755FE0181159F
:102F0000914008F079C0FF2794E0EE0FFF1F9A95DB
:102F1000E1F78F010F5A1E4FD70115968C91EA5A8F
:102F2000FE4F908180FB90F99083811509F448C091
:102F30000E9449109093140580931305F801828133
:102F40008F5F82838091210590911705892B838360
:102F50008091180584834681578166857785C801ED
:102F60000E94CA09D80115968C9181FD26C09C2F1C
:102F70008D2F9093110580931205D70115968C9192
:102F8000811509F4DDC310921505CE019057839782
:102F900008F0E3C384E090E00E9415299093200597
:102FA00080931F05FE01E150F047E232F10508F081
:102FB00065C0E258F64D0C94E82890E080E0D9CF47
:102FC000F8014485558566857785C8010E94CA0940
:102FD000D80115968C9181FFD0CFC8010E946F0D4A
:102FE0008091110590911205C817D90731F61092FA
:102FF000120510921105C1CFE851FC47E730F105E9
:1030000008F0BBCFE056F64D0C94E82826E241EEDE
:1030100061EEF701858106C027E245EE65EED70136
:1030200015968C910E94E61680911E058770811579
:1030300061F0D70115968C91811539F080912005AA
:1030400082FF03C082E00E94D405CDB7DEB7E8E07E
:103050000C94B72826E241EE60EEDBCF27E245EE86
:1030600064EEDDCF26E241EE62EED3CF27E245EEFD
:1030700066EED5CF28E241E065EECBCF80911F050B
:10308000816080931F0560911F057091200584E089
:1030900090E00E9449290E944612C6CF80912005E7
:1030A000886080932005EFCF80911F058260E9CF73
:1030B00080911F058460E5CF80911F058860E1CF76
:1030C000809120058160EDCF809120058260E9CF5D
:1030D00080911F058061D5CF80911F058062D1CF7F
:1030E00080911F058064CDCF0E94461280911F05FC
:1030F0008068C7CF80911F058C60C3CF8091200569
:103100008360CFCF80911F058E7FBBCF809120053C
:10311000877FC7CF80911F058D7FB3CF80911F051B
:103120008B7FAFCF80911F05877FABCF809120052C
:103130008E7FB7CF809120058D7FB3CF80911F0503
:103140008F7E9FCF80911F058F7D9BCF80911F0524
:103150008F7B97CF0E94461280911F058F7791CF6A
:1031600080911F05837F8DCF809120058C7F99CF23
:1031700080911F05992782FF939590FB82F990FB20
:1031800083F97FCF80912005982F909590FB80F94F
:1031900090FB81F986CF90911F05892F8F7B96FF39
:1031A00080646FCF0E94461290911F05892F97FB74
:1031B00087F9805866CF61E08EE090E00E942B296D
:1031C00062CF60E0F9CF90911F05892F8F7E94FF29
:1031D000806157CF90911F05892F8E7F90FF81606E
:1031E00050CF90912005892F877F93FF886059CF1A
:1031F00089E2C5C289E2AEC2CA35BCE7DB0709F481
:1032000086C008F05EC0C130FCE7DF0709F47DC06E
:10321000C3302CE7D20709F472C0C115DC4709F4AA
:1032200061C0F701858100811181811509F473C0A6
:10323000C8010E945008C82F682FC8010E94970536
:10324000B8018C2F0E941B060E944D07D82FC92F52
:10325000D7011596DC9015971696CC90C2948FE006
:10326000C82280911E0587708115F9F00D2DD114AB
:10327000E9F0892F807F803461F080E28D0F883003
:10328000A0F0892F807E803221F4D23070F0C114FA
:1032900061F08091200582FF08C082E00E94D40581
:1032A00080911E05877001E0811100E0EC2FE2950E
:1032B000EF70C03C08F095C0F0E0E955F64D0C9475
:1032C000E828CB358CE7D80721F180912005002430
:1032D00082FF0394802DCC35DC4709F0A2CF0E94F9
:1032E000E00C9FCF0E944612AFEFB4E3ECE0A15098
:1032F000B040E040E1F700C000000E94BA0A6FEF62
:103300007FEF80E090E00E9449290E94771281E0DF
:10331000E6CF80E0E4CFC8010E94B105C82F90CF6E
:103320001C2F1F70C03110F01295107FD114B9F00E
:10333000111569F080E28D0F883010F0D11109C0AD
:1033400080911705812B809317050E94F70C8D2F14
:1033500040C080912105812B80932105F6CF8D2FD0
:103360000E94ED111115E9F180E28D0F883010F007
:10337000D11104C0812F0E94130606C010958091C0
:1033800021058123809321050E94F70C2AC01C2F60
:103390001F70C07FC03211F01295107FD11549F017
:1033A000D13009F46CC0D11409F478C0C114D1F142
:1033B000CECF8091200582FD31C0D11469F0111566
:1033C00039F080911705812B809317050E94F70C27
:1033D00080E00E944F1105C080E00E94ED111111A4
:1033E000C9CF0115B1F080911E0580FD12C0D70133
:1033F00015961C928695869586950E942105C70193
:103400000E94431780911E058695869586950E9499
:10341000310560E0C7010E94840817CED11499F0ED
:10342000C11004C0812F0E94490DDBCFB1E0CB1247
:10343000D8CF80911805912F9823191791F2812BDD
:1034400080931805CECFC110CCCF812F0E945D0D87
:1034500090911805812F8923811529F0812F80955E
:1034600089238093180580911905912F9823911530
:1034700009F4B7CF1095182310931905B2CFD114C2
:1034800029F0E6E0CE1608F0ACCFCCCFF5E0CF16B1
:1034900008F0A7CF812F0E945D0DA3CFC114D1F3F7
:1034A000D93349F42FEF37EE83E02150304080408C
:1034B000E1F700C000008D2F0E94ED1192CF8C2FFC
:1034C000869586958370811569F0813009F089CFE2
:1034D0008D2F9C2F9370D11002C080E090E00E944D
:1034E000060A7FCF8D2F9C2F9370D11002C080E0F1
:1034F00090E00E94E00975CF6D2D8D2F0E947D1008
:1035000070CF8C2F8370811142C0D1102FC04D2FEE
:10351000429546954770440F440F2D2F2F7030E091
:10352000042E02C0220F331F0A94E2F780E090E0DD
:10353000D4FF09C08FE090E002C0880F991F4A9520
:10354000E2F780959095C695C695C370C230B1F0EC
:10355000C33089F040911A0550911B05C13049F0E4
:10356000822B932B842395230E9417050E94CF0959
:1035700038CF242B352B822B932BF6CF822B932BFA
:1035800020911A0530911B0582279327EDCFD11486
:1035900091F1C0FFEBCF4D2F429546954770440FF8
:1035A000440F2D2F2F7030E0042E02C0220F331F46
:1035B0000A94E2F780E090E0D4FF09C08FE090E049
:1035C00002C0880F991F4A95E2F780959095C6959D
:1035D000C695C370C230C1F0C33099F040911C054C
:1035E00050911D05C13059F0822B932B84239523D4
:1035F0000E941C05BBCF823008F4B8CFCCCF242B5F
:10360000352B822B932BF4CF822B932B20911C05EF
:1036100030911D0582279327EBCFCF70D11439F05D
:103620008C2F0E9421058D2F0E94490D9FCF8D2F39
:103630000E945D0D8C2F0E94310598CFD23FB1F1D1
:1036400070F4D03FC9F0D13F91F0D11409F464C0B7
:10365000C11409F45EC08D2F0E944F1187CFD33F54
:1036600061F1D43F91F78091200582FD34C08C2F09
:103670008F71D11401F31EC0D114A9F095E0C916C1
:1036800008F074CFCF7181E090E0DC0102C0AA0F96
:10369000BB1FCA95E2F7ED0180911C0590911D05B5
:1036A0008A279D27A5CFB6E0CB16EACF8C2F8F7146
:1036B000D110C1CF0E94210559CF80E090E0D114F4
:1036C00009F496CFCF7181E090E002C0880F991F76
:1036D000CA95E2F78DCFD11489F0CF718C2F0E945B
:1036E00021058091200582FF07C08C2F880F880F4D
:1036F000880F836080931E058C2FDCCF81E00E94B1
:10370000D405E2E0CE1608F431CF82E00E94D40561
:103710002DCF8C2F8F71CECFC11479F0D93349F4CE
:10372000FFEF27EE33E0F15020403040E1F700C0DA
:1037300000008D2F0E94ED1119CF8C2F8F717BCF40
:10374000C631DC4709F06DCD80911605811509F46D
:1037500051CD85E30E94600A14C0C631ECE7DE0754
:1037600009F04ACD809117058A7A91E0811101C054
:1037700090E090931605811509F43ACD85E30E94F7
:103780002C0A0E94F70C50CC80916205803178F4AD
:1037900080916105811559F0E09123052091220562
:1037A00030915D0540915C0557E02E1301C00895EE
:1037B0006E2F70E05E9FF0011124DF01AC5DBA4F07
:1037C00014968C911497811561F111968C91119733
:1037D000831327C08C91841324C015968C91159760
:1037E00081111FC012968D919C91A0915E05B091A0
:1037F0005F058A1B9B0B883C910598F480916205BC
:103800008F70806180936205E65DFA4F80818F70D2
:10381000806180838CE595E00E9443170E94CA0571
:103820000895FB013196E770C0CFADE0B0E0EBE169
:10383000FCE10C9496288C0186E0F801DE011896D4
:1038400001900D928A95E1F7F801F580C4808CE52E
:10385000882E85E0982E70906005711020C0C114EC
:10386000D9F0F11409F41CC1C8010E94B3088115F4
:1038700009F416C187E0F801D40101900D928A95F0
:10388000E1F7F1E0CF1206C080915C0590915D05F3
:103890000E94A4080E94C41BFF24F39454C0E0803B
:1038A000A280B380D090610580915E0590915F0504
:1038B0009501281B390BD11409F4BAC0283C3105F5
:1038C00008F090C0C11441F390915D05C1808091D2
:1038D0006205803108F058C0C91214C090915C058F
:1038E0009E1110C0F1104AC08F70806180936205F4
:1038F0008CE595E00E94431780916205F80186836C
:10390000F12C21C0F1103AC040E06C2D8E2D0E94A8
:10391000210C40E06C2D8E2D0E94210CF82E81117F
:10392000EFCF888599850E94A408292F22952F70B2
:10393000903470F49F702230A0F09115B1F0F8012E
:103940009681903190F48F2D2D96EDE00C94B22855
:103950002A5F2F70223068F0C8010E944317FD2CA7
:10396000F2CF911511F0811571F3805E883058F314
:10397000F3CF803F40F3815F8330F9CF80916205C0
:10398000816080936205BCCFC91207C090915C052D
:103990009E1103C0F11409F46CC0C8010E94B30861
:1039A000811509F47DC0F11409F47AC08091620593
:1039B000803278F020915C0530915D053A8329834F
:1039C000BC82AB827D821E828F83CE0101960E94D3
:1039D000431787E0F801ACE5B5E001900D928A95B8
:1039E000E1F758CF80916205803150F48CE595E085
:1039F0000E94431787E0F40111928A95E9F780CF7E
:103A0000C11409F449CF20915D0591812913C5CFD7
:103A100090915C059E11C1CFF110BFCF8683C80184
:103A20000E94431787E0F40111928A95E9F734CF99
:103A3000283C3105F8F6C11409F42ECFF11481F1B8
:103A400090915D058181981321C080915C058E1154
:103A50001DC08091620580FD10C0803170F08683AA
:103A6000807F803F39F08681982F907F905F8F70A4
:103A7000892B8683C8010E94431787E0F801ACE5D3
:103A8000B5E001900D928A95E1F706CFC8010E943A
:103A9000B30881119ECF8091620581608093620599
:103AA000C8010E944317F8CEABE1B0E0EAE5FDE1C2
:103AB0000C949F284E8B5F8B688F798F8A8F192F7C
:103AC0009B8F9111109221051D8A86E0FE0176964A
:103AD000DE011F9601900D928A95E1F70A8D01157E
:103AE00039F00B8B1C8B61E0CE010F960E9484088D
:103AF0000B8B1C8B87E0FE013F96DE011896019030
:103B00000D928A95E1F7CE0108960E94151C81114D
:103B100028C0209122053091230587E0FE013896C8
:103B2000DE01119601900D928A95E1F78C85811541
:103B3000C1F0822F90E001968770992738171906F7
:103B4000D9F097E0929FD0011124AC5DBA4FFE01ED
:103B5000319601900D929A95E1F7809322050E948B
:103B6000CA0517E08091230590912205891312C0A0
:103B70006B96E4E00C94BB280E944612109222053A
:103B80001092230587E0ECE5F5E0DF011D928A95B0
:103B9000E9F7E7CF189FC00111248C5D9A4F0E946E
:103BA000151C811529F38091230590E001968770FB
:103BB000992780932305D6CFA6E0B0E0E2EEFDE1A1
:103BC0000C949F280E9449108C018091C004909110
:103BD000C1048017910779F019821A820E94491056
:103BE000BC0149815A8180E090E00E94541D1093ED
:103BF000C1040093C0042696E4E00C94BB28ACE01A
:103C0000B0E0E5E0FEE10C949B2880E01CEF0DEFB6
:103C1000FF24F3949091820420918104291709F4E0
:103C200043C0E92FF0E0ED57FB4F808187FBCC24A8
:103C3000C0F8D82EE894D7F89F5F937090938204D1
:103C4000909180049F5F9093800487FD07C0DF827E
:103C500018870E94491023E0E22E06C0DF82088701
:103C60000E94491032E0E32EBC0189879A87EB86D7
:103C7000FC864F8158858E2D91E00E94541DD9827B
:103C8000C11481F00A830E944910BC018B839C837C
:103C9000ED821E8249815A818E2D90E00E94541D32
:103CA00081E0B8CF1A83EFCF2C96E8E00C94B728C8
:103CB000ACE0B0E0EEE5FEE10C949228FE01319616
:103CC00088E0DF011D928A95E9F789E8E82E81E016
:103CD000F82E8F019DE8692E91E0792E2F01AA24FC
:103CE000A394B12C33E9832E31E0932EF701819117
:103CF0007F018F3F09F43EC0F894E82FE295EF7002
:103D0000F0E021A18F70A50102C0440F551F8A95D4
:103D1000E2F7CA01922F982B91A392A18095892353
:103D200082A3789400C0EDE8F1E031E0312C2191DC
:103D30002F3F79F0A22FA295AF70A05EB0E08C91DA
:103D400090E02F7002C0959587952A95E2F780FF45
:103D50007EC080E0382A330F8E169F0641F7F701A8
:103D600082918F3F11F00E94E10850EA5A95F1F7D5
:103D7000D8013C920F5F1F4F6E147F0409F0B6CF3D
:103D800048E050E0B20184E592E00E94F7286C011F
:103D9000892B41F088E0F201A4E5B2E001900D9298
:103DA0008A95E1F700915D0210E002591B4FC114A2
:103DB000D10409F44EC081E080930F020E944910A3
:103DC00090930E0280930D028091BA04811509F43C
:103DD00097C07E01B9E0EB0EF11C84E0F70111926F
:103DE0008A95E9F7809110028A3008F054C047E4C0
:103DF0005EE0B701C8010E94A60C811509F46EC0EF
:103E00004BE75EE0B701C8010E94A60C811509F4DA
:103E100065C048EC5EE0B701C8010E94A60C8115A0
:103E200009F45CC01092100280915C0290E044E0C2
:103E300050E0B70182599B4F0E94F72821E0209360
:103E40000C02892BE9F52C96E1E10C94AE28832F26
:103E500081CF80910F02811509F4B6CF80910D02B8
:103E600090910E020E943D15059708F4ADCF44E0F5
:103E700050E064E572E0C8010E94F728892B41F008
:103E800084E0E4E5F2E0D80101900D928A95E1F733
:103E900010920F0299CF80910A0290910B020E941A
:103EA0003D15843F914008F0A2CF80910C0281150E
:103EB00051F284E0D7011D928A95E9F710920C0225
:103EC000E0915C02F0E0E259FB4F89859A85AB8571
:103ED000BC8580839183A283B383B5CF8091100288
:103EE0008F3F39F40E94491090930B0280930A028D
:103EF000DCCF8F5F809310028A3008F495CFF2CF29
:103F0000F80180819181A281B3818093A90490936B
:103F1000AA04A093AB04B093AC0464E070E089EA17
:103F200094E00E945F098093A80488E0EFE7F4E042
:103F3000AEEAB4E001900D928A95E1F768E070E096
:103F40008EEA94E00E945F098093AD04C090B604AD
:103F5000D090B704E090B804F090B90480910602C4
:103F600090910702A0910802B0910902C816D906E3
:103F7000EA06FB0609F467CFC0920602D092070258
:103F8000E0920802F09209020E948C0AC61AD70A2F
:103F9000E80AF90AC092BC04D092BD04E092BE04C3
:103FA000F092BF0450CFCDB7DEB72C970FB6F89480
:103FB000DEBF0FBECDBF85B7806885BF85B780687F
:103FC00085BF84B7877F84BF0FB6F894A89580918A
:103FD0006000886180936000109260000FBE80E8EE
:103FE00090E00FB6F89480936100909361000FBE4B
:103FF0008FED98E09093DD018093DC010E94770BB8
:104000000E94C60B8091E20084608093E200789465
:1040100080916D048115A1F08091E900D090EC00B1
:104020008F70D794DD24D794D82A1092E90080911C
:10403000E80083FD0E948D128D2D8F708093E90022
:1040400082E084BD93E095BD9AEF97BD80936E00AA
:104050001092BC041092BD041092BE041092BF04D2
:104060008091D80080618093D8002AE12A95F1F7E9
:1040700000C08091D900382F3170D32E80FD04C04C
:104080000E94770B10926D04D092BA04D092BB04B8
:10409000D0921501D1100E941B27EFE7F4E088E0D1
:1040A000DF011D928A95E9F78091150191E089273A
:1040B000809389048091150190938C04809115015F
:1040C00080911501811106C086E38093140187EF6A
:1040D0008093130160E080E00E941F0961E080E0AE
:1040E0000E941F09EFE8F1E03197F1F700C00000EE
:1040F000D12C80918C04D81608F4CFC08091150182
:104100008091150191E08927880F880F80935D02C7
:1041100094E0981B90935C0284EF0E94E10885EF85
:104120000E94E10886EF0E94E10882E30E94E10814
:104130005DE8C52E51E0D52E63E9A62E61E0B62ECE
:10414000D6018D916D018F3F11F00E94E108AC14F2
:10415000BD04B1F788E0EEE6F4E0DF01282F1D9200
:104160002A95E9F7E4E5F2E0DF011D928A95E9F787
:1041700080E090E00E941529863E9E4F09F466C0BB
:1041800066EE7EEF80E090E00E94492960E082E0E8
:1041900090E00E942B2981E090E090931B05809392
:1041A0001A0561E083E090E00E942B2960E074E151
:1041B00084E090E00E94492960E086E090E00E945F
:1041C0002B2960E087E090E00E942B2940E050E03E
:1041D000BA0188E090E00E943D2960E084E290E02E
:1041E0000E942B2960E087E190E00E942B2960E08B
:1041F0008CE090E00E942B2960E08DE090E00E942E
:104200002B2919821A821B821C821D821E821F8208
:10421000188648E050E068E170E0CE0101960E9407
:104220001B2940E050E0BA0180E290E00E943D2965
:1042300040E050E0BA018FE090E00E943D2940E06C
:1042400050E0BA0183E190E00E943D2982E090E0D5
:104250000E940D298093760484E090E00E94152945
:104260009093200580931F050E94581EEFEFF6E7FC
:1042700021E0E150F0402040E1F700C000000E9442
:10428000581E80916E0480FF1AC06FEF7FEF80E0B0
:1042900090E00E9449290E94BA0A60E08D2D0E9498
:1042A0004209C82E61E08D2D0E944209ED2DF0E0FB
:1042B000E657FB4F880F8C298083D3941ACF83E075
:1042C00090E00E940D2990E00E9417058091BB04A8
:1042D00092E0980F811509F4C6C080E290936A04B9
:1042E000809369040E94A0256BE070E08DEE97E05A
:1042F0000E941F0F811509F43FC080916A0465E098
:1043000070E081FDB2C088EE97E00E941F0F81151A
:1043100099F16DE070E086ED97E00E941F0F811526
:1043200059F10E948C0ADC01CB01805A9541AF4FB4
:10433000BF4F8093650490936604A0936704B09385
:104340006804E2E6F2E080E092E0DF019C011D9269
:1043500021503040E1F7F0936102E09360028FEF6B
:104360009FEF90935F0280935E0281E080936404EC
:1043700080936304109262048091BA04811102C098
:104380000E941E2786E191E09093E3048093E2046B
:10439000CE01019638E1632E712C46E7842E44E06D
:1043A000942E89879A8780916D04853049F4809195
:1043B0006D04853009F45CC00E9446120E94CF094A
:1043C0000E94581E97E7C92E94E0D92E2EE6A22E01
:1043D00024E0B22ED501F60191918D9144E0EF37A2
:1043E000F40709F495C09817B9F35091BA045C87A3
:1043F000512CD5014D905D01F60181916F0184151D
:1044000049F184258B87312C222423948B858221AA
:104410008115C9F0FC85F115B1F039825A820E94EC
:1044200049109C838B8321E02D8391E0822D842190
:10443000811101C090E09E8349815A816B817C810A
:104440008D810E94541D3394220C36E03312DECF4E
:10445000F6014292539448E05412CBCF0E94980A3E
:10446000AA24A3945AC080E839CF83EE97E04DCFB9
:1044700080916D04843021F10E942C0F10926B0406
:1044800030E40FB6F894A895609260000FBE3093A8
:10449000600083B7817F846083BF83B7816083BFFF
:1044A0007894889583B78E7F83BF0FB6F894A895CC
:1044B00080916000886180936000109260000FBE60
:1044C00080916C04811509F472CF0E94581EEEE6AB
:1044D000F4E08191811104C08E169F06D1F767CF59
:1044E00080E189BD82E189BD09B400FEFDCF8091E4
:1044F000D8008F7D8093D8008091E0008260809307
:10450000E0008091E00081FDFCCF0E9446124FCF79
:1045100098136BCF0E94DC1DA12C8091BA048111ED
:1045200011C0412C80919604811551F0109296048F
:10453000809181048093820480917F048093800421
:10454000B12C66C0C0901105D0901205C114D104E1
:10455000F9F080911305909114050E943D15893C56
:104560009105B0F0DD24960184E0220F331F8A9577
:10457000E1F7C9018F5A9E4F2A5A3E4FD9012C911B
:1045800022FD06C00E948C0D8091BA04811549F26B
:104590000E94FF1D482EC6CF61E08B2D0E9442096C
:1045A000D82E60E08B2D0E944209DD0CD82A2B2DDD
:1045B00030E0D901A657BB4FEC918E2F8370D816EF
:1045C00031F1EE0FEE0FED29EC93809189048B0D04
:1045D000EF70F0E0ED56FE4FA90149575B4F6A01BD
:1045E0005080DA019C91590EB4E060E05B1624F42F
:1045F000EDEF5E161CF461E00E94FE08852D550C5F
:10460000990B64E070E00E94D428D6018C93B39497
:1046100080918C04B81608F4BFCF8091BA0481153C
:1046200019F00E94FF1D482A411439F00E94980A8F
:104630000E944C150E943E0F04C00E944C15A11010
:10464000F9CF86E0EBE0F5E0A985BA8501900D92FF
:104650008A95E1F740900C05D0900D05B0900E05BD
:10466000A0900F05C090100510920D0510920E0538
:1046700010920F05109210058D2D8B29811509F4CC
:104680003FC080918F04909190040E943D158C0151
:1046900080910905811509F4B2C00531110580F139
:1046A0008F3F19F08F5F80930905D11459F00E9454
:1046B000850991E01D140CF09FEF899F802D112436
:1046C00080930D05B11459F00E94850991E01B14E7
:1046D0000CF09FEF899F802D112480930E0580910F
:1046E0000D05811569F050900E05511449F00E9496
:1046F000770980930D05852D0E94770980930E051B
:104700008C2D8A29811509F440C080918D049091E7
:104710008E040E943D157C0180910805811509F4E5
:1047200068C0B1E5EB16F10480F18F3F19F08F5F9F
:1047300080930805A11459F00E94A50991E01A146C
:104740000CF09FEF899F802D112480930F05C114D9
:1047500059F00E94A50991E01C140CF09FEF899F6D
:10476000802D11248093100580910F05811569F02B
:10477000A0901005A11449F00E94770980930F05BD
:104780008A2D0E9477098093100580910C054812AC
:1047900019C080910D05811511F0D81213C0209118
:1047A0000E05211511F02B110DC0909110059115DA
:1047B00011F0C91207C030910F05311103C0822BCF
:1047C000892B81110E94551086E0E985FA85ABE0BE
:1047D000B5E001900D928A95E1F70E94CF09909182
:1047E0009104891709F4DFCD809391040E948C0A0B
:1047F000DACDEBE0EE16F10408F099CFC6CF0B301E
:10480000110508F04FCF7CCF78941F921FB61F92EE
:1048100011248F939F93AF93BF938091A4049091A1
:10482000A504A091A604B091A7040196A11DB11DF5
:104830008093A4049093A504A093A604B093A70426
:10484000BF91AF919F918F911F901FBE1F901895A0
:104850001F920F920FB60F9211242F933F934F93F5
:104860005F936F937F938F939F93AF93BF93EF93D8
:10487000FF938091E10082FF09C08091E20082FFF6
:1048800005C08091E1008B7F8093E1008091DA0088
:1048900080FF24C08091D80080FF20C08091DA0082
:1048A0008E7F8093DA008091D90080FF9BC080E1E9
:1048B00089BD82E189BD09B400FEFDCF81E080930E
:1048C0006D0480911C02811109C00E94770B0E9427
:1048D000C60B8091E20084608093E2008091E10049
:1048E00080FF17C08091E20080FF13C08091E2003A
:1048F0008E7F8093E2008091E20080618093E200ED
:104900008091D80080628093D80019BC85E08093A4
:104910006D048091E10084FF29C08091E20084FF52
:1049200025C080E189BD82E189BD09B400FEFDCFCB
:104930008091D8008F7D8093D8008091E1008F7E98
:104940008093E1008091E2008F7E8093E20080916D
:10495000E20081608093E20080911B02811509F4DE
:1049600047C084E080936D0480916D048091E100E4
:1049700083FF27C08091E20083FF23C08091E10084
:10498000877F8093E10082E080936D0410921B0288
:104990008091E1008E7F8093E1008091E2008E7F24
:1049A0008093E2008091E20080618093E20042E027
:1049B00060E080E00E94960B8091F0008860809318
:1049C000F000FF91EF91BF91AF919F918F917F91F7
:1049D0006F915F914F913F912F910F900FBE0F906C
:1049E0001F90189519BC10926D0410921C0276CF7E
:1049F0008091E30087FF02C083E0B4CF81E0B2CFB3
:104A00001F920F920FB60F921124EF92FF920F9305
:104A10001F932F933F934F935F936F937F938F9346
:104A20009F93AF93BF93CF93EF93FF9309EE10E063
:104A3000F8018081C091EC008F70C795CC27C79595
:104A4000C82B108280EFE82EF12CF7018081877F40
:104A5000808378940E948D12F8011082F701808182
:104A600088608083CF70F801C083FF91EF91CF9170
:104A7000BF91AF919F918F917F916F915F914F9176
:104A80003F912F911F910F91FF90EF900F900FBECC
:104A90000F901F901895FF920F931F93CF93DF9362
:104AA000182FEB011092BC0084EA8093BC000E9496
:104AB0004910082FF92E8091BC0087FF28C08091F3
:104AC000B900887F883029F08091B900887F8031D3
:104AD000A1F51093BB0084E88093BC000E944910AC
:104AE000182F092F8091BC0087FF1FC02091B900AB
:104AF000287F80E090E0283199F081E090E0203438
:104B000011F480E090E091958195910909C0802F82
:104B10009F2D0E943D15C817D90768F68EEF9FEFAD
:104B2000CDB7DEB7E5E00C94BA28812F902F0E9414
:104B30003D15C817D907B0F6F1CF8FEF9FEFF0CF33
:104B40001092B9008CE08093B80008950F931F93E2
:104B5000CF93DF93EB018093BB0084E88093BC008C
:104B60000E944910182F092F8091BC0087FF11C0A7
:104B70002091B900287F81E090E0283211F480E094
:104B800090E0919581959109DF91CF911F910F91BF
:104B90000895CF3FDC0741F3812F902F0E943D15F0
:104BA000C817D90708F78EEF9FEFEECFA0E0B0E06F
:104BB000ECEDF5E20C949628782EB62EA72E6A011D
:104BC000E9010E9449104C01C431D10528F1CF3FC1
:104BD000DC0731F1CE0164E170E00E947D28F62E01
:104BE000E72E6F2D7E2D872D0E944B258C01892B62
:104BF000D1F4EB2CFA2CCE0CDF1CEC14FD0419F0D4
:104C000001151105D1F084E98093BC00C801CDB72E
:104C1000DEB7EDE00C94B228FF24F394E12CE1CF51
:104C200085E0F82EFBCFCF3FDC07D9F2C4010E940C
:104C30003D15C817D907A8F6DCCFBE01F701819151
:104C40007F010E94A6258C01D8CFA0E0B0E0EBE266
:104C5000F6E20C949628782EB62EA72E6A018901CA
:104C60000E9449104C010431110518F10F3F100743
:104C700019F1C80164E170E00E947D28EB01BE01DA
:104C8000872D0E944B257C01892BC1F4CB2DDA2D79
:104C9000CC0EDD1ECC15DD0519F0E114F104C1F0D8
:104CA00084E98093BC00C701CDB7DEB7EDE00C947A
:104CB000B228C1E0D0E0E3CFC5E0FCCF0F3F100742
:104CC000F1F2C4010E943D1508171907C0F6DECFA6
:104CD000FE018491B8010E94A6257C012196DACFBD
:104CE000A0E0B0E0E6E7F6E20C949528682E962E58
:104CF0005A01690178010E944910782E892E0431E9
:104D0000110530F10F3F100731F1C80164E170E087
:104D10000E947D28162F072F612F702F862D0E944D
:104D20004B25EC01892BC9F0FFEFEF16FF06A1F32D
:104D3000872D982D0E943D15E816F90668F784E93D
:104D40008093BC00CE01CDB7DEB7EEE00C94B12865
:104D500011E000E0E1CF15E0FCCFB701892D0E9402
:104D6000A625EC018501CA0CDB1C0C151D0539F3C9
:104D7000209729F7B701F80181918F010E94A6259C
:104D8000EC01F3CF8EE14A9B02C08A95E1F74A9B82
:104D9000FECF08955A9880E28A95F1F75A9A0895BD
:104DA000FC013BE03A95F1F798E020E080E031E04B
:104DB00040E14A95F1F7880F4A9B02C081602327A2
:104DC00042E04A95F1F7000040E14A95F1F79A95E3
:104DD00079F790E19A95F1F799B132E03A95F1F7C8
:104DE000000040E14A95F1F792FB992790F992274C
:104DF0002081920F90830895A1E0B0E0E2E0F7E215
:104E00000C949D2819828C017C01E60EF11C0E94F5
:104E1000C226CE0101960E94D026F80181938F010F
:104E2000EE15FF05A1F781E09981911180E02196AF
:104E3000E6E00C94B928529A5A9A089552985A9AD0
:104E4000EA9AE9E6F0E080818F7C808308956150E2
:104E5000770B91E001C0990F6A95EAF7692F90E00E
:104E600021E0611108C0911599F05A9A80E28A9563
:104E7000F1F75A980895362F3823311539F05A9A98
:104E8000922730E23A95F1F76695EBCF5A98F9CF31
:104E90005A98ECCFFF920F931F93CF93DF93EC01BF
:104EA0008C01060F111DF9900E94CA2668E08F2D13
:104EB0000E942727C017D107B1F7CDB7DEB7E5E0CD
:104EC0000C94BA281F920F920FB60F9211240F93D1
:104ED0001F932F933F934F935F936F937F938F9382
:104EE0009F93AF93BF93EF93FF93CF93DF930F9273
:104EF000CDB7DEB719820E94C226CE0101960E946C
:104F0000D026082F069506950695982F92959570B0
:104F1000202F2570920F292F237096959695920F2A
:104F2000982797708981892B811509F05CC007301B
:104F300008F059C080E18A95F1F75A9A529A82E0B6
:104F40008A95F1F700C05A9888E0089F80011124E3
:104F5000D801A05EBE4F1696ED91FC911797309741
:104F6000A9F06091A3017091A40114962D913C9138
:104F70001597260F371F11968D919C911297680FE8
:104F8000791F13964C9113978C910995F801E05E67
:104F9000FE4F6381611551F02091A3013091A4016E
:104FA00084819581820F931F0E944A270E94CA26FE
:104FB00080E18A95F1F75A9852985A9A80E18A9539
:104FC000F1F7F801E05EFE4F6081611551F020912C
:104FD000A3013091A40181819281820F931F0E94CD
:104FE000FC260E94C2260F90DF91CF91FF91EF9196
:104FF000BF91AF919F918F917F916F915F914F91F1
:105000003F912F911F910F910F900FBE0F901F9006
:1050100018950F931F93CF93DF938C0107970CF094
:1050200064C0F894529A5A9885E08A95F1F7000086
:10503000C02FC695C570802F8570C80F8C2F8370C8
:10504000C695C69593E0000F111F9A95E1F7C80F1A
:10505000C8018C2BEC010E94CA2600C068E08C2F8E
:105060000E94272790E19A95F1F752985A9A4A9B05
:1050700035C087E090E04A9933C0F801E05EFE4F0A
:105080006381611561F02091A3013091A4018481B5
:105090009581820F931F0E94FC26811519F10E94B1
:1050A000C22680E28A95F1F75A98529A90E19A9531
:1050B000F1F7F801E05EFE4F6081611551F020913B
:1050C000A3013091A40181819281820F931F0E94DC
:1050D0004A270E94CA26789481E008C000C0C7CF42
:1050E000019749F4529A5A9A789480E0DF91CF91CF
:1050F0001F910F91089500C0BECFAA1BBB1B51E1A9
:1051000007C0AA1FBB1FA617B70710F0A61BB70B37
:10511000881F991F5A95A9F780959095BC01CD01DC
:1051200008952F923F924F925F926F927F928F924B
:105130009F92AF92BF92CF92DF92EF92FF920F9326
:105140001F93CF93DF93CDB7DEB7CA1BDB0B0FB630
:10515000F894DEBF0FBECDBF09942A8839884888ED
:105160005F846E847D848C849B84AA84B984C88483
:10517000DF80EE80FD800C811B81AA81B981CE0F7A
:10518000D11D0FB6F894DEBF0FBECDBFED0108955F
:10519000992778E0880F991F961708F0961B881FAB
:1051A0007A95C9F78095089597FB072E16F4009419
:1051B00007D077FD09D00E947D2807FC05D03EF47A
:1051C000909581959F4F0895709561957F4F0895B3
:1051D000EE0FFF1F0590F491E02D0994FB01DC0117
:1051E00002C005900D9241505040D8F70895FB0140
:1051F000DC0104C08D910190801921F44150504090
:10520000C8F7881B990B0895FB01DC0102C00190CF
:105210000D9241505040D8F70895F999FECF92BDB4
:1052200081BDF89A992780B50895A8E1B0E042E0E1
:1052300050E00C945129DC01A40FB51F415050409F
:1052400048F0CB01840F951F2E910E942C294150CC
:105250005040D0F70895262FF999FECF92BD81BD19
:10526000F89A019700B4021639F01FBA20BD0FB6A4
:10527000F894FA9AF99A0FBE08950396272F0E9480
:105280002C290E942B29252F0E942C29242F0C9495
:105290002C290196272F0E942C290C942B29DC0104
:1052A000CB01FC01F999FECF06C0F2BDE1BDF89A31
:1052B000319600B40D9241505040B8F70895F894DB
:1052C000FFCF9C10A410A710AD10C210C210C210C6
:1052D000C210C210C210C210C210B010B510B91066
:1052E000BF10D010D610DA106A13901396139013D3
:1052F0009613E9130B149613081515158218EA185E
:105300008A18541858188E185C1892189E18681825
:10531000E3186C18A2187018A618CB187418AA18DD
:10532000D2187A18B018B8186018961864189A1815
:105330007E18B418C218DB18E1184E188618F11838
:105340002A182E1806180C18321836183A18901900
:105350009019C719C7195F1A7C1AF119F119811A26
:065360000D1B1E1B1E1BAD
:105366002502240236022302350035020021007F81
:10537600220003F73601CB0A7A0C910C980C9F0C8D
:105386000000000100000000000000040100000011
:1053960000000001050000000000000806000000F3
:1053A600000000000000FA08040E000000000000E3
:1053B60001000000000000D611E7113612000008B7
:1053C60001000000000000D611E7113612000004AB
:1053D60001000000000000D611E71136120000009F
:1053E600010008101818100800F4F5F63234356676
:1053F60097C69400FF0100010000FFFF00000100B6
:1054060001FF00A804E200E900EA00B500B600B713
:1054160000CD008301CC008A019201940121022370
:105426000224022502260227022A02B300B4006FD4
:0C5436000070009F01CB019F02A002004B
:00000001FF
