:100000000C9445050C9462050C9462050C94C92B64
:100010000C9462050C9462050C9462050C946205C4
:100020000C9462050C9462050C948F280C9467293B
:100030000C941A120C9462050C9462050C946205DF
:100040000C9462050C9462050C9462050C94620594
:100050000C9462050C946B280C9462050C94620558
:100060000C9462050C9462050C9462050C94620574
:100070000C9462050C9462050C9462050C94620564
:100080000C9462050C9462050C9462050C94620554
:100090000C9462050C9462050C9462050C94620544
:1000A0000C9462050C9462050C946205050109022A
:1000B000A10185020901A1000509190129081500FE
:1000C0002501950875018102050109300931158165
:1000D000257F95027508810609381581257F9501D0
:1000E00075088106050C0A38021581257F95017572
:1000F000088106C0C005010980A101850319012AF4
:10010000B700150126B700950175108100C0050CD8
:100110000901A101850419012AA002150126A002E6
:10012000950175108100C005010906A1018506052C
:100130000719E029E71500250195087501810205D9
:1001400007190029EF1500250195F07501810205B9
:10015000081901290595057501910295017503910D
:1001600001C00660FF0961A1010962150026FF00B8
:100170009520750881020963150026FF00952075FA
:10018000089102C005010906A101050719E029E748
:1001900015002501950875018102950175088101F9
:1001A0000507190029FF150026FF0095067508812F
:1001B000000508190129051500250195057501910E
:1001C00002950175039101C000AF00AE0000000070
:1001D00000003E5B4F5B3E003E6B4F6B3E001C3EA3
:1001E0007C3E1C00183C7E3C18001C577D571C00B0
:1001F0001C5E7F5E1C0000183C180000FFE7C3E790
:10020000FF00001824180000FFE7DBE7FF0030487C
:100210003A060E00262979292600407F05050700A9
:10022000407F05253F005A3CE73C5A007F3E1C1C9E
:100230000800081C1C3E7F0014227F2214005F5F10
:10024000005F5F0006097F017F00006689956A00F4
:1002500060606060600094A2FFA2940008047E04C5
:10026000080010207E20100008082A1C0800081C26
:100270002A0808001E10101010000C1E0C1E0C0086
:1002800030383E383000060E3E0E060000000000FA
:10029000000000005F000000000700070000147F5E
:1002A000147F1400242A7F2A12002313086462009A
:1002B000364956205000000807030000001C224168
:1002C00000000041221C00002A1C7F1C2A00080894
:1002D0003E08080000807030000008080808080088
:1002E0000000606000002010080402003E514945F3
:1002F0003E0000427F4000007249494946002141CA
:10030000494D33001814127F100027454545390028
:100310003C4A494931004121110907003649494900
:100320003600464949291E00000014000000004024
:1003300034000000000814224100141414141400A6
:100340000041221408000201590906003E415D598E
:100350004E007C1211127C007F49494936003E4113
:10036000414122007F4141413E007F4949494100CE
:100370007F09090901003E41415173007F080808C7
:100380007F0000417F4100002040413F01007F0885
:10039000142241007F40404040007F021C027F0049
:1003A0007F0408107F003E4141413E007F0909095A
:1003B00006003E4151215E007F0919294600264969
:1003C0004949320003017F0103003F4040403F00A4
:1003D0001F2040201F003F4038403F006314081496
:1003E00063000304780403006159494D4300007F12
:1003F00041414100020408102000004141417F00BA
:10040000040201020400404040404000000307088D
:1004100000002054547840007F2844443800384479
:1004200044442800384444287F0038545454180069
:1004300000087E0902001824241C78007F080404A8
:10044000780000447D4000002040403D00007F10C7
:100450002844000000417F4000007C0478047800BC
:100460007C08040478003844444438007C18242470
:100470001800182424187C007C0804040800485440
:100480005454240004043F4424003C4040207C0099
:100490001C2040201C003C4030403C0044281028D8
:1004A00044004C9090907C004464544C44000008FC
:1004B00036410000000077000000004136080000CF
:1004C0000201020402003C2623263C0000C0F0F892
:1004D000F8780000000000000000F0F8F0F0F08074
:1004E0000000000080C0C08080008080C0C0E0E0CC
:1004F000E0E0E0F060000000C0E0F0F8F8F87878A4
:100500007878F8F8F8F8F8F0C000387C7E3E3E7E47
:100510007EFEFEFEFEFEFEFEFEFEFEFE7C7C1880E3
:10052000C0C0C080800000000000008080C0E0F0FB
:10053000F0F070008080C0C0800000000080F0E01B
:10054000E0F0F8F8E0E0C0C81818E0F0F0F0E0ECF7
:10055000EEF7F37020007C7C7C7E007E7E7E7F7FC9
:100560007F000080C0E07E5B4F5BFEC00000C000EB
:10057000DCD7DEDEDED7DC00C000000000000000BB
:10058000000000000000000000000000FFFFFFFF6F
:10059000E1808080C00000000080EFFFFFFF7F3F10
:1005A00000FCFFFFFFFBE387FFFFFFCF87C7C7C349
:1005B000C1C180800000007FFFFFFFE1E0C080C07C
:1005C000C0E0F0F8FFFFFFFF7F00000000003030C8
:1005D000787CFFFFFFFFEFE7EFEF8108080000E006
:1005E000E3C3E7FFFFFFFEFCFCFEFFFFEFE7C3C135
:1005F000C0C0E0FFFFFFFF3FEFFFFEFFFFFFFFFF79
:10060000FDEDE367FFFFFFFF2C0F0F1F3F7F7F7F95
:100610007F7F3F1E0C001F1F1F3F003F3F3F7F7F1C
:100620007F00307B7F7830202030787F3B000300D4
:100630000F7F0F0F0F7F0F0003000000000000006E
:1006400000000000000000000000000000070F0F85
:1006500007070F0F0F0F0F0F0F0F07070301000002
:100660000103030707070707070707070707070728
:100670000703030300000000000103070F0F1F0F13
:100680001F1F1F0F07030301000000083C7C3C3CB8
:100690003C3C3C3C3F3F1F1F1F1F1F1F0E00000123
:1006A00003030303030303070707070707070F03F2
:1006B000030307070F0F0F0F1F1F1F1F1F1F1F1FF2
:1006C0001F0F0F0E0F0F0F070000000000000000AB
:1006D000000000000000000000000000000000001A
:1006E000000000000000000000000000000000000A
:1006F00000000000000000000000000000000000FA
:1007000000000000000000000000000009025B0083
:10071000030100A0FA0904000001030101000921FE
:1007200011010001224400070581030800010904AA
:100730000100020300000009211101000122220032
:1007400007058203200001070503032000010904B7
:100750000200010300000009211101000122B6007E
:100760000705840320000112010002000000086B4D
:100770006338330001010200011403630072006F4B
:100780000077006B0062005F003300380000000E4D
:100790000363002D0062006F0074007A0000000403
:1007A000030904000014001A0008001500170029AE
:1007B0002104001600070009000A0000001D001BAC
:1007C00000060019000500000000002B282C002165
:1007D0005282740000130012000C0018001C00313B
:1007E0003433000F000E000D000B000000380037FE
:1007F00000360010001100000000002A00283228F6
:1008000032000000001E021F02200221022202E329
:10081000001E001F002000210022000000230024F1
:100820000025002600270000000000010001000153
:1008300000010000002E02250230022F022D0000D0
:100840005734023400270226022D0200003702012D
:100850005730002F002E000000000001000100377B
:10086000000100000000003A003B003C003D000099
:100870000000003E003F0040004100000000004238
:100880000043004400450000000000010001000199
:100890000001000000635200000000480046000014
:1008A0000000004D0052004A004B00000000004FC5
:1008B00000510050004E0000000000010001000146
:1008C00000010000002B0014001A000800150000B1
:1008D00000E10004001600070009000000E0001D10
:1008E000001B000600050000000000E2002C0029AB
:1008F0000001000000635200000000000000000042
:1009000000000000000C0013000F000000000000B9
:10091000001900100011000000000000000000009D
:10092000000100A900AA00DA00D900A900AA00DA93
:1009300000D900A900AA00DA00D900A900AA00DAAB
:1009400000D900808182838485868788898A8B8C00
:100950008D8E8F9091929394A0A1A2A3A4A5A6A7F7
:10096000A8A9AAABACADAEAFB0B1B2B3B4C0C1C26E
:10097000C3C4C5C6C7C8C9CACBCCCDCECFD0D1D2CF
:10098000D3D40020202020005343520020202020D8
:1009900000434150530020202020004E554D004779
:1009A000616D6500537973740053796D620044651D
:1009B00066004C617965720000DA0281FFD9F1DBD3
:1009C00020A4A62EAF00A0C0D30000A1C8D3000071
:1009D000AED580A81F408D1420000000000000004C
:1009E0000000000000000000000000000000000007
:1009F00000000000000000000000000000007E0F6A
:100A000000D4FFFFFFC700000078000000000000D6
:100A100000002A2B28000000000000000000000059
:100A2000000000000029000000002C1E34202122BC
:100A300024342627252E362D3738271E1F20212225
:100A4000232425263333362E37381F04050607089E
:100A5000090A0B0C0D0E0F1011121314151617188E
:100A6000191A1B1C1D2F3130232D350405060708CC
:100A7000090A0B0C0D0E0F1011121314151617186E
:100A8000191A1B1C1D2F3130354C11241FBECFEFFE
:100A9000DAE0DEBFCDBF11E0A0E0B1E0ECE6FCE5BE
:100AA00002C005900D92A63DB107D9F725E0A6ED4D
:100AB000B1E001C01D92A435B207E1F70E94E72220
:100AC0000C94CD2D0C9400009C01FB019A9581158E
:100AD0009F4120F5832F8170B32FB270AA27732F07
:100AE00074706627532F5870442734FF0DC08295C9
:100AF000807FAB2B09F08062672B09F08064452B67
:100B000009F0806809950895AB2B09F08260672B86
:100B100009F08460452BB1F38860F4CF80E0F2CF18
:100B2000982F92959F7024E0911102C020E0982F99
:100B3000892F86958695811511F02E5F982F892F24
:100B40008695820F089580930D05089580930E0574
:100B5000089521E030E001C0220F8A95EAF78091E4
:100B60000E05822B0E94A605089521E030E0A90120
:100B700002C0440F551F8A95E2F7CA0180959091F3
:100B80000E0589230E94A60508959B01677091E0D8
:100B900001C0990F6A95EAF763E0369527956A9543
:100BA000E1F7B901660F771F260F371FFA01E20F31
:100BB000F31F40E050E0682F70E08191DF019B015E
:100BC000042E02C0369527950A94E2F721702195EC
:100BD0002827292328272E934F5F5F4F4330510545
:100BE00061F708959C01A82FA77083E0369527959B
:100BF0008A95E1F7C901880F991F820F931FFB01A6
:100C0000E80FF91F40E050E080E0219130E00A2E2B
:100C100002C0369527950A94E2F721703327042EF7
:100C200001C0220F0A94EAF7822B4F5F5F4F4330D7
:100C3000510559F70895282F862F983070F42630E3
:100C400058F4622F70E026E0929F600D711D112410
:100C500049EE54E00E94C50508959C5F9230E0F78C
:100C6000622F70E046EE54E0F5CF292F983068F4FB
:100C7000863090F490E069EE74E036E0239F800DBA
:100C8000911D11240E94F20508952C5F223020F45A
:100C900066EE74E090E0F6CF80E0089590910E0546
:100CA00021E030E0F90101C0EE0F8A95EAF7D901A1
:100CB00002C0AA0FBB1F6A95E2F7EA2B01C0220F00
:100CC0004A95EAF7892F8E23E81305C0892F822BD6
:100CD0000E94A60508952095822F8923F9CF80913F
:100CE000140590911305981301C008958F5F8770C4
:100CF000FACF90910F058095892380930F05282FB7
:100D0000277021110DC0891759F09091110592FF9C
:100D100007C08695869586950E94B50510920F05A9
:100D2000089580910A0590911205892B50910B0529
:100D3000511591F090914C01911521F09091100571
:100D400097FD0BC096E02AED31E040E0915048F469
:100D5000411110920B05852B08959EE122EE31E0A2
:100D6000F4CFF90161919F01611581F34F5FEECFDF
:100D7000982F909580910A05892380930A050895FC
:100D80009C01803E910509F448C0D8F48133910557
:100D900009F47DC048F48932910509F46DC08A9741
:100DA00009F47CC0C90108958933910551F1823855
:100DB000910539F1C597B1F78091100585FFF2CF04
:100DC00029C0843E910509F447C048F4823E91054C
:100DD00099F1833E9105A9F121EE30E0E3CF863E03
:100DE000910509F444C0873E9105E1F68091100514
:100DF00083FD61C09091110591FF2BC024EE30E07E
:100E0000D1CF809110058370811152C0809111055E
:100E100083FFC8CF29E230E0C5CF8091100580FD67
:100E200033C09091110590FFBDCF23EE30E084FFD9
:100E3000B9CF20E030E0B6CF8091100582FDF5CF2C
:100E4000B1CF8091100582FD30C09091110590FDC9
:100E50002FC084FFA7CFEDCF8091110581FFA2CFD6
:100E60008091100527EE30E084FDE3CF9BCF809189
:100E7000100583FDF7CF96CF8091100585FD1EC02C
:100E80008091110583FF8ECF29E330E08BCF8091D5
:100E9000100586FF87CF2AE230E084CF80911005CD
:100EA00086FF80CF21E330E07DCF22EE30E07ACFA5
:100EB00020EE30E077CF26EE30E074CF25E330E04F
:100EC00071CF9091100592FF10C041E0282F24713E
:100ED000243009F040E031E0282F2871283009F053
:100EE00030E0431711F02CE0822793FF10C041E05F
:100EF000282F2471243109F040E031E0282F287197
:100F0000283109F030E0431711F02CE082273091AE
:100F1000110530FF10C051E0282F2171213009F058
:100F200050E041E0282F2871283009F040E05417A4
:100F300011F029E0822731FF10C041E0282F2171F4
:100F4000213109F040E031E0282F2871283109F0E3
:100F500030E0431711F029E0822794FD877E089541
:100F60001F93CF93DF930E94C006EC01811522E509
:100F7000920708F055C0811540E5940708F0D1C0EC
:100F8000803E910520F58D3C910508F0A4C0883A7B
:100F9000910570F4853A910508F09AC08130910569
:100FA000D1F10497813A9105B0F1C0E0D0E033C0AF
:100FB000885A91094B97C8F7C85AD0E0CC0FDD1F6B
:100FC000C056DE4F0990D881C02DD46424C081154D
:100FD00050E49507C0F4C11580E2D80708F0B7C007
:100FE000C83ED105C0F0CE019A9581159F41E8F623
:100FF0008D2F0E946107182FCE0199270E94C006ED
:10100000EC01D12B08C099270E94C006CC27DF70C5
:10101000C82BD92BD06ACE01DF91CF911F910895B3
:10102000803842E59407C8F5803652E5950708F008
:101030005BC0C03482E5D807D0F4C03292E5D9074E
:1010400008F04BC08C2F8695869520E2829FC001C8
:101050001124C37021E030E0A90102C0440F551FE4
:10106000CA95E2F7EA01C82BD92BDD68D4CF8C2FC3
:1010700086958695877050E2859FC0011124C370C4
:1010800021E030E0A90102C0440F551FCA95E2F7E4
:10109000EA01C82BD92BDC68BECF803C52E595070E
:1010A00058F48F71C03AD245A0F590E0982F882768
:1010B000EC01C46FD06AAFCF805C9245809708F096
:1010C00074CFDC2FCC27CC27DF71C06FD06AA3CFC1
:1010D000A497D064A0CFD0659ECFCF71D0E0DC2F95
:1010E000CC27C16FD06A97CF86958695877020E20E
:1010F000829FC0011124C37021E030E0A90102C029
:10110000440F551FCA95E2F7EA01C82BD92BDA68BC
:1011100082CF0E946107C82FD0E0DC2FCC27D0629D
:101120007ACF8F710E94610793E0CC0FDD1F9A95F3
:10113000E1F7CC27DF70282F30E084FF04C050E1B6
:10114000859F90011124C22BD32BD06964CF8D2FA2
:101150008F710E946107182FCE0199270E94C00647
:10116000EC01D12BDCCF80E00895F894E82FE295D4
:10117000EF70F0E041A18F7021E030E0B90102C0D2
:10118000660F771F8A95E2F7CB01962F90959423EF
:1011900091A392A1892B82A37894089581E08093F2
:1011A0009004089590917204292F30E07091730497
:1011B000A9014F5F5F4F437055277417150689F0DB
:1011C00020593B4F60FB87F9F90184839F5F93703F
:1011D00090937204809170048F5F8093700481E01B
:1011E000089580E0089590E06115E9F0815F9E4FD9
:1011F000FC0180818F3FB1F0E82FE295EF70F0E0C5
:1012000041A18F7021E030E0B90102C0660F771F65
:101210008A95E2F7CB01962F9095942391A392A102
:10122000892B82A30895805F9E4FE2CF90E06115E5
:10123000A9F0815F9E4FFC0120812F3F91F0E22FAA
:10124000E295EF70E05EF0E0808190E02F7002C0E8
:10125000959587952A95E2F781700895805F9E4F56
:10126000EACF80E00895FC01680F791F8FEF41E31A
:101270009191892728E030E0982F990F87FF09C0C6
:10128000892F842721503040B9F7E617F70781F7F7
:101290000895892FF7CF282F35EB2303C0011124A0
:1012A00097FF04C080589109892F089580589F4F57
:1012B000FBCF8091FD0480FD14C081FD14C082FD30
:1012C00016C08091FC04811581F08E3180F420E5F8
:1012D000829FC00111246EE170E00E943B2D862F99
:1012E000089584E1089588E2089588E0089580E5EE
:1012F00008958091FD0480FD17C081FD17C082FD17
:1013000019C08091FB04811599F0883298F428E087
:10131000829FC001112468E270E00E943B2D61159C
:10132000710551F0862F089562E0FCCF64E0FACF9A
:1013300061E0F8CF68E0F6CF81E00895FA013097D8
:1013400009F0099508958091B404811559F0E09150
:10135000DC04F091DD04309729F00190F081E02D5C
:101360000995089580E00895A3E0B0E0EAEBF9E084
:101370000C94082D9C0180912A0290912B028217D7
:101380009307A1F030932B0220932A02E091DC0412
:10139000F091DD04309751F083E089833B832A8309
:1013A0000084F185E02DCE01019609952396E2E0B7
:1013B0000C94242DA3E0B0E0E0EEF9E00C94082DAD
:1013C0009C01809128029091290282179307A1F035
:1013D0003093290220932802E091DC04F091DD048F
:1013E000309751F084E089833B832A830084F18520
:1013F000E02DCE01019609952396E2E00C94242D70
:1014000090914C01911112C0AAEDB1E0EFEF90E084
:101410002D91821751F0EF3F19F4211101C0E92FEE
:101420009F5F9630A9F7EF3FC9F40895909110059A
:1014300097FFEACFE82FE695E695E695803FA8F777
:10144000F0E0E052FE4F877021E030E001C0220F53
:101450008A95EAF78281822B828308950E2E000CF2
:10146000FF0BE852FE4FF8CF90914C01911521F0FF
:101470009091100597FD0CC0EAEDF1E09191891370
:1014800002C0DF011E9251E0E03EF507B9F7089572
:10149000E82FE695E695E695803FC8F7F0E0E05244
:1014A000FE4F877021E030E0A90102C0440F551FB4
:1014B0008A95E2F7CA0180959281892382830895F3
:1014C0002FB7F89460919E0470919F048091A004BE
:1014D0009091A1042FBF0895CF92DF92EF92FF92D7
:1014E0008091B404811559F00E94600A6B017C015F
:1014F000C701B601FF90EF90DF90CF9008950E9452
:10150000600AC090B604D090B704E090B804F090A0
:10151000B904C60ED71EE81EF91EEACF87E797E783
:10152000909301088093000888E19AE00FB6F89440
:10153000A895809360000FBE90936000FFCF8091CC
:1015400027020895FC019B0180911D0290911E02CB
:101550008617970740F0672B29F48091E8008E7773
:101560008093E800C90140E0009741F4411106C0B2
:101570008091E80082FF2FC080E0089520918B04C5
:101580002115A9F12530A9F12091E80023FD2DC0F6
:101590002091E80022FDECCF2091E80020FFE4CF6D
:1015A0003091F3002091F200009719F028303105B6
:1015B00058F041E02830310509F040E02091E80082
:1015C0002E772093E800D0CF41914093F10001970E
:1015D0002F5F3F4FE9CF80918B04811541F085301B
:1015E00041F08091E80083FFC3CF81E0089582E05D
:1015F000089583E008958091170287FF13C08091BA
:10160000E80082FF06C08091E8008B778093E800B5
:10161000089580918B048111F2CF089580918B04FD
:101620008115D9F38091E80080FFF8CF8091E80020
:101630008E77ECCF2091E4003091E50095E6A9018A
:101640002091EC00822F817020FF06C08091E8007D
:1016500080FF06C080E008952091E80022FD1AC0B6
:1016600080918B04811589F0853089F08091EB00A1
:1016700085FD0FC02091E4003091E500421753072B
:10168000F9F29A95E1F684E0089582E0089583E006
:10169000089581E00895E8EDF0E080818E7F8083F9
:1016A0001092E2001092DA001092E100A0EEB0E099
:1016B0008C9181608C9380818F77808319BCA7ED9A
:1016C000B0E08C918E7F8C9380818F7E808310928E
:1016D00016020895982F9093E900891771F0709180
:1016E000EC002091ED005091F00021FD09C09F5FBA
:1016F000973089F78093E9000895762F242F50E0E2
:101700003091EB003E7F3093EB003091ED003D7F58
:101710003093ED003091EB0031603093EB0070932B
:10172000EC002093ED005093F0002091EE0027FD97
:10173000DECF0895A0E0B0E0E0EAFBE00C94022DDB
:10174000C8EDD0E088818F7E8883E7EDF0E080816E
:101750008160808384E082BF81E08093160288816B
:101760008E7F888302EE10E0F80110821092DA007A
:1017700081EEC82ED12CF601108288818F77888364
:1017800088818068888388818F7D888319BC1092C6
:101790008B0410921502109266041092140290EEBF
:1017A000E92EF12CF70180818B7F80838881816015
:1017B000888342E060E080E00E946A0BF60180814D
:1017C0008E7F8083F8018081816080838081886042
:1017D0008083F70180818E7F808388818061888308
:1017E000CDB7DEB7E8E00C941E2DE0911405909182
:1017F000130527E0E91302C080E00895AE2FB0E0A2
:101800002E9FF0011124EB5EFA4F3181361306C092
:101810003081381303C03581341304C0FD01319683
:10182000E770E8CF81E008950F931F93CF93DF9384
:101830008B01EA0190918B04943059F58093E90073
:101840008FEF9091E80095FD06C095ED9A95F1F720
:1018500000008A95B1F78091E80085FF1AC00E94C8
:101860001A0B811111C08091E80085FD06C080919E
:10187000E8008E778093E800F2CFF80181918F0124
:101880008093F100219779F78091E8008E7780931B
:10189000E800DF91CF911F910F910895CF93DF93CF
:1018A000D82FC92F48E050E0682F792F81E00E949F
:1018B000140C88E0ED2FFC2FAFE1B2E001900D9207
:1018C0008A95E1F7DF91CF910895BC0140E250E0A5
:1018D00084E00E94140C0895BC0146E050E084E0CE
:1018E0000E94140C0895BC0143E050E084E00E9483
:1018F000140C0895A0E0B0E0E0E8FCE00C94002DAA
:10190000182F092FB62EA72E7A0180910A029AE08D
:10191000C92ED12C8A3018F0CC24C394D12CC1E02C
:10192000D0E06B2D7A2D812F902FF7010995811131
:1019300016C02196CC16DD0694F0CC9FC001CD9F39
:10194000900D900D112420E030E045E34A95F1F729
:1019500000002F5F3F4F28173907B9F7E2CFCDB707
:10196000DEB7EAE00C941C2D9091110592FB222722
:1019700020F9281779F080FB92F990931105609176
:1019800010057091110584E090E00E94B72D82E06F
:101990000E94790608951F93CF93DF93962F122FFD
:1019A000632F8430D8F49830C8F44630B8F4C42F8C
:1019B000D0E0CC0FDD1F2CE0929FC00DD11D112473
:1019C00090E6899FC00DD11D1124CE0189960E94F9
:1019D000992D612FCE018A960E94992DDF91CF918A
:1019E0001F9108950F931F93CF93DF93962F142F7A
:1019F000022F632F843018F5923008F528E0829F7B
:101A0000E001112434E0939FC0011124C80FD91FB5
:101A1000C755DE4F81E084279E01280F311D280F16
:101A2000311DC9010E94992D81E090E0111102C081
:101A300083E090E0602F8C0F9D1F0E94992DDF9115
:101A4000CF911F910F9108958F929F92BF92CF9245
:101A5000DF92EF92FF920F931F93CF93DF9303E2F6
:101A600019E0E12CF12CC0E04701D0E015C0F601EF
:101A7000259135914B2D6D2F8C2F0E94CB0C22E0A0
:101A8000C20ED11CB39436E0B312F1CF86E0880EBB
:101A9000911CDF5FD83049F0C401880F991F9C0169
:101AA0002D55384F6901B12CE2CFF80125913591C0
:101AB00041E060E08C2F0E94F20CF80132962591F3
:101AC000359140E060E08C2F0E94F20CF8013496D2
:101AD0002591359141E061E08C2F0E94F20CF801D4
:101AE00036962591359140E061E08C2F0E94F20CF2
:101AF000085F1F4FCF5F30E3E30EF11CC43009F0E5
:101B0000B3CFDF91CF911F910F91FF90EF90DF90B6
:101B1000CF90BF909F908F900895CF93DF93C9ECA3
:101B2000D1E060E0CE010E94992D2196C11584E09C
:101B3000D807B9F7DF91CF910895CF93C82F64E20A
:101B4000811101C06FEF85E290E00E94992D68E05D
:101B5000C11101C06FEF86E290E00E94992D67E00D
:101B6000C11101C06FEF87E290E00E94992DCF91E3
:101B7000089580E00E949D0D60E088E290E00E9460
:101B8000992D0E94240D0E948D0D81E00E949D0DD3
:101B900008950F931F93CF93DF93843030F568300F
:101BA00020F5463010F5C42FD0E0CC0FDD1F2CE01F
:101BB000629FC00DD11D112430E6839FC00DD11D41
:101BC0001124CE0189960E947B2D082F10E0102F42
:101BD0000027CE018A960E947B2D9801282BC901EF
:101BE000DF91CF911F910F91089580E090E0F8CFA1
:101BF000FF920F931F93CF93DF93F42E843070F5F1
:101C0000623060F528E0829FE001112434E0639F98
:101C1000B0011124C60FD71FC755DE4F81E08427BE
:101C20009E01280F311D280F311DC9010E947B2DF7
:101C3000082F10E0102F002781E090E0F11002C083
:101C400083E090E08C0F9D1F0E947B2D9801282B34
:101C5000C901CDB7DEB7E5E00C94212D80E090E01E
:101C6000F8CF783048F4663070F4843060F4462F52
:101C7000672F0E94C90D08957D3F41F4623018F42A
:101C800041E0843050F080E090E008957C3FD9F747
:101C90006230C8F78430B8F740E00E94F80D08952C
:101CA000A0E0B0E0E6E5FEE00C94032D7C0100919D
:101CB0000E0580910D05082BC3E0D0E010E0C801AF
:101CC0000C2E02C0959587950A94E2F780FD09C015
:101CD0002197A8F7D12C8D2DCDB7DEB7E7E00C9476
:101CE0001F2DDC2EB7018C2F0E94310E0E94B007F1
:101CF000019771F3F0CF0F931F93CF93FC01858170
:101D000000811181811591F0611581F0C8010E9457
:101D1000500EC82F682FC8010E941B06B8018C2FD7
:101D20000E94310ECF911F910F910895C8010E941A
:101D30003506C82FF3CFCF93DF93D82FC92F0E943A
:101D4000500E6D2F7C2F0E94310E0E94B007DF9144
:101D5000CF910895FC0184818115A1F0808191814A
:101D60000E949B0E282F92959F70963099F060F4F8
:101D7000925F9F70923030F4203FB1F038F481E0F0
:101D8000283E38F080E008959A5FF3CF81E0243F49
:101D9000C9F7089591E0213F09F090E081E0283EE5
:101DA00008F080E0892B089581E0089585E290E0B5
:101DB0000E947B2D843289F486E290E00E947B2D84
:101DC000883059F487E290E00E947B2D91E08730C3
:101DD00009F090E0892F8170089580E0FCCF809118
:101DE0004C01811559F18091100587FF27C00E9491
:101DF00091068093E10140E250E06CEB74E080EEEC
:101E000091E00E94652D892BC1F080E2E0EEF1E0C7
:101E1000ACEBB4E001900D928A95E1F7E091DC041F
:101E2000F091DD04309749F086E08093E001048072
:101E3000F581E02D80EE91E0099508950E949106CC
:101E40008093D80148E050E06EED74E088ED91E0B9
:101E50000E94652D892B89F388E0E8EDF1E0AEED75
:101E6000B4E001900D928A95E1F7E091DC04F091E5
:101E7000DD04309711F30280F381E02D88ED91E0CD
:101E8000DBCF811539F090910A05892B80930A05E3
:101E90000E94EF0E0895811539F090911205892B5B
:101EA000809312050E94EF0E0895811521F00E9483
:101EB000B8060E94EF0E0895811541F0809590912B
:101EC00012058923809312050E94EF0E0895CF9387
:101ED000DF93EC014A855B856E857F850E949E09B4
:101EE0009B819095809112058923809312058C81A6
:101EF0000E94B8060E94EF0E86E0FE0111928A95BC
:101F0000E9F7DF91CF910895CF93DF93EC018D81B5
:101F100081FD17C082608D83809112059B81892B82
:101F20008093120580910A059C81892B80930A0574
:101F30000E94EF0E488559856E857F85CE010E94EF
:101F40009E0910920505109204058D8180FD03C045
:101F5000CE010E94670FDF91CF910895A1E0B0E01C
:101F6000E4EBFFE00C94FA2C462E4A01522EC32ECD
:101F70005701682E880F7708C3010E94702CD82E55
:101F8000811509F475C0C30133E0880F991F3A9594
:101F9000E1F7FC01E45EFE4F2381422F50E0211562
:101FA00011F041E050E0845E9E4FFC016481758138
:101FB0006E557B4FCE0101960E94722DF401408137
:101FC0005181628173812FB7F89480919E04909122
:101FD0009F04A091A004B091A1042FBF841B950B76
:101FE000A60BB70B84369105A105B10538F4B501F0
:101FF000C8010E94330999818917D1F1E42C042C7E
:10200000000CFF08C7010E94702CD82E811106C059
:10201000D12C8D2D2196E0E10C94162DC70123E0E3
:10202000880F991F2A95E1F7FC01E45EFE4F23819A
:10203000422F50E0A216B10408F4A501845E9E4F21
:10204000FC01648175816E557B4F852D9C2D0E940E
:10205000722DB501C8010E94330999818913D8CF27
:102060000E94600AF4016083718382839383D1CFDD
:10207000A501B801852D9C2D0E94722DCACFA4E028
:10208000B0E0E5E4F0E10C94022D6B0184E0E82E71
:10209000F12C03EA14E09E012F5F3F4F4AE954E020
:1020A00061E080E00E94AE0F811561F049815A81A4
:1020B0006B817C81409396045093970460939804BD
:1020C00070939904409196045091970460919804FC
:1020D00070919904F601408351836283738324963F
:1020E000E8E00C941E2DA8E0B0E0E9E7F0E10C94E4
:1020F000042D88E0E82EF12C08EA14E09E012F5F01
:102100003F4F42E954E063E082E00E94AE0F182F97
:10211000811589F19091A70480919104981759F144
:1021200000E09091AB048091AA048917F1F0E92FA7
:10213000F0E0EA55FB4F868187FB662760F99F5FD9
:1021400093709093AB049091A9049F5F9093A9041E
:102150008F770E94D208082F8111E3CF84E090E0AE
:102160000E94702C102F182302C00111F7CF80910C
:10217000A70480939104812F2896E6E00C94202DEB
:10218000A4E0B0E0E6ECF0E10C94072D40918C0463
:1021900050918D0460918E0470918F042FB7F89444
:1021A00080919E0490919F04A091A004B091A104FD
:1021B0002FBF841B950BA60BB70B11E0843691053E
:1021C000A105B10578F10E946C0ADC01CB010296F1
:1021D000A11DB11D89839A83AB83BC838091450186
:1021E000909146018E559B4F20914401422F50E023
:1021F000253010F044E050E0BE016F5F7F4F0E9439
:10220000722D85E090E00E94702C182F811551F0FE
:102210000E94600A60938C0470938D0480938E04F6
:1022200090938F04812F2496E3E00C94232DAB012F
:1022300024E630E0BC0188E70E948C2A9C0181E002
:10224000232B09F080E0089580915E04811569F0E8
:1022500080915D04811549F062E070E08AEC91E0C4
:102260000E941711811110925D04089580915E04FF
:102270008115F9F00E94600ADC01CB01805A95417A
:10228000AF4FBF4F80935F0490936004A0936104AD
:10229000B093620480915D0481110BC062E070E034
:1022A00088EC91E00E941711811519F081E080936C
:1022B0005D040895CF93DF93682F81E06A3019F0B1
:1022C0006D3031F480E00E94DA11DF91CF910895F2
:1022D00080915A0290915B0226E0FC01ADE0B2E0F1
:1022E00001900D922A95E1F7603E08F458C026E06F
:1022F000FC0111922A95E9F7C0915A02D0915B0234
:1023000046E050E0BE018DE092E00E94652D9E0106
:102310002C553240892B41F1C90145E096958795AE
:102320004A95E1F741E050E0BA0102C0660F771F1D
:102330008A95E2F7CB016091580270915902862B81
:10234000972BB9016B5F7F4FE5E076956795EA952E
:10235000E1F702C0440F551F6A95E2F7842B952BD5
:1023600090935902809358022A5F3F4F4091630433
:10237000642F70E0C9010E94E42C481B463010F421
:10238000240F311D211572E0370710F020E030E0F6
:10239000245A3D4F30935B0220935A0296CFF6E0C9
:1023A0006F9FB001112464537E4F46E050E00E94BD
:1023B0005C2DA2CFCF93382FE0915A02F0915B02AF
:1023C000EC55F24020916304622F70E0CF010E942F
:1023D000E42C281B822F311561F066E00E942F2D1E
:1023E000C82FC15010F4CF91089580E20E945A1175
:1023F000F8CF8E0F9F2F911D811522E0920710F0CC
:1024000080E090E0845A9D4F90935B0280935A0243
:10241000EACFCF93DF93EC01FE018491811106C0D6
:1024200081E00E94DA11DF91CF9108950E945A1144
:102430002196F2CF1F921FB61F9211248F939F9364
:10244000AF93BF9380916504811113C080919E0466
:1024500090919F04A091A004B091A1044196A11D68
:10246000B11D80939E0490939F04A093A004B09309
:10247000A104BF91AF919F918F911F901FBE1F909C
:1024800018952FB7F89480919E0490919F04A09185
:10249000A004B091A1042FBF08950E944112209181
:1024A000000530910105232B211521F08093800434
:1024B000909381042091020530910305232B21156F
:1024C00021F080937E0490937F04E091DC04F091EE
:1024D000DD04309749F082E08093FE040680F781A6
:1024E000E02D8EEF94E009950895209100059091DC
:1024F000030530910205611509F458C040910105AA
:10250000242B292B232B211531F098E09093FC04E8
:1025100091E09093FB04E3E3E80FE33150F4F0E043
:10252000E153F24D0C944F2D0E94590981958093EF
:1025300001050E944D1208950E945909F8CF0E948A
:102540005909819580930005F4CF0E945909FACF6B
:102550000E94790980930205ECCF0E947909819548
:10256000F9CF0E947909819580930305E2CF0E94FB
:102570007909FACF815D990B21E030E001C0220F8B
:102580008A95EAF78091FF04822B8093FF04D1CFD4
:102590008091FD0481608093FD04CBCF8091FD0488
:1025A0008260F9CF8091FD048460F5CF8D3C59F4B1
:1025B0008091010587FF0DC010920105211559F486
:1025C0001092FC0408C08E3C81F48091010518161D
:1025D0009CF3211581F08091020590910305892BD0
:1025E0008111A7CF1092FB04A4CF8F3C41F427FFA9
:1025F000F0CF10920005809101058115E0CF803D5C
:1026000019F41216B4F3E5CF893D29F413160CF72B
:1026100010920205DECF8A3D19F437FFDACFF8CFEA
:102620008B3D29F497FFD5CF10920305D2CF8C3D77
:1026300019F41916CCF3CDCF9FE2980F983090F48F
:10264000815D990B41E050E0BA0102C0660F771F2F
:102650008A95E2F7CB0180959091FF0489238093BE
:10266000FF04B7CF8D3D31F48091FD048E7F8093C0
:10267000FD04AFCF8E3D21F48091FD048D7FF7CF17
:102680008F3D09F0A6CF8091FD048B7FF0CFCF93D3
:10269000C82F8115D9F08CEF8C0F813AA8F5809165
:1026A0004C01811521F08091100587FD11C0EAEDE4
:1026B000F1E080EE91E02191C21701F18E179F07A2
:1026C000D1F78C2F0E94000A0E94EF0ECF9108953F
:1026D000EC2FE695E695E695F0E0E052FE4F82811C
:1026E00090E04C2F477021E030E002C0220F331FF2
:1026F0004A95E2F782239323892B19F38C2F0E94AA
:10270000340A0E94EF0EDDCF80E28C0F883068F42F
:10271000C77081E090E001C0880FCA95EAF7C091C8
:102720000A05C82BC0930A05CFCF8BE58C0F8330E9
:1027300038F42C2F2452330BC9010E94B409C6CFA0
:10274000E8E5EC0FEB3150F4F0E0EE0FFF1FE05640
:10275000FE4F808191810E94DA09B8CF83E38C0F0C
:10276000833108F0B3CF61E08C2F0E947512AECF99
:10277000CF93DF93EC01805E9109089720F06BE422
:102780007FE0209711F461E47FE0CE010E946405B0
:102790008C2F0E944713DF91CF910895CF93DF9341
:1027A000EC01FB018A81823039F4828193810E949D
:1027B000B8138D8182608D83DF91CF910895FB01E5
:1027C000808191810E94B8130895811581F19CEF59
:1027D000980F913A28F40E94340A0E94EF0E08954F
:1027E00090E2980F983050F4877091E001C0990FF3
:1027F0008A95EAF7892F0E94B806EFCF9BE5980FDC
:10280000933028F480E090E00E94B409089598E5A0
:10281000980F9B3128F480E090E00E94DA09089537
:1028200093E3980F933118F460E00E9475120895B5
:10283000CF93DF93EC010E94E513CE01805E9109F6
:10284000089720F06CE57FE0209711F465E57FE0C4
:10285000CE010E946405DF91CF910895FB01DC0158
:1028600012968C91813029F4808191810E941814F4
:1028700008958230E9F782819381F8CF0F931F93F7
:10288000CF93C82F8B010E9447130115110539F40E
:102890008C2F0E94E513CF911F910F9108958FE91E
:1028A0009FE00197F1F700C0000001501109EDCF42
:1028B00010920A0580914C01811539F18091100523
:1028C00087FF23C0E2EEF1E08EE1DF011D928A95E1
:1028D000E9F780E090E00E94B40980E090E00E9477
:1028E000DA09109212050E94EF0E86E0EEEFF4E096
:1028F000DF011D928A95E9F71092FC041092FB0407
:102900001092FD040E944D120895EAEDF1E086E078
:10291000DCCF0E9458142FEF84E39CE021508040CC
:102920009040E1F700C0000088E19AE00FB6F8940B
:10293000A895809360000FBE90936000FFCFAAE23D
:10294000B0E0E5EAF4E10C94072D87E192E0FC01A8
:1029500001962091F100208322E08F319207B9F790
:1029600080911802893009F456C0C8F4823009F405
:10297000B3C0833009F482C0813071F18091E800E6
:1029800083FFE7C080911702909118029A3008F0F7
:10299000E0C0E92FF0E0EE51F24D0C944F2D8A305B
:1029A00009F489C08B3051F780911702813231F7D9
:1029B00080911B0290911C02892B01F78091E80005
:1029C000877F8093E8000E94FB0A80911902809320
:1029D0004C010E945814D2CF80911702813A71F6AF
:1029E0008091E800877F8093E80080911B0290919E
:1029F0001C02892B61F060E080E090E070E00E94B2
:102A0000A20A8091E8008B778093E800B7CF68E056
:102A10008FE192E0F3CF80911702813209F0AECFBF
:102A200080911B0290911C028D7F892B09F0A6CF0B
:102A30008091E800877F8093E8008091E80082FF22
:102A400018C09091F3008091F200029731F48091C8
:102A5000F100813011F0863021F48091F1008093F3
:102A600027028091E8008B778093E8000E94FB0AA0
:102A700085CF80918B048111E0CF80CF80911702A8
:102A8000813A09F07BCF80911B0290911C02892B27
:102A900009F074CF8091E800877F8093E8008091EF
:102AA000E80080FFFCCF80914C018093F100809181
:102AB000E8008E77D9CF80911702813209F05ECF7E
:102AC0008091E800877F8093E8000E94FB0A809154
:102AD0001A028093130252CF80911702813A09F0B3
:102AE0004DCF8091E800877F8093E8008091E800D7
:102AF00080FFFCCF80911302D8CF803889F08238D4
:102B000041F580911B028F70873018F58093E900A2
:102B10008091EB0085FB882780F91092E90006C0C0
:102B200080916604880F90911402892B9091E8009F
:102B3000977F9093E8008093F1001092F1008091CC
:102B4000E8008E7723C0811116C080911902813070
:102B500011F18091E80083FF0AC08091E800877F2F
:102B60008093E8008091EB0080628093EB00AA964E
:102B7000E3E00C94232D823061F7809119028115D6
:102B800089F01092E9008091E800877F8093E80047
:102B90000E94FB0ADECF81E0933009F080E0809351
:102BA0006604EFCF80911B028F702FEF280F263025
:102BB00080F68093E9002091EB0020FFE2CF933074
:102BC00031F48091EB0080628093EB00DACF90913A
:102BD000EB0090619093EB0021E030E0A90102C08E
:102BE000440F551F8A95E2F74093EA001092EA00DD
:102BF0008091EB008860E8CF8111ABCF1091190272
:102C00001F778091E3008078812B8093E30080918F
:102C1000E800877F8093E8000E94FB0A8091E8002B
:102C200080FFFCCF8091E30080688093E30083E025
:102C3000111101C082E080938B048BCF80588230C9
:102C400008F087CF8091190290911A028C3D53E0D1
:102C5000950799F583E08A838AE289834FB7F894D0
:102C6000DE01139620E03EE051E2E32FF0E05093C6
:102C70005700849120FF03C082958F703F5F8F7053
:102C80008A30C8F0895C90E08D939D932F5F24314A
:102C900061F74FBF8091E800877F8093E8006AE288
:102CA00070E0CE0101960E94A20A8091E8008B7725
:102CB0008093E8004ECF805DE6CF292F3327233065
:102CC000310509F44DC078F52130310509F47CC097
:102CD0008BE590E0ECE0F7E02230310509F039CFE8
:102CE0002091E800277F2093E80020911D02309179
:102CF0001E028217930708F49C0140E0211531055C
:102D000009F067C0411165C08091E80082FDCDCF18
:102D100080918B04811549F2853039F28091E80069
:102D200083FFF2CFC2CF80911B0290911C0221320F
:102D30003105D9F12232310509F00BCF83309105ED
:102D400008F007CFFC01EE0FFF1FE059FE4F019086
:102D5000F081E02D83599E4FDC018C9190E011C0F1
:102D60009C013327813089F022303105B1F0232BCB
:102D700009F0EFCEEFE9F7E0E4918E2F90E0EFE974
:102D8000F7E0009709F4E5CEABCFEFE8F7E0E49188
:102D90008E2F90E0EFE8F7E0F4CFE9E7F7E0E49179
:102DA0008E2F90E0E9E7F7E0ECCF8330910508F053
:102DB000D0CEFC01EE0FFF1FEA58FE4F0190F081CC
:102DC000E02D89E090E08CCF82E190E0E7E6F7E04B
:102DD00087CF80918B04811509F467CF853009F482
:102DE00064CF8091E80083FD60CF8091E80082FD90
:102DF0008BCF8091E80080FF81CF9091F30080918C
:102E0000F2002115310519F08830910550F041E0AC
:102E1000089709F040E08091E8008E778093E80001
:102E20006DCF44914093F1003196215031090196C4
:102E3000E8CF803809F08DCE8091E800877F8093BD
:102E4000E800809115028093F10079CE811181CE46
:102E500010911902123008F07CCE8091E800877F33
:102E60008093E800109315020E94FB0A1115D1F01F
:102E700084E080938B0442E061EC81E00E946A0B65
:102E800042E261EC84E00E946A0B42E261EC82E083
:102E90000E946A0B42E260EC83E00E946A0B809120
:102EA0008B0457CE8091E30087FDE2CF81E0E1CF34
:102EB0009C014FB7F89480919E0490919F04A0913B
:102EC000A004B091A1044FBF821B930B08952F92D1
:102ED0003F925F926F927F928F929F92AF92BF923A
:102EE000CF92DF92EF92FF920F931F93CF93DF93D6
:102EF00080915E04811509F46BC080914C02909121
:102F00004D020E945817C29708F442C00E94411215
:102F100090934D0280934C028CE592E090935B027B
:102F200080935A028091B504811509F46CC082EB3C
:102F300099E00E94091280910E050E94900582304E
:102F400009F45BC038F4811155C08EEA99E00E9403
:102F5000091203C0833009F453C00E94A309C82F8B
:102F60008BE999E0C0FD02C086E999E00E94091250
:102F700081E999E0C1FD02C08CE899E00E94091244
:102F800088E899E0C2FD02C083E899E00E94091236
:102F90008091580290915902892B09F041C080918B
:102FA0005D048115A9F00E94600A00915F041091F0
:102FB00060042091610430916204601B710B820BEC
:102FC000930B6F3F7F4F8F4F9F4710F40E94241148
:102FD000DF91CF911F910F91FF90EF90DF90CF90F5
:102FE000BF90AF909F908F907F906F905F903F9039
:102FF0002F90089589EA99E0AACF84EA99E0A7CFB3
:103000008FE999E0A4CFE3E4F9E08491EF01811521
:1030100009F4BECF0E945A112196FE018491F7CF88
:1030200080915E04811509F4BACF80915C0481110E
:10303000B6CF0E94361120915802309159022115C5
:10304000310509F4ACCF10E041E050E0812F90E071
:103050001A01012E02C0220C331C0A94E2F7B101BE
:1030600062237323672B11F41F5FF0CF2091640458
:1030700020FF94C0912F990F990F990F37E0390FC6
:1030800080E023E090930A0180930D0130930B01BF
:1030900020930E0124E630E047E050E068E071E064
:1030A00088E70E943D2A892B09F079CFF0E21F9F23
:1030B000A00111248091640480FF7CC0ECE2F2E066
:1030C00080E2DF011D928A95E9F7A0E8B1E00CE704
:1030D00011E084E8C82E81E0D82E97E0592E77249D
:1030E00073948D91E80129918E01240F352F311DA4
:1030F000245A3D4FE82FF0E0E45DFD4F80E090E082
:10310000652C681A872C082E01C0880C0A94EAF7EF
:103110007901A12CE701B9907E01B820662D6A19CA
:10312000677070E0DB2D062E01C0DD0F0A94EAF710
:103130009D2E7195619571096770772701C0B694CE
:103140006A95EAF79B286081962A9082A39468E0AA
:10315000A612E0CF019631968830910589F6CA16FD
:10316000DB0609F0BECF04E610E020E230E04CE2DE
:1031700052E060E488E70E94D72A892B09F00FCF3C
:10318000E101C095D09580915802909159028C230D
:103190009D23909359028093580201CF969587956D
:1031A00096958795282F912F9295990F90763FE1CC
:1031B000390F68CF445A5D4F04E610E020E230E05A
:1031C000D8CFFF920F931F93CF93DF93C62FD42FA7
:1031D000122F8115A9F0609308050E944112909367
:1031E0000C0280930B02C77081E001C0880FCA9562
:1031F000EAF70E94410FCDB7DEB7E5E00C94212D30
:1032000080910805681332C080910B0290910C02E6
:103210000E945817883C910548F500E20D0FCD1724
:10322000A9F0C770FF24F3948F2D01C0880FCA95B1
:10323000EAF70E94550F083048F48D2F877001C0BF
:10324000FF0C8A95EAF78F2D0E94410F60E070E035
:10325000812F0E943E14083070F6D77081E001C0C3
:10326000880FDA95EAF70E94550FC5CFC77081E045
:1032700001C0880FCA95EAF7F6CFA8E0B0E0E3E412
:10328000F9E10C94F82C6C01FC018481811509F49E
:10329000D1C061E0C6010E947B0E8C01F6018581E0
:1032A000811519F180910405909105050097E9F0C9
:1032B00008171907D1F0992764E0880F991F6A95BC
:1032C000E1F7FC01EE5AFE4F208124602083835BEE
:1032D0009E4FFC01118300830E94840F10921205FF
:1032E00061E0C6010E947B0E8C01F601858181158B
:1032F00009F441C1980137572038310508F03BC126
:10330000003108F087C08FEF93E00E947B2D811180
:1033100081C059ECE52EFF24F39401114FC0CE017A
:1033200001964C0188E0F40111928A95E9F74AE090
:10333000342E87010F5F1F4FC7010E947B2D8983A9
:103340001A82811509F466C0813009F077C05701EF
:10335000F2E0AF0EB11CC8010E947B2D8A8381155B
:1033600009F458C09FEF980F9330B8F523E0E20EB0
:10337000F11CC5010E947B2D8B83811509F44AC085
:103380001C828401F8012081211599F2213009F075
:1033900096C08181813009F053C05801F2E0AF0E30
:1033A000B11CF801828160E5893309F060E070E0CA
:1033B0000E943E1485010F5F1F4FE4CFE114F4E03B
:1033C000FF0641F1C7010E947B2D97012F5F3F4F00
:1033D00079018111F3CF0150A0CF8430A1F402E034
:1033E00010E0C5013FEFA31AB30A0E947B2DF40140
:1033F000E00FF11F8083811569F08C3731F4FE01F5
:10340000E00FF11F12827501BCCF0F5F1F4F073015
:10341000110539F780910F058770811559F0F60174
:103420008581811539F08091110582FF03C082E00A
:103430000E9479062896E2E10C94142D7801A1CF20
:10344000823049F45801F2E0AF0EB11CF8018281DC
:103450000E944713AFCF833049F45801F2E0AF0E1A
:10346000B11CF80182810E94E513A4CF843019F0C9
:103470000F5F1F4FA0CF22810E5F1F4F80E090E0B3
:10348000A8014F5F5F4F2053330B2A30310558F0AE
:10349000009709F490CFEFE9FFE03197F1F700C012
:1034A00000000197F5CF389EB001399E700D1124B0
:1034B000C901860F971FF80121818A01E1CFE22F10
:1034C000F0E0E65FF54F2490822F869586958695ED
:1034D00090E0FC01E650F64FE4912770F0E0022EF8
:1034E00002C0F595E7950A94E2F7E1704E2E552457
:1034F000FC01E651F64FE491F0E0022E02C0F59592
:10350000E7950A94E2F7E1706E2E7724FC01E6520B
:10351000F64FA490B12C02C0B594A7942A95E2F777
:10352000A0FAAA24BB24A0F84114510419F081EE9A
:103530000E9447136114710419F086EE0E9447132C
:1035400060E070E0822D0E943E146114710419F055
:1035500086EE0E94E5134114510419F081EE0E9499
:10356000E513A114B10409F426CF60E070E08CE209
:103570000E943E1420CF980137552115314008F0A4
:1035800076C0F801FF2734E0EE0FFF1F3A95E1F710
:103590009F01235B3E4F7901EE5AFE4F908180FBE5
:1035A00090F99083811509F447C00E9441129093CD
:1035B000070580930605F70182818F5F82838091E2
:1035C000120590910A05892B838380910B058483D2
:1035D0004681578166857785C7010E949E09F7015C
:1035E000858181FD26C0902F812F909304058093C3
:1035F0000505F6018581811509F4BCC31092080503
:10360000980130572332310508F0C2C384E090E0BE
:103610000E94832D9093110580931005F801E150CD
:10362000F047E232F10508F04AC0E451F24D0C9443
:103630004F2D90E080E0D9CFF9014485558566850E
:103640007785C9010E949E09F701858181FFD1CF4D
:10365000C7010E94670F8091040590910505081726
:10366000190739F61092050510920405C2CFF8012A
:10367000E851FC47E730F10508F0BBCFE25FF14DC0
:103680000C944F2D26E241EE61EE0E94E118C2CE6D
:1036900027E245EE65EEF9CF26E241EE60EEF5CF8A
:1036A00027E245EE64EEF1CF26E241EE62EEEDCF89
:1036B00027E245EE66EEE9CF28E241E0EBCF8091CC
:1036C00010058160809310056091100570911105BF
:1036D00084E090E00E94B72D0E9458149BCE809108
:1036E0001105886080931105EFCF809110058260ED
:1036F000E9CF809110058460E5CF80911005886046
:10370000E1CF809111058160EDCF8091110582603C
:10371000E9CF809110058061D5CF8091100580623E
:10372000D1CF809110058064CDCF0E945814809134
:1037300010058068C7CF809110058C60C3CF809141
:1037400011058360CFCF809110058E7FBBCF809114
:103750001105877FC7CF809110058D7FB3CF8091F2
:1037600010058B7FAFCF80911005877FABCF809105
:1037700011058E7FB7CF809111058D7FB3CF8091DA
:1037800010058F7E9FCF809110058F7D9BCF8091FC
:1037900010058F7B97CF0E945814809110058F776A
:1037A00091CF80911005837F8DCF809111058C7F03
:1037B00099CF80911005992782FF939590FB82F90C
:1037C00090FB83F97FCF80911105982F909590FB06
:1037D00080F990FB81F986CF90911005892F8F7B1E
:1037E00096FF80646FCF0E94581490911005892F26
:1037F00097FB87F9805866CF61E08EE090E00E94E9
:10380000992D62CF60E0F9CF90911005892F8F7EBE
:1038100094FF806157CF90911005892F8E7F90FF84
:10382000816050CF90911105892F877F93FF886029
:1038300059CF89E2BFC289E2A8C20737FCE71F0758
:1038400009F469C008372CE7120709F473C0811521
:10385000A9F00A353CE7130709F498C008F070C0D6
:1038600001309CE7190709F48FC00330ECE71E070D
:1038700009F484C001151C4709F473C0F601858161
:10388000E080F180811509F485C0C7010E94500EC7
:10389000182F682FC7010E941B06B701812F0E94B5
:1038A000310E0E94B0078C01F601B580A680A2946B
:1038B0002FE0A22280910F058770811501F1EB2C7A
:1038C000B114F1F0812F807F803461F080E2800FAD
:1038D0008830A8F0812F807E803221F4023078F089
:1038E000A11469F08091110582FF09C082E00E9455
:1038F000790680910F058770EE24E3948111E12C05
:10390000E12FE295EF70103C08F0AFC0F0E0EB5E05
:10391000F14D0C944F2D811549F081E00E94A905CD
:1039200043E062E081E00E944E0674CD81E00E9497
:10393000B505F6CF811511F082E0F0CF82E0F7CF28
:103940000B352CE7120721F180911105002482FF2D
:103950000394802D0C351C4709F090CF0E94B40CC5
:103960008DCF0E9458148FEF94E3ECE0815090408B
:10397000E040E1F700C000000E948E0A6FEF7FEF89
:1039800080E090E00E94B72D0E94891481E0E6CF8C
:1039900080E0E4CFC7010E943506182F7ECFF12FBB
:1039A000FF70FF2E103118F0F29490EFF922B1144D
:1039B000B9F0F11469F080E2800F883010F0011145
:1039C00009C080910A058F2980930A050E94EF0E95
:1039D000802F43C0809112058F2980931205F6CF66
:1039E000802F0E94E513F11409F43FC080E2800F9C
:1039F000883010F0011104C08F2D0E94B80606C057
:103A0000F094809112058F21809312050E94EF0E91
:103A10002CC0212F2F70F22E107F103219F0F2944B
:103A200080EFF822011549F0013009F46BC0B114A0
:103A300009F477C0A114C9F1CBCF8091110582FDA3
:103A400030C0B11469F0F11439F080910A058F2962
:103A500080930A050E94EF0E80E00E94471305C084
:103A600080E00E94E513F110C7CFE114A9F0809126
:103A70000F0580FD11C0F601158286958695869505
:103A80000E94A905C6010E943D1980910F058695E7
:103A9000869586950E94B50560E0C6010E947B0E62
:103AA000C9CCB11499F0A11004C08F2D0E94410F10
:103AB000DCCF31E0A312D9CF80910B059F2D982345
:103AC000F91699F28F2980930B05CFCFA110CDCF96
:103AD0008F2D0E94550F90910B058F2D89238115F5
:103AE00029F08F2D8095892380930B0580910C05FB
:103AF0009F2D9823911509F4B8CFF094F822F092F5
:103B00000C05B3CFB11429F086E0A81608F0ADCFAC
:103B1000CCCF95E0A91608F0A8CF8F2D0E94550FA5
:103B2000A4CFA114D1F3093349F4EFEFF7EE23E06A
:103B3000E150F0402040E1F700C00000802F0E94DB
:103B4000E51393CF812F869586958370811561F05B
:103B5000813009F08ACFC8019370B11002C080E0B3
:103B600090E00E94DA0981CFC8019370B11002C0C1
:103B700080E090E00E94B40978CF6B2D802F0E94E6
:103B8000751273CF812F8370811134C0B11027C09B
:103B9000402F429546954770440F440F802F8F70F9
:103BA000042E01C0880F0A94EAF7202F207104FF29
:103BB00007C02FE030E001C0220F4A95EAF72095B8
:103BC000169516951370123081F0133061F0309114
:103BD0000D05113039F0822B83230E94A3050E942A
:103BE000A30943CF832B822BF8CF822B90910D0515
:103BF0008927F3CFB11451F110FFF1CF402F429537
:103C000046954770440F440F802F8F70042E01C0DB
:103C1000880F0A94EAF7202F207104FF07C02FE0D5
:103C200030E001C0220F4A95EAF7209516951695C7
:103C30001370123089F0133069F030910E05113095
:103C400041F0822B83230E94A605C9CF8230B0F6B3
:103C5000C6CF832B822BF7CF822B90910E0589271D
:103C6000F2CF1F70B11439F0812F0E94A905802F67
:103C70000E94410FB4CF802F0E94550F812F0E94C8
:103C8000B505ADCF023F71F170F4003FC9F0013FBF
:103C900091F0B11409F45AC0A11409F454C0802F52
:103CA0000E9447139CCF033F21F1043F91F780917D
:103CB000110582FD2AC0812F8F71B11401F316C046
:103CC000B11469F035E0A31608F089CF1F7181E0C7
:103CD00090E0012E01C0880F0A94EAF7BECF86E07B
:103CE000A816F2CF812F8F71B110C9CF0E94A905FC
:103CF00076CF80E0B11409F4A6CF1F7181E0012EC8
:103D000001C0880F0A94EAF79ECFB11489F01F71A1
:103D1000812F0E94A9058091110582FF07C0812F84
:103D2000880F880F880F836080930F05812FDECF67
:103D300081E00E94790692E0A91608F450CF82E053
:103D40000E9479064CCF812F8F71D0CFA11479F0CA
:103D5000093349F4EFEFF7EE23E0E150F040204063
:103D6000E1F700C00000802F0E94E51338CF812FBB
:103D70008F7185CF0631FCE71F0709F05ECD80917A
:103D80000905811509F457CD85E30E94340A14C052
:103D900006312CE7120709F050CD80910A058A7A86
:103DA00091E0811101C090E090930905811509F41B
:103DB00040CD85E30E94000A0E94EF0E2BCB80913C
:103DC0005305803178F480915205811559F0E091C6
:103DD00014052091130530914E0540914D0557E093
:103DE0002E1301C008956E2F70E05E9FF001112424
:103DF000DF01AB5EBA4F14968C911497811561F177
:103E000011968C911197831327C08C91841324C031
:103E100015968C91159781111FC012968D919C91CA
:103E2000A0914F05B09150058A1B9B0B883C9105D2
:103E300098F4809153058F70806180935305E55EFF
:103E4000FA4F80818F70806180838DE495E00E94BD
:103E50003D190E946F060895FB013196E770C0CFAF
:103E6000ADE0B0E0E6E3FFE10C94FC2C8C0186E0D1
:103E7000F801DE01189601900D928A95E1F7F8019C
:103E8000F58084819DE4892E95E0992E60905105FE
:103E9000611018C0811599F0F11409F415C1C80119
:103EA0000E94AA0E811509F40FC187E0F801ADE464
:103EB000B5E001900D928A95E1F70E94DF1EFF2484
:103EC000F39456C07080A280B380D09052052091A8
:103ED0004F0530915005A501421B530BD11409F435
:103EE000C3C0483C510508F079C0811541F3809169
:103EF0004E05C180E090530550E1E51608F059C029
:103F0000C81215C080914D05871111C0F1104BC02A
:103F10008E2D8F708061809353058DE495E00E9413
:103F20003D1980915305F8018683F12C21C0F110D1
:103F30003AC040E06C2D872D0E94F50B40E06C2DBF
:103F4000872D0E94F50BF82E8111EFCF888599857A
:103F50000E949B0E292F22952F70903470F49F7031
:103F60002230A0F09115B1F0F8019681903190F4D3
:103F70008F2D2D96EEE00C94182D2A5F2F70223095
:103F800068F0C8010E943D19FD2CF2CF911511F087
:103F9000811571F3805E883058F3F3CF803F40F392
:103FA000815F8330F9CF8091530581608093530501
:103FB000BCCFC8123BC080914D05871137C0F110AE
:103FC00035C0E682C8010E943D1987E0F801ADE4E2
:103FD000B5E001900D928A95E1F771CFE09053051D
:103FE000F0E1EF1650F48DE495E00E943D1987E072
:103FF000F40111928A95E9F798CF811509F45FCF02
:1040000090914E05F8018181981310C080914D0563
:1040100087110CC0F1100AC0E682C8010E943D1948
:1040200087E0F40111928A95E9F749CFC8010E940F
:10403000AA0E811509F448C0F11409F445C0809115
:104040005305803208F431CF80914D0590914E0593
:104050009A838983BC82AB826D821E82EF82CE01FD
:1040600001960E943D1921CF483C510508F0BFCF71
:10407000811509F424CFF11439F190914E05818115
:10408000981318C080914D05871114C08091530575
:1040900080FD9BCF803108F498CF8683807F803F5E
:1040A00009F490CF8681982F907F905F8F70892B35
:1040B000868388CFC8010E94AA0E8111F6CE809116
:1040C0005305816080935305C8010E943D19F7CEC6
:1040D000ABE1B0E0EEE6F0E20C94062D4E8B5F8B88
:1040E000688F798F8A8F192F9B8F911110921205EB
:1040F0001D8A86E0FE017696DE011F9601900D92E4
:104100008A95E1F70A8D011539F00B8B1C8B61E064
:10411000CE010F960E947B0E0B8B1C8B87E0FE015D
:104120003F96DE01189601900D928A95E1F7CE0137
:1041300008960E94301F811128C0209113053091EC
:10414000140587E0FE013896DE01119601900D926C
:104150008A95E1F78C858115C1F0822F90E0019658
:104160008770992738171906D9F097E0929FD001E8
:104170001124AB5EBA4FFE01319601900D929A95D3
:10418000E1F7809313050E946F0617E080911405F4
:1041900090911305891312C06B96E4E00C94222DC4
:1041A0000E945814109213051092140587E0EDE454
:1041B000F5E0DF011D928A95E9F7E7CF189FC0016E
:1041C00011248B5E9A4F0E94301F811529F3809134
:1041D000140590E001968770992780931405D6CF37
:1041E000A6E0B0E0E6EFF0E20C94062D0E9441124A
:1041F0008C018091BA049091BB048017910779F0EB
:1042000019821A820E944112BC0149815A8180E0C0
:1042100090E00E9468201093BB040093BA04269695
:10422000E4E00C94222DACE0B0E0E9E1F1E20C9482
:10423000022D80E01CEF0DEFFF24F39490917304A6
:1042400020917204291709F443C0E92FF0E0EC58DB
:10425000FB4F808187FBCC24C0F8D82EE894D7F898
:104260009F5F937090937304909171049F5F9093FC
:10427000710487FD07C0DF8218870E94411223E086
:10428000E22E06C0DF8208870E94411232E0E32E50
:10429000BC0189879A87EB86FC864F8158858E2DD5
:1042A00091E00E946820D982C11481F00A830E94A3
:1042B0004112BC018B839C83ED821E8249815A810D
:1042C0008E2D90E00E94682081E0B8CF1A83EFCF56
:1042D0002C96E8E00C941E2DACE0B0E0E2E7F1E2B1
:1042E0000C94F92CFE01319688E0DF011D928A952D
:1042F000E9F784E8E82E81E0F82E8F0198E8692E2E
:1043000091E0792E2F01AA24A394B12C3EE8832EAC
:1043100031E0932EF70181917F018F3F09F43EC078
:10432000F894E82FE295EF70F0E021A18F70A501DD
:1043300002C0440F551F8A95E2F7CA01922F982BAD
:1043400091A392A18095892382A3789400C0E8E884
:10435000F1E031E0312C21912F3F79F0A22FA2958D
:10436000AF70A05EB0E08C9190E02F7002C0959588
:1043700087952A95E2F780FF7EC080E0382A330FC8
:104380008E169F0641F7F70182918F3F11F00E9430
:10439000B50850EA5A95F1F7D8013C920F5F1F4FCC
:1043A0006E147F0409F0B6CF48E050E0B2018EE40D
:1043B00092E00E94652D6C01892B41F088E0F201AA
:1043C000AEE4B2E001900D928A95E1F700915702B8
:1043D00010E00D571B4FC114D10409F44EC081E009
:1043E000809309020E944112909308028093070271
:1043F0008091B404811509F497C07E01B9E0EB0EF9
:10440000F11C84E0F70111928A95E9F780910A0284
:104410008A3008F054C04FE350E1B701C8010E9450
:104420007A0C811509F46EC043E750E1B701C80169
:104430000E947A0C811509F465C040EC50E1B70187
:10444000C8010E947A0C811509F45CC010920A021E
:104450008091560290E044E050E0B7018D579B4FA9
:104460000E94652D21E020930602892BE9F52C9608
:10447000E1E10C94152D832F81CF809109028115E4
:1044800009F4B6CF80910702909108020E94581754
:10449000059708F4ADCF44E050E06EE472E0C80147
:1044A0000E94652D892B41F084E0EEE4F2E0D80112
:1044B00001900D928A95E1F71092090299CF8091AF
:1044C0000402909105020E945817843F914008F021
:1044D000A2CF80910602811551F284E0D7011D928E
:1044E0008A95E9F710920602E0915602F0E0ED5746
:1044F000FB4F89859A85AB85BC8580839183A28398
:10450000B383B5CF80910A028F3F39F40E944112E4
:104510009093050280930402DCCF8F5F80930A02A0
:104520008A3008F495CFF2CFF80180819181A28181
:10453000B3818093A3049093A404A093A504B093A3
:10454000A60464E070E083EA94E00E94330980935B
:10455000A20488E0E0E7F4E0A8EAB4E001900D925C
:104560008A95E1F768E070E088EA94E00E943309F8
:104570008093A704C090B004D090B104E090B2043E
:10458000F090B3048091000290910102A091020288
:10459000B0910302C816D906EA06FB0609F467CFF4
:1045A000C0920002D0920102E0920202F092030255
:1045B0000E94600AC61AD70AE80AF90AC092B6042D
:1045C000D092B704E092B804F092B90450CFCDB7BE
:1045D000DEB7A2970FB6F894DEBF0FBECDBF85B78A
:1045E000806885BF85B7806885BF84B7877F84BFB3
:1045F0000FB6F894A8958091600088618093600060
:10460000109260000FBE80E890E00FB6F89480939F
:104610006100909361000FBE83EB98E09093D70107
:104620008093D6010E944B0B0E949A0B8091E2006E
:1046300084608093E200789480918B04811599F0D6
:104640008091E9001091EC008F7017951127179554
:10465000182B1092E9008091E80083FD0E949F14BE
:104660001F701093E90082E084BD93E095BD9AEF3E
:1046700097BD80936E001092B6041092B70410920A
:10468000B8041092B9040E94D60E811102C00E9493
:10469000B90D8091D80080618093D8002AE12A95D5
:1046A000F1F700C08091D900182F117080FD04C06F
:1046B0000E944B0B10928B041093B4041093B5041A
:1046C0001093110111110E94822BE0E7F4E088E0C1
:1046D000DF011D928A95E9F78091110191E0892708
:1046E00080937A048091110190937D04809111014F
:1046F00080911101811106C086E38093100187EF3C
:1047000080930F0160E080E00E94F30861E080E0A8
:104710000E94F308EFE8F1E03197F1F700C00000E4
:1047200010E080917D04181708F4D2C08091110127
:104730008091110191E08927880F880F809357029B
:1047400094E0981B9093560284EF0E94B50885EF81
:104750000E94B50886EF0E94B50882E30E94B50862
:1047600008E811E04EE8A42E41E0B42ED8018D9166
:104770008D018F3F11F00E94B508A016B106B1F768
:1047800088E0E3E8F4E0DF01282F1D922A95E9F79D
:10479000EEE4F2E0DF011D928A95E9F780E090E017
:1047A0000E94832D863E9E4F21F40E94D60E8111D9
:1047B00068C066EE7EEF80E090E00E94B72D60E07A
:1047C00082E090E00E94992D81E080930D0561E0E8
:1047D00083E090E00E94992D60E074E184E090E035
:1047E0000E94B72D60E086E090E00E94992D60E085
:1047F00087E090E00E94992D40E050E0BA0188E007
:1048000090E00E94AB2D60E084E290E00E94992D40
:1048100060E087E190E00E94992D60E08CE090E0FC
:104820000E94992D60E08DE090E00E94992D198200
:104830001A821B821C821D821E821F82188648E0FB
:1048400050E068E170E0CE0101960E94892D40E0C1
:1048500050E0BA0180E290E00E94AB2D80E00E941F
:104860009D0D0E94B90D40E050E0BA018FE090E04C
:104870000E94AB2D40E050E0BA0183E190E00E943D
:10488000AB2D82E090E00E947B2D8093670484E052
:1048900090E00E94832D90931105809310050E9453
:1048A0006C21EFEFF6E721E0E150F0402040E1F726
:1048B00000C000000E946C218091830480FF1AC018
:1048C0006FEF7FEF80E090E00E94B72D0E948E0A8C
:1048D00060E0812F0E941609082F61E0812F0E945D
:1048E0001609E12FF0E0E558FB4F880F802B8083FD
:1048F0001F5F17CF83E090E00E947B2D0E94A305ED
:104900008091B50492E0980F811509F4C0C080E24F
:1049100090936404809363040E94072A6BE070E024
:104920008FEC99E00E941711811509F43FC0809126
:10493000640465E070E081FDACC08AEC99E00E94FF
:104940001711811599F16DE070E088EB99E00E94F4
:104950001711811559F10E94600ADC01CB01805AC0
:104960009541AF4FBF4F80935F0490936004A09335
:104970006104B0936204ECE5F2E080E092E0DF01D4
:104980009C011D9221503040E1F7F0935B02E093CF
:104990005A028FEF9FEF909359028093580281E063
:1049A00080935E0480935D0410925C048091B40453
:1049B000811102C00E94852B82E191E09093DD0479
:1049C0008093DC042BE8422E24E0522E30E7632E45
:1049D00034E0732E80918B04853049F480918B04F0
:1049E000853009F459C00E9458140E94A3090E94FE
:1049F0006C2108E614E093E8A92E94E0B92ED501C5
:104A0000F80191918D916E167F0609F497C0981761
:104A1000C1F3B091B404BAA3912CF50181905F0168
:104A2000D8018D918D01881549F1882589A3312CF4
:104A30002224239489A182218115C9F0BAA1B1153C
:104A4000B1F039829A820E9441129C838B83E1E00B
:104A5000ED8391E0882D8221811101C090E09E8339
:104A600049815A816B817C818D810E9468203394B9
:104A7000220CF6E03F12DECFF8018292939428E0F8
:104A80009212CBCF0E946C0A882483945CC080E889
:104A90003FCF85EC99E053CF80918B04843031F186
:104AA0000E9424111092650488E190E0A0E40FB602
:104AB000F894A895809360000FBEA093600083B720
:104AC000817F846083BF83B7816083BF789488953A
:104AD00083B78E7F83BF0FB6F894A895809160004E
:104AE000886180936000109260000FBE8091660420
:104AF000811509F473CF0E946C21E3E8F4E0819101
:104B0000811104C04E165F06D1F768CF80E189BDE0
:104B100082E189BD09B400FEFDCF8091D8008F7D70
:104B20008093D8008091E00082608093E0008091C3
:104B3000E00081FDFCCF0E94581450CF981369CF3C
:104B40000E94F020812C8091B404811111C0912C1D
:104B500080919004811551F010929004809172041C
:104B6000809373048091700480937104B12C63C0AE
:104B7000009104051091050501151105F1F08091D2
:104B80000605909107050E945817893C9105A8F0E9
:104B9000112784E0000F111F8A95E1F7C801835B9C
:104BA0009E4F0E5A1E4FD8012C9122FD06C00E9426
:104BB000840F8091B404811551F20E941321982E24
:104BC000C7CF61E08B2D0E941609182F60E08B2D56
:104BD0000E941609110F812B0B2D10E0D801A5584A
:104BE000BB4FEC919E2F9370891721F1EE0FEE0FC2
:104BF000E82BEC9380917A048B0DEF70F0E0E25794
:104C0000FE4F08581B4FA080F8019081A90EF4E0D8
:104C100060E0AF1624F42DEFA2161CF461E00E94B0
:104C2000D2088A2DAA0C990B64E070E00E943B2DFB
:104C3000D8018C93B39480917D04B81610F28091C2
:104C4000B404811519F00E941321982A911439F0A7
:104C50000E946C0A0E9467170E94361104C00E94CD
:104C600067178110F9CF86E0EEEFF4E0DE011196D0
:104C700001900D928A95E1F78090FF041091000554
:104C800000910105A0900205B09003051092000567
:104C9000109201051092020510920305812F802BBE
:104CA000811509F440C080918004909181040E9494
:104CB00058177C018091FC04811509F406C2B5E106
:104CC000EB16F10480F18F3F19F08F5F8093FC04A5
:104CD000111559F00E94590991E011160CF09FEF3F
:104CE000899F802D112480930005011559F00E94A1
:104CF000590991E010160CF09FEF899F802D112427
:104D00008093010580910005811569F0909001055F
:104D1000911449F00E944B0980930005892D0E944F
:104D20004B09809301058B2D8A29811509F440C018
:104D300080917E0490917F040E9458176C018091AD
:104D4000FB04811509F4BBC1E1E5CE16D10480F165
:104D50008F3F19F08F5F8093FB04A11459F00E94DC
:104D6000790991E01A140CF09FEF899F802D11248E
:104D700080930205B11459F00E94790991E01B1447
:104D80000CF09FEF899F802D112480930305809163
:104D90000205811569F0A0900305A11449F00E9455
:104DA0004B09809302058A2D0E944B0980930305CD
:104DB0008091FF04881219C080910005811511F0BF
:104DC000181313C020910105211511F002130DC015
:104DD00090910305911511F09B1107C030910205C8
:104DE000311103C0822B892B81110E944D1286E064
:104DF000FE013196AEEFB4E001900D928A95E1F795
:104E00000E94A30990918204891721F08093820463
:104E10000E94600A80918B04843009F0DBCD83E02E
:104E20008093E9008091E80082FFD4CD8091E80072
:104E300090E085FF05C00E941A0B811591F091E06A
:104E40008091E8008B778093E800911509F4C2CD3A
:104E5000E981E150E53170F5F0E0EF5DF14D0C9442
:104E60004F2D00E210E09E012F5F3F4F59018091CE
:104E7000E80085FD0AC08091E8008B778093E80008
:104E80000E941A0B811599F3DACF8091F100D501B8
:104E90008D935D010150104051F7D1CF1A828CE003
:104EA0008B831AC08A81833049F138F4813061F0F4
:104EB0008230D9F08FEF89830FC08430D9F71B82FD
:104EC0001C821D821E8208C00E94600A0E94552D0D
:104ED0006B837C838D839E8340E250E0BE016F5FD5
:104EE0007F4F82E00E94140C75CD88E290E00E9412
:104EF0007B2D1B821C821D828E83EECF8B8190E0E6
:104F0000FE013496883091053CF7DC01AD57BB4F6C
:104F10002C9121930196F6CF8A81823019F0853049
:104F2000D9F2C8CF6B817C818D819E810E94552DE5
:104F300088E290E00E94992DCFCF4C816B818A81CD
:104F40000E94C90D9827892798279E838D83C4CFF7
:104F50002D813E813227232732274C816B818A8124
:104F60000E94CB0CB9CF0E94240DB6CF80E18A837A
:104F7000B3CF82E08A8387E393CF0A811B81102716
:104F8000012710278C814801880E911C5E01B5E035
:104F9000AB0EB11C0815190509F49ECF80E007334C
:104FA000E2E01E0728F4C80187539E4F0E947B2D24
:104FB000D5018D935D010F5F1F4FECCF0A811B81DF
:104FC000102701271027FE0131965F018C814F01C8
:104FD000880E911C8A149B0409F47ECF0733F2E0FB
:104FE0001F0740F4D50114966C91C80187539E4F5A
:104FF0000E94992D0F5F1F4FBFEFAB1ABB0AEACF7C
:105000000E948D0D69CF84E0B2CF0A811B811027E9
:10501000012710278C814801880E911C5E01E5E074
:10502000AE0EB11C8016910609F456CF80E0003810
:10503000F1E01F0720F4C80189960E947B2DD5015D
:105040008D935D010F5F1F4FEDCF0A811B811027EC
:1050500001271027FE0131965F018C814F01880ED8
:10506000911C8A149B0409F437CF0038F1E01F0724
:1050700038F4D50114966C91C80189960E94992D37
:105080000F5F1F4FBFEFAB1ABB0AEBCF41E08C8124
:10509000811101C040E06B818A810E94F80D52CFDE
:1050A0002D813E8132272327322741E08C818111D7
:1050B00001C040E06B818A810E94F20C0DCFEBE0D1
:1050C000CE16D10408F046CE73CEFBE0EF16F10405
:1050D00008F0FBCD28CE78941F921FB61F921124A2
:1050E0008F939F93AF93BF9380919E0490919F0461
:1050F000A091A004B091A1040196A11DB11D8093BF
:105100009E0490939F04A093A004B093A104BF9128
:10511000AF919F918F911F901FBE1F9018951F9266
:105120000F920FB60F9211242F933F934F935F93DB
:105130006F937F938F939F93AF93BF93EF93FF935F
:105140008091E10082FF09C08091E20082FF05C0EA
:105150008091E1008B7F8093E1008091DA0080FFF5
:1051600024C08091D80080FF20C08091DA008E7F1B
:105170008093DA008091D90080FF9BC080E189BDD7
:1051800082E189BD09B400FEFDCF81E080938B04EC
:1051900080911602811109C00E944B0B0E949A0B4C
:1051A0008091E20084608093E2008091E10080FFC2
:1051B00017C08091E20080FF13C08091E2008E7FD3
:1051C0008093E2008091E20080618093E200809110
:1051D000D80080628093D80019BC85E080938B044E
:1051E0008091E10084FF29C08091E20084FF25C006
:1051F00080E189BD82E189BD09B400FEFDCF8091C7
:10520000D8008F7D8093D8008091E1008F7E8093BD
:10521000E1008091E2008F7E8093E2008091E200C5
:1052200081608093E20080911502811509F447C0E6
:1052300084E080938B0480918B048091E10083FF54
:1052400027C08091E20083FF23C08091E100877F27
:105250008093E10082E080938B041092150280918C
:10526000E1008E7F8093E1008091E2008E7F809349
:10527000E2008091E20080618093E20042E060E021
:1052800080E00E946A0B8091F00088608093F000BB
:10529000FF91EF91BF91AF919F918F917F916F910E
:1052A0005F914F913F912F910F900FBE0F901F90E4
:1052B000189519BC10928B041092160276CF80912B
:1052C000E30087FF02C083E0B4CF81E0B2CF1F923A
:1052D0000F920FB60F921124EF92FF920F931F932C
:1052E0002F933F934F935F936F937F938F939F93EE
:1052F000AF93BF93CF93EF93FF9309EE10E0F801C4
:105300008081C091EC008F70C795CC27C795C82BC2
:10531000108280EFE82EF12CF7018081877F808357
:1053200078940E949F14F8011082F70180818860B0
:105330008083CF70F801C083FF91EF91CF91BF912F
:10534000AF919F918F917F916F915F914F913F911D
:105350002F911F910F91FF90EF900F900FBE0F9024
:105360001F901895FF920F931F93CF93DF93182FE1
:10537000EB011092BC0084EA8093BC000E944112B1
:10538000082FF92E8091BC0087FF28C08091B900BA
:10539000887F883029F08091B900887F8031A1F51D
:1053A0001093BB0084E88093BC000E944112182F28
:1053B000092F8091BC0087FF1FC02091B900287F72
:1053C00080E090E0283199F081E090E0203411F401
:1053D00080E090E091958195910909C0802F9F2DE3
:1053E0000E945817C817D90768F68EEF9FEFCDB700
:1053F000DEB7E5E00C94212D812F902F0E945817E5
:10540000C817D907B0F6F1CF8FEF9FEFF0CF10920A
:10541000B9008CE08093B80008950F931F93CF9349
:10542000DF93EB018093BB0084E88093BC000E9473
:105430004112182F092F8091BC0087FF11C02091C5
:10544000B900287F81E090E0283211F480E090E0FC
:10545000919581959109DF91CF911F910F910895B9
:10546000CF3FDC0741F3812F902F0E945817C817B8
:10547000D90708F78EEF9FEFEECFA0E0B0E0E3E4AE
:10548000FAE20C94FD2C782EB62EA72E6A01E901C3
:105490000E9441124C01C431D10528F1CF3FDC07F5
:1054A00031F1CE0164E170E00E94E42CF62EE72E8B
:1054B0006F2D7E2D872D0E94B2298C01892BD1F46E
:1054C000EB2CFA2CCE0CDF1CEC14FD0419F00115AA
:1054D0001105D1F084E98093BC00C801CDB7DEB7D7
:1054E000EDE00C94192DFF24F394E12CE1CF85E03D
:1054F000F82EFBCFCF3FDC07D9F2C4010E9458172A
:10550000C817D907A8F6DCCFBE01F70181917F014A
:105510000E940D2A8C01D8CFA0E0B0E0E2E9FAE2C7
:105520000C94FD2C782EB62EA72E6A0189010E94BC
:1055300041124C010431110518F10F3F100719F108
:10554000C80164E170E00E94E42CEB01BE01872DEC
:105550000E94B2297C01892BC1F4CB2DDA2DCC0E0F
:10556000DD1ECC15DD0519F0E114F104C1F084E96C
:105570008093BC00C701CDB7DEB7EDE00C94192DC8
:10558000C1E0D0E0E3CFC5E0FCCF0F3F1007F1F260
:10559000C4010E94581708171907C0F6DECFFE0194
:1055A0008491B8010E940D2A7C012196DACFA0E0F7
:1055B000B0E0EDEDFAE20C94FC2C682E962E5A0128
:1055C000690178010E944112782E892E043111055B
:1055D00030F10F3F100731F1C80164E170E00E9423
:1055E000E42C162F072F612F702F862D0E94B229D1
:1055F000EC01892BC9F0FFEFEF16FF06A1F3872D11
:10560000982D0E945817E816F90668F784E98093E8
:10561000BC00CE01CDB7DEB7EEE00C94182D11E042
:1056200000E0E1CF15E0FCCFB701892D0E940D2AE3
:10563000EC018501CA0CDB1C0C151D0539F3209704
:1056400029F7B701F80181918F010E940D2AEC0121
:10565000F3CF8EE14A9B02C08A95E1F74A9BFECFC9
:1056600008955A9880E28A95F1F75A9A0895FC01B4
:105670003BE03A95F1F798E020E080E031E040E14E
:105680004A95F1F7880F4A9B02C08160232742E0C8
:105690004A95F1F7000040E14A95F1F79A9579F7BC
:1056A00090E19A95F1F799B132E03A95F1F700005F
:1056B00040E14A95F1F792FB992790F992272081D2
:1056C000920F90830895A1E0B0E0E9E6FBE20C942C
:1056D000042D19828C017C01E60EF11C0E94292BFD
:1056E000CE0101960E94372BF80181938F01EE15B0
:1056F000FF05A1F781E09981911180E02196E6E014
:105700000C94202D529A5A9A089552985A9AEA9ACD
:10571000E9E6F0E080818F7C808308956150770B0B
:1057200091E001C0990F6A95EAF7692F90E021E0B6
:10573000611108C0911599F05A9A80E28A95F1F7A3
:105740005A980895362F3823311539F05A9A9227EE
:1057500030E23A95F1F76695EBCF5A98F9CF5A981F
:10576000ECCFFF920F931F93CF93DF93EC018C014B
:10577000060F111DF9900E94312B68E08F2D0E94B9
:105780008E2BC017D107B1F7CDB7DEB7E5E00C948B
:10579000212D1F920F920FB60F9211240F931F937A
:1057A0002F933F934F935F936F937F938F939F9329
:1057B000AF93BF93EF93FF93CF93DF930F92CDB748
:1057C000DEB719820E94292BCE0101960E94372B49
:1057D000082F069506950695982F92959570202F7F
:1057E0002570920F292F237096959695920F9827E2
:1057F00097708981892B811509F05CC0073008F00A
:1058000059C080E18A95F1F75A9A529A82E08A95B6
:10581000F1F700C05A9888E0089F80011124D80150
:10582000A45EBE4F1696ED91FC9117973097A9F0A4
:1058300060919E0170919F0114962D913C91159756
:10584000260F371F11968D919C911297680F791F23
:1058500013964C9113978C910995F801E45EFE4FD5
:105860006381611551F020919E0130919F018481E7
:105870009581820F931F0E94B12B0E94312B80E1F2
:105880008A95F1F75A9852985A9A80E18A95F1F7D9
:10589000F801E45EFE4F6081611551F020919E0198
:1058A00030919F0181819281820F931F0E94632B0F
:1058B0000E94292B0F90DF91CF91FF91EF91BF9123
:1058C000AF919F918F917F916F915F914F913F9198
:1058D0002F911F910F910F900FBE0F901F90189551
:1058E0000F931F93CF93DF938C0107970CF064C045
:1058F000F894529A5A9885E08A95F1F70000C02FE3
:10590000C695C570802F8570C80F8C2F8370C69583
:10591000C69593E0000F111F9A95E1F7C80FC801D3
:105920008C2BEC010E94312B00C068E08C2F0E9470
:105930008E2B90E19A95F1F752985A9A4A9B35C06E
:1059400087E090E04A9933C0F801E45EFE4F63813E
:10595000611561F020919E0130919F0184819581B4
:10596000820F931F0E94632B811519F10E94292B2E
:1059700080E28A95F1F75A98529A90E19A95F1F758
:10598000F801E45EFE4F6081611551F020919E01A7
:1059900030919F0181819281820F931F0E94B12BD0
:1059A0000E94312B789481E008C000C0C7CF0197D6
:1059B00049F4529A5A9A789480E0DF91CF911F91DE
:1059C0000F91089500C0BECFAA1BBB1B51E107C0B9
:1059D000AA1FBB1FA617B70710F0A61BB70B881F7F
:1059E000991F5A95A9F780959095BC01CD0108950E
:1059F0002F923F924F925F926F927F928F929F92DF
:105A0000AF92BF92CF92DF92EF92FF920F931F93CC
:105A1000CF93DF93CDB7DEB7CA1BDB0B0FB6F8947D
:105A2000DEBF0FBECDBF09942A88398848885F84BD
:105A30006E847D848C849B84AA84B984C884DF802E
:105A4000EE80FD800C811B81AA81B981CE0FD11D12
:105A50000FB6F894DEBF0FBECDBFED0108959927B4
:105A600078E0880F991F961708F0961B881F7A9583
:105A7000C9F78095089597FB072E16F4009407D078
:105A800077FD09D00E94E42C07FC05D03EF49095E8
:105A900081959F4F0895709561957F4F0895EE0F02
:105AA000FF1F0590F491E02D099469279627692737
:105AB0007827872778270895FB01DC0102C005902D
:105AC0000D9241505040D8F70895FB01DC0104C00D
:105AD0008D910190801921F441505040C8F7881BE6
