:100000000C94AE040C94CB040C94CB040C944B23B2
:100010000C94CB040C94CB040C94CB040C94CB0424
:100020000C94CB040C94CB040C9411200C94E92078
:100030000C94C00E0C94CB040C94CB040C94CB0405
:100040000C94CB040C94CB040C94CB040C94CB04F4
:100050000C94CB040C94ED1F0C94CB040C94CB04A7
:100060000C94CB040C94CB040C94CB040C94CB04D4
:100070000C94CB040C94CB040C94CB040C94CB04C4
:100080000C94CB040C94CB040C94CB040C94CB04B4
:100090000C94CB040C94CB040C94CB040C94CB04A4
:1000A0000C94CB040C94CB040C94CB0400AF00AEA6
:1000B0000000000000003E5B4F5B3E003E6B4F6B5C
:1000C0003E001C3E7C3E1C00183C7E3C18001C5729
:1000D0007D571C001C5E7F5E1C0000183C18000051
:1000E000FFE7C3E7FF00001824180000FFE7DBE785
:1000F000FF0030483A060E00262979292600407F65
:1001000005050700407F05253F005A3CE73C5A00A3
:100110007F3E1C1C0800081C1C3E7F0014227F220E
:1001200014005F5F005F5F0006097F017F000066CB
:1001300089956A0060606060600094A2FFA29400EC
:1001400008047E04080010207E20100008082A1CE5
:100150000800081C2A0808001E10101010000C1EB1
:100160000C1E0C0030383E383000060E3E0E0600E5
:1001700000000000000000005F0000000007000712
:100180000000147F147F1400242A7F2A12002313F6
:10019000086462003649562050000008070300003A
:1001A000001C224100000041221C00002A1C7F1C70
:1001B0002A0008083E080800008070300000080887
:1001C0000808080000006060000020100804020019
:1001D0003E5149453E0000427F4000007249494976
:1001E00046002141494D33001814127F1000274565
:1001F000454539003C4A4949310041211109070070
:10020000364949493600464949291E000000140074
:1002100000000040340000000008142241001414C3
:1002200014141400004122140800020159090600A8
:100230003E415D594E007C1211127C007F494949B4
:1002400036003E41414122007F4141413E007F490D
:10025000494941007F09090901003E4141517300AC
:100260007F0808087F0000417F4100002040413F97
:1002700001007F08142241007F40404040007F027F
:100280001C027F007F0408107F003E4141413E0078
:100290007F09090906003E4151215E007F091929A5
:1002A000460026494949320003017F0103003F40CF
:1002B00040403F001F2040201F003F4038403F008B
:1002C0006314081463000304780403006159494D62
:1002D0004300007F4141410002040810200000411A
:1002E00041417F00040201020400404040404000C0
:1002F0000003070800002054547840007F2844443D
:100300003800384444442800384444287F00385496
:100310005454180000087E0902001824241C780098
:100320007F080404780000447D4000002040403DE8
:1003300000007F102844000000417F4000007C0442
:10034000780478007C080404780038444444380079
:100350007C1824241800182424187C007C08040429
:10036000080048545454240004043F4424003C40F2
:1003700040207C001C2040201C003C4030403C00C1
:100380004428102844004C9090907C004464544CC5
:1003900044000008364100000000770000000041E2
:1003A000360800000201020402003C2623263C001D
:1003B00000C0F0F8F8780000000000000000F0F83D
:1003C000F0F0F0800000000080C0C08080008080DD
:1003D000C0C0E0E0E0E0E0F060000000C0E0F0F865
:1003E000F8F878787878F8F8F8F8F8F0C000387C01
:1003F0007E3E3E7E7EFEFEFEFEFEFEFEFEFEFEFE1D
:100400007C7C1880C0C0C08080000000000000809C
:1004100080C0E0F0F0F070008080C0C0800000007C
:100420000080F0E0E0F0F8F8E0E0C0C81818E0F074
:10043000F0F0E0ECEEF7F37020007C7C7C7E007E38
:100440007E7E7F7F7F000080C0E07E5B4F5BFEC0D2
:100450000000C000DCD7DEDEDED7DC00C00000001C
:10046000000000000000000000000000000000008C
:10047000FFFFFFFFE1808080C00000000080EFFFF1
:10048000FFFF7F3F00FCFFFFFFFBE387FFFFFFCF86
:1004900087C7C7C3C1C180800000007FFFFFFFE1A5
:1004A000E0C080C0C0E0F0F8FFFFFFFF7F00000069
:1004B00000003030787CFFFFFFFFEFE7EFEF8108AF
:1004C000080000E0E3C3E7FFFFFFFEFCFCFEFFFFC8
:1004D000EFE7C3C1C0C0E0FFFFFFFF3FEFFFFEFF3C
:1004E000FFFFFFFFFDEDE367FFFFFFFF2C0F0F1F77
:1004F0003F7F7F7F7F7F3F1E0C001F1F1F3F003FFE
:100500003F3F7F7F7F00307B7F7830202030787FB7
:100510003B0003000F7F0F0F0F7F0F000300000051
:1005200000000000000000000000000000000000CB
:1005300000070F0F07070F0F0F0F0F0F0F0F070702
:100540000301000001030307070707070707070761
:100550000707070707030303000000000001030764
:100560000F0F1F0F1F1F1F0F0703030100000008BD
:100570003C7C3C3C3C3C3C3C3F3F1F1F1F1F1F1F23
:100580000E00000103030303030303070707070724
:1005900007070F03030307070F0F0F0F1F1F1F1F6F
:1005A0001F1F1F1F1F0F0F0E0F0F0F070000000050
:1005B000000000000000000000000000000000003B
:1005C000000000000000000000000000000000002B
:1005D000000000000000000000000000000000001B
:1005E000000000000000000000000000000000000B
:1005F00005010902A10185020901A10005091901EE
:1006000029081500250195087501810205010930A9
:1006100009311581257F95027508810609381581F4
:10062000257F950175088106050C0A38021581257C
:100630007F950175088106C0C005010980A101856B
:100640000319012AB700150126B70095017510811D
:1006500000C0050C0901A101850419012AA0021599
:100660000126A002950175108100C005010906A1AF
:10067000018506050719E029E7150025019508758C
:100680000181020507190029EF1500250195F07574
:100690000181020508190129059505750191029549
:1006A0000175039101C005010906A101050719E0C3
:1006B00029E7150025019508750181029501750846
:1006C00081010507190029FF150026FF0095067511
:1006D00008810005081901290515002501950575F2
:1006E000019102950175039101C009023B000201CD
:1006F00000A0FA0904000001030101000921110111
:1007000000012244000705810308000109040100DB
:10071000010300000009211101000122B6000705B4
:10072000820320000112010002000000086B633602
:10073000340001010200011403630072006F0077AE
:10074000006B0062005F003400360000000E03639F
:10075000002D0062006F0074007A0000000403099D
:100760000400DA0281FFD9F1DB20A4A62EAF00A09D
:10077000C0D30000A1C8D30000AED580A81F408D13
:10078000142000808182838485868788898A8B8C67
:100790008D8E8F9091929394A0A1A2A3A4A5A6A7B9
:1007A000A8A9AAABACADAEAFB0B1B2B3B4C0C1C230
:1007B000C3C4C5C6C7C8C9CACBCCCDCECFD0D1D291
:1007C000D3D400202020200053435200202020209A
:1007D00000434150530020202020004E554D00532F
:1007E0007973740053796D6200446566004C6179D9
:1007F0006572002B0014001A00080015001700E1B4
:100800000004001600070009000A00E0001D001B9C
:1008100000060019000500000000000000000000B4
:1008200000290000000000E200E3002C002152310A
:1008300000130012000C0018001C00340033000FDD
:10084000000E000D000B00E50038003700360010E8
:10085000001100000000000000000000003900004E
:100860000000004C002A002800225235001E021F02
:1008700002200221022202E1081E001F00200021A6
:10088000002200E3002300240025002600270000AA
:100890000000000000000000000100000000000156
:1008A0000001000100010035022E02250230022F56
:1008B000022D00340233022E00270226022D0224CC
:1008C000023702360230002F002302000000000031
:1008D0000000000000010000000000010001000114
:1008E000003700000000003A003B003C003D0000E3
:1008F0000000003E003F00400041000000000042B8
:10090000004300440045000000000000000000001B
:1009100000010000000000010001000100010000D2
:100920000000000000000048004600000000004DEC
:100930000052004A004B00000000004F00510050E0
:10094000004E000000000000000000000001000058
:1009500000000001000100010001000011241FBE81
:10096000CFEFDAE0DEBFCDBF11E0A0E0B1E0E8E319
:10097000FBE402C005900D92A637B107D9F724E039
:10098000A6E7B1E001C01D92A83EB207E1F70E94C0
:10099000721B0C9448250C9400009093A004809343
:1009A0009F0408959093A2048093A104089521E0E8
:1009B00030E002C0220F331F8A95E2F78091A10434
:1009C0009091A204822B932B0E94D204089521E0DF
:1009D00030E002C0220F331F8A95E2F72095309550
:1009E0008091A1049091A204822393230E94D204B7
:1009F00008959A3090F5863080F5E82FF0E086E093
:100A0000989FE00DF11D11248E2F877041E001C0E9
:100A1000440F8A95EAF783E0F695E7958A95E1F722
:100A2000EE0FFF1FEE0FFF1FEF58FB4F20E030E0EF
:100A300070E05191DF01CB01022E02C0969587959F
:100A40000A94E2F7817081958527842385278E9308
:100A50002F5F3F4F2430310561F708959A3078F5C4
:100A6000863068F5E82FF0E086E0989FE00DF11DF4
:100A700011249E2F977083E0F695E7958A95E1F70C
:100A8000EE0FFF1FEE0FFF1FEF58FB4F40E050E04F
:100A900080E0219130E0092E02C0369527950A9416
:100AA000E2F721703327042E01C0220F0A94EAF7DF
:100AB000822B4F5F5F4F4430510559F7089580E016
:100AC00008958091A8049091A704981301C00895F7
:100AD0008F5F8770FACF9091A304809589238093CC
:100AE000A304282F277021110DC0891759F0909168
:100AF000A50492FF07C08695869586950E94E70417
:100B00001092A304089580919C049091A604892BCF
:100B100050919D04511591F090912A01911521F069
:100B20009091A40497FD0BC096E02AE731E040E0E5
:100B3000915048F4411110929D04852B08959EE137
:100B400022E831E0F4CFF90161919F01611581F351
:100B50004F5FEECF982F909580919C0489238093CE
:100B60009C0408957A30B8F46630A8F48330B0F469
:100B7000E62FF0E096E0799FE00DF11D11249CE353
:100B8000899FE00DF11D1124EE0FFF1FED50F84F6E
:100B900085919591089580E090E0089581E0FCCFE3
:100BA0009C01803E910509F448C0D8F48133910539
:100BB00009F47DC048F48932910509F46DC08A9723
:100BC00009F47CC0C90108958933910551F1823837
:100BD000910539F1C597B1F78091A40485FFF2CF53
:100BE00029C0843E910509F447C048F4823E91052E
:100BF00099F1833E9105A9F121EE30E0E3CF863EE5
:100C0000910509F444C0873E9105E1F68091A40462
:100C100083FD61C09091A50491FF2BC024EE30E0CC
:100C2000D1CF8091A4048370811152C08091A5041A
:100C300083FFC8CF29E230E0C5CF8091A40480FDB6
:100C400033C09091A50490FFBDCF23EE30E084FF28
:100C5000B9CF20E030E0B6CF8091A40482FDF5CF7B
:100C6000B1CF8091A40482FD30C09091A50490FD85
:100C70002FC084FFA7CFEDCF8091A50481FFA2CF25
:100C80008091A40427EE30E084FDE3CF9BCF8091D8
:100C9000A40483FDF7CF96CF8091A40485FD1EC0E8
:100CA0008091A50483FF8ECF29E330E08BCF809124
:100CB000A40486FF87CF2AE230E084CF8091A40489
:100CC00086FF80CF21E330E07DCF22EE30E07ACF87
:100CD00020EE30E077CF26EE30E074CF25E330E031
:100CE00071CF9091A40492FF10C041E0282F24718D
:100CF000243009F040E031E0282F2871283009F035
:100D000030E0431711F02CE0822793FF10C041E040
:100D1000282F2471243109F040E031E0282F287178
:100D2000283109F030E0431711F02CE08227309190
:100D3000A50430FF10C051E0282F2171213009F0A7
:100D400050E041E0282F2871283009F040E0541786
:100D500011F029E0822731FF10C041E0282F2171D6
:100D6000213109F040E031E0282F2871283109F0C5
:100D700030E0431711F029E0822794FD877E089523
:100D80001F93CF93DF930E94D005EC01811522E5DC
:100D9000920708F055C0811540E5940708F0D1C0CE
:100DA000803E910520F58D3C910508F0A4C0883A5D
:100DB000910570F4853A910508F09AC0813091054B
:100DC000D1F10497813A9105B0F1C0E0D0E033C091
:100DD000885A91094B97C8F7C85AD0E0CC0FDD1F4D
:100DE000C05CDE4F0990D881C02DD46424C0811529
:100DF00050E49507C0F4C11580E2D80708F0B7C0E9
:100E0000C83ED105C0F0CE019A9581159F41E8F604
:100E10008D2F0E947106182FCE0199270E94D005B0
:100E2000EC01D12B08C099270E94D005CC27DF7098
:100E3000C82BD92BD06ACE01DF91CF911F91089595
:100E4000803842E59407C8F5803652E5950708F0EA
:100E50005BC0C03482E5D807D0F4C03292E5D90730
:100E600008F04BC08C2F8695869520E2829FC001AA
:100E70001124C37021E030E0A90102C0440F551FC6
:100E8000CA95E2F7EA01C82BD92BDD68D4CF8C2FA5
:100E900086958695877050E2859FC0011124C370A6
:100EA00021E030E0A90102C0440F551FCA95E2F7C6
:100EB000EA01C82BD92BDC68BECF803C52E59507F0
:100EC00058F48F71C03AD245A0F590E0982F88274A
:100ED000EC01C46FD06AAFCF805C9245809708F078
:100EE00074CFDC2FCC27CC27DF71C06FD06AA3CFA3
:100EF000A497D064A0CFD0659ECFCF71D0E0DC2F77
:100F0000CC27C16FD06A97CF86958695877020E2EF
:100F1000829FC0011124C37021E030E0A90102C00A
:100F2000440F551FCA95E2F7EA01C82BD92BDA689E
:100F300082CF0E947106C82FD0E0DC2FCC27D06270
:100F40007ACF8F710E94710693E0CC0FDD1F9A95C6
:100F5000E1F7CC27DF70282F30E084FF04C050E198
:100F6000859F90011124C22BD32BD06964CF8D2F84
:100F70008F710E947106182FCE0199270E94D0050B
:100F8000EC01D12BDCCFA0E0B0E0E9ECF7E00C9471
:100F900083248C01E090A104F090A20480919F042E
:100FA0009091A004E82AF92ACFE0D0E0CC24C394A1
:100FB000D12CC6010C2E02C0880F991F0A94E2F7AB
:100FC0008E219F21892B49F4219798F7B12C8B2DE5
:100FD000CDB7DEB7E9E00C949F24BC2EB8018C2F6E
:100FE0000E94B2050E94C006019771F3F0CF0F93E3
:100FF0001F93CF93FC01858100811181811591F0B0
:10100000611581F0C8010E94C307C82F682FC8016D
:101010000E94F904B8018C2F0E94B205CF911F9154
:101020000F910895C8010E942E05C82FF3CFCF93CA
:10103000DF93D82FC92F0E94C3076D2F7C2F0E94EA
:10104000B2050E94C006DF91CF910895FC01848112
:101050008115A1F0808191810E941708282F929517
:101060009F70963099F060F4925F9F70923030F4E8
:10107000203FB1F038F481E0283E38F080E0089558
:101080009A5FF3CF81E0243FC9F7089591E0213FB3
:1010900009F090E081E0283E08F080E0892B089577
:1010A00081E0089580E00895F894E82FE295EF70CC
:1010B000F0E041A18F7021E030E0B90102C0660F7D
:1010C000771F8A95E2F7CB01962F9095942391A3F1
:1010D00092A1892B82A378940895282F35EB2303BE
:1010E000C001112497FF04C080589109892F0895E9
:1010F00080589F4FFBCF8091930480FD14C081FDE9
:1011000014C082FD16C080919204811581F08E3149
:1011100080F420E5829FC00111246EE170E00E94FE
:10112000BD24862F089584E1089588E2089588E01B
:10113000089580E508958091930480FD17C081FD96
:1011400017C082FD19C080919104811599F08832F1
:1011500098F428E0829FC001112468E270E00E94A8
:10116000BD246115710551F0862F089562E0FCCF12
:1011700064E0FACF61E0F8CF68E0F6CF81E008954F
:1011800080913F04811559F0E0916704F091680463
:10119000309729F00190F081E02D0995089580E0C5
:1011A0000895A3E0B0E0E7EDF8E00C948A249C01F8
:1011B0008091CA019091CB0182179307A1F03093DF
:1011C000CB012093CA01E0916704F0916804309745
:1011D00051F083E089833B832A830084F185E02DED
:1011E000CE01019609952396E2E00C94A624A3E093
:1011F000B0E0EDEFF8E00C948A249C018091C801E6
:101200009091C90182179307A1F03093C9012093EF
:10121000C801E0916704F0916804309751F084E0D0
:1012200089833B832A830084F185E02DCE010196DA
:1012300009952396E2E00C94A62490912A0191113D
:1012400012C0AAE7B1E0EFEF90E02D91821751F0C4
:10125000EF3F19F4211101C0E92F9F5F9630A9F7E4
:10126000EF3FC9F408959091A40497FFEACFE82FC7
:10127000E695E695E695803FA8F7F0E0E058FE4F4A
:10128000877021E030E001C0220F8A95EAF7828161
:10129000822B828308950E2E000CFF0BE858FE4F20
:1012A000F8CF90912A01911521F09091A40497FD17
:1012B0000CC0EAE7F1E09191891302C0DF011E92B0
:1012C00051E0E038F507B9F70895E82FE695E6957F
:1012D000E695803FC8F7F0E0E058FE4F877021E0C8
:1012E00030E0A90102C0440F551F8A95E2F7CA01F8
:1012F000809592818923828308952FB7F894609115
:1013000028047091290480912A0490912B042FBF06
:101310000895CF92DF92EF92FF9280913F04811562
:1013200059F00E947D096B017C01C701B601FF9055
:10133000EF90DF90CF9008950E947D09C090410406
:10134000D0904204E0904304F0904404C60ED71EAF
:10135000E81EF91EEACF87E797E79093010880938C
:10136000000888E19AE00FB6F894A8958093600091
:101370000FBE90936000FFCF8091C7010895FC01DC
:101380009B018091BD019091BE018617970740F0A7
:10139000672B29F48091E8008E778093E800C901DB
:1013A00040E0009741F4411106C08091E80082FFBF
:1013B0002FC080E008952091DA012115A9F1253090
:1013C000A9F12091E80023FD2DC02091E80022FD25
:1013D000ECCF2091E80020FFE4CF3091F300209182
:1013E000F200009719F02830310558F041E028301C
:1013F000310509F040E02091E8002E772093E800C5
:10140000D0CF41914093F10001972F5F3F4FE9CF3B
:101410008091DA01811541F0853041F08091E8003A
:1014200083FFC3CF81E0089582E0089583E00895AB
:101430008091B70187FF13C08091E80082FF06C04A
:101440008091E8008B778093E80008958091DA011D
:101450008111F2CF08958091DA018115D9F380913D
:10146000E80080FFF8CF8091E8008E77ECCF2091E4
:10147000E4003091E50095E6A9012091EC00822F6F
:10148000817020FF06C08091E80080FF06C080E0E8
:1014900008952091E80022FD1AC08091DA0181159B
:1014A00089F0853089F08091EB0085FD0FC0209197
:1014B000E4003091E50042175307F9F29A95E1F6FE
:1014C00084E0089582E0089583E0089581E008951E
:1014D000E8EDF0E080818E7F80831092E200109230
:1014E000DA001092E100A0EEB0E08C9181608C9364
:1014F00080818F77808319BCA7EDB0E08C918E7FBF
:101500008C9380818F7E80831092B6010895FC01B8
:10151000AC014B5F5F4F8FEF61E39191892728E02A
:1015200030E0982F990F87FF09C0892F8627215017
:101530003040B9F7E417F50781F70895892FF7CF01
:10154000982F9093E900891771F07091EC00209129
:10155000ED005091F00021FD09C09F5F973089F7A1
:101560008093E9000895762F242F50E03091EB000E
:101570003E7F3093EB003091ED003D7F3093ED00E6
:101580003091EB0031603093EB007093EC002093CE
:10159000ED005093F0002091EE0027FDDECF08957E
:1015A000A0E0B0E0E6EDFAE00C948424C8EDD0E0D1
:1015B00088818F7E8883E7EDF0E080818160808381
:1015C00084E082BF81E08093B60188818E7F88832A
:1015D00002EE10E0F80110821092DA0081EEC82EBF
:1015E000D12CF601108288818F778883888180686A
:1015F000888388818F7D888319BC1092DA011092CC
:10160000B5011092D9011092B40190EEE92EF12C9F
:10161000F70180818B7F808388818160888342E0AD
:1016200060E080E00E94A00AF60180818E7F8083C6
:10163000F801808181608083808188608083F701E8
:1016400080818E7F8083888180618883CDB7DEB77B
:10165000E8E00C94A024E091A8049091A70427E06E
:10166000E91302C080E00895AE2FB0E02E9FF00194
:101670001124E755FB4F3181361306C030813813F2
:1016800003C03581341304C0FD013196E770E8CF03
:1016900081E008950F931F93CF93DF938B01EA01AD
:1016A0009091DA01943059F58093E9008FEF909191
:1016B000E80095FD06C095ED9A95F1F700008A9532
:1016C000B1F78091E80085FF1AC00E94370A8111A6
:1016D00011C08091E80085FD06C08091E8008E77FA
:1016E0008093E800F2CFF80181918F018093F1009F
:1016F000219779F78091E8008E778093E800DF9159
:10170000CF911F910F910895CF93DF93D82FC92FB9
:1017100048E050E0682F792F81E00E944A0B88E072
:10172000ED2FFC2FAFEBB1E001900D928A95E1F720
:10173000DF91CF910895BC0140E250E082E00E9429
:101740004A0B0895BC0146E050E082E00E944A0B3B
:101750000895BC0143E050E082E00E944A0B0895E6
:10176000A0E0B0E0E6EBFBE00C948224182F092FF8
:10177000B62EA72E7A018091AA019AE0C92ED12C0B
:101780008A3018F0CC24C394D12CC1E0D0E06B2D6A
:101790007A2D812F902FF7010995811116C021967E
:1017A000CC16DD0694F0CC9FC001CD9F900D900D1E
:1017B000112420E030E045E34A95F1F700002F5F67
:1017C0003F4F28173907B9F7E2CFCDB7DEB7EAE0C8
:1017D0000C949E249091A50492FB222720F92817AF
:1017E00079F080FB92F99093A5046091A404709124
:1017F000A50484E090E00E94322582E00E946B05FF
:10180000089580912A01811559F18091A40487FFE0
:1018100027C00E9483058093810140E250E067E485
:1018200074E080E891E00E94E024892BC1F080E21E
:10183000E0E8F1E0A7E4B4E001900D928A95E1F7C9
:10184000E0916704F0916804309749F086E0809356
:1018500080010480F581E02D80E891E009950895EC
:101860000E9483058093780148E050E069E674E0C7
:1018700088E791E00E94E024892B89F388E0E8E77B
:10188000F1E0A9E6B4E001900D928A95E1F7E091CC
:101890006704F0916804309711F30280F381E02D22
:1018A00088E791E0DBCF811539F090919C04892B7A
:1018B00080939C040E94010C0895811521F00E94E0
:1018C000AA050E94010C0895A8E0B0E0EAE6FCE059
:1018D0000C948A2466EE7EEF80E090E00E94322530
:1018E00060E082E090E00E94142581E090E0909317
:1018F000A00480939F0461E083E090E00E9414259F
:1019000060E074E184E090E00E94322560E086E0CF
:1019100090E00E94142560E087E090E00E9414258A
:1019200040E050E0BA0188E090E00E94262560E0A7
:1019300084E290E00E94142560E087E190E00E943C
:10194000142560E08CE090E00E94142560E08DE0BA
:1019500090E00E94142519821A821B821C821D822B
:101960001E821F82188648E050E068E170E0CE01D8
:1019700001960E94042540E050E0BA0180E290E028
:101980000E94262540E050E0BA018FE090E00E94DE
:10199000262540E050E0BA0183E190E00E94262530
:1019A0002896E2E00C94A624A4E0B0E0EAEDFCE086
:1019B0000C948924409124045091250460912604BC
:1019C000709127042FB7F8948091280490912904EE
:1019D000A0912A04B0912B042FBF841B950BA60B5A
:1019E000B70B11E084369105A105B10578F10E948D
:1019F0008909DC01CB010296A11DB11D89839A835F
:101A0000AB83BC838091230190912401845D9B4F23
:101A100020912201422F50E0253010F044E050E0A8
:101A2000BE016F5F7F4F0E94ED2482E090E00E9434
:101A3000F223182F811551F00E947D096093240430
:101A4000709325048093260490932704812F249675
:101A5000E3E00C94A524A6E0B0E0E1E3FDE00C9403
:101A60008724F62E072F80E090E00E94F223182FA3
:101A7000811509F469C080911501482F50E0811546
:101A800011F041E050E06091160170911701645D22
:101A90007B4FCE0106960E94ED2440913B0450916D
:101AA0003C0460913D0470913E042FB7F8948091FE
:101AB000280490912904A0912A04B0912B042FBFEF
:101AC000841B950BA60BB70B84369105A105B105B8
:101AD00038F48DE294E00E94870A9E818917A1F173
:101AE00081E090E00E94F2238115C9F180911D01EF
:101AF000482F50E0863010F045E050E060911E0124
:101B000070911F01645D7B4FCE0101960E94ED2410
:101B10008DE294E00E94870A9E81891320C00E9472
:101B20007D0960933B0470933C0480933D04909343
:101B30003E0485E0FE013196A6E3B4E001900D92EB
:101B40008A95E1F781E00CC085E0EDE2F4E0DE018A
:101B5000119601900D928A95E1F71111EACF80E07C
:101B600095E0E6E3F4E0AF2DB02F01900D929A9549
:101B7000E1F72696E5E00C94A324AB0124E630E0DF
:101B8000BC0188E70E940E229C0181E0232B09F012
:101B900080E0089580911E04811569F080911B04F6
:101BA000811549F062E070E08EEA90E00E94BD0D80
:101BB000811110921B04089580911E048115F9F083
:101BC0000E947D09DC01CB01805A9541AF4FBF4F88
:101BD0008093170490931804A0931904B0931A04E7
:101BE00080911B0481110BC062E070E08CEA90E0F0
:101BF0000E94BD0D811519F081E080931B040895AA
:101C0000CF93DF93682F81E06A3019F06D3031F4A3
:101C100080E00E94800EDF91CF9108958091F001C5
:101C20009091F10126E0FC01ADEAB1E001900D9246
:101C30002A95E1F7603E08F458C026E0FC011192B5
:101C40002A95E9F7C091F001D091F10146E050E00A
:101C5000BE018DEA91E00E94E0249E0123513240B2
:101C6000892B41F1C90145E0969587954A95E1F7A1
:101C700041E050E0BA0102C0660F771F8A95E2F793
:101C8000CB016091150470911604862B972BB90136
:101C90006B5F7F4FE5E076956795EA95E1F702C0C7
:101CA000440F551F6A95E2F7842B952B90931604E9
:101CB000809315042A5F3F4F4091F201642F70E03A
:101CC000C9010E946624481B463010F4240F311DC0
:101CD000211572E0370710F020E030E02D5E3D4F17
:101CE0003093F1012093F00196CFF6E06F9FB001A1
:101CF000112460557F4F46E050E00E94D724A2CFC8
:101D0000CF93382FE091F001F091F101E351F240CF
:101D10002091F201622F70E0CF010E946624281BFF
:101D2000822F311561F066E00E94B124C82FC150A6
:101D300010F4CF91089580E20E94000EF8CF8E0F2C
:101D40009F2F911D811522E0920710F080E090E016
:101D50008D5E9D4F9093F1018093F001EACFCF9378
:101D6000DF93EC01FE018491811106C081E00E94A5
:101D7000800EDF91CF9108950E94000E2196F2CF40
:101D80001F921FB61F9211248F939F93AF93BF93FF
:101D90008091D801811113C0809128049091290469
:101DA000A0912A04B0912B044196A11DB11D8093EE
:101DB000280490932904A0932A04B0932B04BF9184
:101DC000AF919F918F911F901FBE1F9018952FB7B5
:101DD000F8948091280490912904A0912A04B0914C
:101DE0002B042FBF08950E94E70E20919604309196
:101DF0009704232B211521F0809321049093220432
:101E00002091980430919904232B211521F080937F
:101E10001F0490932004E0916704F09168043097C8
:101E200049F082E0809394040680F781E02D84E9F4
:101E300094E0099508952091960490919904309129
:101E40009804611509F458C040919704242B292B5C
:101E5000232B211531F098E09093920491E0909318
:101E60009104E3E3E80FE33150F4F0E0E65BFA4D70
:101E70000C94D1240E947B088195809397040E9442
:101E8000F30E08950E947B08F8CF0E947B0881958D
:101E900080939604F4CF0E947B08FACF0E949B089F
:101EA00080939804ECCF0E949B088195F9CF0E9403
:101EB0009B08819580939904E2CF0E949B08FACFFA
:101EC000815D990B21E030E001C0220F8A95EAF78D
:101ED00080919504822B80939504D1CF80919304B7
:101EE000816080939304CBCF809193048260F9CF7B
:101EF000809193048460F5CF8D3C59F480919704D0
:101F000087FF0DC010929704211559F41092920486
:101F100008C08E3C81F48091970418169CF321151B
:101F200081F08091980490919904892B8111A7CF19
:101F300010929104A4CF8F3C41F427FFF0CF109270
:101F40009604809197048115E0CF803D19F4121614
:101F5000B4F3E5CF893D29F413160CF710929804D9
:101F6000DECF8A3D19F437FFDACFF8CF8B3D29F465
:101F700097FFD5CF10929904D2CF8C3D19F4191642
:101F8000CCF3CDCF9FE2980F983090F4815D990B00
:101F900041E050E0BA0102C0660F771F8A95E2F770
:101FA000CB01809590919504892380939504B7CFB8
:101FB0008D3D31F4809193048E7F80939304AFCF55
:101FC0008E3D21F4809193048D7FF7CF8F3D09F0F2
:101FD000A6CF809193048B7FF0CFCF93C82F81152C
:101FE000D9F08CEF8C0F813AA8F580912A018115E8
:101FF00021F08091A40487FD11C0EAE7F1E080E8B8
:1020000091E02191C21701F18E179F07D1F78C2F14
:102010000E941D090E94010CCF910895EC2FE695B6
:10202000E695E695F0E0E058FE4F828190E04C2F77
:10203000477021E030E002C0220F331F4A95E2F7DB
:1020400082239323892B19F38C2F0E9451090E941C
:10205000010CDDCF80E28C0F883068F4C77081E01E
:1020600090E001C0880FCA95EAF7C0919C04C82B84
:10207000C0939C04CFCF8BE58C0F833038F42C2F8A
:102080002452330BC9010E94D108C6CFE8E5EC0FFA
:10209000EB3150F4F0E0EE0FFF1FE05CFE4F80816B
:1020A00091810E94F708B8CF83E38C0F833108F049
:1020B000B3CF61E08C2F0E941B0FAECF811581F151
:1020C0009CEF980F913A28F40E9451090E94010C4C
:1020D000089590E2980F983050F4877091E001C015
:1020E000990F8A95EAF7892F0E94AA05EFCF9BE501
:1020F000980F933028F480E090E00E94D108089572
:1021000098E5980F9B3128F480E090E00E94F70852
:10211000089593E3980F933118F460E00E941B0F29
:10212000089510929C0480912A01811539F18091C3
:10213000A40487FF23C0E2E8F1E08EE1DF011D92F5
:102140008A95E9F780E090E00E94D10880E090E075
:102150000E94F7081092A6040E94010C86E0E4E9B0
:10216000F4E0DF011D928A95E9F710929204109233
:102170009104109293040E94F30E0895EAE7F1E0AF
:1021800086E0DCCF0E9491102FEF84E39CE0215089
:1021900080409040E1F700C0000088E19AE00FB66F
:1021A000F894A895809360000FBE90936000FFCFD5
:1021B000AAE2B0E0EEEDF0E10C94892487EB91E027
:1021C000FC0101962091F100208321E08F3B9207D2
:1021D000B9F78091B801893009F456C0C8F482304B
:1021E00009F4B2C0833009F481C0813071F180916B
:1021F000E80083FFE6C08091B7019091B8019A3062
:1022000008F0DFC0E92FF0E0E35AFA4D0C94D12436
:102210008A3009F488C08B3051F78091B701813240
:1022200031F78091BB019091BC01892B01F780911E
:10223000E800877F8093E8000E94180A8091B90126
:1022400080932A010E949110D2CF8091B701813AE8
:1022500071F68091E800877F8093E8008091BB0150
:102260009091BC01892B61F060E080E090E070E02B
:102270000E94BF098091E8008B778093E800B7CF78
:1022800068E08FEB91E0F3CF8091B701813209F0E4
:10229000AECF8091BB019091BC01029708F0A7CF0F
:1022A0008091E800877F8093E8008091E80082FFBA
:1022B00018C09091F3008091F200029731F4809160
:1022C000F100813011F0863021F48091F10080938B
:1022D000C7018091E8008B778093E8000E94180A7C
:1022E00086CF8091DA018111E0CF81CF8091B70153
:1022F000813A09F07CCF8091BB019091BC01892B80
:1023000009F075CF8091E800877F8093E800809185
:10231000E80080FFFCCF80912A018093F10080913A
:10232000E8008E77D9CF8091B701813209F05FCF75
:102330008091E800877F8093E8000E94180A8091CE
:10234000BA018093B30153CF8091B701813A09F06C
:102350004ECF8091E800877F8093E8008091E8006D
:1023600080FFFCCF8091B301D8CF803889F08238CC
:1023700041F58091BB018F70873018F58093E9009B
:102380008091EB0085FB882780F91092E90006C058
:102390008091D901880F9091B401892B9091E80028
:1023A000977F9093E8008093F1001092F100809164
:1023B000E8008E7723C0811116C08091B901813069
:1023C00011F18091E80083FF0AC08091E800877FC7
:1023D0008093E8008091EB0080628093EB00AA96E6
:1023E000E3E00C94A524823061F78091B901811556
:1023F00089F01092E9008091E800877F8093E800DF
:102400000E94180ADECF81E0933009F080E08093CB
:10241000D901EFCF8091BB018F702FEF280F2630AD
:1024200080F68093E9002091EB0020FFE2CF93300B
:1024300031F48091EB0080628093EB00DACF9091D1
:10244000EB0090619093EB0021E030E0A90102C025
:10245000440F551F8A95E2F74093EA001092EA0074
:102460008091EB008860E8CF8111ABCF1091B9016A
:102470001F778091E3008078812B8093E300809127
:10248000E800877F8093E8000E94180A8091E800A6
:1024900080FFFCCF8091E30080688093E30083E0BD
:1024A000111101C082E08093DA018BCF8058823015
:1024B00008F087CF2091B9013091BA012C3D53E04B
:1024C000350799F583E08A838AE289834FB7F894C8
:1024D000DE01139620E03EE051E2E32FF0E050935E
:1024E0005700849120FF03C082958F703F5F8F70EB
:1024F0008A30C8F0895C90E08D939D932F5F2431E2
:1025000061F74FBF8091E800877F8093E8006AE21F
:1025100070E0CE0101960E94BF098091E8008B77A0
:102520008093E8004ECF805DE6CF832F99278330DC
:10253000910529F160F48130910509F475C0029785
:1025400009F03FCF8BE390E0EAEEF6E02CC020915B
:10255000BB013091BC018132910509F459C08297C9
:1025600009F02FCF2115310509F468C0213031055C
:1025700009F027CF86EB90E0E0EFF5E014C0C90149
:1025800099272130A9F182309105D1F1892B09F0E9
:1025900018CFEDE5F7E0E4918E2F90E0EDE5F7E060
:1025A000009709F40ECF2091E800277F2093E800E0
:1025B0002091BD013091BE018217930708F49C0160
:1025C00040E02115310509F03EC041113CC0809129
:1025D000E80082FDA2CF8091DA01811509F49DCF38
:1025E000853009F49ACF8091E80083FFF0CF95CF32
:1025F000EDE4F7E0E4918E2F90E0EDE4F7E0D0CF4A
:10260000E7E3F7E0E4918E2F90E0E7E3F7E0C8CF4F
:102610002115310571F02130310509F0D2CE89E064
:1026200090E0E5E1F7E0BFCF82E190E0E5E2F7E09E
:10263000BACF89E090E0ECEFF6E0B5CF84E490E02B
:10264000E6EAF6E0B0CF8091DA01811509F465CFB2
:10265000853009F462CF8091E80083FD5ECF8091E0
:10266000E80082FDB4CF8091E80080FFAACF90916E
:10267000F3008091F2002115310519F088309105A1
:1026800050F041E0089709F040E08091E8008E7733
:102690008093E80096CF44914093F1003196215009
:1026A00031090196E8CF803809F08BCE8091E8009F
:1026B000877F8093E8008091B5018093F10077CE09
:1026C00081117FCE1091B901123008F07ACE80913D
:1026D000E800877F8093E8001093B5010E94180AF4
:1026E000111581F084E08093DA0142E061EC81E031
:1026F0000E94A00A42E261EC82E00E94A00A80915E
:10270000DA015FCE8091E30087FDECCF81E0EBCF73
:102710009C014FB7F8948091280490912904A091CE
:102720002A04B0912B044FBF821B930B0895FF9294
:102730000F931F93CF93DF93C62FD42F122F8115A2
:10274000A9F060939A040E94E70E9093AC018093E5
:10275000AB01C77081E001C0880FCA95EAF70E94FB
:10276000530CCDB7DEB7E5E00C94A32480919A0416
:10277000681333C08091AB019091AC010E94881323
:10278000883C910550F500E20D0FCD17A9F0C770F8
:10279000FF24F3948F2D01C0880FCA95EAF70E9499
:1027A0005D0C083048F48D2F877001C0FF0C8A95AE
:1027B000EAF78F2D0E94530C812F0E94ED0F812F7D
:1027C0000E945E10083068F6D77081E001C0880F63
:1027D000DA95EAF70E945D0CC4CFC77081E001C0B2
:1027E000880FCA95EAF7F6CFA0E0B0E0EAEFF3E190
:1027F0000C9484247C01FC018481811531F161E019
:10280000C7010E94F707EC01F7018581FE01E8513D
:10281000FC47E730F105A8F5E959FA4D0C94D124AD
:1028200026E241EE61EE0E9497138091A304877027
:10283000811559F0F7018581811539F08091A50442
:1028400082FF03C082E00E946B05CDB7DEB7E8E0EF
:102850000C94A02427E245EE65EEE5CF26E241EE9A
:1028600060EEE1CF27E245EE64EEDDCF26E241EEF9
:1028700062EED9CF27E245EE66EED5CF28E241E001
:10288000EBCF811509F476C310929A04CE019057CC
:10289000839708F07CC384E090E00E94FE2490932C
:1028A000A5048093A404FE01E150F047E232F10553
:1028B00020F4E259FA4D0C94D1248091A404816053
:1028C0008093A4046091A4047091A50484E090E036
:1028D0000E9432250E949110A8CF8091A5048860A3
:1028E0008093A504EFCF8091A4048260E9CF80910A
:1028F000A4048460E5CF8091A4048860E1CF809136
:10290000A5048160EDCF8091A5048260E9CF80911C
:10291000A4048061D5CF8091A4048062D1CF80913E
:10292000A4048064CDCF0E9491108091A40480689B
:10293000C7CF8091A4048C60C3CF8091A50483602D
:10294000CFCF8091A4048E7FBBCF8091A504877FD9
:10295000C7CF8091A4048D7FB3CF8091A4048B7FD7
:10296000AFCF8091A404877FABCF8091A5048E7FE9
:10297000B7CF8091A5048D7FB3CF8091A4048F7EC3
:102980009FCF8091A4048F7D9BCF8091A4048F7BE7
:1029900097CF0E9491108091A4048F7791CF80915E
:1029A000A404837F8DCF8091A5048C7F99CF8091E3
:1029B000A404992782FF939590FB82F990FB83F9F9
:1029C0007FCF8091A504982F909590FB80F990FB84
:1029D00081F986CF9091A404892F8F7B96FF806424
:1029E0006FCF0E9491109091A404892F97FB87F9D3
:1029F000805866CF61E08EE090E00E94142562CF9F
:102A000060E0F9CF9091A404892F8F7E94FF8061BC
:102A100057CF9091A404892F8E7F90FF816050CF73
:102A20009091A504892F877F93FF886059CF89E211
:102A3000C0C289E2A9C2CA35FCE7DF0709F483C036
:102A400008F05BC0C1303CE7D30709F47AC0C3305B
:102A50008CE7D80709F46FC0C115DC4709F45EC0E4
:102A6000F701858100811181811509F470C0C801C9
:102A70000E94C307C82F682FC8010E94F904B8013B
:102A80008C2F0E94B2050E94C006D82FC92FF701D3
:102A9000D580C680C2948FE0C8228091A30487703D
:102AA0008115F9F00D2DD114E9F0892F807F803444
:102AB00061F080E28D0F8830A0F0892F807E803217
:102AC00021F4D23070F0C11461F08091A50482FF2E
:102AD00008C082E00E946B058091A304877001E02A
:102AE000811100E0EC2FE295EF70C03C08F095C03A
:102AF000F0E0E057FA4D0C94D124CB35ECE7DE073B
:102B000021F18091A504002482FF0394802DCC350F
:102B1000DC4709F0A5CF0E94EA0BA2CF0E949110DA
:102B20002FEF34E38CE0215030408040E1F700C0CB
:102B300000000E94AB096FEF7FEF80E090E00E9401
:102B400032250E94C21081E0E6CF80E0E4CFC801C8
:102B50000E942E05C82F93CF1C2F1F70C03110F07C
:102B60001295107FD114B9F0111569F080E28D0F24
:102B7000883010F0D11109C080919C04812B809382
:102B80009C040E94010C8D2F40C08091A604812BD3
:102B90008093A604F6CF8D2F0E945E101115E9F1E7
:102BA00080E28D0F883010F0D11104C0812F0E9477
:102BB000AA0506C010958091A60481238093A604DF
:102BC0000E94010C2AC01C2F1F70C07FC03211F060
:102BD0001295107FD11549F0D13009F46BC0D11492
:102BE00009F477C0C114C9F1CECF8091A50482FD4C
:102BF00030C0D11469F0111539F080919C04812BFB
:102C000080939C040E94010C80E00E94ED0F05C09F
:102C100080E00E945E101111C9CF0115A9F08091CA
:102C2000A30480FD11C0F7011582869586958695CF
:102C30000E94D704C7010E94F4138091A3048695D3
:102C4000869586950E94E70460E0C7010E94F70719
:102C5000FCCDD11499F0C11004C0812F0E94530CF7
:102C6000DCCFF1E0CF12D9CF80919D04912F982332
:102C7000191799F2812B80939D04CFCFC110CDCF2E
:102C8000812F0E945D0C90919D04812F89238115D5
:102C900029F0812F8095892380939D0480919E0443
:102CA000912F9823911509F4B8CF109518231093FC
:102CB0009E04B3CFD11429F026E0C21608F0ADCFA0
:102CC000CCCF35E0C31608F0A8CF812F0E945D0C51
:102CD000A4CFC114D1F3D93349F48FEF97EEE3E0D9
:102CE00081509040E040E1F700C000008D2F0E942D
:102CF0005E1093CF8C2F869586958370811569F031
:102D0000813009F08ACF8D2F9C2F9370D11002C093
:102D100080E090E00E94F70880CF8D2F9C2F937069
:102D2000D11002C080E090E00E94D10876CF6D2DD6
:102D30008D2F0E941B0F71CF8C2F8370811142C089
:102D4000D1102FC04D2F429546954770440F440F28
:102D50002D2F2F7030E0042E02C0220F331F0A9453
:102D6000E2F780E090E0D4FF09C08FE090E002C07D
:102D7000880F991F4A95E2F780959095C695C6955C
:102D8000C370C230B1F0C33089F040919F045091BC
:102D9000A004C13049F0822B932B842395230E94F9
:102DA000CD040E94C00839CF242B352B822B932BC6
:102DB000F6CF822B932B20919F043091A004822781
:102DC0009327EDCFD11491F1C0FFEBCF4D2F42955A
:102DD00046954770440F440F2D2F2F7030E0042E7E
:102DE00002C0220F331F0A94E2F780E090E0D4FF84
:102DF00009C08FE090E002C0880F991F4A95E2F762
:102E000080959095C695C695C370C230C1F0C33009
:102E100099F04091A1045091A204C13059F0822B45
:102E2000932B842395230E94D204BBCF823008F4D5
:102E3000B8CFCCCF242B352B822B932BF4CF822BE6
:102E4000932B2091A1043091A20482279327EBCFEA
:102E5000CF70D11439F08C2F0E94D7048D2F0E948F
:102E6000530C9FCF8D2F0E945D0C8C2F0E94E70486
:102E700098CFD23FB1F170F4D03FC9F0D13F91F07B
:102E8000D11409F463C0C11409F45DC08D2F0E94F0
:102E9000ED0F87CFD33F61F1D43F91F78091A50427
:102EA00082FD34C08C2F8F71D11401F31EC0D11458
:102EB000A9F0F5E0CF1608F074CFCF7181E090E073
:102EC0009C0102C0220F331FCA95E2F7E9018091ED
:102ED000A1049091A20482279D27A5CF36E0C316B6
:102EE000EACF8C2F8F71D110C1CF0E94D70459CF58
:102EF00080E090E0D11409F496CFCF7181E090E0AA
:102F000002C0880F991FCA95E2F78DCFD11489F0BE
:102F1000CF718C2F0E94D7048091A50482FF07C037
:102F20008C2F880F880F880F83608093A3048C2FC9
:102F3000DCCF81E00E946B0582E0C81608F431CF37
:102F40000E946B052ECF8C2F8F71CFCFC11479F0DB
:102F5000D93349F49FEFE7EEF3E09150E040F040C1
:102F6000E1F700C000008D2F0E945E101ACF8C2F59
:102F70008F717CCFC631DC4709F072CD80919B0404
:102F8000811509F456CD85E30E94510914C0C6315C
:102F90002CE7D20709F04FCD80919C048A7A91E00A
:102FA000811101C090E090939B04811509F43FCDFD
:102FB00085E30E941D090E94010C37CC8091E70433
:102FC000803178F48091E604811559F0E091A804ED
:102FD0002091A7043091E2044091E10457E02E13C0
:102FE00001C008956E2F70E05E9FF0011124DF0193
:102FF000A755BB4F14968C911497811561F11196CA
:103000008C911197831327C08C91841324C015963B
:103010008C91159781111FC012968D919C91A09152
:10302000E304B091E4048A1B9B0B883C910598F45F
:103030008091E7048F7080618093E704E155FB4F36
:1030400080818F708061808381EE94E00E94F41310
:103050000E9461050895FB013196E770C0CFADE095
:10306000B0E0E5E3F8E10C947F248C0186E0F80100
:10307000DE01189601900D928A95E1F7F801F5802E
:10308000C48081EE882E84E0982E7090E504711043
:1030900020C0C114D9F0F11409F41CC1C8010E9468
:1030A0002608811509F416C187E0F801D4010190C2
:1030B0000D928A95E1F7F1E0CF1206C08091E1040C
:1030C0009091E2040E9417080E94DE17FF24F394F7
:1030D00054C0E080A280B380D090E6048091E304E5
:1030E0009091E4049501281B390BD11409F4BAC05E
:1030F000283C310508F090C0C11441F39091E204DE
:10310000C1808091E704803108F058C0C91214C012
:103110009091E1049E1110C0F1104AC08F7080613F
:103120008093E70481EE94E00E94F4138091E70419
:10313000F8018683F12C21C0F1103AC040E06C2DDB
:103140008E2D0E942B0B40E06C2D8E2D0E942B0BA0
:10315000F82E8111EFCF888599850E941708292FB5
:1031600022952F70903470F49F702230A0F091154A
:10317000B1F0F8019681903190F48F2D2D96EDE00D
:103180000C949B242A5F2F70223068F0C8010E94A3
:10319000F413FD2CF2CF911511F0811571F3805EBF
:1031A000883058F3F3CF803F40F3815F8330F9CF0D
:1031B0008091E70481608093E704BCCFC91207C007
:1031C0009091E1049E1103C0F11409F46CC0C80190
:1031D0000E942608811509F47DC0F11409F47AC013
:1031E0008091E704803278F02091E1043091E2048C
:1031F0003A832983BC82AB827D821E828F83CE017B
:1032000001960E94F41387E0F801A1EEB4E001906A
:103210000D928A95E1F758CF8091E704803150F400
:1032200081EE94E00E94F41387E0F40111928A95F4
:10323000E9F780CFC11409F449CF2091E2049181CC
:103240002913C5CF9091E1049E11C1CFF110BFCFDA
:103250008683C8010E94F41387E0F40111928A95D5
:10326000E9F734CF283C3105F8F6C11409F42ECF24
:10327000F11481F19091E2048181981321C0809131
:10328000E1048E111DC08091E70480FD10C08031E3
:1032900070F08683807F803F39F08681982F907F01
:1032A000905F8F70892B8683C8010E94F41387E09A
:1032B000F801A1EEB4E001900D928A95E1F706CFF6
:1032C000C8010E94260881119ECF8091E704816089
:1032D0008093E704C8010E94F413F8CEABE1B0E09C
:1032E000E4E7F9E10C9488244E8B5F8B688F798F2B
:1032F0008A8F192F9B8F91111092A6041D8A86E048
:10330000FE017696DE011F9601900D928A95E1F7F7
:103310000A8D011539F00B8B1C8B61E0CE010F96E5
:103320000E94F7070B8B1C8B87E0FE013F96DE01A6
:10333000189601900D928A95E1F7CE0108960E94A9
:103340002F18811128C02091A7043091A80487E08C
:10335000FE013896DE01119601900D928A95E1F7F3
:103360008C858115C1F0822F90E001968770992796
:1033700038171906D9F097E0929FD0011124A7556C
:10338000BB4FFE01319601900D929A95E1F7809323
:10339000A7040E94610517E08091A8049091A704FA
:1033A000891312C06B96E4E00C94A4240E9491103F
:1033B0001092A7041092A80487E0E1EEF4E0DF0188
:1033C0001D928A95E9F7E7CF189FC0011124875510
:1033D0009B4F0E942F18811529F38091A80490E03B
:1033E0000196877099278093A804D6CFA6E0B0E015
:1033F000ECEFF9E10C9488240E94E70E8C01809197
:103400004504909146048017910779F019821A8239
:103410000E94E70EBC0149815A8180E090E00E9441
:103420006E1910934604009345042696E4E00C942C
:10343000A424AFE0B0E0EFE1FAE10C947B24FE01BC
:1034400031968AE0DF011D928A95E9F78BE2E82E3A
:1034500081E0F82E8F0190E3692E91E0792E2F0103
:10346000AA24A394B12C36E3832E31E0932EF701E6
:1034700081917F018F3F09F43EC0F894E82FE295D7
:10348000EF70F0E021A18F70A50102C0440F551F1D
:103490008A95E2F7CA01922F982B91A392A1809569
:1034A000892382A3789400C0E0E3F1E031E0312C7D
:1034B00021912F3F79F0A22FA295AF70A05EB0E0CE
:1034C0008C9190E02F7002C0959587952A95E2F730
:1034D00080FF75C080E0382A330F8E169F0641F7B3
:1034E000F70182918F3F11F00E94540850EA5A95DB
:1034F000F1F7D8013C920F5F1F4F6E147F0409F063
:10350000B6CF4AE050E0B2018CEC91E00E94E0249A
:103510006C01892B41F08AE0F201ACECB1E0019042
:103520000D928A95E1F70091D70110E005521E4FE8
:10353000C114D10409F445C081E08093A9010E941F
:10354000E70E9093A8018093A70180913F04811515
:1035500009F48DC07E01BBE0EB0EF11C85E0F701A4
:1035600011928A95E9F78091AA018A3008F04BC040
:103570004BE25DE0B701C8010E94B00B811509F470
:1035800064C044ED5CE0B701C8010E94B00B811536
:1035900009F45BC01092AA018091D60190E045E049
:1035A00050E0B70185529E4F0E94E02421E0209315
:1035B000A601892BE9F52F96E1E10C949724832F3E
:1035C0008ACF8091A901811509F4BFCF8091A7010D
:1035D0009091A8010E948813059708F4B6CF45E0A2
:1035E00050E06CEC71E0C8010E94E024892B41F0AE
:1035F00085E0ECECF1E0D80101900D928A95E1F7BD
:103600001092A901A2CF8091A4019091A5010E94DE
:103610008813843F914008F0ABCF8091A6018115BB
:1036200051F285E0D7011D928A95E9F71092A60123
:10363000A091D601B0E0A552BE4F85E0FE013B96B9
:1036400001900D928A95E1F7B6CF8091AA018F3F44
:1036500039F40E94E70E9093A5018093A401DDCF79
:103660008F5F8093AA018A3008F496CFF2CF85E06D
:10367000F801ADE2B4E001900D928A95E1F78DE298
:1036800094E00E94870A80932C04C0903204D0906A
:103690003304E0903404F09035048091A0019091BF
:1036A000A101A091A201B091A301C816D906EA0612
:1036B000FB0609F480CFC092A001D092A101E09254
:1036C000A201F092A3010E947D09C61AD70AE80A56
:1036D000F90AC0924104D0924204E0924304F0926D
:1036E000440469CFCDB7DEB72A970FB6F894DEBF92
:1036F0000FBECDBF85B7806885BF85B7806885BFA1
:1037000084B7877F84BF0FB6F894A8958091600036
:10371000886180936000109260000FBE80E890E0A6
:103720000FB6F89480936100909361000FBE82E51C
:1037300098E090937701809376010E94680A0E9436
:10374000D00A8091E20084608093E20078948091B6
:10375000DA01811599F08091E9001091EC008F70E9
:10376000179511271795182B1092E9008091E80002
:1037700083FD0E94D8101F701093E90082E084BD81
:1037800093E095BD9AEF97BD80936E00109241042F
:103790001092420410924304109244048091D80085
:1037A00080618093D8002AE12A95F1F700C08091CA
:1037B000D900182F117080FD04C00E94680A109271
:1037C000DA0110933F0480E090E00E94FE24863EE0
:1037D0009E4F11F00E94640C8EE090E00E94F6244F
:1037E00091E0811101C090E090934004909300011A
:1037F00080913F0481110E940423809100018091F7
:10380000000190E0811101C095E09093D70185E01F
:10381000891B8093D6010BE211E0A0E3EA2EA1E020
:10382000FA2ED8018D918D018F3F11F00E9454081E
:10383000E016F106B1F700E311E0F6E3EF2EF1E058
:10384000FF2EF80181918F018F3F11F00E945408E3
:10385000E016F106B1F78AE0EBEDF1E0DF01282F89
:103860001D922A95E9F7ECECF1E0DF011D928A95B3
:10387000E9F780E090E00E94FE24863E9E4F11F022
:103880000E94640C82E090E00E94F6248093E5019F
:1038900084E090E00E94FE249093A5048093A40409
:1038A0000E94191AEFEFF6E721E0E150F0402040C6
:1038B000E1F700C000000E94191A8091DB0180FF2F
:1038C00008C06FEF7FEF80E090E00E9432250E94F9
:1038D000AB0983E090E00E94F62490E00E94CD04C2
:1038E0008091400492E0980F811509F4BBC080E2FA
:1038F000909313048093F2010E9489216BE070E0A1
:1039000088E797E00E94BD0D811509F43FC08091C2
:10391000130465E070E081FDA7C083E797E00E9493
:10392000BD0D811599F16DE070E081E697E00E9490
:10393000BD0D811559F10E947D09DC01CB01805A32
:103940009541AF4FBF4F8093170490931804A093F5
:103950001904B0931A04E3E1F2E080E092E0DF01A1
:103960009C011D9221503040E1F7F093F101E0936A
:10397000F0018FEF9FEF909316048093150481E080
:1039800080931E0480931B041092140480913F04C2
:10399000811102C00E94072381E091E090936804A6
:1039A00080936704CE0101968F8398878091DA0116
:1039B000853049F48091DA01853009F458C00E94BD
:1039C00091100E94C0080E94191A06EE11E0EBED5A
:1039D000EE2EE1E0FE2ED701F80191918D9120EFBE
:1039E00031E02E173F0709F496C09817B1F36090A5
:1039F0003F04B12CD701AD907D01F80171908F018A
:103A00007A1439F17A24912C88248394882D872183
:103A10008115C1F06114B1F09982BA820E94E70E5B
:103A20009C838B83F1E0FD8391E0882D8A218111B5
:103A300001C090E09E8349815A816B817C818D8198
:103A40000E946E199394880C26E09212DFCFF80141
:103A5000A292B3943AE0B312CDCF0E948909BB245D
:103A6000B3945EC080E844CF8EE697E058CF809153
:103A7000DA01843031F10E94CA0D1092D80188E138
:103A800090E0A0E40FB6F894A895809360000FBE74
:103A9000A093600083B7817F846083BF83B7816018
:103AA00083BF7894889583B78E7F83BF0FB6F894D1
:103AB000A8958091600088618093600010926000FA
:103AC0000FBE8091D901811509F474CF0E94191A93
:103AD000EBEDF1E08191811106C025EE31E02E176A
:103AE0003F07C1F767CF80E189BD82E189BD09B495
:103AF00000FEFDCF8091D8008F7D8093D80080910B
:103B0000E00082608093E0008091E00081FDFCCFC6
:103B10000E9491104FCF98136ACF0E94F619B12CD2
:103B200080911E04811509F487C080911C04909136
:103B30001D040E948813C29708F45EC00E94E70E1D
:103B400090931D0480931C0483E192E09093F10113
:103B50008093F00180914004811509F451C18DEEEC
:103B600097E00E94AF0E3091A1042091A204822F11
:103B700090E021113DC1832F922FAC0174E0569546
:103B800047957A95E1F74115510511F02C5FCA016F
:103B9000AC0156954795569547954115510511F03D
:103BA0002E5FCA0196958795820F813009F422C154
:103BB000823009F422C1811104C089EE97E00E948D
:103BC000AF0E0E94C008182F8BED97E010FD02C0C9
:103BD00086ED97E00E94AF0E81ED97E011FD02C0E7
:103BE0008CEC97E00E94AF0E88EC97E012FD02C0CB
:103BF00083EC97E00E94AF0E80911504909116041B
:103C0000892B09F00BC180911B048115A9F00E943A
:103C10007D09009117041091180420911904309126
:103C20001A04601B710B820B930B6F3F7F4F8F4FFA
:103C30009F4710F40E94CA0DB1100E94DC0D86E06F
:103C4000E4E9F4E0AF81B88501900D928A95E1F73F
:103C5000B0909504F090960410919704E090980429
:103C6000009199041092960410929704109298046F
:103C700010929904812F8F29811509F440C08091F9
:103C80002104909122040E9488132C0180919204B7
:103C9000811509F49CC195E14916510480F18F3FCB
:103CA00019F08F5F80939204F11459F00E947B0801
:103CB00091E01F140CF09FEF899F802D11248093B9
:103CC0009604111559F00E947B0891E011160CF032
:103CD0009FEF899F802D11248093970480919604F3
:103CE000811569F0A0909704A11449F00E946D0815
:103CF000809396048A2D0E946D0880939704802FEC
:103D00008E29811509F440C080911F0490912004F0
:103D10000E9488136C0180919104811509F451C1AE
:103D2000A1E5CA16D10480F18F3F19F08F5F80930F
:103D30009104E11459F00E949B0891E01E140CF0CC
:103D40009FEF899F802D112480939804011559F0CD
:103D50000E949B0891E010160CF09FEF899F802D28
:103D600011248093990480919804811569F0E09062
:103D70009904E11449F00E946D08809398048E2DF7
:103D80000E946D088093990480919504B81219C01F
:103D900080919604811511F08F1113C02091970422
:103DA000211511F012130DC090919904911511F085
:103DB000091307C030919804311103C0822B892B5D
:103DC00081110E94F30E86E0EF81F885A4E9B4E04A
:103DD00001900D928A95E1F70E94C008909123040A
:103DE000891709F4E3CD809323040E947D09DECD79
:103DF00028E0C3CE84EE97E0E2CE8FED97E0DFCEF1
:103E0000E3E8F7E084918F01811509F4F5CE0E9473
:103E1000000E0F5F1F4FF8018491F6CF80911E04B2
:103E2000811509F4F0CE809114048111ECCE0E942A
:103E3000DC0D20911504309116042115310509F48B
:103E4000E2CE10E041E050E0812F90E07A01012EB7
:103E500002C0EE0CFF1C0A94E2F7B7016223732341
:103E6000672B11F41F5FF0CF2091130420FF96C041
:103E7000912F990F990F990F37E0390F80E023E0C8
:103E800090930D018093100130930E012093110146
:103E900024E630E047E050E06BE071E088E70E9404
:103EA000BF21892B09F0AFCEF0E21F9FA0011124A2
:103EB0008091130480FF7EC0E3EFF1E080E2DF0138
:103EC0001D928A95E9F7EAE3F1E0FA87E98706E3CC
:103ED00011E0A985BA856D91BA87A987F80181910A
:103EE0008F01840F952F911D9C012D5E3D4F49013F
:103EF000E62FF0E0ED50FE4F20E030E087E0682E46
:103F0000621AAA24A394022E01C0AA0C0A94EAF70A
:103F1000140190E0D1018D911D018A21662D691B4C
:103F2000677070E0B82F062E01C0BB0F0A94EAF745
:103F30007195619571096770772701C086956A95BB
:103F4000EAF78B2B6081682B60839F5F983011F7B5
:103F50002F5F3F4F31962830310581F6E985FA858C
:103F6000EE53F14009F0B5CF04E610E020E230E076
:103F700043EF51E060E488E70E945922892B09F061
:103F800042CEE094F09480911504909116048E2115
:103F90009F21909316048093150435CE96958795AE
:103FA00096958795282F912F9295990F90763FE1BE
:103FB000390F66CF4D5E5D4F04E610E020E230E041
:103FC000D9CFBBE0CB16D10408F0B0CEDDCEEBE00C
:103FD0004E16510408F065CE92CE78941F921FB60B
:103FE0001F9211248F939F93AF93BF9380912804C6
:103FF00090912904A0912A04B0912B040196A11D4F
:10400000B11D8093280490932904A0932A04B093AF
:104010002B04BF91AF919F918F911F901FBE1F9056
:1040200018951F920F920FB60F9211242F933F9362
:104030004F935F936F937F938F939F93AF93BF93B0
:10404000EF93FF938091E10082FF09C08091E2002D
:1040500082FF05C08091E1008B7F8093E100809119
:10406000DA0080FF24C08091D80080FF20C08091BA
:10407000DA008E7F8093DA008091D90080FF9BC0A8
:1040800080E189BD82E189BD09B400FEFDCF81E0F8
:104090008093DA018091B601811109C00E94680AFB
:1040A0000E94D00A8091E20084608093E2008091B7
:1040B000E10080FF17C08091E20080FF13C0809173
:1040C000E2008E7F8093E2008091E2008061809325
:1040D000E2008091D80080628093D80019BC85E00E
:1040E0008093DA018091E10084FF29C08091E20091
:1040F00084FF25C080E189BD82E189BD09B400FE4D
:10410000FDCF8091D8008F7D8093D8008091E10011
:104110008F7E8093E1008091E2008F7E8093E200A9
:104120008091E20081608093E2008091B501811569
:1041300009F447C084E08093DA018091DA0180912C
:10414000E10083FF27C08091E20083FF23C08091BC
:10415000E100877F8093E10082E08093DA01109292
:10416000B5018091E1008E7F8093E1008091E200B3
:104170008E7F8093E2008091E20080618093E20074
:1041800042E060E080E00E94A00A8091F000886038
:104190008093F000FF91EF91BF91AF919F918F912C
:1041A0007F916F915F914F913F912F910F900FBE33
:1041B0000F901F90189519BC1092DA011092B60159
:1041C00076CF8091E30087FF02C083E0B4CF81E027
:1041D000B2CF1F920F920FB60F921124EF92FF925F
:1041E0000F931F932F933F934F935F936F937F93FF
:1041F0008F939F93AF93BF93CF93EF93FF9309EE6A
:1042000010E0F8018081C091EC008F70C795CC2739
:10421000C795C82B108280EFE82EF12CF701808122
:10422000877F808378940E94D810F8011082F7016C
:10423000808188608083CF70F801C083FF91EF9107
:10424000CF91BF91AF919F918F917F916F915F912E
:104250004F913F912F911F910F91FF90EF900F90F1
:104260000FBE0F901F901895FF920F931F93CF933F
:10427000DF93182FEB011092BC0084EA8093BC00FE
:104280000E94E70E082FF92E8091BC0087FF28C0FE
:104290008091B900887F883029F08091B900887FAB
:1042A0008031A1F51093BB0084E88093BC000E948C
:1042B000E70E182F092F8091BC0087FF1FC02091A7
:1042C000B900287F80E090E0283199F081E090E00B
:1042D000203411F480E090E091958195910909C016
:1042E000802F9F2D0E948813C817D90768F68EEF7C
:1042F0009FEFCDB7DEB7E5E00C94A324812F902F7C
:104300000E948813C817D907B0F6F1CF8FEF9FEF3F
:10431000F0CF1092B9008CE08093B80008950F930D
:104320001F93CF93DF93EB018093BB0084E88093CE
:10433000BC000E94E70E182F092F8091BC0087FF58
:1043400011C02091B900287F81E090E0283211F45B
:1043500080E090E0919581959109DF91CF911F9137
:104360000F910895CF3FDC0741F3812F902F0E94DA
:104370008813C817D90708F78EEF9FEFEECFA0E09C
:10438000B0E0E5ECF1E20C947F24782EB62EA72E57
:104390006A01E9010E94E70E4C01C431D10528F100
:1043A000CF3FDC0731F1CE0164E170E00E9466246A
:1043B000F62EE72E6F2D7E2D872D0E9434218C0145
:1043C000892BD1F4EB2CFA2CCE0CDF1CEC14FD0461
:1043D00019F001151105D1F084E98093BC00C801E2
:1043E000CDB7DEB7EDE00C949B24FF24F394E12CD1
:1043F000E1CF85E0F82EFBCFCF3FDC07D9F2C40137
:104400000E948813C817D907A8F6DCCFBE01F701B0
:1044100081917F010E948F218C01D8CFA0E0B0E074
:10442000E4E1F2E20C947F24782EB62EA72E6A01E6
:1044300089010E94E70E4C010431110518F10F3F6C
:10444000100719F1C80164E170E00E946624EB01D5
:10445000BE01872D0E9434217C01892BC1F4CB2D14
:10446000DA2DCC0EDD1ECC15DD0519F0E114F104BA
:10447000C1F084E98093BC00C701CDB7DEB7EDE0A1
:104480000C949B24C1E0D0E0E3CFC5E0FCCF0F3F0C
:104490001007F1F2C4010E94881308171907C0F62B
:1044A000DECFFE018491B8010E948F217C0121960C
:1044B000DACFA0E0B0E0EFE5F2E20C947E24682EC3
:1044C000962E5A01690178010E94E70E782E892EF6
:1044D0000431110530F10F3F100731F1C80164E1DB
:1044E00070E00E946624162F072F612F702F862DF3
:1044F0000E943421EC01892BC9F0FFEFEF16FF0673
:10450000A1F3872D982D0E948813E816F90668F705
:1045100084E98093BC00CE01CDB7DEB7EEE00C9409
:104520009A2411E000E0E1CF15E0FCCFB701892D1E
:104530000E948F21EC018501CA0CDB1C0C151D05A6
:1045400039F3209729F7B701F80181918F010E9473
:104550008F21EC01F3CF8EE14A9B02C08A95E1F7EF
:104560004A9BFECF08955A9880E28A95F1F75A9AAD
:104570000895FC013BE03A95F1F798E020E080E0F7
:1045800031E040E14A95F1F7880F4A9B02C0816013
:10459000232742E04A95F1F7000040E14A95F1F700
:1045A0009A9579F790E19A95F1F799B132E03A95B9
:1045B000F1F7000040E14A95F1F792FB992790F955
:1045C00092272081920F90830895A1E0B0E0EBEE56
:1045D000F2E20C94862419828C017C01E60EF11C17
:1045E0000E94AB22CE0101960E94B922F80181936C
:1045F0008F01EE15FF05A1F781E09981911180E00F
:104600002196E6E00C94A224529A5A9A0895529860
:104610005A9AEA9AE9E6F0E080818F7C80830895D7
:104620006150770B91E001C0990F6A95EAF7692F05
:1046300090E021E0611108C0911599F05A9A80E24A
:104640008A95F1F75A980895362F3823311539F0A5
:104650005A9A922730E23A95F1F76695EBCF5A983D
:10466000F9CF5A98ECCFFF920F931F93CF93DF931C
:10467000EC018C01060F111DF9900E94B32268E035
:104680008F2D0E941023C017D107B1F7CDB7DEB729
:10469000E5E00C94A3241F920F920FB60F92112401
:1046A0000F931F932F933F934F935F936F937F933A
:1046B0008F939F93AF93BF93EF93FF93CF93DF932A
:1046C0000F92CDB7DEB719820E94AB22CE010196C0
:1046D0000E94B922082F069506950695982F929567
:1046E0009570202F2570920F292F237096959695FF
:1046F000920F982797708981892B811509F05CC0EA
:10470000043008F059C080E18A95F1F75A9A529A1C
:1047100082E08A95F1F700C05A9888E0089F8001EE
:104720001124D801AE5EBE4F1696ED91FC911797FD
:104730003097A9F060913E0170913F0114962D9140
:104740003C911597260F371F11968D919C911297CA
:10475000680F791F13964C9113978C910995F80166
:10476000EE5EFE4F6381611551F020913E01309164
:104770003F0184819581820F931F0E9433230E9401
:10478000B32280E18A95F1F75A9852985A9A80E1BB
:104790008A95F1F7F801EE5EFE4F6081611551F0E8
:1047A00020913E0130913F0181819281820F931FC0
:1047B0000E94E5220E94AB220F90DF91CF91FF91E2
:1047C000EF91BF91AF919F918F917F916F915F9189
:1047D0004F913F912F911F910F910F900FBE0F900E
:1047E0001F9018950F931F93CF93DF938C0104971D
:1047F0000CF064C0F894529A5A9885E08A95F1F7C3
:104800000000C02FC695C570802F8570C80F8C2FF3
:104810008370C695C69593E0000F111F9A95E1F736
:10482000C80FC8018C2BEC010E94B32200C068E0C5
:104830008C2F0E94102390E19A95F1F752985A9A82
:104840004A9B35C087E090E04A9933C0F801EE5E9C
:10485000FE4F6381611561F020913E0130913F016F
:1048600084819581820F931F0E94E522811519F1A1
:104870000E94AB2280E28A95F1F75A98529A90E111
:104880009A95F1F7F801EE5EFE4F6081611551F0E7
:1048900020913E0130913F0181819281820F931FCF
:1048A0000E9433230E94B322789481E008C000C0A4
:1048B000C7CF019749F4529A5A9A789480E0DF91D1
:1048C000CF911F910F91089500C0BECFAA1BBB1BB3
:1048D00051E107C0AA1FBB1FA617B70710F0A61B00
:1048E000B70B881F991F5A95A9F780959095BC0121
:1048F000CD0108952F923F924F925F926F927F92D7
:104900008F929F92AF92BF92CF92DF92EF92FF92DF
:104910000F931F93CF93DF93CDB7DEB7CA1BDB0B8B
:104920000FB6F894DEBF0FBECDBF09942A88398830
:1049300048885F846E847D848C849B84AA84B98437
:10494000C884DF80EE80FD800C811B81AA81B98143
:10495000CE0FD11D0FB6F894DEBF0FBECDBFED0157
:104960000895992778E0880F991F961708F0961BED
:10497000881F7A95C9F78095089597FB072E16F43E
:10498000009407D077FD09D00E94662407FC05D06B
:104990003EF4909581959F4F0895709561957F4F56
:1049A0000895EE0FFF1F0590F491E02D0994FB018F
:1049B000DC0102C005900D9241505040D8F7089597
:1049C000FB01DC0104C08D910190801921F441505C
:1049D0005040C8F7881B990B0895FB01DC0102C009
:1049E00001900D9241505040D8F70895F999FECFAB
:1049F00092BD81BDF89A992780B50895A8E1B0E0ED
:104A000042E050E00C943A25DC01A40FB51F415060
:104A1000504048F0CB01840F951F2E910E94152520
:104A200041505040D0F70895262FF999FECF92BDFE
:104A300081BDF89A019700B4021639F01FBA20BD63
:104A40000FB6F894FA9AF99A0FBE08950396272F95
:104A50000E9415250E941425252F0E941525242F1C
:104A60000C9415250196272F0E9415250C941425CA
:104A7000DC01CB01FC01F999FECF06C0F2BDE1BD1E
:104A8000F89A319600B40D9241505040B8F708950D
:104A9000F894FFCF3A0F420F450F4B0F600F600F96
:104AA000600F600F600F600F600F600F4E0F530FAD
:104AB000570F5D0F6E0F740F780FB511DB11E111F9
:104AC000DB11E11134125612E111531360132E144D
:104AD000321410142A1436143A143E14A114091571
:104AE000A91473147714AD147B14B114BD14871476
:104AF00002158B14C1148F14C514EA149314C9142D
:104B0000F1149914CF14D7147F14B5148314B91465
:104B10009D14D314E114FA1400156D14A514101586
:104B2000AC15AC15E315E3157A1697160D160D1690
:084B30009C16281739173917EC
:104B380001BC09840B9B0BA20BA90B0021007F224F
:104B48000003000000010000000000000005010053
:104B58000000040600000000000001F4F5F63632FB
:104B680034356697C69400081018181008002C04ED
:104B7800E200E900EA00B500B600B700CD00830105
:104B8800CC008A0192019401210223022402250209
:104B9800260227022A02B300B4006F0070009F01AA
:064BA800CB019F02A002F8
:00000001FF
