:100000000C94AA060C94C7060C94C7060C94C8342A
:100010000C94C7060C94C7060C94C7060C94C7062C
:100020000C94C7060C94C7060C948E310C9466325F
:100030000C948F120C94C7060C94C7060C94C70638
:100040000C94C7060C94C7060C94C7060C94C706FC
:100050000C94C7060C946A310C94C7060C94C7061E
:100060000C94C7060C94C7060C94C7060C94C706DC
:100070000C94C7060C94C7060C94C7060C94C706CC
:100080000C94C7060C94C7060C94C7060C94C706BC
:100090000C94C7060C94C7060C94C7060C94C706AC
:1000A0000C94C7060C94C7060C94C70605010902F8
:1000B000A10185020901A1000509190129081500FE
:1000C0002501950875018102050109300931158165
:1000D000257F95027508810609381581257F9501D0
:1000E00075088106050C0A38021581257F95017572
:1000F000088106C0C005010980A101850319012AF4
:10010000B700150126B700950175108100C0050CD8
:100110000901A101850419012AA002150126A002E6
:10012000950175108100C005010906A1018506052C
:100130000719E029E71500250195087501810205D9
:1001400007190029EF1500250195F07501810205B9
:10015000081901290595057501910295017503910D
:1001600001C00660FF0961A1010962150026FF00B8
:100170009520750881020963150026FF00952075FA
:10018000089102C005010906A101050719E029E748
:1001900015002501950875018102950175088101F9
:1001A0000507190029FF150026FF0095067508812F
:1001B000000508190129051500250195057501910E
:1001C00002950175039101C000AF00AE0000000070
:1001D00000003E5B4F5B3E003E6B4F6B3E001C3EA3
:1001E0007C3E1C00183C7E3C18001C577D571C00B0
:1001F0001C5E7F5E1C0000183C180000FFE7C3E790
:10020000FF00001824180000FFE7DBE7FF0030487C
:100210003A060E00262979292600407F05050700A9
:10022000407F05253F005A3CE73C5A007F3E1C1C9E
:100230000800081C1C3E7F0014227F2214005F5F10
:10024000005F5F0006097F017F00006689956A00F4
:1002500060606060600094A2FFA2940008047E04C5
:10026000080010207E20100008082A1C0800081C26
:100270002A0808001E10101010000C1E0C1E0C0086
:1002800030383E383000060E3E0E060000000000FA
:10029000000000005F000000000700070000147F5E
:1002A000147F1400242A7F2A12002313086462009A
:1002B000364956205000000807030000001C224168
:1002C00000000041221C00002A1C7F1C2A00080894
:1002D0003E08080000807030000008080808080088
:1002E0000000606000002010080402003E514945F3
:1002F0003E0000427F4000007249494946002141CA
:10030000494D33001814127F100027454545390028
:100310003C4A494931004121110907003649494900
:100320003600464949291E00000014000000004024
:1003300034000000000814224100141414141400A6
:100340000041221408000201590906003E415D598E
:100350004E007C1211127C007F49494936003E4113
:10036000414122007F4141413E007F4949494100CE
:100370007F09090901003E41415173007F080808C7
:100380007F0000417F4100002040413F01007F0885
:10039000142241007F40404040007F021C027F0049
:1003A0007F0408107F003E4141413E007F0909095A
:1003B00006003E4151215E007F0919294600264969
:1003C0004949320003017F0103003F4040403F00A4
:1003D0001F2040201F003F4038403F006314081496
:1003E00063000304780403006159494D4300007F12
:1003F00041414100020408102000004141417F00BA
:10040000040201020400404040404000000307088D
:1004100000002054547840007F2844443800384479
:1004200044442800384444287F0038545454180069
:1004300000087E0902001824241C78007F080404A8
:10044000780000447D4000002040403D00007F10C7
:100450002844000000417F4000007C0478047800BC
:100460007C08040478003844444438007C18242470
:100470001800182424187C007C0804040800485440
:100480005454240004043F4424003C4040207C0099
:100490001C2040201C003C4030403C0044281028D8
:1004A00044004C9090907C004464544C44000008FC
:1004B00036410000000077000000004136080000CF
:1004C0000201020402003C2623263C0000C0F0F892
:1004D000F8780000000000000000F0F8F0F0F08074
:1004E0000000000080C0C08080008080C0C0E0E0CC
:1004F000E0E0E0F060000000C0E0F0F8F8F87878A4
:100500007878F8F8F8F8F8F0C000387C7E3E3E7E47
:100510007EFEFEFEFEFEFEFEFEFEFEFE7C7C1880E3
:10052000C0C0C080800000000000008080C0E0F0FB
:10053000F0F070008080C0C0800000000080F0E01B
:10054000E0F0F8F8E0E0C0C81818E0F0F0F0E0ECF7
:10055000EEF7F37020007C7C7C7E007E7E7E7F7FC9
:100560007F000080C0E07E5B4F5BFEC00000C000EB
:10057000DCD7DEDEDED7DC00C000000000000000BB
:10058000000000000000000000000000FFFFFFFF6F
:10059000E1808080C00000000080EFFFFFFF7F3F10
:1005A00000FCFFFFFFFBE387FFFFFFCF87C7C7C349
:1005B000C1C180800000007FFFFFFFE1E0C080C07C
:1005C000C0E0F0F8FFFFFFFF7F00000000003030C8
:1005D000787CFFFFFFFFEFE7EFEF8108080000E006
:1005E000E3C3E7FFFFFFFEFCFCFEFFFFEFE7C3C135
:1005F000C0C0E0FFFFFFFF3FEFFFFEFFFFFFFFFF79
:10060000FDEDE367FFFFFFFF2C0F0F1F3F7F7F7F95
:100610007F7F3F1E0C001F1F1F3F003F3F3F7F7F1C
:100620007F00307B7F7830202030787F3B000300D4
:100630000F7F0F0F0F7F0F0003000000000000006E
:1006400000000000000000000000000000070F0F85
:1006500007070F0F0F0F0F0F0F0F07070301000002
:100660000103030707070707070707070707070728
:100670000703030300000000000103070F0F1F0F13
:100680001F1F1F0F07030301000000083C7C3C3CB8
:100690003C3C3C3C3F3F1F1F1F1F1F1F0E00000123
:1006A00003030303030303070707070707070F03F2
:1006B000030307070F0F0F0F1F1F1F1F1F1F1F1FF2
:1006C0001F0F0F0E0F0F0F070000000000000000AB
:1006D000000000000000000000000000000000001A
:1006E000000000000000000000000000000000000A
:1006F00000000000000000000000000000000000FA
:1007000000000000000000000000000000000000E9
:1007100000000000000000000000000000000000D9
:1007200000000000000000000000000000000000C9
:100730007E0F00D4FFFFFFC700000078000000001C
:10074000000000002A2B280000000000000000002C
:100750000000000000000029000000002C1E3420D2
:10076000212224342627252E362D3738271E1F20F8
:100770002122232425263333362E37381F0405063D
:100780000708090A0B0C0D0E0F1011121314151681
:100790001718191A1B1C1D2F3130232D350405067F
:1007A0000708090A0B0C0D0E0F1011121314151661
:1007B0001718191A1B1C1D2F3130354C09025B000C
:1007C000030100A0FA09040000010301010009214E
:1007D00011010001224400070581030800010904FA
:1007E0000100020300000009211101000122220082
:1007F0000705820320000107050303200001090407
:100800000200010300000009211101000122B600CD
:100810000705840320000112010002000000086B9C
:100820006336340001010203011C03760069006194
:10083000006C003A0066003600340063003200624B
:10084000003300630000001403630072006F007740
:10085000006B0062005F003400360000000E03638E
:10086000002D0062006F0074007A0000000403098C
:10087000042B0014001A00080015001700E1000402
:10088000001600070009000A00E0001D001B00061A
:100890000019000500000000000000000000002911
:1008A0000000000000E200E3002C002152310013A0
:1008B0000012000C0018001C00340033000F000E62
:1008C000000D000B00E50038003700360010001165
:1008D00000000000000000000000003900000000DF
:1008E000004C002A002800225235001E021F022060
:1008F0000221022202E1081E001F00200021002226
:1009000000E300230024002500260027000000004B
:1009100000000000000000010000000000010001D4
:10092000000100010035022E02250230022F022DA7
:1009300000340233022E00270226022D0224023741
:1009400002360230002F00230200000000000000E9
:10095000000000010000000000010001000100375C
:1009600000000000003A003B003C003D0000000099
:10097000003E003F004000410000000000420043F4
:1009800000440045000000000000000000000001DD
:100990000000000000010001000100010000000053
:1009A000000000000048004600000000004D00521A
:1009B000004A004B00000000004F00510050004E64
:1009C0000000000000000000000000010000000026
:1009D00000010001000100010000DA0281FFD9F1ED
:1009E000DB20A4A62EAF00A0C0D30000A1C8D30076
:1009F00000AED580A81F408D1420008081828384A2
:100A000085868788898A8B8C8D8E8F90919293941E
:100A1000A0A1A2A3A4A5A6A7A8A9AAABACADAEAF5E
:100A2000B0B1B2B3B4C0C1C2C3C4C5C6C7C8C9CAD5
:100A3000CBCCCDCECFD0D1D2D3D40020202020001B
:100A400053435200202020200043415053002020D7
:100A50002020004E554D00537973740053796D6218
:100A600000446566004C617965720001000100E98F
:100A70000540105610000002000200E50540105627
:100A800010000003000100EA0540105610000004A9
:100A9000000200CF05401056103E0A05000100EB91
:100AA0000540105610000006000200D10540105607
:100AB00010000007000200E7054010561000000873
:100AC000000100EC0540105610000009000200D3A0
:100AD0000540105610470A0A000200D5054010567E
:100AE00010470A0B000200D70540105610470A0CA9
:100AF000000200D90540105610470A0D000200DB25
:100B00000540105610470A0E000200DD0540105641
:100B100010470A0F000200DF0540105610470A1068
:100B2000000200E10540105610470A11000200E3E0
:100B30000540105610470A12000200ED05401056FD
:100B400010000013000200EF0540105610000014C2
:100B5000000100F1054010561000001500000000D3
:100B6000006C0AB7170000FD377A585A000004E6F7
:100B7000D6B4460200210116000000742FE5A3E060
:100B800005B001AB5D003D8889C65436C3174FE4FC
:100B9000EFB1817BA6EC4A8126EAF67D6A71B63513
:100BA000719948646A119F3558754CEF9358A72284
:100BB000D3CD947E1CFDD661ED3F09691E6C31E4F6
:100BC000E27FBB14666042319EF21146F4FE9D271F
:100BD0009C48D8B50523B14A7F458E5F9D97D92D96
:100BE000A48B11C1186157ED8780121222B2745084
:100BF000AF4FF6F11DD4ABB923F51AAF73E463BB65
:100C00003F210E59639568CA0D5720416BCF8BE683
:100C10005FA54D74B43D25CE35E3C760D8166D5F32
:100C2000C846CF916B91237619D310840DFC6E1BAF
:100C30002D31F976394BBCD396B933E8CF3AD09CF5
:100C4000D3D39F956CECE104BE853BDE970591C93B
:100C5000D5B99A3126F3034461CA3C25B3D73998F4
:100C6000BBA61FAA1BF73CA2DBAE5470A117176BE3
:100C7000B2B4D1E7013CAC738A9C9CB240E5746E7F
:100C800067CA6E94AFF6D69FCD5BF20D7B2DD787EA
:100C9000927AB69841FE5A2E31485B018664DE7521
:100CA00008862EE3EE8E5C2CA11778BC506B649501
:100CB000C1B06AF92955AC2CC09920150C2851A651
:100CC000A84B59FAC460D44421635E6ED95E1B24DC
:100CD000ED417742ACE5FD3CB6B08B9969E1939963
:100CE0008B205565C738722B1F178B948BD5BBB8DB
:100CF000CFE4BAF05D7834AEAAD771BA963FF7DA8E
:100D0000880163FBE4517F7F14FA59453E04296D45
:100D10009FA00E7E18A9B66660969C6D689BFA9F90
:100D20007BA85851D158E7A4B6DDC197CC8F6B662C
:100D3000530000198A307A6BBB70CB0001C703B136
:100D40000B00001F468321B1C467FB0200000000B6
:100D500004595A0011241FBECFEFDAE0DEBFCDBF29
:100D600011E0A0E0B1E0E0ECFEE602C005900D92DB
:100D7000AA39B107D9F725E0AAE9B1E001C01D926F
:100D8000A73FB207E1F70E94A7280C94EB360C941A
:100D900000009C01FB019A9581159F4120F5832F4E
:100DA0008170B32FB270AA27732F74706627532FE8
:100DB0005870442734FF0DC08295807FAB2B09F01B
:100DC0008062672B09F08064452B09F080680995E3
:100DD0000895AB2B09F08260672B09F08460452BE6
:100DE000B1F38860F4CF80E0F2CF982F92959F7096
:100DF00024E0911102C020E0982F892F86958695D6
:100E0000811511F02E5F982F892F8695820F0895F6
:100E1000282F92959F70963099F060F4925F9F70A2
:100E2000923030F4203FB1F038F481E0283E38F0C1
:100E300080E008959A5FF3CF81E0243FC9F70895D9
:100E400091E0813F09F090E081E0283E08F080E0E9
:100E5000892B089581E008958093880508958093F3
:100E60008905089521E030E001C0220F8A95EAF754
:100E700080918905822B0E942F07089521E030E0A0
:100E8000A90102C0440F551F8A95E2F7CA01809557
:100E90009091890589230E942F070895292F9A3060
:100EA00090F5863080F590E036E0239F800D911D0F
:100EB0001124282F277041E001C0440F2A95EAF73A
:100EC00023E0969587952A95E1F7FC01EE0FFF1F29
:100ED000E80FF91FE953FB4F20E030E070E051913B
:100EE000DF01CB01022E02C0969587950A94E2F7A6
:100EF000817081958527842385278E932F5F3F4FAF
:100F00002330310561F70895292F9A3078F586301E
:100F100068F590E036E0239F800D911D1124682F25
:100F2000677023E0969587952A95E1F7FC01EE0F0F
:100F3000FF1FE80FF91FE953FB4F40E050E080E04E
:100F4000219130E0062E02C0369527950A94E2F7EB
:100F500021703327042E01C0220F0A94EAF7822B56
:100F60004F5F5F4F4330510559F7089580E0089572
:100F70009091890521E030E0F90101C0EE0F8A95DA
:100F8000EAF7D90102C0AA0FBB1F6A95E2F7EA2B64
:100F900001C0220F4A95EAF7892F8E23E81305C076
:100FA000892F822B0E942F0708952095822F892355
:100FB000F9CF80918F0590918E05981301C0089507
:100FC0008F5F8770FACF90918B05809589238093EE
:100FD0008B05282F2770211111C0891779F0909166
:100FE000F40592FF0BC08695869586950E943E0774
:100FF00010928B0510928D0510928C05089590919A
:101000008605982B909386050895982F909580914A
:10101000860589238093860508958091850581152D
:1010200031F0109285051092840510928305089581
:101030009C01803E910509F448C0D8F481339105A4
:1010400009F47DC048F48932910509F46DC08A978E
:1010500009F47CC0C90108958933910551F18238A2
:10106000910539F1C597B1F78091F30585FFF2CF6E
:1010700029C0843E910509F447C048F4823E910599
:1010800099F1833E9105A9F121EE30E0E3CF863E50
:10109000910509F444C0873E9105E1F68091F3057E
:1010A00083FD61C09091F40591FF2BC024EE30E0E8
:1010B000D1CF8091F3058370811152C08091F405E6
:1010C00083FFC8CF29E230E0C5CF8091F30580FDD2
:1010D00033C09091F40590FFBDCF23EE30E084FF44
:1010E000B9CF20E030E0B6CF8091F30582FDF5CF97
:1010F000B1CF8091F30582FD30C09091F40590FD51
:101100002FC084FFA7CFEDCF8091F40581FFA2CF40
:101110008091F30527EE30E084FDE3CF9BCF8091F3
:10112000F30583FDF7CF96CF8091F30585FD1EC0B3
:101130008091F40583FF8ECF29E330E08BCF80913F
:10114000F30586FF87CF2AE230E084CF8091F30554
:1011500086FF80CF21E330E07DCF22EE30E07ACFF2
:1011600020EE30E077CF26EE30E074CF25E330E09C
:1011700071CF9091F30592FF10C041E0282F2471A8
:10118000243009F040E031E0282F2871283009F0A0
:1011900030E0431711F02CE0822793FF10C041E0AC
:1011A000282F2471243109F040E031E0282F2871E4
:1011B000283109F030E0431711F02CE082273091FC
:1011C000F40530FF10C051E0282F2171213009F0C3
:1011D00050E041E0282F2871283009F040E05417F2
:1011E00011F029E0822731FF10C041E0282F217142
:1011F000213109F040E031E0282F2871283109F031
:1012000030E0431711F029E0822794FD877E08958E
:101210001F93CF93DF930E941808EC01811522E5FC
:10122000920708F055C0811540E5940708F0D1C039
:10123000803E910520F58D3C910508F0A4C0883AC8
:10124000910570F4853A910508F09AC081309105B6
:10125000D1F10497813A9105B0F1C0E0D0E033C0FC
:10126000885A91094B97C8F7C85AD0E0CC0FDD1FB8
:10127000CD59DE4F0990D881C02DD46424C081158A
:1012800050E49507C0F4C11580E2D80708F0B7C054
:10129000C83ED105C0F0CE019A9581159F41E8F670
:1012A0008D2F0E94B908182FCE0199270E94180887
:1012B000EC01D12B08C099270E941808CC27DF70B9
:1012C000C82BD92BD06ACE01DF91CF911F91089501
:1012D000803842E59407C8F5803652E5950708F056
:1012E0005BC0C03482E5D807D0F4C03292E5D9079C
:1012F00008F04BC08C2F8695869520E2829FC00116
:101300001124C37021E030E0A90102C0440F551F31
:10131000CA95E2F7EA01C82BD92BDD68D4CF8C2F10
:1013200086958695877050E2859FC0011124C37011
:1013300021E030E0A90102C0440F551FCA95E2F731
:10134000EA01C82BD92BDC68BECF803C52E595075B
:1013500058F48F71C03AD245A0F590E0982F8827B5
:10136000EC01C46FD06AAFCF805C9245809708F0E3
:1013700074CFDC2FCC27CC27DF71C06FD06AA3CF0E
:10138000A497D064A0CFD0659ECFCF71D0E0DC2FE2
:10139000CC27C16FD06A97CF86958695877020E25B
:1013A000829FC0011124C37021E030E0A90102C076
:1013B000440F551FCA95E2F7EA01C82BD92BDA680A
:1013C00082CF0E94B908C82FD0E0DC2FCC27D06292
:1013D0007ACF8F710E94B90893E0CC0FDD1F9A95E8
:1013E000E1F7CC27DF70282F30E084FF04C050E104
:1013F000859F90011124C22BD32BD06964CF8D2FF0
:101400008F710E94B908182FCE0199270E941808E1
:10141000EC01D12BDCCF80E00895F894E82FE29521
:10142000EF70F0E041A18F7021E030E0B90102C01F
:10143000660F771F8A95E2F7CB01962F909594233C
:1014400091A392A1892B82A378940895E6EFF4E00A
:1014500080E090E06FE576E245E856E22AEF36E27A
:10146000778366835187408733872287978786876C
:10147000019670968830910599F708958091CF056F
:101480009091D0059093100180930F010895EFEC97
:10149000F5E0848195812AE030E0B9010E94E335CE
:1014A00060931A01868180931B01828580930301DA
:1014B00084858093020186859785B9010E94E33572
:1014C00060931801808980931901828980930101BA
:1014D0008489809300010895EF92FF920F931F93E8
:1014E000CF93DF93FB018FEF9FEF4430510508F45A
:1014F0005FC04091F30541FB882780F990E0880F99
:10150000991F42FB002700F910E0000F111F000F88
:10151000111F802B912B40FBEE24E0F8F12C8E293B
:101520009F2943FB222720F9C22F50E0D52F53E0FB
:10153000CC0FDD1F5A95E1F78C2B9D2B44FB222706
:1015400020F950E1259F90011124822B932B45FB1C
:10155000222720F950E2259F90011124822B932B02
:1015600046FB222720F950E4259F90011124822B6D
:10157000932B47FB222720F940E8249F9001112458
:10158000822B932B2091F405322F3170932B2695CB
:101590002170B22FBB0FA0E08A2B9B2B092E000CD1
:1015A000AA0BBB0B80839183A283B38380E090E07E
:1015B000CDB7DEB7E6E00C941F369C0143E096956C
:1015C00087954A95E1F78E719927FC01E051FE4F0E
:1015D00040815181F901EF70FF2721E030E002C026
:1015E000220F331FEA95E2F7611541F0422B532B8E
:1015F00080519E4FFC015183408308952095309582
:1016000042235323F5CF282F35EB2303C0011124A8
:1016100097FF04C080589109892F089580589F4FE3
:10162000FBCF8091E1046091D7057091D80580FFD0
:1016300014C020910301269FC001279F900D112403
:10164000BC01769567957695679560387105F0F5DC
:1016500061157105E9F1862F089581FF0BC0209176
:101660000301269FC001279F900D1124BC01769590
:101670006795EBCF82FF09C0809103019B01829F98
:10168000B001839F700D1124E0CF8091E00481159B
:10169000E1F29091020120910301891738F0CB010A
:1016A000289FB001299F700D1124CFCF289F900152
:1016B0001124269FA001279F500D369F500D112405
:1016C000692F70E0CA010E94E335BFCF8FE708950C
:1016D00081E008958091E10480FF0CC060910101D8
:1016E00070E075956795759567956115710549F178
:1016F000862F089581FF06C06091010170E0759505
:101700006795F3CF6091010182FD0BC09091DF04DA
:101710009115A1F06091000180910101961738F0B8
:10172000682F70E06038710500F38FE70895899F96
:10173000C001112470E00E943A36F4CF61E070E0FD
:10174000D7CF81E00895FA01309709F009950895FF
:1017500080919104811559F0E091BD04F091BE048F
:10176000309729F00190F081E02D0995089580E0EF
:101770000895A3E0B0E0EFEBFBE00C9407369C018A
:101780008091EE019091EF0182179307A1F03093C1
:10179000EF012093EE01E091BD04F091BE0430977B
:1017A00051F083E089833B832A830084F185E02D17
:1017B000CE01019609952396E2E00C942336A3E02E
:1017C000B0E0E5EEFBE00C9407369C018091EC0163
:1017D0009091ED0182179307A1F03093ED012093D2
:1017E000EC01E091BD04F091BE04309751F084E02B
:1017F00089833B832A830084F185E02DCE01019605
:1018000009952396E2E00C942336909134019111CE
:1018100012C0AEE9B1E0EFEF90E02D91821751F0E8
:10182000EF3F19F4211101C0E92F9F5F9630A9F70E
:10183000EF3FC9F408959091F30597FFEACFE82FA1
:10184000E695E695E695803FA8F7F0E0EC55FE4F6B
:10185000877021E030E001C0220F8A95EAF782818B
:10186000822B828308950E2E000CFF0BE456FE4F50
:10187000F8CF90913401911521F09091F30597FDE7
:101880000CC0EEE9F1E09191891302C0DF011E92D4
:1018900051E0E43AF507B9F70895E82FE695E695A3
:1018A000E695803FC8F7F0E0EC55FE4F877021E0E9
:1018B00030E0A90102C0440F551F8A95E2F7CA0122
:1018C000809592818923828308952FB7F89460913F
:1018D0007A0470917B0480917C0490917D042FBFE9
:1018E0000895CF92DF92EF92FF928091910481153B
:1018F00059F00E94650C6B017C01C701B601FF9095
:10190000EF90DF90CF9008950E94650CC0909304F3
:10191000D0909404E0909504F0909604C60ED71EE3
:10192000E81EF91EEACF87E797E7909301088093B6
:10193000000888E19AE00FB6F894A89580936000BB
:101940000FBE90936000FFCF8091EB010895FC01E2
:101950009B018091E1019091E2018617970740F089
:10196000672B29F48091E8008E778093E800C90105
:1019700040E0009741F4411106C08091E80082FFE9
:101980002FC080E00895209175042115A9F125301C
:10199000A9F12091E80023FD2DC02091E80022FD4F
:1019A000ECCF2091E80020FFE4CF3091F3002091AC
:1019B000F200009719F02830310558F041E0283046
:1019C000310509F040E02091E8002E772093E800EF
:1019D000D0CF41914093F10001972F5F3F4FE9CF66
:1019E00080917504811541F0853041F08091E800C7
:1019F00083FFC3CF81E0089582E0089583E00895D6
:101A00008091DB0187FF13C08091E80082FF06C050
:101A10008091E8008B778093E800089580917504A9
:101A20008111F2CF0895809175048115D9F38091C9
:101A3000E80080FFF8CF8091E8008E77ECCF20910E
:101A4000E4003091E50095E6A9012091EC00822F99
:101A5000817020FF06C08091E80080FF06C080E012
:101A600008952091E80022FD1AC080917504811527
:101A700089F0853089F08091EB0085FD0FC02091C1
:101A8000E4003091E50042175307F9F29A95E1F628
:101A900084E0089582E0089583E0089581E0089548
:101AA000E8EDF0E080818E7F80831092E20010925A
:101AB000DA001092E100A0EEB0E08C9181608C938E
:101AC00080818F77808319BCA7EDB0E08C918E7FE9
:101AD0008C9380818F7E80831092DA010895FC01BF
:101AE000AC014B5F5F4F8FEF61E39191892728E055
:101AF00030E0982F990F87FF09C0892F8627215042
:101B00003040B9F7E417F50781F70895892FF7CF2B
:101B1000982F9093E900891771F07091EC00209153
:101B2000ED005091F00021FD09C09F5F973089F7CB
:101B30008093E9000895762F242F50E03091EB0038
:101B40003E7F3093EB003091ED003D7F3093ED0010
:101B50003091EB0031603093EB007093EC002093F8
:101B6000ED005093F0002091EE0027FDDECF0895A8
:101B7000A0E0B0E0EEEBFDE00C940136C8EDD0E063
:101B800088818F7E8883E7EDF0E0808181608083AB
:101B900084E082BF81E08093DA0188818E7F888330
:101BA00002EE10E0F80110821092DA0081EEC82EE9
:101BB000D12CF601108288818F7788838881806894
:101BC000888388818F7D888319BC10927504109258
:101BD000D901109225021092D80190EEE92EF12C35
:101BE000F70180818B7F808388818160888342E0D8
:101BF00060E080E00E94880DF60180818E7F808306
:101C0000F801808181608083808188608083F70112
:101C100080818E7F8083888180618883CDB7DEB7A5
:101C2000E8E00C941D369C012115310509F4089556
:101C30008FE99FE00197F1F700C0000021503109C2
:101C4000F3CF0F931F93CF93DF938B01EA01909112
:101C50007504943059F58093E9008FEF9091E80076
:101C600095FD06C095ED9A95F1F700008A95B1F7BC
:101C70008091E80085FF1AC00E941F0D811111C0DC
:101C80008091E80085FD06C08091E8008E77809302
:101C9000E800F2CFF80181918F018093F100219744
:101CA00079F78091E8008E778093E800DF91CF91FB
:101CB0001F910F910895CF93DF93D82FC92F48E03C
:101CC00050E0682F792F81E00E94210E88E0ED2FEF
:101CD000FC2FA3EEB1E001900D928A95E1F7DF9120
:101CE000CF910895BC0140E250E084E00E94210EB3
:101CF0000895BC0146E050E084E00E94210E089562
:101D0000BC0143E050E084E00E94210E0895A0E071
:101D1000B0E0EDE8FEE00C94FF35182F092FB62E49
:101D2000A72E7A018091CE019AE0C92ED12C8A305B
:101D300018F0CC24C394D12CC1E0D0E06B2D7A2DC7
:101D4000812F902FF7010995811116C02196CC168D
:101D5000DD0694F0CC9FC001CD9F900D900D112415
:101D600020E030E045E34A95F1F700002F5F3F4F58
:101D700028173907B9F7E2CFCDB7DEB7EAE00C9400
:101D80001B369091F40592FB222720F9281779F051
:101D900080FB92F99093F4056091F3057091F4053E
:101DA00084E090E00E94CD3682E00E94E30708952F
:101DB0001F93CF93DF93962F122F632F8430D8F485
:101DC0009A30C8F44630B8F4C42FD0E0CC0FDD1FF1
:101DD0002CE0929FC00DD11D112498E7899FC00D62
:101DE000D11D1124CE0188960E94AF36612FCE01FD
:101DF00089960E94AF36DF91CF911F910895CF93BE
:101E0000DF93CCE7D2E060E0CE010E94AF362196AE
:101E1000C11584E0D807B9F7DF91CF910895CF932A
:101E2000C82F60E7811101C06FEF84E290E00E944B
:101E3000AF3663E4C11101C06FEF85E290E00E940C
:101E4000AF3664E7C11101C06FEF86E290E00E94F7
:101E5000AF36CF9108950F931F93CF93DF930FEC7D
:101E600015E0C8E0D2E0CE010E949136F801619100
:101E70008F01681719F0CE010E94AF362196CC323F
:101E8000F2E0DF0781F7DF91CF911F910F91089565
:101E90000F931F93CF93DF930FEC15E0C8E0D2E0D0
:101EA000CE010E949136F80181938F012196CC32A8
:101EB000F2E0DF07A9F7C5E7DAE0FE018591959129
:101EC000009711F0FC0109952C96FBE0C137DF0764
:101ED000A1F7DF91CF911F910F9108950F931F9359
:101EE000CF93DF93843030F56A3020F5463010F51B
:101EF000C42FD0E0CC0FDD1F2CE0629FC00DD11DA0
:101F0000112438E7839FC00DD11D1124CE0188967E
:101F10000E949136082F10E0102F0027CE018996DD
:101F20000E9491369801282BC901DF91CF911F9112
:101F30000F91089580E090E0F8CF462F672F209111
:101F4000990430919A04232B91F4703F39F4403F67
:101F500071F4809197049091980408957A3038F440
:101F6000463028F4843018F40E946E0F089580E003
:101F700090E00895A0E0B0E0E0ECFFE00C940236C1
:101F80007C010091890580918805082BC3E0D0E091
:101F900010E0C8010C2E02C0959587950A94E2F7CF
:101FA00080FD09C02197A8F7D12C8D2DCDB7DEB7C4
:101FB000E7E00C941E36DC2EB7018C2F0E949D0F9B
:101FC0000E940809019771F3F0CFCF93DF93D82FC8
:101FD000C92F0E94BA0F6D2F7C2F0E949D0F0E9467
:101FE0000809DF91CF910895FC018481811539F0B2
:101FF000808191810E94E50F0E940807089580E08A
:1020000008951F93CF93DF93182FD92F611599F05F
:10201000411589F00E94BA0FC82F682F812F9D2F7C
:102020000E944E07612F7D2F8C2F0E949D0FDF9104
:10203000CF911F9108950E948407C82FF3CFFC0110
:10204000462F6581808191810E940110089584E26C
:1020500090E00E949136803789F485E290E00E94FA
:102060009136833459F486E290E00E94913691E0F3
:10207000843709F090E0892F8170089580E0FCCFCB
:102080009C01CB01DA01F901329645915591A417D3
:10209000B50748F0F9013496659175910E94713643
:1020A00080E090E008958FEF9FEF08959C01DA01A2
:1020B0000296FC0145915591FC0185919591A817D7
:1020C000B90758F0F9013496859195910E947136BF
:1020D0000E942B0F80E090E008958FEF9FEF08950E
:1020E000A4E0B0E0E6E7F0E10C9406364091760417
:1020F0005091770460917804709179042FB7F89427
:1021000080917A0490917B04A0917C04B0917D042D
:102110002FBF841B950BA60BB70B11E084369105DE
:10212000A105B10578F10E94710CDC01CB0102968A
:10213000A11DB11D89839A83AB83BC8380912D013E
:1021400090912E0182589B4F20912C01422F50E0FC
:10215000253010F044E050E0BE016F5F7F4F0E94D9
:10216000713682E090E00E946F35182F811551F092
:102170000E94650C609376047093770480937804D2
:1021800090937904812F2496E3E00C942236A6E004
:10219000B0E0EDECF0E10C940436F62E072F80E071
:1021A00090E00E946F35182F811509F469C0809165
:1021B0001F01482F50E0811511F041E050E060917F
:1021C00020017091210162587B4FCE0106960E943A
:1021D000713640918D0450918E0460918F047091FE
:1021E00090042FB7F89480917A0490917B04A09189
:1021F0007C04B0917D042FBF841B950BA60BB70BFD
:1022000084369105A105B10538F48FE794E00E946A
:102210006F0D9E818917A1F181E090E00E946F35DA
:102220008115C9F180912701482F50E0863010F0C8
:1022300045E050E0609128017091290162587B4F80
:10224000CE0101960E9471368FE794E00E946F0DD7
:102250009E81891320C00E94650C60938D04709349
:102260008E0480938F049093900485E0FE01319654
:10227000A8E8B4E001900D928A95E1F781E00CC0E6
:1022800085E0EFE7F4E0DE01119601900D928A956A
:10229000E1F71111EACF80E095E0E8E8F4E0AF2D36
:1022A000B02F01900D929A95E1F72696E5E00C94F7
:1022B0002036CF93DF93682F81E06A3019F06D30BC
:1022C00031F480E00E94D911DF91CF91089580917F
:1022D00031029091320226E0FC01A1EDB1E00190C3
:1022E0000D922A95E1F7603E08F458C026E0FC0103
:1022F00011922A95E9F7C0913102D091320246E05D
:1023000050E0BE0181ED91E00E9464369E012455AB
:102310003240892B41F1C90145E0969587954A9550
:10232000E1F741E050E0BA0102C0660F771F8A95DD
:10233000E2F7CB016091560470915704862B972BDE
:10234000B9016B5F7F4FE5E076956795EA95E1F718
:1023500002C0440F551F6A95E2F7842B952B90938A
:102360005704809356042A5F3F4F40913302642FF5
:1023700070E0C9010E94E335481B463010F4240F79
:10238000311D211572E0370710F020E030E02C5AA3
:102390003D4F309332022093310296CFF6E06F9F8B
:1023A000B001112464537E4F46E050E00E945B363A
:1023B000A2CFCF93382FE0913102F0913202E45551
:1023C000F24020913302622F70E0CF010E94E3358A
:1023D000281B822F311561F066E00E942E36C82F2F
:1023E000C15010F4CF91089580E20E945911F8CFA6
:1023F0008E0F9F2F911D811522E0920710F080E033
:1024000090E08C5A9D4F9093320280933102EACF34
:10241000CF93DF93EC01FE018491811106C081E02E
:102420000E94D911DF91CF9108950E9459112196F0
:10243000F2CFAB0124E630E0BC0188E70E948B3389
:102440009C0181E0232B09F080E0089580915F04D6
:10245000811569F080915C04811549F062E070E0BB
:102460008AEC91E00E941912811110925C04089587
:1024700080915F048115F9F00E94650CDC01CB01AD
:10248000805A9541AF4FBF4F8093580490935904A1
:10249000A0935A04B0935B0480915C0481110BC03B
:1024A00062E070E088EC91E00E941912811519F049
:1024B00081E080935C040895282FCB01283070F4CC
:1024C0004AE0249F90011124B901645D7D4F4AE0E8
:1024D00050E00E94813680E090E008958FEF9FEFFA
:1024E0000895AAE0B0E0E7E7F2E10C9407369C011A
:1024F00097558115914070F4BE016F5F7F4F822F19
:102500000E945C12892B31F489859A852A96E2E033
:102510000C9423368091E7059091E805F7CF1F9240
:102520001FB61F9211248F939F93AF93BF938091F7
:102530002402811113C080917A0490917B04A091B0
:102540007C04B0917D044196A11DB11D80937A0455
:1025500090937B04A0937C04B0937D04BF91AF91D2
:102560009F918F911F901FBE1F9018952FB7F894C1
:1025700080917A0490917B04A0917C04B0917D04B9
:102580002FBF08958091D1059091D205892B91F0AC
:102590000E94B6122091830530918405AC01421B44
:1025A000530B9A0181E04091D1055091D205241737
:1025B000350708F480E00895CF93DF93C091860536
:1025C00080918A05C82B809185058115F9F080914D
:1025D000D1059091D205892B29F00E94C212811158
:1025E0000E940D08D091850580913401811521F05C
:1025F0008091F30587FD0EC086E02EE931E090E082
:10260000815060F491110E940D08CD2B8C2FDF9129
:10261000CF9108958EE126EA31E0F1CFF9014191A1
:102620009F01411569F39F5FEBCF809134018115C4
:1026300059F18091F30587FF27C00E94DC12809337
:10264000A50140E250E06DE974E084EA91E00E9467
:102650006436892BC1F080E2E4EAF1E0ADE9B4E050
:1026600001900D928A95E1F7E091BD04F091BE04CE
:10267000309749F086E08093A4010480F581E02D35
:1026800084EA91E0099508950E94DC1280939C01F0
:1026900048E050E06FEB74E08CE991E00E94643612
:1026A000892B89F388E0ECE9F1E0AFEBB4E001902D
:1026B0000D928A95E1F7E091BD04F091BE04309748
:1026C00011F30280F381E02D8CE991E0DBCF8115DD
:1026D00021F00E94FF070E9415130895811539F01B
:1026E00090918A05892B80938A050E94151308957D
:1026F000811521F00E9405080E9415130895811587
:1027000041F0809590918A05892380938A050E94E3
:102710001513089580913501877F8093350190913D
:102720008A059D7F90938A0584FF06C08F7E8093E3
:10273000350182E00E94FF078091350185FF06C0C8
:102740008F7D8093350180E20E94FF070E94151360
:102750000895CF93DF93EC014A855B856E857F8575
:102760000E94A30B9B81909580918A058923809379
:102770008A058C810E9405080E94151386E0FE01DF
:1027800011928A95E9F7DF91CF910895CF93DF9366
:10279000EC018D8181FD14C082608D8380918A055A
:1027A0009B81892B80938A058C810E94FF070E9460
:1027B0001513488559856E857F85CE010E94A30B30
:1027C0001092F3041092F2048D8180FD03C0CE01BB
:1027D0000E94A913DF91CF910895962F2091F405BF
:1027E00022FF10C0682F660F660F660F692B60937B
:1027F0008B050E9432070E94B61290938D0580933C
:102800008C0508950E943207089590918505292F1F
:102810002823211561F080958923809385058115F2
:1028200039F00E94B6128093830590938405089531
:1028300080E090E0F8CFCF93C82F8091F40582FF1D
:102840000CC0809185058C1741F00E94B6129093C0
:10285000840580938305C0938505CF9108950E94D8
:10286000B6122091E4043091E504232B211521F0C8
:1028700080936204909363042091E6043091E7040E
:10288000232B211521F08093600490936104E09143
:10289000BD04F091BE04309749F082E08093E204D9
:1028A0000680F781E02D82EE94E00995089520914D
:1028B000E4049091E7043091E604611509F458C0EE
:1028C0004091E504242B292B232B211531F098E08E
:1028D0009093E00491E09093DF04E3E3E80FE331A9
:1028E00050F4F0E0E351F94C0C944E360E94110B79
:1028F00081958093E5040E942F1408950E94110B86
:10290000F8CF0E94110B81958093E404F4CF0E94CC
:10291000110BFACF0E946A0B8093E604ECCF0E9461
:102920006A0B8195F9CF0E946A0B81958093E70429
:10293000E2CF0E946A0BFACF815D990B21E030E073
:1029400001C0220F8A95EAF78091E304822B8093DD
:10295000E304D1CF8091E10481608093E104CBCF87
:102960008091E1048260F9CF8091E1048460F5CF29
:102970008D3C59F48091E50487FF0DC01092E50469
:10298000211559F41092E00408C08E3C81F4809126
:10299000E50418169CF3211581F08091E6049091CE
:1029A000E704892B8111A7CF1092DF04A4CF8F3CBD
:1029B00041F427FFF0CF1092E4048091E5048115E3
:1029C000E0CF803D19F41216B4F3E5CF893D29F428
:1029D00013160CF71092E604DECF8A3D19F437FF88
:1029E000DACFF8CF8B3D29F497FFD5CF1092E704CB
:1029F000D2CF8C3D19F41916CCF3CDCF9FE2980FAE
:102A0000983090F4815D990B41E050E0BA0102C02A
:102A1000660F771F8A95E2F7CB0180959091E304CA
:102A200089238093E304B7CF8D3D31F48091E10495
:102A30008E7F8093E104AFCF8E3D21F48091E1043D
:102A40008D7FF7CF8F3D09F0A6CF8091E1048B7F7A
:102A5000F0CFCF93C82F8115D9F08CEF8C0F813A2E
:102A6000A8F580913401811521F08091F30587FD4F
:102A700011C0EEE9F1E084EA91E02191C21701F181
:102A80008E179F07D1F78C2F0E94050C0E941513FB
:102A9000CF910895EC2FE695E695E695F0E0EC559C
:102AA000FE4F828190E04C2F477021E030E002C061
:102AB000220F331F4A95E2F782239323892B19F3C0
:102AC0008C2F0E94390C0E941513DDCF80E28C0FF1
:102AD000883048F4C77081E001C0880FCA95EAF7D2
:102AE0000E94FF07D3CF8BE58C0F833038F42C2F57
:102AF0002452330BC9010E94B90BCACFE8E5EC0F91
:102B0000EB3150F4F0E0EE0FFF1FED59FE4F8081E6
:102B100091810E94DF0BBCCF83E38C0F833108F0DF
:102B2000B7CF61E08C2F0E945714B2CFCF93DF93C1
:102B3000EC01805E9109089720F06EE673E1209722
:102B400011F467E673E1CE010E94C9068C2F0E9442
:102B50002915DF91CF9108959C01611529F080918D
:102B60008A05826080938A05C9019052811590433D
:102B700008F43327C9010E9496150895811581F143
:102B80009CEF980F913A28F40E94390C0E9415137B
:102B9000089590E2980F983050F4877091E001C04A
:102BA000990F8A95EAF7892F0E940508EFCF9BE5D8
:102BB000980F933028F480E090E00E94B90B0895BC
:102BC00098E5980F9B3128F480E090E00E94DF0B9D
:102BD000089593E3980F933118F460E00E9457141E
:102BE0000895CF93DF93EC010E94BE15CE01805E65
:102BF0009109089720F06FE773E1209711F468E7D7
:102C000073E1CE010E94C906DF91CF910895CF9262
:102C1000DF92FF920F931F93CF93DF93EC018B0111
:102C2000F42E8091350182FF65C0C0907805D09068
:102C30007905CC16DD0619F0209709F05BC080916C
:102C400035018B7F80933501C1E081FD10C08091FB
:102C50007605909177059801281B390BC1E080918A
:102C60000F01909110012817390708F4C0E08091F6
:102C70003501C0FB81F9809335016C2FC6010E949C
:102C8000DD0A8091860581FF08C080913501806151
:102C90008093350182E00E9405088091860585FFBA
:102CA00008C08091350180628093350180E20E94E6
:102CB00005086C2FC6010E94AC15F11431F080910B
:102CC000EA0585FF02C086FF29C08091ED0590913D
:102CD000EE050E94130E80917805909179059C0174
:102CE00030522115304308F499270E94F1150E94B3
:102CF0008A1310C0CE01905281159043B8F4CE01D2
:102D000099270E94F1158091780590917905C8174F
:102D1000D90769F31093770500937605DF91CF917A
:102D20001F910F91FF90DF90CF900895CE01E9CFD2
:102D30000F931F93CF93C82F8B010E942915011564
:102D4000110539F48C2F0E94BE15CF911F910F9160
:102D500008958FE99FE00197F1F700C0000001504E
:102D60001109EDCF6091EF057091F005893321F0E5
:102D70006091ED057091EE050E9498160895A0E00F
:102D8000B0E0E5ECF6E10C940036EC0188818115A9
:102D900009F4A1C0813009F044C08981813049F42F
:102DA0008E010E5F1F4F8A810E94B216E8012196A4
:102DB000EDCF823039F48E010E5F1F4F8A810E9461
:102DC0002915F4CF833039F48E010E5F1F4F8A81AD
:102DD0000E94BE15EBCF843011F02196E8CF2A81F6
:102DE000229680E090E06AE0AE014F5F5F4F205393
:102DF000330B2A30310550F00097C9F2EFE9FFE0BC
:102E00003197F1F700C000000197F6CF689FF001FD
:102E1000699FF00D1124C9018E0F9F1F2981EA01BE
:102E2000E3CFE82FF0E0E45CF84FB490282F26952C
:102E30002695269530E0F901E45DF84FE49087701F
:102E4000F12C082E02C0F594E7940A94E2F7E0FA18
:102E5000EE24FF24E0F8F901E45EF84FC490D12C91
:102E6000082E02C0D594C7940A94E2F7C0FACC2485
:102E7000DD24C0F8F901E45FF84F049110E002C0CE
:102E8000159507958A95E2F701701127E114F10471
:102E900019F081EE0E942915C114D10419F086EEB3
:102EA0000E94291560E070E08B2D0E949816C114D5
:102EB000D10419F086EE0E94BE15E114F10419F058
:102EC00081EE0E94BE150115110509F470CF8CE248
:102ED0000E94B2166CCFCDB7DEB7E9E00C941C3679
:102EE0001092860580913401811539F18091F305A6
:102EF00087FF23C0E6EAF1E08EE1DF011D928A95AB
:102F0000E9F780E090E00E94B90B80E090E00E9439
:102F1000DF0B10928A050E94151386E0E2EEF4E0C2
:102F2000DF011D928A95E9F71092E0041092DF0408
:102F30001092E1040E942F140895EEE9F1E086E07A
:102F4000DCCF0E9470172FEF84E39CE0215080407B
:102F50009040E1F700C0000088E19AE00FB6F894D5
:102F6000A895809360000FBE90936000FFCFCF9331
:102F7000DF93FB018FEF9FEF44305105B8F0D08114
:102F8000C1810E947017D093F305C3708091F4053E
:102F90008C7FC82BC093F4056091F3057091F40504
:102FA00084E090E00E94CD3680E090E0DF91CF9108
:102FB0000895EFECF5E0128E138E8FEA90E0918386
:102FC000808325E0248F88E893E1938382838AE0DD
:102FD00090E09583848344E150E05783468348E042
:102FE00050E051874087938782876EE170E0758754
:102FF00064879787868780E590E0918B808B538BE1
:10300000428B48E250E0558B448B42E350E0578BB3
:10301000468B48EC50E0518F408F158E178E168EE0
:1030200091A380A322A30E942B0F0E9470171092DD
:10303000F4051092F30580E084608093F40560E06D
:1030400074E084E090E00E94CD360E94480F08951D
:10305000AAE0B0E0EEE2F8E10C94FC35A090730435
:10306000B090740481E090E09093740480937304B2
:10307000812C912C10E0640100E01AC021E030E0C6
:10308000133021F0F701859195919C01472D602F18
:10309000812F0E94D80E739422E0E20EF11C36E0DC
:1030A0007312ECCF0F5F86E0C80ED11C0A3049F0D6
:1030B000C601880F991F9C012F58374F7901712C39
:1030C000DDCF1F5F3CE3830E911C1430A1F60E94FC
:1030D000D9171A8219821C821B821E821D821886B1
:1030E0001F8288EC90E09A8789870CE212E04AE020
:1030F00050E0B801CE0101960E94D336065F1F4F03
:103100000C3782E0180799F7B0927404A092730408
:103110002A96EDE00C94183680E00E940F0F60E0D4
:1031200087E290E00E94AF360E9428180E94FF0EAE
:1031300081E00E940F0F0895AAE2B0E0E2EAF8E110
:103140000C9406368BED91E0FC0101962091F10084
:10315000208321E0833E9207B9F78091DC0189301A
:1031600009F456C0C8F4823009F4B3C0833009F4BE
:1031700082C0813071F18091E80083FFE7C08091C7
:10318000DB019091DC019A3008F0E0C0E92FF0E01B
:10319000E050F94C0C944E368A3009F489C08B30DB
:1031A00051F78091DB01813231F78091DF019091FD
:1031B000E001892B01F78091E800877F8093E80088
:1031C0000E94000D8091DD01809334010E947017F0
:1031D000D2CF8091DB01813A71F68091E800877F40
:1031E0008093E8008091DF019091E001892B61F0EC
:1031F00060E080E090E070E00E94A70C8091E80021
:103200008B778093E800B7CF68E083EE91E0F3CF4F
:103210008091DB01813209F0AECF8091DF01909186
:10322000E0018D7F892B09F0A6CF8091E800877F90
:103230008093E8008091E80082FF18C09091F3002D
:103240008091F200029731F48091F100813011F009
:10325000863021F48091F1008093EB018091E800A9
:103260008B778093E8000E94000D85CF80917504D4
:103270008111E0CF80CF8091DB01813A09F07BCFD3
:103280008091DF019091E001892B09F074CF80914A
:10329000E800877F8093E8008091E80080FFFCCF02
:1032A000809134018093F1008091E8008E77D9CF2E
:1032B0008091DB01813209F05ECF8091E800877F49
:1032C0008093E8000E94000D8091DE018093D70179
:1032D00052CF8091DB01813A09F04DCF8091E80017
:1032E000877F8093E8008091E80080FFFCCF809189
:1032F000D701D8CF803889F0823841F58091DF013D
:103300008F70873018F58093E9008091EB0085FB82
:10331000882780F91092E90006C080912502880F65
:103320009091D801892B9091E800977F9093E800C5
:103330008093F1001092F1008091E8008E7723C015
:10334000811116C08091DD01813011F18091E8007A
:1033500083FF0AC08091E800877F8093E800809116
:10336000EB0080628093EB00AA96E3E00C94223697
:10337000823061F78091DD01811589F01092E900BA
:103380008091E800877F8093E8000E94000DDECFE7
:1033900081E0933009F080E080932502EFCF8091A7
:1033A000DF018F702FEF280F263080F68093E90021
:1033B0002091EB0020FFE2CF933031F48091EB00BD
:1033C00080628093EB00DACF9091EB009061909354
:1033D000EB0021E030E0A90102C0440F551F8A959F
:1033E000E2F74093EA001092EA008091EB008860D7
:1033F000E8CF8111ABCF1091DD011F778091E30001
:103400008078812B8093E3008091E800877F809310
:10341000E8000E94000D8091E80080FFFCCF8091C1
:10342000E30080688093E30083E0111101C082E033
:10343000809375048BCF8058823008F087CF8091BD
:10344000DD019091DE018C3D53E0950799F583E015
:103450008A838AE289834FB7F894DE01139620E0CD
:103460003EE051E2E32FF0E050935700849120FFBB
:1034700003C082958F703F5F8F708A30C8F0895C7F
:1034800090E08D939D932F5F243161F74FBF809122
:10349000E800877F8093E8006AE270E0CE01019641
:1034A0000E94A70C8091E8008B778093E8004ECFB4
:1034B000805DE6CF292F33272330310509F44EC034
:1034C00078F52130310509F488C08BE590E0ECEB0C
:1034D000F7E02230310509F039CF2091E800277F4D
:1034E0002093E8002091E1013091E20182179307D7
:1034F00008F49C0140E02115310509F073C0411129
:1035000071C08091E80082FDCDCF80917504811556
:1035100049F2853039F28091E80083FFF2CFC2CFC3
:103520008091DF019091E0012132310509F446C01C
:103530002232310509F00ACF8330910508F006CF19
:10354000FC01EE0FFF1FEE5BFE4F0190F081E02DBE
:10355000815C9E4FDC018C9190E010C09C01332770
:10356000823021F12330310568F4232BB9F4EDE6E4
:10357000F8E0E4918E2F90E0EDE6F8E0009709F492
:10358000E5CEABCF2330310509F0E0CEE9E2F8E03B
:10359000E4918E2F90E0E9E2F8E0F0CFEDE5F8E07D
:1035A000E4918E2F90E0EDE5F8E0E8CFE7E4F8E075
:1035B000E4918E2F90E0E7E4F8E0E0CF83309105CE
:1035C00008F0C4CEFC01EE0FFF1FE85BFE4F019038
:1035D000F081E02D89E090E080CF82E190E0E7E1AA
:1035E000F8E07BCF80917504811509F45BCF8530BD
:1035F00009F458CF8091E80083FD54CF8091E80012
:1036000082FD7FCF8091E80080FF75CF9091F3001D
:103610008091F2002115310519F08830910550F0A4
:1036200041E0089709F040E08091E8008E778093B0
:10363000E80061CF44914093F10031962150310967
:103640000196E8CF803809F081CE8091E800877F2D
:103650008093E8008091D9018093F1006DCE8111B3
:1036600075CE1091DD01123008F070CE8091E80027
:10367000877F8093E8001093D9010E94000D1115F7
:10368000D1F084E08093750442E061EC81E00E9417
:10369000880D42E261EC84E00E94880D42E261EC18
:1036A00082E00E94880D42E260EC83E00E94880D77
:1036B000809175044BCE8091E30087FDE2CF81E0DD
:1036C000E1CF9C014FB7F89480917A0490917B04EC
:1036D000A0917C04B0917D044FBF821B930B089591
:1036E000A0E0B0E0E6E7FBE10C940236162FD72FFE
:1036F000C42FD22E8115A9F0409381050E94B612E5
:103700009093D0018093CF01C77081E001C0880FF2
:10371000CA95EAF70E946713CDB7DEB7E7E00C94CD
:103720001E3690918105491335C08091CF0190914B
:10373000D0010E94611B7C01812F9D2F0E9471127C
:10374000E816F90638F5D0E2DD0DCD15A1F0C77009
:1037500011E0812F01C0880FCA95EAF70E94781303
:10376000D83048F48D2D877001C0110F8A95EAF783
:10377000812F0E946713802F0E94B216D83060F606
:103780002D2D277081E001C0880F2A95EAF70E944D
:103790007813C2CFC77081E001C0880FCA95EAF7DD
:1037A000F6CFA4E0B0E0E7EDFBE10C94FB356C0153
:1037B000DC0114968C91811509F4D8C261E0C60130
:1037C0000E941F108C01F6018581811519F18091ED
:1037D000F2049091F3040097E9F008171907D1F06B
:1037E000992754E0880F991F5A95E1F7FC01E5509D
:1037F000FB4F2081246020838A509B4FDC010D9376
:103800001C930E94C61310928A0561E0C6010E94B3
:103810001F108C01F6018581811509F4BBC0C80118
:1038200097578038910508F00CC1F02EF0E10F1782
:1038300008F08BC28FEF93E00E949136811185C210
:103840000CE712E0F11036C044E0642EAE014F5F89
:103850005F4F5A01D501E62D1D92EA95E9F748011F
:10386000FFEF8F1A9F0AC8010E9491368983811544
:1038700009F46BC2813009F087C0780122E0E20EC2
:10388000F11CC4010E949136782E8A83811509F4B7
:103890005CC28FEF870D8330D8F4C7010E94913648
:1038A0008B83811519F0C5010E94BF160D5F1F4F54
:1038B00078016EC0011524E0120709F446C2C80160
:1038C0000E9491360F5F1F4F8111F4CFFA94BACF47
:1038D0008BEF870D833060F5480153E0850E911C16
:1038E000C7010E9491368B83811509F450C00C5F8B
:1038F0001F4F7801C4010E9491368C83811509F411
:1039000047C08B819C818130AFEF9A0710F0982FD0
:103910008827B6E07B1631F0E7E07E1631F00E9492
:103920004C2636C00E94042633C00E94282630C090
:10393000F4E07F122DC0C7010E949136982E7801C5
:1039400024E0E20EF11CC80103960E949136282F54
:10395000911409F4FAC1811509F4F7C12150330B10
:103960004FEF429FC001439F900D1124492D4150BC
:10397000550B840F951F019758F0AFE9BFE01197E1
:10398000F1F700C00000F7CFC5010E94BF16740117
:10399000870160CF7801E7E5FE1AE114F1E0FF0648
:1039A00008F492C08091EA0580FF46C10E94B612D9
:1039B0004C01F6018581811509F44FC180913501D3
:1039C00082FF06C040E0B40180E090E00E9407164C
:1039D0000431FCE71F0709F43CC105312CE712074D
:1039E00009F4D7C003314CE7140709F417C1C80123
:1039F00090528115904308F0D6C01092790510922C
:103A00007805D60115962C91211509F4BCC21092A7
:103A10008105C8019057839708F0B5C284E090E013
:103A20000E9499369093F4058093F305F801E150D4
:103A3000F047E232F10508F0ECC1E65FF84C0C9477
:103A40004E36C80197558115914008F0ABCFF8016B
:103A5000FF2794E0EE0FFF1F9A95E1F7AF014A5060
:103A60005B4F7A01D60115968C91E550FB4F908102
:103A700080FB90F99083811509F46EC00E94B61204
:103A80009093F5048093F404F70182818F5F828321
:103A900080918A0590918605892B83838091850585
:103AA00084834681578166857785C7010E94A30B71
:103AB000D70115968C9181FD4CC0902F812F90934A
:103AC000F2048093F3046ECF68EE74E08E2D0E94B2
:103AD0005C12892B09F0BBCFC70124E0880F991F26
:103AE0002A95E1F7FC01EA50FB4F2281213031F5A4
:103AF0002091E8043091E904232B09F4A8CF209108
:103B0000EA043091EB04232B09F4A1CF2091EC04BB
:103B10003091ED044091EE045091EF04242B352BAD
:103B2000232B09F094CFFC01E550FB4F20812E7F21
:103B300020838A509B4F0E94C61389CF223009F000
:103B400086CF2091EC043091ED04232B09F47FCF34
:103B5000EACF90E080E0B3CFFA01448555856685D1
:103B60007785C7010E94A30BD70115968C9181FF21
:103B700019CFC7010E94A9138091F2049091F30418
:103B80000817190709F00ECF1092F3041092F204EF
:103B900009CF90913501892F8E7F90FF81608093AE
:103BA00035010E948A138091350180FF45C008329B
:103BB000110508F068C00E31110508F075C0C80184
:103BC00004974A9780F58091EA0584FD2CC0F601A0
:103BD0008581811509F4EBC080918505909186055A
:103BE000892B8D7F811509F464C01092790510929C
:103BF00078058091EA0581FD5CC060E0C8010E9403
:103C0000DD0A60E0C8010E94AC15809185058D7FBA
:103C10000E941B1482E00E94E30797C08091350147
:103C2000816080933501D60115968C91811521F024
:103C30001092790510927805F6018581F801E85116
:103C4000FC47E730F10508F0DCCEE45DF84C0C945D
:103C50004E36809135018E7FA2CF809135018F7EC7
:103C6000013E110531F0053E110531F48091350119
:103C70008F7D8093350197CFC80190528115904375
:103C800008F091CFBECE0933110558F40D3211055D
:103C900018F40B32110539F68091EA0582FDC3CF85
:103CA00096CF04361105F7CF8091EA0583FDBBCF8F
:103CB0008ECF87E0F601AAE7B5E001900D928A95D4
:103CC000E1F710927D0510927C0580917805909126
:103CD00079050817190709F04DC02091EA0525FF5D
:103CE00049C03091350131FF02C026FF43C0209109
:103CF0007605309177057401E21AF30A0E94711279
:103D0000E816F906B8F58091860581FF08C0809114
:103D1000350180618093350182E00E940508809121
:103D2000860585FF08C0809135018062809335014A
:103D300080E20E940508609135016695617080916E
:103D40007805909179050E94AC1580918B0587705C
:103D5000811561F0D60115968C91811539F080910D
:103D6000F40582FF03C082E00E94E3072496EEE0A0
:103D70000C94173680918505F0908605F82AF1FAA3
:103D8000FF24F0F88D7F0E941B1410937905009397
:103D900078059092770580927605FF0C6894F2F88A
:103DA00090913501997FF92AF092350133CF40E0A7
:103DB000B401C8010E940716C8CF06E221EE41EE09
:103DC0006AE17CE70E94701BC0CF07E225EE45EE5A
:103DD0006BE17CE7F7CF06E221EE40EE68E17CE79D
:103DE000F1CF07E225EE44EE69E17CE7EBCF06E296
:103DF00021EE42EE6CE17CE7E5CF07E225EE46EEF0
:103E00006DE17CE7DFCF08E221E045EE6EE17CE783
:103E1000D9CF8091F30581608093F3056091F3051C
:103E20007091F40584E090E00E94CD360E947017F6
:103E30008CCF8091F40588608093F405EFCF80915A
:103E4000F3058260E9CF8091F3058460E5CF80912E
:103E5000F3058860E1CF8091F4058160EDCF80911A
:103E6000F4058260E9CF8091F3058061D5CF809120
:103E7000F3058062D1CF8091F3058064CDCF0E949D
:103E800070178091F3058068C7CF8091F3058C602F
:103E9000C3CF8091F4058360CFCF8091F3058E7FEF
:103EA000BBCF8091F405877FC7CF8091F3058D7FCD
:103EB000B3CF8091F3058B7FAFCF8091F305877FE0
:103EC000ABCF8091F4058E7FB7CF8091F4058D7FC5
:103ED000B3CF8091F3058F7E9FCF8091F3058F7DC7
:103EE0009BCF8091F3058F7B97CF0E9470178091B5
:103EF000F3058F7791CF8091F305837F8DCF8091EC
:103F0000F4058C7F99CF8091F305992782FF9395D3
:103F100090FB82F990FB83F97FCF8091F405982F75
:103F2000909590FB80F990FB81F986CF9091F305F5
:103F3000892F8F7B96FF80646FCF0E9470179091BE
:103F4000F305892F97FB87F9805866CF61E08EE0F3
:103F500090E00E94AF3662CF60E0F9CF9091F30518
:103F6000892F8F7E94FF806157CF9091F305892F21
:103F70008E7F90FF816050CF9091F405892F877FCD
:103F800093FF886059CF0631BCE71B07D1F58091BC
:103F900086053091E90530FF04C0982F9474911183
:103FA00024C0982F9A7A31FF04C0482F41714111E3
:103FB00090E032FF04C0482F4878411190E033FF71
:103FC00003C08272811190E0211589F081E0911186
:103FD00001C080E08093820585E3911101C089E2F0
:103FE0000E94050C0E941513B0CE90E0DCCF8091AA
:103FF0008205811521F085E30E94390CF3CF89E217
:10400000FBCF0737ECE71E0709F470C00837FCE761
:104010001F0709F476C02115B1F00A352CE7120705
:1040200009F49BC008F072C001305CE7150709F481
:1040300092C003308CE7180709F487C001159CE78C
:10404000190709F475C0F6018581E080F1808115BA
:1040500009F487C0C7010E94BA0F182F682FC70143
:104060000E944E07B701812F0E949D0F0E940809F0
:10407000182FF92ED6011596EC9015971696BC9030
:10408000B2948FE0B82280918B058770811501F181
:10409000AE2CE114F1F0892F807F803461F080E252
:1040A000810F8830A8F0892F807E803221F4123071
:1040B00078F0B11469F08091F40582FF09C082E0C4
:1040C0000E94E30780918B058770AA24A394811135
:1040D000A12C8F2D82958F70882E912C8C3008F01A
:1040E0005FC0F401ED5CF84C0C944E3681E0211574
:1040F00051F00E94320743E062E081E00E94B8077D
:1041000024CE82E0F4CF0E943E07F5CF0B35ACE71A
:104110001A0729F18091F405002482FF0394802D71
:104120000C35BCE71B0709F08ECF0E94C10E8BCF68
:104130000E947017EFEFF4E32CE0E150F0402040D4
:10414000E1F700C000000E94930C6FEF7FEF80E06A
:1041500090E00E94CD360E94A11781E0E6CF80E07A
:10416000E4CFC7010E948407182F7CCF0F2D0F705A
:10417000B0E1FB1610F00295007FE11409F445C090
:10418000011559F080E2810F883010F0111137C00D
:10419000802F0E94FF070E941513812F0E9429156E
:1041A000E8E08E1A9108F4E08F16910410F40E9452
:1041B000A80B812F9F2D0E940807811108C2109221
:1041C000F6051092F505A114A9F080918B0580FDEC
:1041D00011C0F60115828695869586950E94320754
:1041E000C6010E94D11B80918B0586958695869588
:1041F0000E943E0760E0C6010E941F10B7CD80916B
:104200008A05802B80938A05C6CF812F0E94BE1518
:10421000011531F280E2810F883010F0111104C0D5
:10422000802F0E94050806C0009580918A05802392
:1042300080938A050E941513B3CF0F2D0F708F2D19
:10424000807F803211F00295007F111549F0113006
:1042500009F473C0E11409F47FC0B114D9F09DCF03
:104260008091F40582FD12C0E11449F0011529F096
:10427000802F0E94FF070E94151380E08FCF80E0FF
:104280000E94BE15011509F48BCFCACFE11491F13C
:10429000B11004C0802F0E94671382CF21E0B212B8
:1042A00011C070908505802F8721081709F478CFF9
:1042B0000E94B6129093840580938305702A7092B1
:1042C00085056ECF8091EB05823008F469CFB81276
:1042D00067CF802F0E946713802F0E940514809162
:1042E0008705902F9823091709F45ACF802B8093C4
:1042F000870556CFB11012C0802F0E947813802FEF
:104300000E94051480918705902F9823911509F438
:1043100047CF009508230093870542CF8091EB0596
:10432000823008F43DCF41E0B4123ACF8091860547
:104330008023811509F434CFDFCF8091F105E1149A
:1043400021F08B1508F42CCFA5CFB81608F028CF94
:10435000802F0E94781324CFB114D1F38091EF0500
:104360009091F005193321F08091ED059091EE05C3
:104370000E94130E812F0E94BE1512CF8F2D86959D
:1043800086958370811569F0813009F009CF812FFE
:104390009F2D9370E11002C080E090E00E94DF0B3F
:1043A000FFCE812F9F2D9370E11002C080E090E03E
:1043B0000E94B90BF5CE6E2D812F0E945714F0CEBE
:1043C0008F2D8370811133C0E110EACE412F4295C9
:1043D00046954770440F440F812F8F70042E01C003
:1043E000880F0A94EAF7212F207114FF07C02FE0ED
:1043F00030E001C0220F4A95EAF720953F2D36950F
:1044000036953370323071F0333051F04091880579
:10441000313029F0822B84230E942C07C1CE842BBB
:10442000822BFACF822B909188058927F5CFE11452
:1044300059F1F0FEB5CE412F429546954770440F95
:10444000440F812F8F70042E01C0880F0A94EAF761
:10445000212F207114FF07C02FE030E001C0220F90
:104460004A95EAF720953F2D3695369533703230D0
:1044700089F0333069F040918905313041F0822B69
:1044800084230E942F078CCE8230A8F689CE842BFD
:10449000822BF7CF822B909189058927F2CF0F2DA0
:1044A0000F70E11429F0802F0E943207812FF3CE84
:1044B000812F0E947813802F0E943E0771CE123FF9
:1044C00071F160F4103FB9F0113F81F0E11409F48B
:1044D00079C0B11062CE8F2D8F7125C0133F31F19D
:1044E000143FA1F78091F40582FD2CC08F2D8F71B0
:1044F000E11411F318C08091F105E11461F0B816D0
:1045000008F04ECE2F2D2F7181E090E001C0880F72
:104510002A95EAF7C0CF8B1508F442CEF3CF8F2D42
:104520008F71E110C9CF0E9432073ACE80E0E114CA
:1045300009F4A7CF81E09F2D9F7101C0880F9A9544
:10454000EAF79FCF8091EB05823048F1E114C9F082
:1045500090918B059770943061F410928B051092B6
:104560008D0510928C058F2D8F710E943E07A12C16
:104570001ECEB816E0F763E08F2D8F710E94ED1309
:10458000F6CFB81640F010928B0510928D05109260
:104590008C0564E0F1CF81E00E94E307E8CFE114ED
:1045A00031F063E08F2D8F710E94ED13F9CD81E022
:1045B0000E94E30752E0B51608F4F2CD82E00E94B3
:1045C000E307EECDB110CACE8F2D8F7175CFE114F8
:1045D00019F0B110F4CDF7CDB110F1CD40E0D60116
:1045E00015966C9115978D919C910E940110809168
:1045F000EC0583FFE4CD8091F5059091F6050297D7
:1046000009F0DDCD812F0E94B216D9CDA0E0B0E037
:10461000ECE0F3E20C9402368091CE05803108F094
:1046200049C08091CD05811509F444C0C0918F0522
:1046300087E0D82E80918E058C17E1F1EC2EF12CBD
:10464000DC9EE0011124FE01E057FA4F84818115C0
:10465000B1F191818091C905981331C09081809109
:10466000C80598132CC08581811129C0028113814E
:104670008091CA059091CB05081B190B60E088EC6E
:1046800095E00E941F100E94711208171907B8F4D4
:104690008091CE058F7080618093CE05CA56DA4F27
:1046A00088818F708061888388EC95E00E94D11B9F
:1046B0000E94D907CDB7DEB7E7E00C941E36E701BC
:1046C0002196C770B7CFADE0B0E0E9E6F3E20C9415
:1046D000FA358C0186E0F801DE01189601900D9202
:1046E0008A95E1F7D80115966C90159714965C9011
:1046F00088ECA82E85E0B82E8091CC05811118C0D9
:10470000511499F0611409F492C1C8010E94F40F88
:10471000811509F48CC187E0F801A8ECB5E001909F
:104720000D928A95E1F70E940623FF24F39448C076
:10473000F801C0807180E280F38060E088EC95E051
:104740000E941F10D090CD058091CA059091CB0595
:104750004701881A990A60E088EC95E0D11409F4C1
:1047600021C10E941F100E9471128816990608F03C
:10477000DDC05114D1F28091C905D80111969C91E8
:10478000B090CE05B0E1BB1608F098C0F62C981397
:104790001CC09091C805F8018081981316C0611063
:1047A00078C08B2D8F7080618093CE0588EC95E06A
:1047B0000E94D11B8091CE05D80116968C93F12CC6
:1047C0008F2D2D96EFE00C941636611062C0E091AB
:1047D0008F0580918E05AE2F97E0A81302C097E059
:1047E0002AC02A2F30E09A9FD0011124A057BA4F37
:1047F00011964C911197741207C04C91C41204C0C9
:1048000015964C9141111DC1D9011196A770E5CFA4
:104810002E2F30E09E9FF0011124E057FA4F418186
:10482000741206C04081C41203C045814111C7CF34
:10483000F9013196E7708E13EBCF888599850E9438
:10484000E50F292F22952F70903448F02A5F2F70A2
:104850002230C8F0C8010E94D11BFD2CB1CF9F703F
:10486000223038F0911551F0F8019681903130F4F2
:10487000A7CF911519F0811509F4A2CF805E883079
:1048800008F49ECFE7CF803F08F49ACF815F833052
:10489000F7CF8091CE0581608093CE058091EC05A5
:1048A00081FD8DCF88EC95E00E94D11B87E0E8EC7C
:1048B000F5E0DF011D928A95E9F781CF981316C0C4
:1048C0009091C805D8018C91981310C061100EC04A
:1048D0001696BC92C8010E94D11B87E0F801A8EC93
:1048E000B5E001900D928A95E1F71FCFC8010E94B3
:1048F000F40F811509F49BC0611409F498C08091EC
:10490000CE05803208F407CF8091C8059091C90583
:104910009A838983FC82EB828091CC058D831E82F1
:10492000BF82CE0101960E94D11BF5CED090CE055C
:10493000B0E1DB1608F4B6CF511409F4F6CE90912D
:10494000C905F8018181981311C09091C805808133
:1049500098130CC061100AC0D682C8010E94D11BF6
:1049600087E0D5011D928A95E9F7DFCEC8010E9444
:10497000F40F811509F45BC0611409F458C08091EB
:10498000CE05803208F4C7CE8091C8059091C90544
:104990009A838983FC82EB828091CC058D831E8271
:1049A000DF82BFCF0E941F100E94711288169906E5
:1049B00008F041C0511409F4B8CE6114C1F19091CE
:1049C000C905F8018181981328C09091C80580819C
:1049D000981323C08091CA059091CB05E81AF90A73
:1049E000F8ECEF16F10408F078CF8091CE0580FD49
:1049F00074CF803108F471CFD80116968C93169736
:104A0000982F907F903F09F465CF982F907F905F0B
:104A10008F70892B16968C935DCFC8010E94F40F7E
:104A2000811179CE8091CE0581608093CE05C80139
:104A30000E94D11B7ACE87E0F50111928A95E9F7A1
:104A4000BECE9091EC0590FFCACE2CCFABE1B0E08A
:104A5000ECE2F5E20C9404364E8B5F8B688F798F15
:104A6000082F8A8F192F9B8FF82E292F811549F037
:104A70008091F5059091F60501969093F605809347
:104A8000F505211110928A051D8A86E0FE017696B1
:104A9000DE011F9601900D928A95E1F78091F40551
:104AA00082FF21C08091D1059091D205892BD9F048
:104AB0000E94B61220918C0530918D05821B930BBC
:104AC0002091D1053091D2058217930738F080915B
:104AD0008B0582FD03C082E00E94E3070E94C212A0
:104AE00081110E940D08F11439F00B8B1C8B61E0D1
:104AF000CE010F960E941F100B8B1C8B87E0FE01CE
:104B00003F96DE01189601900D928A95E1F7CE014D
:104B100008960E946323811110C020918E05309168
:104B20008F0587E0FE013896DE01119601900D9207
:104B30008A95E1F78C8581110BC017E080918F0574
:104B400090918E0589132BC06B96E5E00C9420366E
:104B5000822F90E00196877099273817190671F413
:104B60000E94701710928E0510928F0587E0E8EC76
:104B7000F5E0DF011D928A95E9F7DFCF97E0929F7C
:104B8000D0011124A057BA4FFE01319601900D9229
:104B90009A95E1F780938E050E94D907CECF189F92
:104BA000C001112480579A4F0E946323811561F23E
:104BB00080918F0590E001968770992780938F05EB
:104BC000BDCFA6E0B0E0E7EEF5E20C9405360E941A
:104BD000B6128C0180919B0490919C0480179107E0
:104BE00079F019821A820E94B612BC0149815A8159
:104BF00080E090E00E94262510939C0400939B0483
:104C00002696E4E00C942136A6E0B0E0EAE0F6E275
:104C10000C9407369C019093980480939704211577
:104C200080E2380738F4C9010E9496152696E2E022
:104C30000C94233680EF89838A830E94B6128160A8
:104C4000BC0149815A8181E091E00E942625EECF86
:104C5000A6E0B0E0EEE2F6E20C9407369C019093F9
:104C6000980480939704211580E2380738F4C9012D
:104C70000E94F1152696E2E00C94233680EF89839A
:104C80008A830E94B6128160BC0149815A8181E009
:104C900090E00E942625EECFCF93DF93D82FC92F27
:104CA0000E9404268091ED059091EE050E94130E5E
:104CB0008D2F9C2F0E942826DF91CF9108950F936E
:104CC0001F93CF93DF938C01862F68EE74E00E94D0
:104CD0005C12892BA9F4C091E804D091E9042097D3
:104CE00079F0F8018281833051F4CE010E944C2684
:104CF000CE010E944C26CE010E944C2601C0D8F75E
:104D0000DF91CF911F910F9108950F931F93CF9330
:104D1000DF938C01EB0168EE74E08C2F0E945C1233
:104D2000892B09F05AC0FE01FF27D80112968C91F9
:104D30001297E05FFD4F8130A9F415968C9182FDAA
:104D400051C080FF4FC082E080838091EA0490913F
:104D5000EB040097B9F48091E8049091E90400977E
:104D6000E1F110C08230B9F515968C9182FD28C012
:104D700080FD0BC083E080838091EC049091ED0472
:104D8000009701F10E94042628C084E0808380916E
:104D9000EE049091EF040097A9F78091E8049091B8
:104DA000E904009711F10E944C268091EA04909149
:104DB000EB04009739F78091E8049091E904E2CF81
:104DC00085E080838091E8049091E904009729F0C0
:104DD0000E944C26F0CF86E08083DF91CF911F9117
:104DE0000F91089581E08083B6CF8091EA0490917D
:104DF000EB04B5CF0F931F93CF93DF938C01EB019F
:104E000068EE74E08C2F0E945C12892BA1F48091D3
:104E1000ED059091EE050E94130EDD27C05FDD4F7A
:104E20008881F801128218828330F1F048F48130D1
:104E300059F0823081F0DF91CF911F910F91089549
:104E40008430B9F08530B9F78091E8049091E90495
:104E5000009789F306C08091EA049091EB040097D3
:104E600099F30E942826E7CF8091EC049091ED04FD
:104E7000F6CF8091EE049091EF04009791F7209186
:104E8000E8043091E9048091EA049091EB04211543
:104E90003105F1F2009729F7C901E3CFAFE0B0E0A7
:104EA000E4E5F7E20C94F835FE0131968AE0DF0183
:104EB0001D928A95E9F78EE4E82E81E0F82E8F01A5
:104EC00093E5692E91E0792E2F01AA24A394B12CA9
:104ED00039E5832E31E0932EF70181917F018F3FD9
:104EE00009F43EC0F894E82FE295EF70F0E021A1BC
:104EF0008F70A50102C0440F551F8A95E2F7CA01C1
:104F0000922F982B91A392A18095892382A37894C4
:104F100000C0E3E5F1E031E0312C21912F3F79F041
:104F2000A22FA295AF70A05EB0E08C9190E02F70A0
:104F300002C0959587952A95E2F780FF75C080E0BD
:104F4000382A330F8E169F0641F7F70182918F3F63
:104F500011F00E940D0A50EA5A95F1F7D8013C92DF
:104F60000F5F1F4F6E147F0409F0B6CF4AE050E088
:104F7000B20188E192E00E9464366C01892B41F015
:104F80008AE0F201A8E1B2E001900D928A95E1F782
:104F90000091230210E007591B4FC114D10409F4FA
:104FA00045C081E08093CD010E94B6129093CC0160
:104FB0008093CB0180919104811509F48DC07E010D
:104FC000BBE0EB0EF11C85E0F70111928A95E9F741
:104FD0008091CE018A3008F04BC047EC50E1B70118
:104FE000C8010E94870E811509F464C040E750E1B2
:104FF000B701C8010E94870E811509F45BC01092A9
:10500000CE018091220290E045E050E0B70187593F
:105010009B4F0E94643621E02093CA01892BE9F559
:105020002F96E1E10C941436832F8ACF8091CD0125
:10503000811509F4BFCF8091CB019091CC010E94E2
:10504000611B059708F4B6CF45E050E068E172E0D7
:10505000C8010E946436892B41F085E0E8E1F2E066
:10506000D80101900D928A95E1F71092CD01A2CF5F
:105070008091C8019091C9010E94611B843F9140B9
:1050800008F0ABCF8091CA01811551F285E0D701BC
:105090001D928A95E9F71092CA01A0912202B0E010
:1050A000A759BB4F85E0FE013B9601900D928A9572
:1050B000E1F7B6CF8091CE018F3F39F40E94B6124E
:1050C0009093C9018093C801DDCF8F5F8093CE019B
:1050D0008A3008F496CFF2CF85E0F801AFE7B4E06C
:1050E00001900D928A95E1F78FE794E00E946F0D91
:1050F00080937E04C0908404D0908504E090860460
:10510000F09087048091C4019091C501A091C601DF
:10511000B091C701C816D906EA06FB0609F480CF8C
:10512000C092C401D092C501E092C601F092C701BD
:105130000E94650CC61AD70AE80AF90AC0929304BD
:10514000D0929404E0929504F092960469CFCDB782
:10515000DEB7E4970FB6F894DEBF0FBECDBF85B7BC
:10516000806885BF85B7806885BF84B7877F84BF27
:105170000FB6F894A89580916000886180936000D4
:10518000109260000FBE80E890E00FB6F894809314
:105190006100909361000FBE8BE09AE090939B01B9
:1051A00080939A010E94260A0E94480F0E94500D87
:1051B0000E94B80D8091E20084608093E2007894B0
:1051C00080917504811599F08091E9001091EC00AF
:1051D0008F70179511271795182B1092E900809161
:1051E000E80083FD0E949C181F701093E90082E084
:1051F00084BD93E095BD9AEF97BD80936E001092A9
:1052000093041092940410929504109296040E94B4
:105210002710811102C00E948C188091D8008061F3
:105220008093D8002AE12A95F1F700C08091D90037
:10523000182F117080FD04C00E94500D109275044B
:1052400010939104109392041093040111110E9481
:105250008134809104018091040190E0811101C0AA
:1052600095E09093230285E0891B809322020EE44F
:1052700011E093E5E92E91E0F92ED8018D918D0191
:105280008F3F11F00E940D0AE016F106B1F703E519
:1052900011E089E5E82E81E0F82EF80181918F0177
:1052A0008F3F11F00E940D0AE016F106B1F78AE077
:1052B000E9E6F4E0DF01282F1D922A95E9F7E8E1FD
:1052C000F2E0DF011D928A95E9F780E090E00E940C
:1052D0009936853E9E4F21F40E942710811163C0AC
:1052E00065EE7EEF80E090E00E94CD3660E082E0E7
:1052F00090E00E94AF3681E08093880561E083E012
:1053000090E00E94AF3660E074E184E090E00E949B
:10531000CD3660E086E090E00E94AF3660E087E046
:1053200090E00E94AF3640E050E0BA0188E090E0A3
:105330000E94C13660E083E290E00E94AF3660E0F8
:105340008CE090E00E94AF3660E08DE090E00E943B
:10535000AF3619821A821B821C821D821E821F8216
:10536000188648E050E067E170E0CE0101960E94A7
:105370009F3640E050E0BA018FE190E00E94C136D4
:1053800080E00E940F0F0E948C1840E050E0BA01AC
:105390008FE090E00E94C13640E050E0BA0183E126
:1053A00090E00E94C13682E090E00E9491368093A6
:1053B000260284E090E00E9499369093F405809351
:1053C000F3050E944E27EFEFF6E721E0E150F040B1
:1053D0002040E1F700C000000E944E278091690440
:1053E00080FF08C06FEF7FEF80E090E00E94CD3635
:1053F0000E94930C83E090E00E9491360E942C075B
:105400008091920492E0980F811509F4B6C080E271
:1054100090935404809333020E9406336BE070E053
:1054200080EF99E00E941912811509F43FC0809124
:10543000540465E070E081FDA2C08BEE99E00E940B
:105440001912811599F16DE070E089ED99E00E94E3
:105450001912811559F10E94650CDC01CB01805AAB
:105460009541AF4FBF4F8093580490935904A09338
:105470005A04B0935B04E4E5F2E080E092E0DF01DF
:105480009C011D9221503040E1F7F0933202E093ED
:1054900031028FEF9FEF909357048093560481E081
:1054A00080935F0480935C04109255048091910472
:1054B000811102C00E94843485E091E09093BE0483
:1054C0008093BD0480917504853049F48091750402
:1054D000853009F457C00E9470170E94A80B0E94E3
:1054E0004E2707E212E0B9E6EB2EB4E0FB2ED7011F
:1054F000F80191918D9122E0E133F20709F496C011
:105500009817B9F380909104D12CD701CD907D01EB
:10551000F80191908F019C1439F19C24B12CAA249C
:10552000A394892D8A218115C1F08114B1F0B9822B
:10553000DA820E94B6129C838B83F1E0FD8391E0B6
:105540008C2D8A21811101C090E09E8349815A816E
:105550006B817C818D810E942625B394AA0C26E064
:10556000B212DFCFF801C292D3943AE0D312CDCF7A
:105570000E94710CDD24D3945EC080E849CF86EE92
:1055800099E05DCF80917504843031F10E9426123C
:105590001092240248E150E080E40FB6F894A895F8
:1055A000409360000FBE8093600083B7817F84606A
:1055B00083BF83B7816083BF7894889583B78E7FDC
:1055C00083BF0FB6F894A89580916000886180939E
:1055D0006000109260000FBE80912502811509F4D1
:1055E00075CF0E944E27E9E6F4E08191811106C053
:1055F000A3E7B4E0AE17BF07C1F768CF80E189BD6C
:1056000082E189BD09B400FEFDCF8091D8008F7D75
:105610008093D8008091E00082608093E0008091C8
:10562000E00081FDFCCF0E94701750CF98136ACF25
:105630000E94E125D12C80919104811509F44FC07D
:105640000091F2041091F3040115110521F18091EC
:10565000F4049091F5040E94611B89AB9AABC801D8
:105660000E94711249A95AA984179507A0F4809144
:10567000F2049091F3049927A4E0880F991FAA954A
:10568000E1F7FC01E550FB4F208122FD04C08A5068
:105690009B4F0E94C6138091EA0580FF20C0809135
:1056A000350182FF1CC00E94B6128BA79CA7809177
:1056B0007605909177052BA53CA5281B390B809189
:1056C0000F01909110012817390748F041E06BA5B0
:1056D0007CA580917805909179050E9407168091AC
:1056E0005F04811509F469C080915D0490915E04A6
:1056F0000E94611BC29708F440C00E94B6129093AA
:105700005E0480935D0484E592E09093320280937E
:10571000310280919204811509F40FC185E69AE067
:105720000E940812809189050E94F506813009F4D3
:10573000FEC0823009F4FEC0811104C081E69AE007
:105740000E9408120E94A80B182F83E59AE010FD12
:1057500002C08EE49AE00E94081289E49AE011FDEA
:1057600002C084E49AE00E94081280E49AE012FDEC
:1057700002C08BE39AE00E94081280915604909137
:105780005704892B09F0E7C080915C048115A9F0CA
:105790000E94650C009158041091590420915A04FC
:1057A00030915B04601B710B820B930B6F3F7F4F3B
:1057B0008F4F9F4710F40E942612D1100E9438127A
:1057C00086E0E2EEF4E0DE01119601900D928A95FA
:1057D000E1F7D090E304F090E4040091E504E09058
:1057E000E6041091E7041092E4041092E50410928C
:1057F000E6041092E704802F8F298115A9F080918B
:105800006204909163040E94611B8DA79EA7809102
:10581000E004811509F478C190911B012DA53EA5E6
:105820009217130608F480C1812F8E29811591F0FB
:1058300080916004909161040E94611B1C01809121
:10584000DF04811509F4A0C1909119019215130488
:1058500008F4A8C18091E304D81219C08091E4042F
:10586000811511F08F1113C02091E504211511F05D
:1058700020130DC09091E704911511F0911307C00A
:105880003091E604311103C0822B892B81110E94D3
:105890002F1486E0FE013196A2EEB4E001900D9245
:1058A0008A95E1F70E94A80B90916404891721F072
:1058B000809364040E94650C80917504843009F023
:1058C00001CE83E08093E9008091E80082FFFACD69
:1058D0008091E80090E085FF06C00E941F0D8115B1
:1058E00009F490C191E08091E8008B778093E80003
:1058F000911509F4E7CD0091990410919A04E9817A
:105900000115110509F49AC1EE3F09F0BBC18A8166
:10591000833020F08550833008F0B4C1EA81EE3046
:1059200008F0B0C1F0E0E15CF84C0C944E368CE528
:105930009AE006CF87E59AE003CFEBEFF9E0849198
:105940008F01811509F419CF0E9459110F5F1F4F64
:10595000F8018491F6CF80915F04811509F414CF8A
:1059600080915504811110CF0E9438122091560465
:10597000309157042115310509F406CF10E0812F2D
:1059800090E0EE24E394F12C012E02C0EE0CFF1CFB
:105990000A94E2F7A70142235323452B11F41F5F1A
:1059A000EECF2091540420FF9CC0912F990F990FA6
:1059B000990F37E0390F80E023E090931301809333
:1059C0001601309314012093170124E630E047E0DC
:1059D00050E061E171E088E70E943C33892B09F0D7
:1059E000D3CEF0E21F9FA00111248091540480FFC8
:1059F00084C0E4E3F2E080E2DF011D928A95E9F7DA
:105A0000EDE5F1E0FCABEBAB09E511E071E6672EEB
:105A100071E0772EABA9BCA96D91BCABABABF80123
:105A200081918F01840F952F911D9C012C5A3D4F20
:105A300038AB2FA7E62FF0E0EC5CFD4F20E030E024
:105A400067E0962E921ACC24C394022E01C0CC0C8F
:105A50000A94EAF7AFA4B8A890E0D5018D915D0152
:105A60008C21692D691B677070E0B82F062E01C06C
:105A7000BB0F0A94EAF771956195710967707727F2
:105A800001C086956A95EAF78B2B6081682B60834D
:105A90009F5F983011F72F5F3F4F319628303105C7
:105AA00079F6EBA9FCA96E167F0609F0B3CF04E6E0
:105AB00010E020E230E044E352E060E488E70E9436
:105AC000D633892B09F060CEE094F094809156048F
:105AD000909157048E219F219093570480935604F0
