:100000000C9427050C9444050C9444050C943B2750
:100010000C9444050C9444050C9444050C9444053C
:100020000C9444050C9444050C9401240C94D9249C
:100030000C9438100C9444050C9444050C9444051D
:100040000C9444050C9444050C9444050C9444050C
:100050000C9444050C94DD230C9444050C94440545
:100060000C9444050C9444050C9444050C944405EC
:100070000C9444050C9444050C9444050C944405DC
:100080000C9444050C9444050C9444050C944405CC
:100090000C9444050C9444050C9444050C944405BC
:1000A0000C9444050C9444050C9444050501090284
:1000B000A10185020901A1000509190129081500FE
:1000C0002501950875018102050109300931158165
:1000D000257F95027508810609381581257F9501D0
:1000E00075088106050C0A38021581257F95017572
:1000F000088106C0C005010980A101850319012AF4
:10010000B700150126B700950175108100C0050CD8
:100110000901A101850419012AA002150126A002E6
:10012000950175108100C005010906A1018506052C
:100130000719E029E71500250195087501810205D9
:1001400007190029EF1500250195F07501810205B9
:10015000081901290595057501910295017503910D
:1001600001C00660FF0961A1010962150026FF00B8
:100170009520750881020963150026FF00952075FA
:10018000089102C005010906A101050719E029E748
:1001900015002501950875018102950175088101F9
:1001A0000507190029FF150026FF0095067508812F
:1001B000000508190129051500250195057501910E
:1001C00002950175039101C000AF00AE0000000070
:1001D00000003E5B4F5B3E003E6B4F6B3E001C3EA3
:1001E0007C3E1C00183C7E3C18001C577D571C00B0
:1001F0001C5E7F5E1C0000183C180000FFE7C3E790
:10020000FF00001824180000FFE7DBE7FF0030487C
:100210003A060E00262979292600407F05050700A9
:10022000407F05253F005A3CE73C5A007F3E1C1C9E
:100230000800081C1C3E7F0014227F2214005F5F10
:10024000005F5F0006097F017F00006689956A00F4
:1002500060606060600094A2FFA2940008047E04C5
:10026000080010207E20100008082A1C0800081C26
:100270002A0808001E10101010000C1E0C1E0C0086
:1002800030383E383000060E3E0E060000000000FA
:10029000000000005F000000000700070000147F5E
:1002A000147F1400242A7F2A12002313086462009A
:1002B000364956205000000807030000001C224168
:1002C00000000041221C00002A1C7F1C2A00080894
:1002D0003E08080000807030000008080808080088
:1002E0000000606000002010080402003E514945F3
:1002F0003E0000427F4000007249494946002141CA
:10030000494D33001814127F100027454545390028
:100310003C4A494931004121110907003649494900
:100320003600464949291E00000014000000004024
:1003300034000000000814224100141414141400A6
:100340000041221408000201590906003E415D598E
:100350004E007C1211127C007F49494936003E4113
:10036000414122007F4141413E007F4949494100CE
:100370007F09090901003E41415173007F080808C7
:100380007F0000417F4100002040413F01007F0885
:10039000142241007F40404040007F021C027F0049
:1003A0007F0408107F003E4141413E007F0909095A
:1003B00006003E4151215E007F0919294600264969
:1003C0004949320003017F0103003F4040403F00A4
:1003D0001F2040201F003F4038403F006314081496
:1003E00063000304780403006159494D4300007F12
:1003F00041414100020408102000004141417F00BA
:10040000040201020400404040404000000307088D
:1004100000002054547840007F2844443800384479
:1004200044442800384444287F0038545454180069
:1004300000087E0902001824241C78007F080404A8
:10044000780000447D4000002040403D00007F10C7
:100450002844000000417F4000007C0478047800BC
:100460007C08040478003844444438007C18242470
:100470001800182424187C007C0804040800485440
:100480005454240004043F4424003C4040207C0099
:100490001C2040201C003C4030403C0044281028D8
:1004A00044004C9090907C004464544C44000008FC
:1004B00036410000000077000000004136080000CF
:1004C0000201020402003C2623263C0000C0F0F892
:1004D000F8780000000000000000F0F8F0F0F08074
:1004E0000000000080C0C08080008080C0C0E0E0CC
:1004F000E0E0E0F060000000C0E0F0F8F8F87878A4
:100500007878F8F8F8F8F8F0C000387C7E3E3E7E47
:100510007EFEFEFEFEFEFEFEFEFEFEFE7C7C1880E3
:10052000C0C0C080800000000000008080C0E0F0FB
:10053000F0F070008080C0C0800000000080F0E01B
:10054000E0F0F8F8E0E0C0C81818E0F0F0F0E0ECF7
:10055000EEF7F37020007C7C7C7E007E7E7E7F7FC9
:100560007F000080C0E07E5B4F5BFEC00000C000EB
:10057000DCD7DEDEDED7DC00C000000000000000BB
:10058000000000000000000000000000FFFFFFFF6F
:10059000E1808080C00000000080EFFFFFFF7F3F10
:1005A00000FCFFFFFFFBE387FFFFFFCF87C7C7C349
:1005B000C1C180800000007FFFFFFFE1E0C080C07C
:1005C000C0E0F0F8FFFFFFFF7F00000000003030C8
:1005D000787CFFFFFFFFEFE7EFEF8108080000E006
:1005E000E3C3E7FFFFFFFEFCFCFEFFFFEFE7C3C135
:1005F000C0C0E0FFFFFFFF3FEFFFFEFFFFFFFFFF79
:10060000FDEDE367FFFFFFFF2C0F0F1F3F7F7F7F95
:100610007F7F3F1E0C001F1F1F3F003F3F3F7F7F1C
:100620007F00307B7F7830202030787F3B000300D4
:100630000F7F0F0F0F7F0F0003000000000000006E
:1006400000000000000000000000000000070F0F85
:1006500007070F0F0F0F0F0F0F0F07070301000002
:100660000103030707070707070707070707070728
:100670000703030300000000000103070F0F1F0F13
:100680001F1F1F0F07030301000000083C7C3C3CB8
:100690003C3C3C3C3F3F1F1F1F1F1F1F0E00000123
:1006A00003030303030303070707070707070F03F2
:1006B000030307070F0F0F0F1F1F1F1F1F1F1F1FF2
:1006C0001F0F0F0E0F0F0F070000000000000000AB
:1006D000000000000000000000000000000000001A
:1006E000000000000000000000000000000000000A
:1006F00000000000000000000000000000000000FA
:1007000000000000000000000000000009025B0083
:10071000030100A0FA0904000001030101000921FE
:1007200011010001224400070581030800010904AA
:100730000100020300000009211101000122220032
:1007400007058203200001070503032000010904B7
:100750000200010300000009211101000122B6007E
:100760000705840320000112010002000000086B4D
:100770006336340001010200011403630072006F4C
:100780000077006B0062005F003400360000000E4E
:100790000363002D0062006F0074007A0000000403
:1007A0000309042B0014001A00080015001700E1CB
:1007B0000004001600070009000A00E0001D001BED
:1007C0000006001900050000000000000000000005
:1007D00000290000000000E200E3002C002152315B
:1007E00000130012000C0018001C00340033000F2E
:1007F000000E000D000B00E5003800370036001039
:10080000001100000000000000000000003900009E
:100810000000004C002A002800225235001E021F52
:1008200002200221022202E1081E001F00200021F6
:10083000002200E3002300240025002600270000FA
:1008400000000000000000000001000000000001A6
:100850000001000100010035022E02250230022FA6
:10086000022D00340233022E00270226022D02241C
:10087000023702360230002F002302000000000081
:100880000000000000010000000000010001000164
:10089000003700000000003A003B003C003D000033
:1008A0000000003E003F0040004100000000004208
:1008B000004300440045000000000000000000006C
:1008C0000001000000000001000100010001000023
:1008D0000000000000000048004600000000004D3D
:1008E0000052004A004B00000000004F0051005031
:1008F000004E0000000000000000000000010000A9
:10090000000000010001000100010000DA0281FF87
:10091000D9F1DB20A4A62EAF00A0C0D30000A1C84F
:10092000D30000AED580A81F408D142000808182A6
:10093000838485868788898A8B8C8D8E8F9091920F
:100940009394A0A1A2A3A4A5A6A7A8A9AAABACAD65
:10095000AEAFB0B1B2B3B4C0C1C2C3C4C5C6C7C8DC
:10096000C9CACBCCCDCECFD0D1D2D3D40020202079
:1009700020005343520020202020004341505300C8
:1009800020202020004E554D005379737400537978
:100990006D6200446566004C61796572000000007C
:1009A0000000000000000000000000000000000047
:1009B0000000000000000000000000000000000037
:1009C000007E0F00D4FFFFFFC7000000780000008A
:1009D00000000000002A2B2800000000000000009A
:1009E000000000000000000029000000002C1E3460
:1009F00020212224342627252E362D3738271E1F66
:100A0000202122232425263333362E37381F040590
:100A1000060708090A0B0C0D0E0F101112131415FE
:100A2000161718191A1B1C1D2F3130232D350405DC
:100A3000060708090A0B0C0D0E0F101112131415DE
:100A4000161718191A1B1C1D2F3130354C00112494
:100A50001FBECFEFDAE0DEBFCDBF11E0A0E0B1E016
:100A6000ECE4F3E502C005900D92A638B107D9F782
:100A700024E0A6E8B1E001C01D92AE3EB207E1F766
:100A80000E943B1E0C943F290C940000982F9295D5
:100A90009F7024E0911102C020E0982F892F869545
:100AA0008695811511F02E5F982F892F8695820FDC
:100AB00008958093A70408958093A804089521E0E1
:100AC00030E001C0220F8A95EAF78091A804822BBA
:100AD0000E945C05089521E030E0A90102C0440FA6
:100AE000551F8A95E2F7CA0180959091A804892341
:100AF0000E945C050895292F9A3090F5863080F584
:100B000090E036E0239F800D911D1124282F27703F
:100B100041E001C0440F2A95EAF723E096958795B6
:100B20002A95E1F7FC01EE0FFF1FE80FF91FEF57C1
:100B3000FB4F20E030E070E05191DF01CB01022E4D
:100B400002C0969587950A94E2F781708195852772
:100B5000842385278E932F5F3F4F2330310561F724
:100B60000895292F9A3078F5863068F590E036E0C0
:100B7000239F800D911D1124682F677023E09695A7
:100B800087952A95E1F7FC01EE0FFF1FE80FF91F8B
:100B9000EF57FB4F40E050E080E0219130E0062E1F
:100BA00002C0369527950A94E2F721703327042E68
:100BB00001C0220F0A94EAF7822B4F5F5F4F433048
:100BC000510559F7089580E008959091A80421E017
:100BD00030E0F90101C0EE0F8A95EAF7D90102C0B1
:100BE000AA0FBB1F6A95E2F7EA2B01C0220F4A95B4
:100BF000EAF7892F8E23E81305C0892F822B0E94E4
:100C00005C0508952095822F8923F9CF8091AE0449
:100C10009091AD04981301C008958F5F8770FACF4B
:100C20009091A904809589238093A904282F277087
:100C300021110DC0891759F09091AB0492FF07C0A4
:100C40008695869586950E946B051092A904089555
:100C50008091A4049091AC04892B5091A504511566
:100C600091F090912A01911521F09091AA0497FD9D
:100C70000BC096E02AE831E040E0915048F4411181
:100C80001092A504852B08959EE122E931E0F4CF6E
:100C9000F90161919F01611581F34F5FEECF982FAC
:100CA00090958091A40489238093A40408959C01C5
:100CB000803E910509F448C0D8F48133910509F4C8
:100CC0007DC048F48932910509F46DC08A9709F412
:100CD0007CC0C90108958933910551F1823891058D
:100CE00039F1C597B1F78091AA0485FFF2CF29C0E9
:100CF000843E910509F447C048F4823E910599F17C
:100D0000833E9105A9F121EE30E0E3CF863E9105C7
:100D100009F444C0873E9105E1F68091AA0483FD61
:100D200061C09091AB0491FF2BC024EE30E0D1CF95
:100D30008091AA048370811152C08091AB0483FF1B
:100D4000C8CF29E230E0C5CF8091AA0480FD33C02E
:100D50009091AB0490FFBDCF23EE30E084FFB9CF7C
:100D600020E030E0B6CF8091AA0482FDF5CFB1CF6C
:100D70008091AA0482FD30C09091AB0490FD2FC0F9
:100D800084FFA7CFEDCF8091AB0481FFA2CF8091EC
:100D9000AA0427EE30E084FDE3CF9BCF8091AA0424
:100DA00083FDF7CF96CF8091AA0485FD1EC0809168
:100DB000AB0483FF8ECF29E330E08BCF8091AA0470
:100DC00086FF87CF2AE230E084CF8091AA0486FF95
:100DD00080CF21E330E07DCF22EE30E07ACF20EEED
:100DE00030E077CF26EE30E074CF25E330E071CFEE
:100DF0009091AA0492FF10C041E0282F2471243062
:100E000009F040E031E0282F2871283009F030E067
:100E1000431711F02CE0822793FF10C041E0282FE8
:100E20002471243109F040E031E0282F2871283165
:100E300009F030E0431711F02CE082273091AB0429
:100E400030FF10C051E0282F2171213009F050E00F
:100E500041E0282F2871283009F040E0541711F0A4
:100E600029E0822731FF10C041E0282F2171213174
:100E700009F040E031E0282F2871283109F030E0F6
:100E8000431711F029E0822794FD877E08951F9370
:100E9000CF93DF930E945706EC01811522E592075C
:100EA00008F055C0811540E5940708F0D1C0803E98
:100EB000910520F58D3C910508F0A4C0883A910574
:100EC00070F4853A910508F09AC081309105D1F10E
:100ED0000497813A9105B0F1C0E0D0E033C0885A60
:100EE00091094B97C8F7C85AD0E0CC0FDD1FC15B02
:100EF000DE4F0990D881C02DD46424C0811550E400
:100F00009507C0F4C11580E2D80708F0B7C0C83E05
:100F1000D105C0F0CE019A9581159F41E8F68D2F3D
:100F20000E94F806182FCE0199270E945706EC015F
:100F3000D12B08C099270E945706CC27DF70C82BF9
:100F4000D92BD06ACE01DF91CF911F9108958038BF
:100F500042E59407C8F5803652E5950708F05BC076
:100F6000C03482E5D807D0F4C03292E5D90708F042
:100F70004BC08C2F8695869520E2829FC00111245C
:100F8000C37021E030E0A90102C0440F551FCA958B
:100F9000E2F7EA01C82BD92BDD68D4CF8C2F8695D8
:100FA0008695877050E2859FC0011124C37021E0AF
:100FB00030E0A90102C0440F551FCA95E2F7EA01CB
:100FC000C82BD92BDC68BECF803C52E5950758F47E
:100FD0008F71C03AD245A0F590E0982F8827EC0198
:100FE000C46FD06AAFCF805C9245809708F074CF11
:100FF000DC2FCC27CC27DF71C06FD06AA3CFA4979A
:10100000D064A0CFD0659ECFCF71D0E0DC2FCC27AD
:10101000C16FD06A97CF86958695877020E2829FB0
:10102000C0011124C37021E030E0A90102C0440FC7
:10103000551FCA95E2F7EA01C82BD92BDA6882CF8F
:101040000E94F806C82FD0E0DC2FCC27D0627ACFE0
:101050008F710E94F80693E0CC0FDD1F9A95E1F79F
:10106000CC27DF70282F30E084FF04C050E1859F3B
:1010700090011124C22BD32BD06964CF8D2F8F7197
:101080000E94F806182FCE0199270E945706EC01FE
:10109000D12BDCCF80E00895F894E82FE295EF7033
:1010A000F0E041A18F7021E030E0B90102C0660F8D
:1010B000771F8A95E2F7CB01962F9095942391A301
:1010C00092A1892B82A378940895282F35EB2303CE
:1010D000C001112497FF04C080589109892F0895F9
:1010E00080589F4FFBCF80919B0480FD14C081FDF1
:1010F00014C082FD16C080919A04811581F08E3152
:1011000080F420E5829FC00111246EE170E00E940E
:10111000AD28862F089584E1089588E2089588E037
:10112000089580E5089580919B0480FD17C081FD9E
:1011300017C082FD19C080919904811599F08832F9
:1011400098F428E0829FC001112468E270E00E94B8
:10115000AD286115710551F0862F089562E0FCCF2E
:1011600064E0FACF61E0F8CF68E0F6CF81E008955F
:1011700080914F04811559F0E0917704F091780443
:10118000309729F00190F081E02D0995089580E0D5
:101190000895A3E0B0E0EFECF8E00C947A289C010D
:1011A0008091DA019091DB0182179307A1F03093CF
:1011B000DB012093DA01E0917704F0917804309715
:1011C00051F083E089833B832A830084F185E02DFD
:1011D000CE01019609952396E2E00C949628A3E0AF
:1011E000B0E0E5EFF8E00C947A289C018091D801FA
:1011F0009091D90182179307A1F03093D9012093E0
:10120000D801E0917704F0917804309751F084E0B0
:1012100089833B832A830084F185E02DCE010196EA
:1012200009952396E2E00C94962890912A01911159
:1012300012C0AAE8B1E0EFEF90E02D91821751F0D3
:10124000EF3F19F4211101C0E92F9F5F9630A9F7F4
:10125000EF3FC9F408959091AA0497FFEACFE82FD1
:10126000E695E695E695803FA8F7F0E0E057FE4F5B
:10127000877021E030E001C0220F8A95EAF7828171
:10128000822B828308950E2E000CFF0BE857FE4F31
:10129000F8CF90912A01911521F09091AA0497FD21
:1012A0000CC0EAE8F1E09191891302C0DF011E92BF
:1012B00051E0E039F507B9F70895E82FE695E6958E
:1012C000E695803FC8F7F0E0E057FE4F877021E0D9
:1012D00030E0A90102C0440F551F8A95E2F7CA0108
:1012E000809592818923828308952FB7F894609125
:1012F00038047091390480913A0490913B042FBFD7
:101300000895CF92DF92EF92FF9280914F04811562
:1013100059F00E9475096B017C01C701B601FF906D
:10132000EF90DF90CF9008950E947509C09051040E
:10133000D0905204E0905304F0905404C60ED71E8F
:10134000E81EF91EEACF87E797E79093010880939C
:10135000000888E19AE00FB6F894A89580936000A1
:101360000FBE90936000FFCF8091D7010895FC01DC
:101370009B018091CD019091CE018617970740F097
:10138000672B29F48091E8008E778093E800C901EB
:1013900040E0009741F4411106C08091E80082FFCF
:1013A0002FC080E00895209133042115A9F1253044
:1013B000A9F12091E80023FD2DC02091E80022FD35
:1013C000ECCF2091E80020FFE4CF3091F300209192
:1013D000F200009719F02830310558F041E028302C
:1013E000310509F040E02091E8002E772093E800D5
:1013F000D0CF41914093F10001972F5F3F4FE9CF4C
:1014000080913304811541F0853041F08091E800EE
:1014100083FFC3CF81E0089582E0089583E00895BB
:101420008091C70187FF13C08091E80082FF06C04A
:101430008091E8008B778093E800089580913304D1
:101440008111F2CF0895809133048115D9F38091F1
:10145000E80080FFF8CF8091E8008E77ECCF2091F4
:10146000E4003091E50095E6A9012091EC00822F7F
:10147000817020FF06C08091E80080FF06C080E0F8
:1014800008952091E80022FD1AC08091330481154F
:1014900089F0853089F08091EB0085FD0FC02091A7
:1014A000E4003091E50042175307F9F29A95E1F60E
:1014B00084E0089582E0089583E0089581E008952E
:1014C000E8EDF0E080818E7F80831092E200109240
:1014D000DA001092E100A0EEB0E08C9181608C9374
:1014E00080818F77808319BCA7EDB0E08C918E7FCF
:1014F0008C9380818F7E80831092C6010895FC01B9
:10150000AC014B5F5F4F8FEF61E39191892728E03A
:1015100030E0982F990F87FF09C0892F8627215027
:101520003040B9F7E417F50781F70895892FF7CF11
:10153000982F9093E900891771F07091EC00209139
:10154000ED005091F00021FD09C09F5F973089F7B1
:101550008093E9000895762F242F50E03091EB001E
:101560003E7F3093EB003091ED003D7F3093ED00F6
:101570003091EB0031603093EB007093EC002093DE
:10158000ED005093F0002091EE0027FDDECF08958E
:10159000A0E0B0E0EEECFAE00C947428C8EDD0E0E6
:1015A00088818F7E8883E7EDF0E080818160808391
:1015B00084E082BF81E08093C60188818E7F88832A
:1015C00002EE10E0F80110821092DA0081EEC82ECF
:1015D000D12CF601108288818F778883888180687A
:1015E000888388818F7D888319BC10923304109280
:1015F000C5011092E9011092C40190EEE92EF12C80
:10160000F70180818B7F808388818160888342E0BD
:1016100060E080E00E94980AF60180818E7F8083DE
:10162000F801808181608083808188608083F701F8
:1016300080818E7F8083888180618883CDB7DEB78B
:10164000E8E00C949028E091AE049091AD0427E07E
:10165000E91302C080E00895AE2FB0E02E9FF001A4
:101660001124E155FB4F3181361306C03081381308
:1016700003C03581341304C0FD013196E770E8CF13
:1016800081E008950F931F93CF93DF938B01EA01BD
:1016900090913304943059F58093E9008FEF909145
:1016A000E80095FD06C095ED9A95F1F700008A9542
:1016B000B1F78091E80085FF1AC00E942F0A8111BE
:1016C00011C08091E80085FD06C08091E8008E770A
:1016D0008093E800F2CFF80181918F018093F100AF
:1016E000219779F78091E8008E778093E800DF9169
:1016F000CF911F910F910895CF93DF93D82FC92FCA
:1017000048E050E0682F792F81E00E94420B88E08A
:10171000ED2FFC2FAFECB1E001900D928A95E1F72F
:10172000DF91CF910895BC0140E250E084E00E9437
:10173000420B0895BC0146E050E084E00E94420B59
:101740000895BC0143E050E084E00E94420B0895FC
:10175000A0E0B0E0EEEAFBE00C947228182F092F0D
:10176000B62EA72E7A018091BA019AE0C92ED12C0B
:101770008A3018F0CC24C394D12CC1E0D0E06B2D7A
:101780007A2D812F902FF7010995811116C021968E
:10179000CC16DD0694F0CC9FC001CD9F900D900D2E
:1017A000112420E030E045E34A95F1F700002F5F77
:1017B0003F4F28173907B9F7E2CFCDB7DEB7EAE0D8
:1017C0000C948E289091AB0492FB222720F92817C5
:1017D00079F080FB92F99093AB046091AA04709128
:1017E000AB0484E090E00E94292982E00E94100668
:1017F00008951F93CF93DF93962F122F632F84307A
:10180000D8F49A30C8F44630B8F4C42FD0E0CC0FE6
:10181000DD1F2CE0929FC00DD11D112498E7899FF8
:10182000C00DD11D1124CE0189960E940B29612F74
:10183000CE018A960E940B29DF91CF911F910895C6
:10184000AF92BF92CF92DF92FF920F931F93CF93ED
:10185000DF93A12CB12CC0E06501D0E019C021E0DC
:1018600030E0C33021F0F801859195919C014F2D16
:101870006D2F8C2F0E94F90BF3940E5F1F4F86E0A3
:10188000F812EDCFDF5F86E0C80ED11CDA3039F0F8
:101890008601000F111F0D55184FF12CE0CFCF5FBF
:1018A0008CE3A80EB11CC430B9F6DF91CF911F9123
:1018B0000F91FF90DF90CF90BF90AF900895CF939E
:1018C000DF93C9E0D2E060E0CE010E940B292196AF
:1018D000C11584E0D807B9F7DF91CF910895CF9370
:1018E000C82F64E2811101C06FEF85E290E00E9491
:1018F0000B2967E0C11101C06FEF86E290E00E9402
:101900000B2960E2C11101C06FEF87E290E00E94F5
:101910000B29CF91089580E00E946F0C60E088E26F
:1019200090E00E940B290E94200C0E945F0C81E035
:101930000E946F0C08950F931F93CF93DF93843011
:1019400030F56A3020F5463010F5C42FD0E0CC0FCA
:10195000DD1F2CE0629FC00DD11D112438E7839F4D
:10196000C00DD11D1124CE0189960E94ED28082FAB
:1019700010E0102F0027CE018A960E94ED289801D2
:10198000282BC901DF91CF911F910F91089580E01D
:1019900090E0F8CF462F672F7A3038F4463028F49D
:1019A000843018F40E949B0C089580E090E0089524
:1019B000A0E0B0E0EEEDFCE00C9475287C01009115
:1019C000A8048091A704082BC3E0D0E010E0C80170
:1019D0000C2E02C0959587950A94E2F780FD09C008
:1019E0002197A8F7D12C8D2DCDB7DEB7E7E00C9469
:1019F0009128DC2EB7018C2F0E94CA0C0E94470749
:101A0000019771F3F0CF0F931F93CF93FC01858162
:101A100000811181811591F0611581F0C8010E944A
:101A2000D80CC82F682FC8010E947B05B8018C2FE5
:101A30000E94CA0CCF911F910F910895C8010E9476
:101A4000B105C82FF3CFCF93DF93D82FC92F0E94B2
:101A5000D80C6D2F7C2F0E94CA0C0E944707DF9183
:101A6000CF910895FC0184818115A1F0808191813D
:101A70000E94230D282F92959F70963099F060F464
:101A8000925F9F70923030F4203FB1F038F481E0E3
:101A9000283E38F080E008959A5FF3CF81E0243F3C
:101AA000C9F7089591E0213F09F090E081E0283ED8
:101AB00008F080E0892B089581E0089585E290E0A8
:101AC0000E94ED28843289F486E290E00E94ED289D
:101AD000873059F487E290E00E94ED2891E080324F
:101AE00009F090E0892F8170089580E0FCCF80910B
:101AF0002A01811559F18091AA0487FF27C00E940D
:101B000028068093910140E250E067E574E080E9A7
:101B100091E00E94D728892BC1F080E2E0E9F1E052
:101B2000A7E5B4E001900D928A95E1F7E091770482
:101B3000F0917804309749F086E08093900104801A
:101B4000F581E02D80E991E0099508950E9428062D
:101B50008093880148E050E069E774E088E891E00C
:101B60000E94D728892B89F388E0E8E8F1E0A9E70B
:101B7000B4E001900D928A95E1F7E0917704F0913D
:101B80007804309711F30280F381E02D88E891E02A
:101B9000DBCF811539F09091A404892B8093A404A4
:101BA0000E94770D0895811521F00E944F060E9432
:101BB000770D0895A8E0B0E0E0EEFDE00C947A28FF
:101BC00066EE7EEF80E090E00E94292960E082E0EE
:101BD00090E00E940B2981E08093A70461E083E0FC
:101BE00090E00E940B2960E074E184E090E00E94A4
:101BF000292960E086E090E00E940B2960E087E000
:101C000090E00E940B2940E050E0BA0188E090E0AB
:101C10000E941D2960E084E290E00E940B2960E0B0
:101C200087E190E00E940B2960E08CE090E00E9448
:101C30000B2960E08DE090E00E940B2919821A8246
:101C40001B821C821D821E821F82188648E050E083
:101C500068E170E0CE0101960E94FB2840E050E070
:101C6000BA0180E290E00E941D2980E00E946F0C82
:101C70000E948B0C40E050E0BA018FE090E00E949F
:101C80001D2940E050E0BA0183E190E00E941D2947
:101C90002896E2E00C949628A4E0B0E0E2E5FEE0AD
:101CA0000C947928409134045091350460913604A5
:101CB000709137042FB7F8948091380490913904CB
:101CC000A0913A04B0913B042FBF841B950BA60B47
:101CD000B70B11E084369105A105B10578F10E949A
:101CE0008109DC01CB010296A11DB11D89839A8374
:101CF000AB83BC838091230190912401845C9B4F32
:101D000020912201422F50E0253010F044E050E0B5
:101D1000BE016F5F7F4F0E94E42882E090E00E9446
:101D2000E227182F811551F00E9475096093340441
:101D3000709335048093360490933704812F249652
:101D4000E3E00C949528A6E0B0E0E9EAFEE00C940C
:101D50007728F62E072F80E090E00E94E227182FC8
:101D6000811509F469C080911501482F50E0811553
:101D700011F041E050E06091160170911701645C30
:101D80007B4FCE0106960E94E42840914B0450916F
:101D90004C0460914D0470914E042FB7F8948091DB
:101DA000380490913904A0913A04B0913B042FBFBC
:101DB000841B950BA60BB70B84369105A105B105C5
:101DC00038F48DE394E00E947F0A9E818917A1F187
:101DD00081E090E00E94E2278115C9F180911D0108
:101DE000482F50E0863010F045E050E060911E0131
:101DF00070911F01645C7B4FCE0101960E94E42824
:101E00008DE394E00E947F0A9E81891320C00E9486
:101E1000750960934B0470934C0480934D04909328
:101E20004E0485E0FE013196A6E4B4E001900D92E7
:101E30008A95E1F781E00CC085E0EDE3F4E0DE0196
:101E4000119601900D928A95E1F71111EACF80E089
:101E500095E0E6E4F4E0AF2DB02F01900D929A9555
:101E6000E1F72696E5E00C949328AB0124E630E0F8
:101E7000BC0188E70E94FE259C0181E0232B09F02C
:101E800080E0089580912304811569F080912004F9
:101E9000811549F062E070E08AEC91E00E94350F14
:101EA0008111109220040895809123048115F9F086
:101EB0000E947509DC01CB01805A9541AF4FBF4F9D
:101EC00080931C0490931D04A0931E04B0931F04E0
:101ED0008091200481110BC062E070E088EC91E0F9
:101EE0000E94350F811519F081E080932004089538
:101EF000CF93DF93682F81E06A3019F06D3031F4B1
:101F000080E00E94F80FDF91CF9108958091F50154
:101F10009091F60126E0FC01ADEBB1E001900D924D
:101F20002A95E1F7603E08F458C026E0FC011192C2
:101F30002A95E9F7C091F501D091F60146E050E00D
:101F4000BE018DEB91E00E94D7289E0128513240BE
:101F5000892B41F1C90145E0969587954A95E1F7AE
:101F600041E050E0BA0102C0660F771F8A95E2F7A0
:101F7000CB0160911A0470911B04862B972BB90139
:101F80006B5F7F4FE5E076956795EA95E1F702C0D4
:101F9000440F551F6A95E2F7842B952B90931B04F1
:101FA00080931A042A5F3F4F4091F701642F70E03D
:101FB000C9010E945628481B463010F4240F311DD9
:101FC000211572E0370710F020E030E0285E3D4F29
:101FD0003093F6012093F50196CFF6E06F9FB001A4
:101FE000112464537E4F46E050E00E94CE28A2CFD9
:101FF000CF93382FE091F501F091F601E851F240CE
:102000002091F701622F70E0CF010E945628281B13
:10201000822F311561F066E00E94A128C82FC150BF
:1020200010F4CF91089580E20E94780FF8CF8E0FC0
:102030009F2F911D811522E0920710F080E090E023
:10204000885E9D4F9093F6018093F501EACFCF9380
:10205000DF93EC01FE018491811106C081E00E94B2
:10206000F80FDF91CF9108950E94780F2196F2CF5B
:102070001F921FB61F9211248F939F93AF93BF930C
:102080008091E801811113C0809138049091390446
:10209000A0913A04B0913B044196A11DB11D8093DB
:1020A000380490933904A0933A04B0933B04BF9151
:1020B000AF919F918F911F901FBE1F9018952FB7C2
:1020C000F8948091380490913904A0913A04B09129
:1020D0003B042FBF08950E945F1020919E04309111
:1020E0009F04232B211521F080932604909327042D
:1020F0002091A0043091A104232B211521F080937D
:10210000240490932504E0917704F09178043097AB
:1021100049F082E080939C040680F781E02D8CE9F1
:1021200094E00995089520919E049091A104309126
:10213000A004611509F458C040919F04242B292B59
:10214000232B211531F098E090939A0491E090931D
:102150009904E3E3E80FE33150F4F0E0EF5BF64D70
:102160000C94C1280E947308819580939F040E945B
:102170006B1008950E947308F8CF0E947308819530
:1021800080939E04F4CF0E947308FACF0E949308B4
:102190008093A004ECCF0E9493088195F9CF0E9410
:1021A000930881958093A104E2CF0E949308FACF0F
:1021B000815D990B21E030E001C0220F8A95EAF79A
:1021C00080919D04822B80939D04D1CF80919B04AC
:1021D000816080939B04CBCF80919B048260F9CF78
:1021E00080919B048460F5CF8D3C59F480919F04CD
:1021F00087FF0DC010929F04211559F410929A0484
:1022000008C08E3C81F480919F0418169CF3211520
:1022100081F08091A0049091A104892B8111A7CF16
:1022200010929904A4CF8F3C41F427FFF0CF109275
:102230009E0480919F048115E0CF803D19F4121611
:10224000B4F3E5CF893D29F413160CF71092A004DE
:10225000DECF8A3D19F437FFDACFF8CF8B3D29F472
:1022600097FFD5CF1092A104D2CF8C3D19F4191647
:10227000CCF3CDCF9FE2980F983090F4815D990B0D
:1022800041E050E0BA0102C0660F771F8A95E2F77D
:10229000CB01809590919D04892380939D04B7CFB5
:1022A0008D3D31F480919B048E7F80939B04AFCF52
:1022B0008E3D21F480919B048D7FF7CF8F3D09F0F7
:1022C000A6CF80919B048B7FF0CFCF93C82F811531
:1022D000D9F08CEF8C0F813AA8F580912A018115F5
:1022E00021F08091AA0487FD11C0EAE8F1E080E9BD
:1022F00091E02191C21701F18E179F07D1F78C2F22
:102300000E9415090E94770DCF910895EC2FE69554
:10231000E695E695F0E0E057FE4F828190E04C2F85
:10232000477021E030E002C0220F331F4A95E2F7E8
:1023300082239323892B19F38C2F0E9449090E9431
:10234000770DDDCF80E28C0F883068F4C77081E0B4
:1023500090E001C0880FCA95EAF7C091A404C82B89
:10236000C093A404CFCF8BE58C0F833038F42C2F8F
:102370002452330BC9010E94C908C6CFE8E5EC0F0F
:10238000EB3150F4F0E0EE0FFF1FE15BFE4F808178
:1023900091810E94EF08B8CF83E38C0F833108F05E
:1023A000B3CF61E08C2F0E949310AECF811581F1E5
:1023B0009CEF980F913A28F40E9449090E94770DEA
:1023C000089590E2980F983050F4877091E001C022
:1023D000990F8A95EAF7892F0E944F06EFCF9BE568
:1023E000980F933028F480E090E00E94C908089587
:1023F00098E5980F9B3128F480E090E00E94EF0868
:10240000089593E3980F933118F460E00E949310BD
:1024100008950F931F93CF93C82F8B010E946511CE
:102420000115110539F48C2F0E94D611CF911F91FF
:102430000F9108958FE99FE00197F1F700C0000028
:1024400001501109EDCF1092A40480912A01811549
:1024500039F18091AA0487FF23C0E2E9F1E08EE11F
:10246000DF011D928A95E9F780E090E00E94C9089B
:1024700080E090E00E94EF081092AC040E94770D7B
:1024800086E0ECE9F4E0DF011D928A95E9F710920D
:102490009A041092990410929B040E946B10089564
:1024A000EAE8F1E086E0DCCF0E9423122FEF84E31C
:1024B0009CE0215080409040E1F700C0000088E19E
:1024C0009AE00FB6F894A895809360000FBE9093A1
:1024D0006000FFCFAAE2B0E0E0E7F2E10C947928D7
:1024E00087EC91E0FC0101962091F100208321E02E
:1024F0008F3C9207B9F78091C801893009F456C022
:10250000C8F4823009F4B3C0833009F482C081304A
:1025100071F18091E80083FFE7C08091C70190913D
:10252000C8019A3008F0E0C0E92FF0E0EC5AF64D0F
:102530000C94C1288A3009F489C08B3051F78091FE
:10254000C701813231F78091CB019091CC01892B69
:1025500001F78091E800877F8093E8000E94100ACD
:102560008091C90180932A010E942312D2CF8091C9
:10257000C701813A71F68091E800877F8093E80077
:102580008091CB019091CC01892B61F060E080E0DB
:1025900090E070E00E94B7098091E8008B7780930B
:1025A000E800B7CF68E08FEC91E0F3CF8091C701EE
:1025B000813209F0AECF8091CB019091CC018D7F1B
:1025C000892B09F0A6CF8091E800877F8093E800EF
:1025D0008091E80082FF18C09091F3008091F20092
:1025E000029731F48091F100813011F0863021F4AE
:1025F0008091F1008093D7018091E8008B778093E0
:10260000E8000E94100A85CF809133048111E0CF49
:1026100080CF8091C701813A09F07BCF8091CB01B7
:102620009091CC01892B09F074CF8091E800877FCD
:102630008093E8008091E80080FFFCCF80912A0120
:102640008093F1008091E8008E77D9CF8091C70107
:10265000813209F05ECF8091E800877F8093E800A7
:102660000E94100A8091CA018093C30152CF8091C9
:10267000C701813A09F04DCF8091E800877F8093B0
:10268000E8008091E80080FFFCCF8091C301D8CFA3
:10269000803889F0823841F58091CB018F70873086
:1026A00018F58093E9008091EB0085FB882780F97D
:1026B0001092E90006C08091E901880F9091C40151
:1026C000892B9091E800977F9093E8008093F10028
:1026D0001092F1008091E8008E7723C0811116C01E
:1026E0008091C901813011F18091E80083FF0AC017
:1026F0008091E800877F8093E8008091EB00806202
:102700008093EB00AA96E3E00C949528823061F761
:102710008091C901811589F01092E9008091E8004B
:10272000877F8093E8000E94100ADECF81E093301B
:1027300009F080E08093E901EFCF8091CB018F70A9
:102740002FEF280F263080F68093E9002091EB00D0
:1027500020FFE2CF933031F48091EB0080628093D0
:10276000EB00DACF9091EB0090619093EB0021E0C9
:1027700030E0A90102C0440F551F8A95E2F740934B
:10278000EA001092EA008091EB008860E8CF8111A6
:10279000ABCF1091C9011F778091E3008078812B26
:1027A0008093E3008091E800877F8093E8000E9497
:1027B000100A8091E80080FFFCCF8091E3008068E0
:1027C0008093E30083E0111101C082E08093330421
:1027D0008BCF8058823008F087CF8091C9019091CB
:1027E000CA018C3D53E0950799F583E08A838AE21C
:1027F00089834FB7F894DE01139620E03EE051E262
:10280000E32FF0E050935700849120FF03C082959E
:102810008F703F5F8F708A30C8F0895C90E08D9335
:102820009D932F5F243161F74FBF8091E800877F30
:102830008093E8006AE270E0CE0101960E94B70939
:102840008091E8008B778093E8004ECF805DE6CFE3
:10285000292F33272330310509F44DC078F5213075
:10286000310509F47CC08BE590E0ECE0F7E0223024
:10287000310509F039CF2091E800277F2093E80047
:102880002091CD013091CE018217930708F49C016D
:1028900040E02115310509F067C0411165C0809104
:1028A000E80082FDCDCF80913304811549F2853057
:1028B00039F28091E80083FFF2CFC2CF8091CB0143
:1028C0009091CC0121323105D9F12232310509F044
:1028D0000BCF8330910508F007CFFC01EE0FFF1FEF
:1028E000E25DFE4F0190F081E02D855D9E4FDC01A1
:1028F0008C9190E011C09C013327813089F0223007
:102900003105B1F0232B09F0EFCEEFE9F7E0E491C8
:102910008E2F90E0EFE9F7E0009709F4E5CEABCF1A
:10292000EFE8F7E0E4918E2F90E0EFE8F7E0F4CFE6
:10293000E9E7F7E0E4918E2F90E0E9E7F7E0ECCFEC
:102940008330910508F0D0CEFC01EE0FFF1FEC5C48
:10295000FE4F0190F081E02D89E090E08CCF82E184
:1029600090E0E7E6F7E087CF80913304811509F422
:1029700067CF853009F464CF8091E80083FD60CF94
:102980008091E80082FD8BCF8091E80080FF81CFAD
:102990009091F3008091F2002115310519F08830F3
:1029A000910550F041E0089709F040E08091E8007F
:1029B0008E778093E8006DCF44914093F10031967B
:1029C000215031090196E8CF803809F08DCE8091F1
:1029D000E800877F8093E8008091C5018093F10033
:1029E00079CE811181CE1091C901123008F07CCED0
:1029F0008091E800877F8093E8001093C5010E94D2
:102A0000100A1115D1F084E08093330442E061ECA8
:102A100081E00E94980A42E261EC84E00E94980AF8
:102A200042E261EC82E00E94980A42E260EC83E0BC
:102A30000E94980A8091330457CE8091E30087FD6D
:102A4000E2CF81E0E1CF9C014FB7F8948091380448
:102A500090913904A0913A04B0913B044FBF821B7E
:102A6000930B0895FF920F931F93CF93DF93C62F7D
:102A7000D42F122F8115A9F06093A2040E945F1039
:102A80009093BC018093BB01C77081E001C0880FA7
:102A9000CA95EAF70E94C90DCDB7DEB7E5E00C9400
:102AA00093288091A204681332C08091BB01909159
:102AB000BC010E942315883C910548F500E20D0FEA
:102AC000CD17A9F0C770FF24F3948F2D01C0880F94
:102AD000CA95EAF70E94D30D083048F48D2F87700D
:102AE00001C0FF0C8A95EAF78F2D0E94C90D60E0A6
:102AF00070E0812F0E940912083070F6D77081E0D3
:102B000001C0880FDA95EAF70E94D30DC5CFC770D0
:102B100081E001C0880FCA95EAF7F6CFA8E0B0E0DF
:102B2000E4E9F5E10C946A285C01FC0184818115DB
:102B300009F4AAC061E0C5010E94030D8C01F501F2
:102B40008581811509F441C1980137572038310535
:102B500008F0E3C4003108F087C08FEF93E00E94D3
:102B6000ED28811181C049E0E42E42E0F42E0111EC
:102B70004FC0CE0101964C0188E0F40111928A9574
:102B8000E9F73AE0332E87010F5F1F4FC7010E941C
:102B9000ED2889831A82811509F466C0813009F015
:102BA00077C06701F2E0CF0ED11CC8010E94ED286A
:102BB0008A83811509F458C09FEF980F9330B8F5B8
:102BC00023E0E20EF11CC6010E94ED288B838115E3
:102BD00009F44AC01C828401F8012081211599F270
:102BE000213009F096C08181813009F053C068011D
:102BF000F2E0CF0ED11CF801828160E5893309F043
:102C000060E070E00E94091286010F5F1F4FE4CF61
:102C1000E114F4E0FF0641F1C7010E94ED2897019D
:102C20002F5F3F4F79018111F3CF0150A0CF843046
:102C3000A1F402E010E0C6013FEFC31AD30A0E94DC
:102C4000ED28F401E00FF11F8083811569F08C37C6
:102C500031F4FE01E00FF11F12827601BCCF0F5F4D
:102C60001F4F0730110539F78091A904877081152E
:102C700059F0F5018581811539F08091AB0482FF0F
:102C800003C082E00E9410062896E2E10C94862898
:102C90007801A1CF823049F46801F2E0CF0ED11C57
:102CA000F80182810E946511AFCF833049F4680139
:102CB000F2E0CF0ED11CF80182810E94D611A4CF80
:102CC000843019F00F5F1F4FA0CF22810E5F1F4F7E
:102CD00080E090E0A8014F5F5F4F2053330B2A3014
:102CE000310558F0009709F490CFEFE9FFE03197F4
:102CF000F1F700C000000197F5CF389EB001399E72
:102D0000700D1124C901860F971FF80121818A01D6
:102D1000E1CFE22FF0E0E353F64F2490822F869527
:102D20008695869590E0FC01E354F64FE491277078
:102D3000F0E0022E02C0F595E7950A94E2F7E17003
:102D40004E2E5524FC01E355F64FE491F0E0022E9F
:102D500002C0F595E7950A94E2F7E1706E2E7724AC
:102D6000FC01E356F64FC490D12C02C0D594C79411
:102D70002A95E2F7C0FACC24DD24C0F841145104AE
:102D800019F081EE0E9465116114710419F086EE4C
:102D90000E94651160E070E0822D0E9409126114AA
:102DA000710419F086EE0E94D6114114510419F0F5
:102DB00081EE0E94D611C114D10409F426CF60E03F
:102DC00070E08CE20E94091220CFF801E851FC4724
:102DD000E730F10508F07CC3E25AF64D0C94C128A7
:102DE00026E241EE61EE0E9432153ECF27E245EE2B
:102DF00065EEF9CF26E241EE60EEF5CF27E245EE33
:102E000064EEF1CF26E241EE62EEEDCF27E245EE31
:102E100066EEE9CF28E241E0EBCF8091AA04816021
:102E20008093AA046091AA047091AB0484E090E0BE
:102E30000E9429290E94231217CF8091AB04886039
:102E40008093AB04EFCF8091AA048260E9CF809198
:102E5000AA048460E5CF8091AA048860E1CF8091C4
:102E6000AB048160EDCF8091AB048260E9CF8091AB
:102E7000AA048061D5CF8091AA048062D1CF8091CD
:102E8000AA048064CDCF0E9423128091AA04806896
:102E9000C7CF8091AA048C60C3CF8091AB048360BC
:102EA000CFCF8091AA048E7FBBCF8091AB04877F68
:102EB000C7CF8091AA048D7FB3CF8091AA048B7F66
:102EC000AFCF8091AA04877FABCF8091AB048E7F78
:102ED000B7CF8091AB048D7FB3CF8091AA048F7E52
:102EE0009FCF8091AA048F7D9BCF8091AA048F7B76
:102EF00097CF0E9423128091AA048F7791CF80915F
:102F0000AA04837F8DCF8091AB048C7F99CF809171
:102F1000AA04992782FF939590FB82F990FB83F98D
:102F20007FCF8091AB04982F909590FB80F990FB18
:102F300081F986CF9091AA04892F8F7B96FF8064B8
:102F40006FCF0E9423129091AA04892F97FB87F9D3
:102F5000805866CF61E08EE090E00E940B2962CF3E
:102F600060E0F9CF9091AA04892F8F7E94FF806151
:102F700057CF9091AA04892F8E7F90FF816050CF08
:102F80009091AB04892F877F93FF886059CF89E2A6
:102F9000BFC289E2A8C20737FCE71F0709F469C06E
:102FA00008372CE7120709F473C08115A9F00A3518
:102FB0003CE7130709F498C008F070C001309CE7A3
:102FC000190709F48FC00330ECE71E0709F484C029
:102FD00001151C4709F473C0F5018581E080F1807B
:102FE000811509F485C0C7010E94D80C182F682FDD
:102FF000C7010E947B05B701812F0E94CA0C0E9465
:1030000047078C01F501D580C680C2942FE0C2220B
:103010008091A9048770811501F1FD2CD114F1F084
:10302000812F807F803461F080E2800F8830A8F0AB
:10303000812F807E803221F4023078F0C11469F053
:103040008091AB0482FF09C082E00E94100680914B
:10305000A9048770FF24F3948111F12CE12FE295EC
:10306000EF70103C08F0AFC0F0E0EB59F64D0C9457
:10307000C128811549F081E00E945F0543E062E0CC
:1030800081E00E94E505F0CD81E00E946B05F6CF5E
:10309000811511F082E0F0CF82E0F7CF0B352CE7FD
:1030A000120721F18091AB04002482FF0394802D4C
:1030B0000C351C4709F090CF0E94E20B8DCF0E9487
:1030C00023128FEF94E3ECE081509040E040E1F771
:1030D00000C000000E94A3096FEF7FEF80E090E046
:1030E0000E9429290E94541281E0E6CF80E0E4CFBB
:1030F000C7010E94B105182F7ECFF12FFF70EF2E70
:10310000103118F0E29490EFE922D114B9F0E114F3
:1031100069F080E2800F883010F0011109C08091C1
:10312000A4048E298093A4040E94770D802F43C0AD
:103130008091AC048E298093AC04F6CF802F0E943E
:10314000D611E11409F43FC080E2800F883010F0FE
:10315000011104C08E2D0E944F0606C0E09480919C
:10316000AC048E218093AC040E94770D2CC0212FDB
:103170002F70E22E107F103219F0E29480EFE822D7
:10318000011549F0013009F46BC0D11409F477C07E
:10319000C114C9F1CBCF8091AB0482FD30C0D114F2
:1031A00069F0E11439F08091A4048E298093A4047D
:1031B0000E94770D80E00E94651105C080E00E94AA
:1031C000D611E110C7CFF114A9F08091A90480FDB8
:1031D00011C0F50115828695869586950E945F053A
:1031E000C5010E948E158091A904869586958695C5
:1031F0000E946B0560E0C5010E94030D45CDD1140E
:1032000099F0C11004C08E2D0E94C90DDCCF31E0B1
:10321000C312D9CF9091A5048E2D8923E81699F277
:103220009E299093A504CFCFC110CDCF8E2D0E94A3
:10323000D30D9091A5048E2D8923811529F08E2D13
:10324000809589238093A5048091A6049E2D9823C0
:10325000911509F4B8CFE094E822E092A604B3CF28
:10326000D11429F086E0C81608F0ADCFCCCF95E098
:10327000C91608F0A8CF8E2D0E94D30DA4CFC1147B
:10328000D1F3093349F4EFEFF7EE23E0E150F040DA
:103290002040E1F700C00000802F0E94D61193CF9C
:1032A000812F869586958370811561F0813009F0B4
:1032B0008ACFC8019370D11002C080E090E00E94D4
:1032C000EF0881CFC8019370D11002C080E090E078
:1032D0000E94C90878CF6D2D802F0E94931073CF64
:1032E000812F8370811134C0D11027C0402F4295A7
:1032F00046954770440F440F802F8F70042E01C0F5
:10330000880F0A94EAF7202F207104FF07C02FE0EE
:1033100030E001C0220F4A95EAF7209516951695E0
:103320001370123081F0133061F03091A704113026
:1033300039F0822B83230E9459050E94B80843CF9D
:10334000832B822BF8CF822B9091A7048927F3CF70
:10335000D11451F110FFF1CF402F4295469547709F
:10336000440F440F802F8F70042E01C0880F0A94E1
:10337000EAF7202F207104FF07C02FE030E001C0E2
:10338000220F4A95EAF7209516951695137012307C
:1033900089F0133069F03091A804113041F0822B8C
:1033A00083230E945C05C9CF8230B0F6C6CF832B41
:1033B000822BF7CF822B9091A8048927F2CF1F7020
:1033C000D11439F0812F0E945F05802F0E94C90D12
:1033D000B4CF802F0E94D30D812F0E946B05ADCFFB
:1033E000023F71F170F4003FC9F0013F91F0D11438
:1033F00009F45AC0C11409F454C0802F0E94651109
:103400009CCF033F21F1043F91F78091AB0482FDF3
:103410002AC0812F8F71D11401F316C0D11469F025
:1034200035E0C31608F089CF1F7181E090E0012ECE
:1034300001C0880F0A94EAF7BECF86E0C816F2CF23
:10344000812F8F71D110C9CF0E945F0576CF80E0A8
:10345000D11409F4A6CF1F7181E0012E01C0880F9D
:103460000A94EAF79ECFD11489F01F71812F0E9430
:103470005F058091AB0482FF07C0812F880F880F02
:10348000880F83608093A904812FDECF81E00E94A2
:10349000100692E0C91608F450CF82E00E94100690
:1034A0004CCF812F8F71D0CFC11479F0093349F4FB
:1034B000EFEFF7EE23E0E150F0402040E1F700C0ED
:1034C0000000802F0E94D61138CF812F8F7185CFB9
:1034D0000631FCE71F0709F05ECD8091A30481153A
:1034E00009F457CD85E30E94490914C006312CE741
:1034F000120709F050CD8091A4048A7A91E08111DD
:1035000001C090E09093A304811509F440CD85E3B8
:103510000E9415090E94770DA7CBF801E851FC47DE
:10352000E730F10508F458CC1092A2049801305706
:1035300023323105D8F684E090E00E94F52890937C
:10354000AB048093AA04F801E150F047E232F105A0
:1035500008F063CCEF58F64D0C94C1288091ED042F
:10356000803178F48091EC04811559F0E091AE043B
:103570002091AD043091E8044091E70457E02E1308
:1035800001C008956E2F70E05E9FF0011124DF01ED
:10359000A155BB4F14968C911497811561F111962A
:1035A0008C911197831327C08C91841324C0159696
:1035B0008C91159781111FC012968D919C91A091AD
:1035C000E904B091EA048A1B9B0B883C910598F4AE
:1035D0008091ED048F7080618093ED04EB54FB4F7C
:1035E00080818F708061808387EE94E00E948E15C9
:1035F0000E9406060895FB013196E770C0CFADE04A
:10360000B0E0E5E0FBE10C946E288C0186E0F80167
:10361000DE01189601900D928A95E1F7F801F58088
:10362000848197EE892E94E0992E6090EB046110CE
:1036300018C0811599F0F11409F415C1C8010E9450
:10364000320D811509F40FC187E0F801A7EEB4E04F
:1036500001900D928A95E1F70E94AE1AFF24F3942F
:1036600056C07080A280B380D090EC042091E90411
:103670003091EA04A501421B530BD11409F4C3C0D5
:10368000483C510508F079C0811541F38091E80468
:10369000C180E090ED0450E1E51608F059C0C81271
:1036A00015C08091E704871111C0F1104BC08E2D19
:1036B0008F7080618093ED0487EE94E00E948E15F8
:1036C0008091ED04F8018683F12C21C0F1103AC0FD
:1036D00040E06C2D872D0E94230B40E06C2D872D40
:1036E0000E94230BF82E8111EFCF888599850E94C7
:1036F000230D292F22952F70903470F49F70223063
:10370000A0F09115B1F0F8019681903190F48F2DD1
:103710002D96EEE00C948A282A5F2F70223068F0F4
:10372000C8010E948E15FD2CF2CF911511F0811564
:1037300071F3805E883058F3F3CF803F40F3815FB0
:103740008330F9CF8091ED0481608093ED04BCCF8C
:10375000C8123BC08091E704871137C0F11035C013
:10376000E682C8010E948E1587E0F801A7EEB4E05A
:1037700001900D928A95E1F771CFE090ED04F0E1B0
:10378000EF1650F487EE94E00E948E1587E0F40166
:1037900011928A95E9F798CF811509F45FCF90913E
:1037A000E804F8018181981310C08091E704871123
:1037B0000CC0F1100AC0E682C8010E948E1587E095
:1037C000F40111928A95E9F749CFC8010E94320DA0
:1037D000811509F448C0F11409F445C08091ED0445
:1037E000803208F431CF8091E7049091E8049A8305
:1037F0008983BC82AB826D821E82EF82CE010196EC
:103800000E948E1521CF483C510508F0BFCF81158D
:1038100009F424CFF11439F19091E80481819813CF
:1038200018C08091E704871114C08091ED0480FDD9
:103830009BCF803108F498CF8683807F803F09F446
:1038400090CF8681982F907F905F8F70892B868391
:1038500088CFC8010E94320D8111F6CE8091ED040F
:1038600081608093ED04C8010E948E15F7CEABE114
:10387000B0E0EDE3FCE10C9478284E8B5F8B688F11
:10388000798F8A8F192F9B8F91111092AC041D8A0A
:1038900086E0FE017696DE011F9601900D928A95D4
:1038A000E1F70A8D011539F00B8B1C8B61E0CE011D
:1038B0000F960E94030D0B8B1C8B87E0FE013F9639
:1038C000DE01189601900D928A95E1F7CE010896D7
:1038D0000E94FF1A811128C02091AD043091AE04DE
:1038E00087E0FE013896DE01119601900D928A95CF
:1038F000E1F78C858115C1F0822F90E001968770E9
:10390000992738171906D9F097E0929FD001112412
:10391000A155BB4FFE01319601900D929A95E1F7AA
:103920008093AD040E94060617E08091AE0490914A
:10393000AD04891312C06B96E4E00C9494280E94A5
:1039400023121092AD041092AE0487E0E7EEF4E08B
:10395000DF011D928A95E9F7E7CF189FC001112476
:1039600081559B4F0E94FF1A811529F38091AE0467
:1039700090E00196877099278093AE04D6CFA6E099
:10398000B0E0E5ECFCE10C9478280E945F108C011B
:1039900080915504909156048017910779F019820F
:1039A0001A820E945F10BC0149815A8180E090E038
:1039B0000E94371C10935604009355042696E4E0A9
:1039C0000C949428AFE0B0E0E8EEFCE10C946B2896
:1039D000FE0131968AE0DF011D928A95E9F78AE3BC
:1039E000E82E81E0F82E8F019FE3692E91E0792E79
:1039F0002F01AA24A394B12C35E4832E31E0932E19
:103A0000F70181917F018F3F09F43EC0F894E82FC0
:103A1000E295EF70F0E021A18F70A50102C0440F84
:103A2000551F8A95E2F7CA01922F982B91A392A174
:103A30008095892382A3789400C0EFE3F1E031E020
:103A4000312C21912F3F79F0A22FA295AF70A05E6B
:103A5000B0E08C9190E02F7002C0959587952A95E3
:103A6000E2F780FF75C080E0382A330F8E169F067C
:103A700041F7F70182918F3F11F00E944C0850EA04
:103A80005A95F1F7D8013C920F5F1F4F6E147F04D7
:103A900009F0B6CF4AE050E0B2018CED91E00E940F
:103AA000D7286C01892B41F08AE0F201ACEDB1E03E
:103AB00001900D928A95E1F70091E70110E0075D12
:103AC0001B4FC114D10409F445C081E08093B901B2
:103AD0000E945F109093B8018093B70180914F04CA
:103AE000811509F48DC07E01BBE0EB0EF11C85E071
:103AF000F70111928A95E9F78091BA018A3008F0AE
:103B00004BC043EA5EE0B701C8010E94A80B8115D3
:103B100009F464C04CE45EE0B701C8010E94A80B40
:103B2000811509F45BC01092BA018091E60190E022
:103B300045E050E0B701875D9B4F0E94D72821E008
:103B40002093B601892BE9F52F96E1E10C948728A3
:103B5000832F8ACF8091B901811509F4BFCF80915D
:103B6000B7019091B8010E942315059708F4B6CFCC
:103B700045E050E06CED71E0C8010E94D728892B28
:103B800041F085E0ECEDF1E0D80101900D928A95CD
:103B9000E1F71092B901A2CF8091B4019091B501E3
:103BA0000E942315843F914008F0ABCF8091B6016D
:103BB000811551F285E0D7011D928A95E9F710929F
:103BC000B601A091E601B0E0A75DBB4F85E0FE0124
:103BD0003B9601900D928A95E1F7B6CF8091BA019C
:103BE0008F3F39F40E945F109093B5018093B40128
:103BF000DDCF8F5F8093BA018A3008F496CFF2CF81
:103C000085E0F801ADE3B4E001900D928A95E1F70B
:103C10008DE394E00E947F0A80933C04C0904204AC
:103C2000D0904304E0904404F09045048091B001AA
:103C30009091B101A091B201B091B301C816D9061B
:103C4000EA06FB0609F480CFC092B001D092B10120
:103C5000E092B201F092B3010E947509C61AD70A28
:103C6000E80AF90AC0925104D0925204E092530437
:103C7000F092540469CFCDB7DEB7A3970FB6F8948E
:103C8000DEBF0FBECDBF85B7806885BF85B78068B2
:103C900085BF84B7877F84BF0FB6F894A8958091BD
:103CA0006000886180936000109260000FBE80E821
:103CB00090E00FB6F89480936100909361000FBE7E
:103CC0008AE498E090938701809386010E94600ABD
:103CD0000E94C80A8091E20084608093E200789498
:103CE00080913304811599F08091E9001091EC00E6
:103CF0008F70179511271795182B1092E900809156
:103D0000E80083FD0E946A121F701093E90082E0B0
:103D100084BD93E095BD9AEF97BD80936E0010929D
:103D200051041092520410925304109254040E94B1
:103D30005E0D811102C00E948B0C8091D8008061C1
:103D40008093D8002AE12A95F1F700C08091D9002C
:103D5000182F117080FD04C00E94600A1092330475
:103D600010934F0480E090E00E94F528863E9E4F1D
:103D700021F40E945E0D811102C00E94DA0D8EE0D6
:103D800090E00E94ED2891E0811101C090E09093B5
:103D900050049093000180914F0481110E94F426F9
:103DA000809100018091000190E0811101C095E0B7
:103DB0009093E70185E0891B8093E6010AE311E017
:103DC0007FE3E72E71E0F72ED8018D918D018F3FB3
:103DD00011F00E944C08E016F106B1F70FE311E074
:103DE00065E4E62E61E0F62EF80181918F018F3FA8
:103DF00011F00E944C08E016F106B1F78AE0E9E202
:103E0000F4E0DF01282F1D922A95E9F7ECEDF1E0AF
:103E1000DF011D928A95E9F780E090E00E94F52885
:103E2000863E9E4F21F40E945E0D811102C00E94C9
:103E3000DA0D82E090E00E94ED288093EA0184E0B0
:103E400090E00E94F5289093AB048093AA040E940E
:103E5000E21CEFEFF6E721E0E150F0402040E1F70F
:103E600000C000000E94E21C8091290480FF08C06D
:103E70006FEF7FEF80E090E00E9429290E94A30964
:103E800083E090E00E94ED280E9459058091500443
:103E900092E0980F811509F4B7C080E2909318045E
:103EA0008093F7010E9479256BE070E082E299E04F
:103EB0000E94350F811509F43FC08091180465E018
:103EC00070E081FDA3C08DE199E00E94350F81155E
:103ED00099F16DE070E08BE099E00E94350F81155B
:103EE00059F10E947509DC01CB01805A9541AF4F11
:103EF000BF4F80931C0490931D04A0931E04B093A5
:103F00001F04E8E1F2E080E092E0DF019C011D92F5
:103F100021503040E1F7F093F601E093F5018FEF87
:103F20009FEF90931B0480931A0481E080932304F5
:103F3000809320041092190480914F04811102C0D3
:103F40000E94F72681E091E09093780480937704B3
:103F500080913304853049F480913304853009F42D
:103F600058C00E9423120E94B8080E94E21C0BEE67
:103F700011E059E2E52E54E0F52ED701F8019191B8
:103F80008D9125EF31E02E173F0709F495C0981762
:103F9000B1F330904F04B12CD701AD907D01F80101
:103FA00071908F017A1439F17A24912C88248394AA
:103FB000872D88218115C1F03114B1F09982BA8220
:103FC0000E945F109C838B83F1E0FD8391E08A2D3A
:103FD0008821811101C090E09E8349815A816B81C3
:103FE0007C818D810E94371C9394880C26E092126C
:103FF000DFCFF801A292B3943AE0B312CDCF0E9482
:104000008109BB24B3945DC080E848CF88E199E082
:104010005CCF80913304843031F10E94420F1092C2
:10402000E80188E190E0A0E40FB6F894A8958093A9
:1040300060000FBEA093600083B7817F846083BF60
:1040400083B7816083BF7894889583B78E7F83BF61
:104050000FB6F894A8958091600088618093600005
:10406000109260000FBE8091E901811509F474CFB0
:104070000E94E21CE9E2F4E08191811105C0B4E004
:10408000E333FB07C9F768CF80E189BD82E189BDD1
:1040900009B400FEFDCF8091D8008F7D8093D800B9
:1040A0008091E00082608093E0008091E00081FDDB
:1040B000FCCF0E94231250CF98136BCF0E94BF1CDD
:1040C000B12C80912304811509F469C080912104E9
:1040D000909122040E942315C29708F440C00E94C8
:1040E0005F10909322048093210488E192E09093E2
:1040F000F6018093F50180915004811509F458C1AF
:1041000087E999E00E9427108091A8040E94460543
:10411000813009F447C1823009F447C1811104C0DC
:1041200083E999E00E9427100E94B808182F85E8BB
:1041300099E010FD02C080E899E00E9427108BE70B
:1041400099E011FD02C086E799E00E94271082E7FE
:1041500099E012FD02C08DE699E00E94271080913F
:104160001A0490911B04892B09F030C1809120041E
:104170008115A9F00E94750900911C0410911D047D
:1041800020911E0430911F04601B710B820B930B56
:104190006F3F7F4F8F4F9F4710F40E94420FB11027
:1041A0000E94540F86E0ECE9F4E0DE0111960190E4
:1041B0000D928A95E1F7B0909D04F0909E041091C5
:1041C0009F04E090A0040091A10410929E0410921C
:1041D0009F041092A0041092A104812F8F298115B1
:1041E00009F440C080912604909127040E94231571
:1041F0002C0180919A04811509F4D9C295E14916E0
:10420000510480F18F3F19F08F5F80939A04F1146D
:1042100059F00E94730891E01F140CF09FEF899FE2
:10422000802D112480939E04111559F00E9473086B
:1042300091E011160CF09FEF899F802D112480933F
:104240009F0480919E04811569F0A0909F04A114A1
:1042500049F00E94650880939E048A2D0E9465089B
:1042600080939F048E2D802B811509F440C080918E
:104270002404909125040E9423156C0180919904D7
:10428000811509F48EC2A1E5CA16D10480F18F3FD1
:1042900019F08F5F80939904E11459F00E949308FC
:1042A00091E01E140CF09FEF899F802D11248093C4
:1042B000A004011559F00E94930891E010160CF02B
:1042C0009FEF899F802D11248093A1048091A004E9
:1042D000811569F0E090A104E11449F00E9465089D
:1042E0008093A0048E2D0E9465088093A104809184
:1042F0009D048B1119C080919E04811511F08F11BE
:1043000013C020919F04211511F021130DC090912D
:10431000A104911511F0901307C03091A004311140
:1043200003C0822B892B81110E946B1086E0FE0155
:104330003196ACE9B4E001900D928A95E1F70E94C4
:10434000B80890912804891721F0809328040E94CE
:10435000750980913304843009F0FACD83E08093AD
:10436000E9008091E80082FFF3CD8091E80090E0C1
:1043700085FF06C00E942F0A811509F4FCC091E058
:104380008091E8008B778093E800911509F4E0CDE7
:10439000E981E150E33108F018C1F0E0ED56F64D47
:1043A0000C94C1288EE899E0BDCE89E899E0BACE98
:1043B000EDE2F9E084918F01811509F4D0CE0E94DD
:1043C000780F0F5F1F4FF8018491F6CF809123047F
:1043D000811509F4CBCE809119048111C7CE0E94BA
:1043E000540F20911A0430911B042115310509F452
:1043F000BDCE10E0812F90E0EE24E394F12C012E4D
:1044000002C0EE0CFF1C0A94E2F7A70142235323DB
:10441000452B11F41F5FEECF2091180420FF98C0A8
:10442000912F990F990F990F37E0390F80E023E012
:1044300090930D018093100130930E012093110190
:1044400024E630E047E050E06BE071E088E70E944E
:10445000AF25892B09F08ACEF0E21F9FA00111241D
:104460008091180480FF80C0E8EFF1E080E2DF0176
:104470001D928A95E9F7E9E4F1E0FBA3EAA305E4DC
:1044800011E097E0992EAAA1BBA16D91BBA3AAA3AD
:10449000F80181918F01840F952F911D9C01285E59
:1044A0003D4F1901E62FF0E0E850FE4F20E030E0EC
:1044B000892D821B89A3AA24A394022E01C0AA0CD1
:1044C0000A94EAF7310190E0D3018D913D018A21F0
:1044D00069A1691B677070E0B82F062E01C0BB0F81
:1044E0000A94EAF77195619571096770772701C0A1
:1044F00086956A95EAF78B2B6081682B60839F5FB6
:10450000983011F72F5F3F4F31962830310581F6F3
:10451000EAA1FBA1ED54F14009F0B5CF04E610E0AB
:1045200020E230E048EF51E060E488E70E9449264D
:10453000892B09F01BCEE094F09480911A0490919D
:104540001B048E219F2190931B0480931A040ECE8E
:104550009695879596958795282F912F9295990FE7
:1045600090763FE1390F64CF485E5D4F04E610E07E
:1045700020E230E0D9CF80E2E82EF12C8E010F5FEF
:104580001F4F8091E80085FD0AC08091E8008B777D
:104590008093E8000E942F0A811599F3F0CE809154
:1045A000F100F80181938F01F1E0EF1AF10849F76A
:1045B000E6CE1A828CE08B831AC08A81833049F15F
:1045C00038F4813061F08230D9F08FEF89830FC0E9
:1045D0008430D9F71B821C821D821E8208C00E9473
:1045E00075090E94C7286B837C838D839E8340E27C
:1045F00050E0BE016F5F7F4F82E00E94420BA8CC6B
:1046000088E290E00E94ED281B821C821D828E832E
:10461000EECF8B8190E0FE0134968A3091053CF715
:10462000DC01A75DBB4F2C9121930196F6CF8A81C7
:10463000823019F08530D9F2C8CF6B817C818D81B1
:104640009E810E94C72888E290E00E940B29CFCF6C
:104650004C816B818A810E949B0C9827892798271F
:104660009E838D83C4CF2D813E813227232732271D
:104670004C816B818A810E94F90BB9CF0E94200C7A
:10468000B6CF80E18A83B3CF81E08A8387EF93CF6F
:104690000A811B811027012710278C815801A80E41
:1046A000B11C7E0125E0E20EF11CA016B10609F452
:1046B0009ECF80E0073F31E0130728F4C801875FF1
:1046C0009D4F0E94ED28D7018D937D010F5F1F4FF5
:1046D000ECCF0A811B81102701271027FE0131969C
:1046E0007F018C815F01A80EB11CAE14BF0409F4D8
:1046F0007ECF073FF1E01F0740F4D70114966C917D
:10470000C801875F9D4F0E940B290F5F1F4FBFEFAE
:10471000EB1AFB0AEACF0E945F0C69CF84E0B2CFAC
:104720000A811B811027012710278C815801A80EB0
:10473000B11C7E01E5E0EE0EF11CA016B10609F4F5
:1047400056CF80E0003EF1E01F0720F4C8018996B3
:104750000E94ED28D7018D937D010F5F1F4FEDCF94
:104760000A811B81102701271027FE0131967F0146
:104770008C815F01A80EB11CEA14FB0409F437CF49
:10478000003EF1E01F0738F4D70114966C91C80180
:1047900089960E940B290F5F1F4FBFEFEB1AFB0A90
:1047A000EBCFEBE0CE16D10408F073CDA0CDFBE04B
:1047B0004F16510408F028CD55CD78941F921FB69E
:1047C0001F9211248F939F93AF93BF9380913804CE
:1047D00090913904A0913A04B0913B040196A11D37
:1047E000B11D8093380490933904A0933A04B09398
:1047F0003B04BF91AF919F918F911F901FBE1F905F
:1048000018951F920F920FB60F9211242F933F937A
:104810004F935F936F937F938F939F93AF93BF93C8
:10482000EF93FF938091E10082FF09C08091E20045
:1048300082FF05C08091E1008B7F8093E100809131
:10484000DA0080FF24C08091D80080FF20C08091D2
:10485000DA008E7F8093DA008091D90080FF9BC0C0
:1048600080E189BD82E189BD09B400FEFDCF81E010
:10487000809333048091C601811109C00E94600AAF
:104880000E94C80A8091E20084608093E2008091D7
:10489000E10080FF17C08091E20080FF13C080918B
:1048A000E2008E7F8093E2008091E200806180933D
:1048B000E2008091D80080628093D80019BC85E026
:1048C000809333048091E10084FF29C08091E2004D
:1048D00084FF25C080E189BD82E189BD09B400FE65
:1048E000FDCF8091D8008F7D8093D8008091E1002A
:1048F0008F7E8093E1008091E2008F7E8093E200C2
:104900008091E20081608093E2008091C501811571
:1049100009F447C084E0809333048091330480918C
:10492000E10083FF27C08091E20083FF23C08091D4
:10493000E100877F8093E10082E08093330410924E
:10494000C5018091E1008E7F8093E1008091E200BB
:104950008E7F8093E2008091E20080618093E2008C
:1049600042E060E080E00E94980A8091F000886058
:104970008093F000FF91EF91BF91AF919F918F9144
:104980007F916F915F914F913F912F910F900FBE4B
:104990000F901F90189519BC109233041092C60105
:1049A00076CF8091E30087FF02C083E0B4CF81E03F
:1049B000B2CF1F920F920FB60F921124EF92FF9277
:1049C0000F931F932F933F934F935F936F937F9317
:1049D0008F939F93AF93BF93CF93EF93FF9309EE82
:1049E00010E0F8018081C091EC008F70C795CC2752
:1049F000C795C82B108280EFE82EF12CF70180813B
:104A0000877F808378940E946A12F8011082F701F0
:104A1000808188608083CF70F801C083FF91EF911F
:104A2000CF91BF91AF919F918F917F916F915F9146
:104A30004F913F912F911F910F91FF90EF900F9009
:104A40000FBE0F901F901895FF920F931F93CF9357
:104A5000DF93182FEB011092BC0084EA8093BC0016
:104A60000E945F10082FF92E8091BC0087FF28C09C
:104A70008091B900887F883029F08091B900887FC3
:104A80008031A1F51093BB0084E88093BC000E94A4
:104A90005F10182F092F8091BC0087FF1FC0209145
:104AA000B900287F80E090E0283199F081E090E023
:104AB000203411F480E090E091958195910909C02E
:104AC000802F9F2D0E942315C817D90768F68EEFF7
:104AD0009FEFCDB7DEB7E5E00C949328812F902FA0
:104AE0000E942315C817D907B0F6F1CF8FEF9FEFBB
:104AF000F0CF1092B9008CE08093B80008950F9326
:104B00001F93CF93DF93EB018093BB0084E88093E6
:104B1000BC000E945F10182F092F8091BC0087FFF6
:104B200011C02091B900287F81E090E0283211F473
:104B300080E090E0919581959109DF91CF911F914F
:104B40000F910895CF3FDC0741F3812F902F0E94F2
:104B50002315C817D90708F78EEF9FEFEECFA0E017
:104B6000B0E0E5EBF5E20C946F28782EB62EA72E78
:104B70006A01E9010E945F104C01C431D10528F19E
:104B8000CF3FDC0731F1CE0164E170E00E9456288E
:104B9000F62EE72E6F2D7E2D872D0E9424258C0169
:104BA000892BD1F4EB2CFA2CCE0CDF1CEC14FD0479
:104BB00019F001151105D1F084E98093BC00C801FA
:104BC000CDB7DEB7EDE00C948B28FF24F394E12CF5
:104BD000E1CF85E0F82EFBCFCF3FDC07D9F2C4014F
:104BE0000E942315C817D907A8F6DCCFBE01F7012C
:104BF00081917F010E947F258C01D8CFA0E0B0E099
:104C0000E4E0F6E20C946F28782EB62EA72E6A0107
:104C100089010E945F104C010431110518F10F3F0A
:104C2000100719F1C80164E170E00E945628EB01F9
:104C3000BE01872D0E9424257C01892BC1F4CB2D38
:104C4000DA2DCC0EDD1ECC15DD0519F0E114F104D2
:104C5000C1F084E98093BC00C701CDB7DEB7EDE0B9
:104C60000C948B28C1E0D0E0E3CFC5E0FCCF0F3F30
:104C70001007F1F2C4010E94231508171907C0F6A6
:104C8000DECFFE018491B8010E947F257C01219630
:104C9000DACFA0E0B0E0EFE4F6E20C946E28682EE4
:104CA000962E5A01690178010E945F10782E892E94
:104CB0000431110530F10F3F100731F1C80164E1F3
:104CC00070E00E945628162F072F612F702F862D17
:104CD0000E942425EC01892BC9F0FFEFEF16FF0697
:104CE000A1F3872D982D0E942315E816F90668F781
:104CF00084E98093BC00CE01CDB7DEB7EEE00C9422
:104D00008A2811E000E0E1CF15E0FCCFB701892D42
:104D10000E947F25EC018501CA0CDB1C0C151D05CA
:104D200039F3209729F7B701F80181918F010E948B
:104D30007F25EC01F3CF8EE14A9B02C08A95E1F713
:104D40004A9BFECF08955A9880E28A95F1F75A9AC5
:104D50000895FC013BE03A95F1F798E020E080E00F
:104D600031E040E14A95F1F7880F4A9B02C081602B
:104D7000232742E04A95F1F7000040E14A95F1F718
:104D80009A9579F790E19A95F1F799B132E03A95D1
:104D9000F1F7000040E14A95F1F792FB992790F96D
:104DA00092272081920F90830895A1E0B0E0EBED6F
:104DB000F6E20C94762819828C017C01E60EF11C37
:104DC0000E949B26CE0101960E94A926F80181939C
:104DD0008F01EE15FF05A1F781E09981911180E027
:104DE0002196E6E00C949228529A5A9A0895529885
:104DF0005A9AEA9AE9E6F0E080818F7C80830895F0
:104E00006150770B91E001C0990F6A95EAF7692F1D
:104E100090E021E0611108C0911599F05A9A80E262
:104E20008A95F1F75A980895362F3823311539F0BD
:104E30005A9A922730E23A95F1F76695EBCF5A9855
:104E4000F9CF5A98ECCFFF920F931F93CF93DF9334
:104E5000EC018C01060F111DF9900E94A32668E059
:104E60008F2D0E940027C017D107B1F7CDB7DEB74D
:104E7000E5E00C9493281F920F920FB60F92112425
:104E80000F931F932F933F934F935F936F937F9352
:104E90008F939F93AF93BF93EF93FF93CF93DF9342
:104EA0000F92CDB7DEB719820E949B26CE010196E4
:104EB0000E94A926082F069506950695982F92958B
:104EC0009570202F2570920F292F23709695969517
:104ED000920F982797708981892B811509F05CC002
:104EE000043008F059C080E18A95F1F75A9A529A35
:104EF00082E08A95F1F700C05A9888E0089F800107
:104F00001124D801AE5EBE4F1696ED91FC91179715
:104F10003097A9F060914D0170914E0114962D913A
:104F20003C911597260F371F11968D919C911297E2
:104F3000680F791F13964C9113978C910995F8017E
:104F4000EE5EFE4F6381611551F020914D0130916D
:104F50004E0184819581820F931F0E9423270E9416
:104F6000A32680E18A95F1F75A9852985A9A80E1DF
:104F70008A95F1F7F801EE5EFE4F6081611551F000
:104F800020914D0130914E0181819281820F931FBA
:104F90000E94D5260E949B260F90DF91CF91FF9112
:104FA000EF91BF91AF919F918F917F916F915F91A1
:104FB0004F913F912F911F910F910F900FBE0F9026
:104FC0001F9018950F931F93CF93DF938C01049735
:104FD0000CF064C0F894529A5A9885E08A95F1F7DB
:104FE0000000C02FC695C570802F8570C80F8C2F0C
:104FF0008370C695C69593E0000F111F9A95E1F74F
:10500000C80FC8018C2BEC010E94A32600C068E0E9
:105010008C2F0E94002790E19A95F1F752985A9AA6
:105020004A9B35C087E090E04A9933C0F801EE5EB4
:10503000FE4F6381611561F020914D0130914E0169
:1050400084819581820F931F0E94D526811519F1C5
:105050000E949B2680E28A95F1F75A98529A90E135
:105060009A95F1F7F801EE5EFE4F6081611551F0FF
:1050700020914D0130914E0181819281820F931FC9
:105080000E9423270E94A326789481E008C000C0D4
:10509000C7CF019749F4529A5A9A789480E0DF91E9
:1050A000CF911F910F91089500C0BECFAA1BBB1BCB
:1050B00051E107C0AA1FBB1FA617B70710F0A61B18
:1050C000B70B881F991F5A95A9F780959095BC0139
:1050D000CD0108952F923F924F925F926F927F92EF
:1050E0008F929F92AF92BF92CF92DF92EF92FF92F8
:1050F0000F931F93CF93DF93CDB7DEB7CA1BDB0BA4
:105100000FB6F894DEBF0FBECDBF09942A88398848
:1051100048885F846E847D848C849B84AA84B9844F
:10512000C884DF80EE80FD800C811B81AA81B9815B
:10513000CE0FD11D0FB6F894DEBF0FBECDBFED016F
:105140000895992778E0880F991F961708F0961B05
:10515000881F7A95C9F78095089597FB072E16F456
:10516000009407D077FD09D00E94562807FC05D08F
:105170003EF4909581959F4F0895709561957F4F6E
:105180000895EE0FFF1F0590F491E02D0994692713
:10519000962769277827872778270895FB01DC0160
:1051A00002C005900D9241505040D8F70895FB0180
:1051B000DC0104C08D910190801921F441505040D0
:1051C000C8F7881B990B0895FB01DC0102C0019010
:1051D0000D9241505040D8F70895F999FECF92BDF5
:1051E00081BDF89A992780B50895A8E1B0E042E022
:1051F00050E00C943129DC01A40FB51F4150504000
:1052000048F0CB01840F951F2E910E940C2941502C
:105210005040D0F70895262FF999FECF92BD81BD59
:10522000F89A019700B4021639F01FBA20BD0FB6E4
:10523000F894FA9AF99A0FBE08950396272F0E94C0
:105240000C290E940B29252F0E940C29242F0C9435
:105250000C290196272F0E940C290C940B29DC01A4
:10526000CB01FC01F999FECF06C0F2BDE1BDF89A71
:10527000319600B40D9241505040B8F70895F8941B
:10528000FFCFB210BA10BD10C310D810D810D8106C
:10529000D810D810D810D810D810C610CB10CF10F6
:1052A000D510E610EC10F01048136E1374136E1343
:1052B0007413C713E9137413E414F114FA16FE16E9
:1052C000F016F616021706170A177D187D18B7187C
:1052D000B71850196B19E318E3187019DF19F01992
:1052E000F0195117B9175917231727175D172B17DF
:1052F00061176D173717B2173B1771173F177517DF
:105300009A1743177917A11749177F1787172F1770
:105310006517331769174D1783179117AA17B01719
:105320001D175517C017D922DD2217232823332331
:105330003E23E522E522E522E522E522412344231E
:0C534000482369238B238E239023B02385
:10534C0001B4097C0B930B9A0BA10B0021007F225B
:10535C000003000000010000000000000005010037
:10536C0000000406000000000000014422B6840185
:10537C006201AC001E0737075707F4F5F6363234D6
:10538C00356697C69400081018181008003C04E203
:10539C0000E900EA00B500B600B700CD008301CCEF
:1053AC00008A019201940121022302240225022683
:1053BC000227022A02B300B4006F0070009F01CBD9
:0653CC00019F02A0020097
:00000001FF
